{
  "_format": "hh-sol-artifact-1",
  "contractName": "Exchange",
  "sourceName": "contracts/Exchange.sol",
  "abi": [
    {
      "anonymous": false,
      "inputs": [
        {
          "indexed": false,
          "internalType": "address",
          "name": "accountBalance",
          "type": "address"
        }
      ],
      "name": "AccountBalanceChanged",
      "type": "event"
    },
    {
      "anonymous": false,
      "inputs": [
        {
          "indexed": true,
          "internalType": "address",
          "name": "clearingHouse",
          "type": "address"
        }
      ],
      "name": "ClearingHouseChanged",
      "type": "event"
    },
    {
      "anonymous": false,
      "inputs": [
        {
          "indexed": true,
          "internalType": "address",
          "name": "baseToken",
          "type": "address"
        },
        {
          "indexed": false,
          "internalType": "uint256",
          "name": "markTwap",
          "type": "uint256"
        },
        {
          "indexed": false,
          "internalType": "uint256",
          "name": "indexTwap",
          "type": "uint256"
        }
      ],
      "name": "FundingUpdated",
      "type": "event"
    },
    {
      "anonymous": false,
      "inputs": [
        {
          "indexed": true,
          "internalType": "address",
          "name": "baseToken",
          "type": "address"
        },
        {
          "indexed": false,
          "internalType": "uint24",
          "name": "maxTickCrossedWithinBlock",
          "type": "uint24"
        }
      ],
      "name": "MaxTickCrossedWithinBlockChanged",
      "type": "event"
    },
    {
      "anonymous": false,
      "inputs": [
        {
          "indexed": true,
          "internalType": "address",
          "name": "previousOwner",
          "type": "address"
        },
        {
          "indexed": true,
          "internalType": "address",
          "name": "newOwner",
          "type": "address"
        }
      ],
      "name": "OwnershipTransferred",
      "type": "event"
    },
    {
      "inputs": [],
      "name": "candidate",
      "outputs": [
        {
          "internalType": "address",
          "name": "",
          "type": "address"
        }
      ],
      "stateMutability": "view",
      "type": "function"
    },
    {
      "inputs": [],
      "name": "getAccountBalance",
      "outputs": [
        {
          "internalType": "address",
          "name": "",
          "type": "address"
        }
      ],
      "stateMutability": "view",
      "type": "function"
    },
    {
      "inputs": [
        {
          "internalType": "address",
          "name": "trader",
          "type": "address"
        }
      ],
      "name": "getAllPendingFundingPayment",
      "outputs": [
        {
          "internalType": "int256",
          "name": "pendingFundingPayment",
          "type": "int256"
        }
      ],
      "stateMutability": "view",
      "type": "function"
    },
    {
      "inputs": [],
      "name": "getClearingHouse",
      "outputs": [
        {
          "internalType": "address",
          "name": "",
          "type": "address"
        }
      ],
      "stateMutability": "view",
      "type": "function"
    },
    {
      "inputs": [],
      "name": "getClearingHouseConfig",
      "outputs": [
        {
          "internalType": "address",
          "name": "",
          "type": "address"
        }
      ],
      "stateMutability": "view",
      "type": "function"
    },
    {
      "inputs": [],
      "name": "getMarketRegistry",
      "outputs": [
        {
          "internalType": "address",
          "name": "",
          "type": "address"
        }
      ],
      "stateMutability": "view",
      "type": "function"
    },
    {
      "inputs": [
        {
          "internalType": "address",
          "name": "baseToken",
          "type": "address"
        }
      ],
      "name": "getMaxTickCrossedWithinBlock",
      "outputs": [
        {
          "internalType": "uint24",
          "name": "",
          "type": "uint24"
        }
      ],
      "stateMutability": "view",
      "type": "function"
    },
    {
      "inputs": [],
      "name": "getOrderBook",
      "outputs": [
        {
          "internalType": "address",
          "name": "",
          "type": "address"
        }
      ],
      "stateMutability": "view",
      "type": "function"
    },
    {
      "inputs": [
        {
          "internalType": "address",
          "name": "trader",
          "type": "address"
        },
        {
          "internalType": "address",
          "name": "baseToken",
          "type": "address"
        }
      ],
      "name": "getPendingFundingPayment",
      "outputs": [
        {
          "internalType": "int256",
          "name": "",
          "type": "int256"
        }
      ],
      "stateMutability": "view",
      "type": "function"
    },
    {
      "inputs": [
        {
          "components": [
            {
              "internalType": "address",
              "name": "trader",
              "type": "address"
            },
            {
              "internalType": "address",
              "name": "baseToken",
              "type": "address"
            },
            {
              "internalType": "int256",
              "name": "base",
              "type": "int256"
            },
            {
              "internalType": "int256",
              "name": "quote",
              "type": "int256"
            }
          ],
          "internalType": "struct IExchange.RealizePnlParams",
          "name": "params",
          "type": "tuple"
        }
      ],
      "name": "getPnlToBeRealized",
      "outputs": [
        {
          "internalType": "int256",
          "name": "",
          "type": "int256"
        }
      ],
      "stateMutability": "view",
      "type": "function"
    },
    {
      "inputs": [
        {
          "internalType": "address",
          "name": "baseToken",
          "type": "address"
        },
        {
          "internalType": "uint32",
          "name": "twapInterval",
          "type": "uint32"
        }
      ],
      "name": "getSqrtMarkTwapX96",
      "outputs": [
        {
          "internalType": "uint160",
          "name": "",
          "type": "uint160"
        }
      ],
      "stateMutability": "view",
      "type": "function"
    },
    {
      "inputs": [
        {
          "internalType": "address",
          "name": "marketRegistryArg",
          "type": "address"
        },
        {
          "internalType": "address",
          "name": "orderBookArg",
          "type": "address"
        },
        {
          "internalType": "address",
          "name": "clearingHouseConfigArg",
          "type": "address"
        }
      ],
      "name": "initialize",
      "outputs": [],
      "stateMutability": "nonpayable",
      "type": "function"
    },
    {
      "inputs": [
        {
          "internalType": "address",
          "name": "baseToken",
          "type": "address"
        }
      ],
      "name": "isOverPriceSpread",
      "outputs": [
        {
          "internalType": "bool",
          "name": "",
          "type": "bool"
        }
      ],
      "stateMutability": "view",
      "type": "function"
    },
    {
      "inputs": [],
      "name": "owner",
      "outputs": [
        {
          "internalType": "address",
          "name": "",
          "type": "address"
        }
      ],
      "stateMutability": "view",
      "type": "function"
    },
    {
      "inputs": [],
      "name": "renounceOwnership",
      "outputs": [],
      "stateMutability": "nonpayable",
      "type": "function"
    },
    {
      "inputs": [
        {
          "internalType": "address",
          "name": "accountBalanceArg",
          "type": "address"
        }
      ],
      "name": "setAccountBalance",
      "outputs": [],
      "stateMutability": "nonpayable",
      "type": "function"
    },
    {
      "inputs": [
        {
          "internalType": "address",
          "name": "clearingHouseArg",
          "type": "address"
        }
      ],
      "name": "setClearingHouse",
      "outputs": [],
      "stateMutability": "nonpayable",
      "type": "function"
    },
    {
      "inputs": [
        {
          "internalType": "address",
          "name": "baseToken",
          "type": "address"
        },
        {
          "internalType": "uint24",
          "name": "maxTickCrossedWithinBlock",
          "type": "uint24"
        }
      ],
      "name": "setMaxTickCrossedWithinBlock",
      "outputs": [],
      "stateMutability": "nonpayable",
      "type": "function"
    },
    {
      "inputs": [
        {
          "internalType": "address",
          "name": "newOwner",
          "type": "address"
        }
      ],
      "name": "setOwner",
      "outputs": [],
      "stateMutability": "nonpayable",
      "type": "function"
    },
    {
      "inputs": [
        {
          "internalType": "address",
          "name": "trader",
          "type": "address"
        },
        {
          "internalType": "address",
          "name": "baseToken",
          "type": "address"
        }
      ],
      "name": "settleFunding",
      "outputs": [
        {
          "internalType": "int256",
          "name": "fundingPayment",
          "type": "int256"
        },
        {
          "components": [
            {
              "internalType": "int256",
              "name": "twPremiumX96",
              "type": "int256"
            },
            {
              "internalType": "int256",
              "name": "twPremiumDivBySqrtPriceX96",
              "type": "int256"
            }
          ],
          "internalType": "struct Funding.Growth",
          "name": "fundingGrowthGlobal",
          "type": "tuple"
        }
      ],
      "stateMutability": "nonpayable",
      "type": "function"
    },
    {
      "inputs": [
        {
          "components": [
            {
              "internalType": "address",
              "name": "trader",
              "type": "address"
            },
            {
              "internalType": "address",
              "name": "baseToken",
              "type": "address"
            },
            {
              "internalType": "bool",
              "name": "isBaseToQuote",
              "type": "bool"
            },
            {
              "internalType": "bool",
              "name": "isExactInput",
              "type": "bool"
            },
            {
              "internalType": "bool",
              "name": "isClose",
              "type": "bool"
            },
            {
              "internalType": "uint256",
              "name": "amount",
              "type": "uint256"
            },
            {
              "internalType": "uint160",
              "name": "sqrtPriceLimitX96",
              "type": "uint160"
            }
          ],
          "internalType": "struct IExchange.SwapParams",
          "name": "params",
          "type": "tuple"
        }
      ],
      "name": "swap",
      "outputs": [
        {
          "components": [
            {
              "internalType": "uint256",
              "name": "base",
              "type": "uint256"
            },
            {
              "internalType": "uint256",
              "name": "quote",
              "type": "uint256"
            },
            {
              "internalType": "int256",
              "name": "exchangedPositionSize",
              "type": "int256"
            },
            {
              "internalType": "int256",
              "name": "exchangedPositionNotional",
              "type": "int256"
            },
            {
              "internalType": "uint256",
              "name": "fee",
              "type": "uint256"
            },
            {
              "internalType": "uint256",
              "name": "insuranceFundFee",
              "type": "uint256"
            },
            {
              "internalType": "int256",
              "name": "pnlToBeRealized",
              "type": "int256"
            },
            {
              "internalType": "uint256",
              "name": "sqrtPriceAfterX96",
              "type": "uint256"
            },
            {
              "internalType": "int24",
              "name": "tick",
              "type": "int24"
            },
            {
              "internalType": "bool",
              "name": "isPartialClose",
              "type": "bool"
            }
          ],
          "internalType": "struct IExchange.SwapResponse",
          "name": "",
          "type": "tuple"
        }
      ],
      "stateMutability": "nonpayable",
      "type": "function"
    },
    {
      "inputs": [
        {
          "internalType": "int256",
          "name": "amount0Delta",
          "type": "int256"
        },
        {
          "internalType": "int256",
          "name": "amount1Delta",
          "type": "int256"
        },
        {
          "internalType": "bytes",
          "name": "data",
          "type": "bytes"
        }
      ],
      "name": "uniswapV3SwapCallback",
      "outputs": [],
      "stateMutability": "nonpayable",
      "type": "function"
    },
    {
      "inputs": [],
      "name": "updateOwner",
      "outputs": [],
      "stateMutability": "nonpayable",
      "type": "function"
    }
  ],
  "bytecode": "0x608060405234801561001057600080fd5b50614ba0806100206000396000f3fe608060405234801561001057600080fd5b506004361061014d5760003560e01c806380f57f11116100c3578063c0c53b8b1161007c578063c0c53b8b14610295578063c575ff79146102a8578063c66b8ed2146102b0578063cb379aa2146102b8578063fa461e33146102cb578063ff818011146102de5761014d565b806380f57f111461024f5780638da5cb5b1461026257806399e4a7711461026a578063aa2a82941461027d578063b248c4ef14610285578063bc5920ba1461028d5761014d565b80634314ca1c116101155780634314ca1c146101e4578063449323d8146102045780635eb8a4e6146102175780636896fabf1461022a5780636c8381f81461023f578063715018a6146102475761014d565b80631393a4691461015257806313af40351461017b578063199387cc146101905780631e81ac33146101a357806329386b7b146101c4575b600080fd5b610165610160366004614257565b6102fe565b60405161017291906145d5565b60405180910390f35b61018e610189366004613e42565b610424565b005b61018e61019e366004613e42565b61057f565b6101b66101b1366004613e7a565b610661565b60405161017292919061461b565b6101d76101d2366004613e42565b610aeb565b6040516101729190614963565b6101f76101f236600461431d565b610b0b565b60405161017291906148e0565b61018e610212366004613e42565b610fcd565b61018e610225366004613efc565b611074565b610232611231565b60405161017291906144ae565b610232611240565b61018e61124f565b61016561025d366004613e42565b6112f0565b6102326113c2565b610232610278366004613f29565b6113d1565b610232611467565b610232611476565b61018e611485565b61018e6102a3366004613eb2565b611571565b6102326116b3565b6102326116c2565b6101656102c6366004613e7a565b6116d1565b61018e6102d936600461410c565b611888565b6102f16102ec366004613e42565b611a28565b60405161017291906145ca565b60ce54815160208301516040516331997f7b60e11b815260009384936001600160a01b0390911692636332fef69261033a9291906004016144c2565b60606040518083038186803b15801561035257600080fd5b505afa158015610366573d6000803e3d6000fd5b505050506040513d601f19601f8201168201806040525081019061038a9190614186565b6020810151815191925090600081156103b05760408601516000808412911214156103b3565b60005b9050806103c1576000610418565b6104186040518060c0016040528088600001516001600160a01b0316815260200188602001516001600160a01b03168152602001848152602001858152602001886040015181526020018860600151815250611b90565b9450505050505b919050565b61042c611c45565b6001600160a01b031661043d6113c2565b6001600160a01b031614610481576040805162461bcd60e51b8152602060048201526006602482015265534f5f434e4f60d01b604482015290519081900360640190fd5b6001600160a01b0381166104c5576040805162461bcd60e51b81526020600482015260066024820152650534f5f4e57360d41b604482015290519081900360640190fd5b6033546001600160a01b0382811691161415610511576040805162461bcd60e51b8152602060048201526006602482015265534f5f53414f60d01b604482015290519081900360640190fd5b6034546001600160a01b038281169116141561055d576040805162461bcd60e51b8152602060048201526006602482015265534f5f53414360d01b604482015290519081900360640190fd5b603480546001600160a01b0319166001600160a01b0392909216919091179055565b610587611c45565b6001600160a01b03166105986113c2565b6001600160a01b0316146105dc576040805162461bcd60e51b8152602060048201526006602482015265534f5f434e4f60d01b604482015290519081900360640190fd5b6001600160a01b03811661060b5760405162461bcd60e51b8152600401610602906146d7565b60405180910390fd5b60ce80546001600160a01b0319166001600160a01b0383161790556040517f2b28168781da733c8a034f84683b9c955f156de5e07e24920b1348f51445d3e6906106569083906144ae565b60405180910390a150565b600061066b613ce1565b610673611c49565b609a54604051631246dbf560e01b81526001600160a01b0390911690631246dbf5906106a39086906004016144ae565b60206040518083038186803b1580156106bb57600080fd5b505afa1580156106cf573d6000803e3d6000fd5b505050506040513d601f19601f820116820180604052508101906106f391906140b5565b61070f5760405162461bcd60e51b815260040161060290614651565b826001600160a01b0316631d1a111a60cf60009054906101000a90046001600160a01b03166001600160a01b0316633e742e3b6040518163ffffffff1660e01b815260040160206040518083038186803b15801561076c57600080fd5b505afa158015610780573d6000803e3d6000fd5b505050506040513d601f19601f820116820180604052508101906107a4919061446d565b6040518263ffffffff1660e01b81526004016107c09190614981565b600060405180830381600087803b1580156107da57600080fd5b505af19250505080156107eb575060015b506000806107f885611c85565b60ce546040516359deb70960e11b8152939650919450925061091691889188916001600160a01b039091169063b3bd6e129061083a90859085906004016144c2565b60206040518083038186803b15801561085257600080fd5b505afa158015610866573d6000803e3d6000fd5b505050506040513d601f19601f8201168201806040525081019061088a91906140d1565b60ce546040516331997f7b60e11b81526001600160a01b0390911690636332fef6906108bc908d908d906004016144c2565b60606040518083038186803b1580156108d457600080fd5b505afa1580156108e8573d6000803e3d6000fd5b505050506040513d601f19601f8201168201806040525081019061090c9190614186565b6040015187612122565b93506000856001600160a01b03166347535d7b6040518163ffffffff1660e01b815260040160206040518083038186803b15801561095357600080fd5b505afa158015610967573d6000803e3d6000fd5b505050506040513d601f19601f8201168201806040525081019061098b91906140b5565b610a0557856001600160a01b031663fe3434616040518163ffffffff1660e01b815260040160206040518083038186803b1580156109c857600080fd5b505afa1580156109dc573d6000803e3d6000fd5b505050506040513d601f19601f82011682018060405250810190610a0091906140d1565b610a0d565b610a0d6121c6565b6001600160a01b038716600090815260d260205260409020549091508114610ae1576001600160a01b038616600081815260d36020908152604080832088518984015160d290945293829020600182019390935592835590849055519091907f54e4482fe1d38392effe5d53f0e9e72f60221a75a10cea7abbb684bfb03519bf90610a9b9087908790614973565b60405180910390a2610aac876121ca565b6001600160a01b038816600090815260d060205260409020805460029290920b62ffffff1662ffffff19909216919091179055505b5050509250929050565b6001600160a01b0316600090815260d4602052604090205462ffffff1690565b610b13613cfb565b610b1b611c49565b6020808301516001600160a01b0316600090815260d4909152604090205462ffffff16610b5a5760405162461bcd60e51b8152600401610602906147d2565b60ce548251602084015160405163165c4e2960e31b81526000936001600160a01b03169263b2e2714892610b90926004016144c2565b60206040518083038186803b158015610ba857600080fd5b505afa158015610bbc573d6000803e3d6000fd5b505050506040513d601f19601f82011682018060405250810190610be091906140d1565b9050600080610bf2856020015161220f565b905084608001518015610c0457508215155b15610d44578080610c265750610c268560200151600085128760a00151612227565b15610d3f576000610c356121c6565b86516001600160a01b03908116600090815260d560209081526040808320828c015190941683529290522054909150811415610c835760405162461bcd60e51b815260040161060290614693565b85516001600160a01b03908116600090815260d560209081526040808320828b015185168452825280832085905560cf548151633a14199b60e11b8152915193941692637428333692600480840193919291829003018186803b158015610ce957600080fd5b505afa158015610cfd573d6000803e3d6000fd5b505050506040513d601f19601f82011682018060405250810190610d219190614451565b60a0880151909150610d339082612289565b60a08801525060019250505b610d62565b8015610d625760405162461bcd60e51b81526004016106029061462f565b60ce548551602087015160405163d50d01b760e01b81526000936001600160a01b03169263d50d01b792610d98926004016144c2565b60206040518083038186803b158015610db057600080fd5b505afa158015610dc4573d6000803e3d6000fd5b505050506040513d601f19601f82011682018060405250810190610de891906140d1565b90506000610df58761229e565b9050610e0987602001518260c001516126be565b15610e265760405162461bcd60e51b8152600401610602906146b5565b60008515610e405760408801511515600087121415610e43565b60005b905060008115610ea757610ea46040518060c001604052808b600001516001600160a01b031681526020018b602001516001600160a01b03168152602001898152602001868152602001856000015181526020018560200151815250611b90565b90505b609a5460208a015160405163bbe4f6db60e01b8152600092610f36926001600160a01b039091169163bbe4f6db91610ee1916004016144ae565b60206040518083038186803b158015610ef957600080fd5b505afa158015610f0d573d6000803e3d6000fd5b505050506040513d601f19601f82011682018060405250810190610f319190613e5e565b612747565b5050505050506001600160a01b03169050604051806101400160405280610f6086600001516127da565b8152602001610f7286602001516127da565b81526020018560400151815260200185606001518152602001856080015181526020018560a0015181526020018381526020018281526020018560c0015160020b815260200188151581525098505050505050505050919050565b610fd5611c45565b6001600160a01b0316610fe66113c2565b6001600160a01b03161461102a576040805162461bcd60e51b8152602060048201526006602482015265534f5f434e4f60d01b604482015290519081900360640190fd5b606780546001600160a01b0319166001600160a01b0383169081179091556040517fd0654f5900f9e7e4e605a19334306e6a2786bbf960ac0484a4c12feb6428fe2f90600090a250565b61107c611c45565b6001600160a01b031661108d6113c2565b6001600160a01b0316146110d1576040805162461bcd60e51b8152602060048201526006602482015265534f5f434e4f60d01b604482015290519081900360640190fd5b6110e3826001600160a01b0316612803565b6110ff5760405162461bcd60e51b8152600401610602906147f2565b609a54604051631246dbf560e01b81526001600160a01b0390911690631246dbf59061112f9085906004016144ae565b60206040518083038186803b15801561114757600080fd5b505afa15801561115b573d6000803e3d6000fd5b505050506040513d601f19601f8201168201806040525081019061117f91906140b5565b61119b5760405162461bcd60e51b815260040161060290614651565b6111a3612809565b62ffffff168162ffffff1611156111cc5760405162461bcd60e51b815260040161060290614716565b6001600160a01b038216600081815260d4602052604090819020805462ffffff191662ffffff8516179055517f998d553f208e581d188c66da9e7d19bac5ca64d002753791210c4271c8e955d090611225908490614963565b60405180910390a25050565b60ce546001600160a01b031690565b6034546001600160a01b031690565b611257611c45565b6001600160a01b03166112686113c2565b6001600160a01b0316146112ac576040805162461bcd60e51b8152602060048201526006602482015265534f5f434e4f60d01b604482015290519081900360640190fd5b6033546040516000916001600160a01b031690600080516020614ab2833981519152908390a3603380546001600160a01b0319908116909155603480549091169055565b60ce546040516357ba739b60e11b815260009182916001600160a01b039091169063af74e736906113259086906004016144ae565b60006040518083038186803b15801561133d57600080fd5b505afa158015611351573d6000803e3d6000fd5b505050506040513d6000823e601f3d908101601f191682016040526113799190810190613f56565b805190915060005b818110156113ba576113b06113a98685848151811061139c57fe5b60200260200101516116d1565b859061280f565b9350600101611381565b505050919050565b6033546001600160a01b031690565b609a5460405163bbe4f6db60e01b815260009161145e916001600160a01b039091169063bbe4f6db906114089087906004016144ae565b60206040518083038186803b15801561142057600080fd5b505afa158015611434573d6000803e3d6000fd5b505050506040513d601f19601f820116820180604052508101906114589190613e5e565b83612874565b90505b92915050565b60cf546001600160a01b031690565b60cd546001600160a01b031690565b6034546001600160a01b03166114ca576040805162461bcd60e51b81526020600482015260056024820152640534f5f43360dc1b604482015290519081900360640190fd5b6114d2611c45565b6034546001600160a01b0390811691161461151d576040805162461bcd60e51b8152602060048201526006602482015265534f5f434e4360d01b604482015290519081900360640190fd5b6034546033546040516001600160a01b039283169290911690600080516020614ab283398151915290600090a360348054603380546001600160a01b03199081166001600160a01b03841617909155169055565b600054610100900460ff168061158a575061158a612882565b80611598575060005460ff16155b6115d35760405162461bcd60e51b815260040180806020018281038252602e815260200180614a63602e913960400191505060405180910390fd5b600054610100900460ff161580156115fe576000805460ff1961ff0019909116610100171660011790555b611606612893565b61160f8461293d565b611621836001600160a01b0316612803565b61163d5760405162461bcd60e51b8152600401610602906146f6565b61164f826001600160a01b0316612803565b61166b5760405162461bcd60e51b815260040161060290614792565b60cd80546001600160a01b038086166001600160a01b03199283161790925560cf80549285169290911691909117905580156116ad576000805461ff00191690555b50505050565b6067546001600160a01b031690565b609a546001600160a01b031690565b6000806116dd83611c85565b505060cd546040516347b52fb760e01b81529192506000916001600160a01b03909116906347b52fb790611719908890889087906004016144dc565b60206040518083038186803b15801561173157600080fd5b505afa158015611745573d6000803e3d6000fd5b505050506040513d601f19601f8201168201806040525081019061176991906140d1565b60ce546040516359deb70960e11b815291925061187f916001600160a01b039091169063b3bd6e12906117a290899089906004016144c2565b60206040518083038186803b1580156117ba57600080fd5b505afa1580156117ce573d6000803e3d6000fd5b505050506040513d601f19601f820116820180604052508101906117f291906140d1565b60ce546040516331997f7b60e11b81526001600160a01b0390911690636332fef690611824908a908a906004016144c2565b60606040518083038186803b15801561183c57600080fd5b505afa158015611850573d6000803e3d6000fd5b505050506040513d601f19601f820116820180604052508101906118749190614186565b604001518484612a03565b95945050505050565b6000611892611c45565b90506000816001600160a01b0316630dfe16816040518163ffffffff1660e01b815260040160206040518083038186803b1580156118cf57600080fd5b505afa1580156118e3573d6000803e3d6000fd5b505050506040513d601f19601f820116820180604052508101906119079190613e5e565b609a5460405163bbe4f6db60e01b81529192506001600160a01b03169063bbe4f6db906119389084906004016144ae565b60206040518083038186803b15801561195057600080fd5b505afa158015611964573d6000803e3d6000fd5b505050506040513d601f19601f820116820180604052508101906119889190613e5e565b6001600160a01b0316826001600160a01b0316146119b85760405162461bcd60e51b81526004016106029061473a565b60675460405163fa461e3360e01b81526001600160a01b039091169063fa461e33906119ee9089908990899089906004016145de565b600060405180830381600087803b158015611a0857600080fd5b505af1158015611a1c573d6000803e3d6000fd5b50505050505050505050565b600080611a4f611a4a611a3c8560006113d1565b6001600160a01b0316612a4e565b612a68565b90506000836001600160a01b0316631208064760cf60009054906101000a90046001600160a01b03166001600160a01b0316633e742e3b6040518163ffffffff1660e01b815260040160206040518083038186803b158015611ab057600080fd5b505afa158015611ac4573d6000803e3d6000fd5b505050506040513d601f19601f82011682018060405250810190611ae8919061446d565b6040518263ffffffff1660e01b8152600401611b049190614981565b60206040518083038186803b158015611b1c57600080fd5b505afa158015611b30573d6000803e3d6000fd5b505050506040513d601f19601f82011682018060405250810190611b5491906140d1565b90506000818311611b6e57611b698284612a81565b611b78565b611b788383612a81565b9050611b8782620186a0612289565b10949350505050565b600080611bbe611ba384608001516127da565b670de0b6b3a7640000611bb986604001516127da565b612ade565b90506000670de0b6b3a76400008211611c0d576000611bf3611bdf84612b8d565b606087015190670de0b6b3a7640000612bd9565b60a0860151909150611c05908261280f565b915050611c3e565b60a0840151600090611c2890670de0b6b3a764000085612bd9565b6060860151909150611c3a908261280f565b9150505b9392505050565b3390565b6067546001600160a01b0316611c5d611c45565b6001600160a01b031614611c835760405162461bcd60e51b815260040161060290614672565b565b611c8d613ce1565b6000806000846001600160a01b03166347535d7b6040518163ffffffff1660e01b815260040160206040518083038186803b158015611ccb57600080fd5b505afa158015611cdf573d6000803e3d6000fd5b505050506040513d601f19601f82011682018060405250810190611d0391906140b5565b9050600081611d8257856001600160a01b031663fe3434616040518163ffffffff1660e01b815260040160206040518083038186803b158015611d4557600080fd5b505afa158015611d59573d6000803e3d6000fd5b505050506040513d601f19601f82011682018060405250810190611d7d91906140d1565b611d8a565b611d8a6121c6565b6001600160a01b038716600090815260d160205260408120549192509015611e845760cf60009054906101000a90046001600160a01b03166001600160a01b0316633e742e3b6040518163ffffffff1660e01b815260040160206040518083038186803b158015611dfa57600080fd5b505afa158015611e0e573d6000803e3d6000fd5b505050506040513d601f19601f82011682018060405250810190611e32919061446d565b6001600160a01b038816600090815260d1602052604081205491925090611e6390611e5e908590612a81565b612c7d565b90508063ffffffff168263ffffffff1611611e7e5781611e80565b805b9150505b60008315611f1f57611e99611a3c89846113d1565b604051631208064760e01b81529091506001600160a01b03891690631208064790611ec8908590600401614981565b60206040518083038186803b158015611ee057600080fd5b505afa158015611ef4573d6000803e3d6000fd5b505050506040513d601f19601f82011682018060405250810190611f1891906140d1565b945061203d565b6000611f36611e5e85611f306121c6565b90612a81565b609a5460405163bbe4f6db60e01b8152919250611fc691611a3c916001600160a01b03169063bbe4f6db90611f6f908e906004016144ae565b60206040518083038186803b158015611f8757600080fd5b505afa158015611f9b573d6000803e3d6000fd5b505050506040513d601f19601f82011682018060405250810190611fbf9190613e5e565b8386612cc2565b9150886001600160a01b0316631c2ab4056040518163ffffffff1660e01b815260040160206040518083038186803b15801561200157600080fd5b505afa158015612015573d6000803e3d6000fd5b505050506040513d601f19601f8201168201806040525081019061203991906140d1565b9550505b61204681612a68565b6001600160a01b038916600090815260d2602090815260408083205460d3909252909120919750908482148061207a575081155b1561209e576040805180820190915281548152600182015460208201529850612115565b60006120cd6120b56120b08886612a81565b612b8d565b6120c7866120c28c612e27565b612e40565b90612f4a565b82549091506120dc908261280f565b8a5261210e61210382600160601b6120f58f60006113d1565b6001600160a01b0316612bd9565b60018401549061280f565b60208b0152505b5050505050509193909250565b60cd54604051633fe1339b60e11b815260009182916001600160a01b0390911690637fc267369061215b908a908a9088906004016144dc565b602060405180830381600087803b15801561217557600080fd5b505af1158015612189573d6000803e3d6000fd5b505050506040513d601f19601f820116820180604052508101906121ad91906140d1565b90506121bb85858584612a03565b979650505050505050565b4290565b609a5460405163bbe4f6db60e01b81526000918291612201916001600160a01b03169063bbe4f6db90610ee19087906004016144ae565b509398975050505050505050565b60008061221b836121ca565b9050611c3e83826126be565b60006122818461227c6040518060a00160405280886001600160a01b0316815260200187151515815260200187151515815260200186815260200161226c8989612ff3565b6001600160a01b0316905261307e565b6126be565b949350505050565b600061145e838362ffffff16620f4240612ade565b6122a6613d53565b609a54602083015160405163033e16f360e21b81526000926001600160a01b031691630cf85bcc916122db91906004016144ae565b60806040518083038186803b1580156122f357600080fd5b505afa158015612307573d6000803e3d6000fd5b505050506040513d601f19601f8201168201806040525081019061232b91906141da565b9050600080612351856040015186606001518760a0015186602001518760400151613226565b9150915060006123648660200151611c85565b50509050600060cd60009054906101000a90046001600160a01b03166001600160a01b031663a3bf0df86040518061010001604052808a602001516001600160a01b031681526020018a60400151151581526020016001151581526020018681526020018a60c001516001600160a01b03168152602001886020015162ffffff168152602001886040015162ffffff168152602001858152506040518263ffffffff1660e01b81526004016124199190614812565b606060405180830381600087803b15801561243357600080fd5b505af1158015612447573d6000803e3d6000fd5b505050506040513d601f19601f8201168201806040525081019061246b91906142c4565b905060006125676040518060e0016040528088600001516001600160a01b03168152602001606760009054906101000a90046001600160a01b03166001600160a01b031681526020018a60400151151581526020018a60600151151581526020018781526020018a60c001516001600160a01b031681526020016040518060a001604052808c600001516001600160a01b031681526020018c602001516001600160a01b031681526020018a600001516001600160a01b031681526020018a6040015162ffffff16815260200186602001518152506040516020016125509190614896565b6040516020818303038152906040528152506132b2565b90506000808960400151156125a85761259261258d84600001518a6040015160006134dc565b613523565b91506125a18360200151612b8d565b905061260e565b82516125b390612b8d565b9150896060015180156125c95750868360200151145b156125f4576125a16125ef6120b086602001518d60a00151612a8190919063ffffffff16565b613537565b61260b61258d84602001518a6040015160006134dc565b90505b6020808b01516001600160a01b0316600090815260d19091526040902054612657576126386121c6565b6020808c01516001600160a01b0316600090815260d190915260409020555b6040518060e0016040528083815260200161267f6126788760200151612b8d565b8490613563565b81526020018381526020018281526020018560200151815260200185604001518152602001856000015160020b81525098505050505050505050919050565b6001600160a01b038216600090815260d4602090815260408083205460d090925282205462ffffff90911690600290810b908390612708906127039084900b8561280f565b6135c8565b90506000612722612703600285900b62ffffff8716613563565b90508060020b8660020b12806121bb57508160020b8660020b13979650505050505050565b6000806000806000806000876001600160a01b0316633850c7bd6040518163ffffffff1660e01b815260040160e06040518083038186803b15801561278b57600080fd5b505afa15801561279f573d6000803e3d6000fd5b505050506040513d601f19601f820116820180604052508101906127c391906143be565b959e949d50929b5090995097509550909350915050565b6000808212156127fa576127f56127f083613537565b61360b565b611461565b6114618261360b565b3b151590565b6103e890565b60008282018183128015906128245750838112155b80612839575060008312801561283957508381125b61145e5760405162461bcd60e51b8152600401808060200182810382526021815260200180614a196021913960400191505060405180910390fd5b600061145e83600084612cc2565b600061288d30612803565b15905090565b600054610100900460ff16806128ac57506128ac612882565b806128ba575060005460ff16155b6128f55760405162461bcd60e51b815260040180806020018281038252602e815260200180614a63602e913960400191505060405180910390fd5b600054610100900460ff16158015612920576000805460ff1961ff0019909116610100171660011790555b612928613662565b801561293a576000805461ff00191690555b50565b600054610100900460ff16806129565750612956612882565b80612964575060005460ff16155b61299f5760405162461bcd60e51b815260040180806020018281038252602e815260200180614a63602e913960400191505060405180910390fd5b600054610100900460ff161580156129ca576000805460ff1961ff0019909116610100171660011790555b6129d2613751565b609a80546001600160a01b0319166001600160a01b03841617905580156129ff576000805461ff00191690555b5050565b600080612a2b86612a2187876000015161356390919063ffffffff16565b600160601b612bd9565b9050612a4462015180612a3e858461280f565b906137e6565b9695505050505050565b60006114616001600160a01b03831680600160601b612ade565b600061146182670de0b6b3a7640000600160601b612ade565b600082821115612ad8576040805162461bcd60e51b815260206004820152601e60248201527f536166654d6174683a207375627472616374696f6e206f766572666c6f770000604482015290519081900360640190fd5b50900390565b6000808060001985870986860292508281109083900303905080612b145760008411612b0957600080fd5b508290049050611c3e565b808411612b2057600080fd5b6000848688096000868103871696879004966002600389028118808a02820302808a02820302808a02820302808a02820302808a02820302808a02909103029181900381900460010186841190950394909402919094039290920491909117919091029150509392505050565b60006001600160ff1b03821115612bd55760405162461bcd60e51b8152600401808060200182810382526028815260200180614b1f6028913960400191505060405180910390fd5b5090565b60008060008512612bea5784612bf3565b612bf385613537565b90506000808512612c045784612c0d565b612c0d85613537565b905060008087128015612c205750600086135b80612c365750600087138015612c365750600086125b612c41576000612c44565b60015b90506000612c53848488612ade565b905081612c6857612c6381612b8d565b612c71565b612c7181613523565b98975050505050505050565b8063ffffffff8116811461041f5760405162461bcd60e51b8152600401808060200182810382526026815260200180614af96026913960400191505060405180910390fd5b6000600a8263ffffffff161015612cee576000612cde85612747565b50949650611c3e95505050505050565b60408051600280825260608201835260009260208301908036833701905050905082840181600081518110612d1f57fe5b602002602001019063ffffffff16908163ffffffff16815250508381600181518110612d4757fe5b63ffffffff9092166020928302919091019091015260405163883bdbfd60e01b81526000906001600160a01b0387169063883bdbfd90612d8b908590600401614580565b60006040518083038186803b158015612da357600080fd5b505afa158015612db7573d6000803e3d6000fd5b505050506040513d6000823e601f3d908101601f19168201604052612ddf9190810190613fee565b509050612a448463ffffffff1682600081518110612df957fe5b602002602001015183600181518110612e0e57fe5b60200260200101510360060b81612e2157fe5b0561389e565b600061146182600160601b670de0b6b3a7640000612ade565b60008060cf60009054906101000a90046001600160a01b03166001600160a01b0316636e1d2dd26040518163ffffffff1660e01b815260040160206040518083038186803b158015612e9157600080fd5b505afa158015612ea5573d6000803e3d6000fd5b505050506040513d601f19601f82011682018060405250810190612ec99190614451565b90506000612ed78483612289565b9050600084861115612f1457612eed8686612a81565b9050818111612f0457612eff81612b8d565b612f0d565b612f0d82612b8d565b9350612f41565b612f1e8587612a81565b9050818111612f3557612f3081613523565b612f3e565b612f3e82613523565b93505b50505092915050565b600082612f5957506000611461565b82600019148015612f6d5750600160ff1b82145b15612fa95760405162461bcd60e51b8152600401808060200182810382526027815260200180614ad26027913960400191505060405180910390fd5b82820282848281612fb657fe5b051461145e5760405162461bcd60e51b8152600401808060200182810382526027815260200180614ad26027913960400191505060405180910390fd5b6001600160a01b038216600090815260d0602090815260408083205460d490925282205460029190910b9062ffffff1682846130345760018284030361303b565b8183016001015b9050620d89e8600282900b136130515780613056565b620d89e85b9050620d89e719600282900b1261306d5780613073565b620d89e7195b9050612f3e8161389e565b609a54815160405163033e16f360e21b815260009283926001600160a01b0390911691630cf85bcc916130b3916004016144ae565b60806040518083038186803b1580156130cb57600080fd5b505afa1580156130df573d6000803e3d6000fd5b505050506040513d601f19601f8201168201806040525081019061310391906141da565b905060008160200151905060008260400151905060006131328660200151876040015188606001518686613226565b60cd5460408051610100810182528a516001600160a01b0390811682526020808d01511515818401526000838501819052606084018790526080808f015184169085015262ffffff808c1660a08601528a1660c08501528451808601865281815291820181905260e08401919091529251631477e1bf60e31b815294965091945091169163a3bf0df8916131c891600401614812565b606060405180830381600087803b1580156131e257600080fd5b505af11580156131f6573d6000803e3d6000fd5b505050506040513d601f19601f8201168201806040525081019061321a91906142c4565b51979650505050505050565b6000808615613258578561324557613240858560016134dc565b613251565b613251858460016134dc565b9150613273565b856132635784613270565b6132708584866001613bc6565b91505b866132865761328185612b8d565b61328f565b61328f82612b8d565b9050856132a45761329f81613537565b6132a6565b805b90509550959350505050565b6132ba613ce1565b600082606001516132d7576132d28360800151613523565b6132e4565b6132e48360800151612b8d565b905060008084600001516001600160a01b031663128acb0886602001518760400151868960a001516001600160a01b0316600014613326578960a00151613350565b89604001516133495773fffd8963efd1fc6a506488495d951d5263988d25613350565b6401000276a45b8a60c001516040518663ffffffff1660e01b8152600401613375959493929190614501565b6040805180830381600087803b15801561338e57600080fd5b505af11580156133a2573d6000803e3d6000fd5b505050506040513d601f19601f820116820180604052508101906133c691906140e9565b915091506000806133d6846127da565b6133df846127da565b9150915060008760400151151588606001511515146133fe5781613400565b825b9050876060015115801561341f575060a08801516001600160a01b0316155b156134c057600a886080015182116134455760808901516134409083612a81565b613455565b6080890151613455908390612a81565b106134725760405162461bcd60e51b8152600401610602906147b2565b876040015161349957604051806040016040528089608001518152602001838152506134b3565b604051806040016040528084815260200189608001518152505b965050505050505061041f565b5060408051808201909152918252602082015295945050505050565b60008161350757613502846134f9620f424062ffffff8716612a81565b620f4240612ade565b612281565b61228184620f424061351e8162ffffff8816612a81565b613c07565b600061352e82612b8d565b60000392915050565b6000600160ff1b821361355c5760405162461bcd60e51b81526004016106029061475b565b5060000390565b60008183038183128015906135785750838113155b8061358d575060008312801561358d57508381135b61145e5760405162461bcd60e51b8152600401808060200182810382526024815260200180614b476024913960400191505060405180910390fd5b80600281900b811461041f5760405162461bcd60e51b8152600401808060200182810382526029815260200180614a3a6029913960400191505060405180910390fd5b600080821215612bd5576040805162461bcd60e51b815260206004820181905260248201527f53616665436173743a2076616c7565206d75737420626520706f736974697665604482015290519081900360640190fd5b600054610100900460ff168061367b575061367b612882565b80613689575060005460ff16155b6136c45760405162461bcd60e51b815260040180806020018281038252602e815260200180614a63602e913960400191505060405180910390fd5b600054610100900460ff161580156136ef576000805460ff1961ff0019909116610100171660011790555b6136f7613751565b6000613701611c45565b603380546001600160a01b0319166001600160a01b03831690811790915560405191925090600090600080516020614ab2833981519152908290a350801561293a576000805461ff001916905550565b600054610100900460ff168061376a575061376a612882565b80613778575060005460ff16155b6137b35760405162461bcd60e51b815260040180806020018281038252602e815260200180614a63602e913960400191505060405180910390fd5b600054610100900460ff161580156137de576000805460ff1961ff0019909116610100171660011790555b612928613c41565b60008161383a576040805162461bcd60e51b815260206004820181905260248201527f5369676e6564536166654d6174683a206469766973696f6e206279207a65726f604482015290519081900360640190fd5b8160001914801561384e5750600160ff1b83145b1561388a5760405162461bcd60e51b8152600401808060200182810382526021815260200180614a916021913960400191505060405180910390fd5b600082848161389557fe5b05949350505050565b60008060008360020b126138b5578260020b6138bd565b8260020b6000035b9050620d89e88111156138fb576040805162461bcd60e51b81526020600482015260016024820152601560fa1b604482015290519081900360640190fd5b60006001821661390f57600160801b613921565b6ffffcb933bd6fad37aa2d162d1a5940015b6001600160881b03169050600282161561394b576ffff97272373d413259a46990580e213a0260801c5b600482161561396a576ffff2e50f5f656932ef12357cf3c7fdcc0260801c5b6008821615613989576fffe5caca7e10e4e61c3624eaa0941cd00260801c5b60108216156139a8576fffcb9843d60f6159c9db58835c9266440260801c5b60208216156139c7576fff973b41fa98c081472e6896dfb254c00260801c5b60408216156139e6576fff2ea16466c96a3843ec78b326b528610260801c5b6080821615613a05576ffe5dee046a99a2a811c461f1969c30530260801c5b610100821615613a25576ffcbe86c7900a88aedcffc83b479aa3a40260801c5b610200821615613a45576ff987a7253ac413176f2b074cf7815e540260801c5b610400821615613a65576ff3392b0822b70005940c7a398e4b70f30260801c5b610800821615613a85576fe7159475a2c29b7443b29c7fa6e889d90260801c5b611000821615613aa5576fd097f3bdfd2022b8845ad8f792aa58250260801c5b612000821615613ac5576fa9f746462d870fdf8a65dc1f90e061e50260801c5b614000821615613ae5576f70d869a156d2a1b890bb3df62baf32f70260801c5b618000821615613b05576f31be135f97d08fd981231505542fcfa60260801c5b62010000821615613b26576f09aa508b5b7a84e1c677de54f3e99bc90260801c5b62020000821615613b46576e5d6af8dedb81196699c329225ee6040260801c5b62040000821615613b65576d2216e584f5fa1ea926041bedfe980260801c5b62080000821615613b82576b048a170391f7dc42444e8fa20260801c5b60008460020b1315613b9d578060001981613b9957fe5b0490505b640100000000810615613bb1576001613bb4565b60005b60ff16602082901c0192505050919050565b600080600083613bd7578585613bda565b84865b90925090506121bb87613bf5620f424062ffffff8616612a81565b61351e620f424062ffffff8616612a81565b6000613c14848484612ade565b905060008280613c2057fe5b8486091115611c3e576000198110613c3757600080fd5b6001019392505050565b600054610100900460ff1680613c5a5750613c5a612882565b80613c68575060005460ff16155b613ca35760405162461bcd60e51b815260040180806020018281038252602e815260200180614a63602e913960400191505060405180910390fd5b600054610100900460ff16158015612928576000805460ff1961ff001990911661010017166001179055801561293a576000805461ff001916905550565b604051806040016040528060008152602001600081525090565b6040518061014001604052806000815260200160008152602001600081526020016000815260200160008152602001600081526020016000815260200160008152602001600060020b81526020016000151581525090565b6040518060e00160405280600081526020016000815260200160008152602001600081526020016000815260200160008152602001600060020b81525090565b803561041f816149d2565b600082601f830112613dae578081fd5b81516020613dc3613dbe836149b5565b614992565b8281528181019085830183850287018401881015613ddf578586fd5b855b85811015613e06578151613df4816149d2565b84529284019290840190600101613de1565b5090979650505050505050565b803561041f816149e7565b8051600281900b811461041f57600080fd5b805161ffff8116811461041f57600080fd5b600060208284031215613e53578081fd5b813561145e816149d2565b600060208284031215613e6f578081fd5b815161145e816149d2565b60008060408385031215613e8c578081fd5b8235613e97816149d2565b91506020830135613ea7816149d2565b809150509250929050565b600080600060608486031215613ec6578081fd5b8335613ed1816149d2565b92506020840135613ee1816149d2565b91506040840135613ef1816149d2565b809150509250925092565b60008060408385031215613f0e578182fd5b8235613f19816149d2565b91506020830135613ea7816149f5565b60008060408385031215613f3b578182fd5b8235613f46816149d2565b91506020830135613ea781614a06565b60006020808385031215613f68578182fd5b82516001600160401b03811115613f7d578283fd5b8301601f81018513613f8d578283fd5b8051613f9b613dbe826149b5565b8181528381019083850185840285018601891015613fb7578687fd5b8694505b83851015613fe2578051613fce816149d2565b835260019490940193918501918501613fbb565b50979650505050505050565b60008060408385031215614000578182fd5b82516001600160401b0380821115614016578384fd5b818501915085601f830112614029578384fd5b81516020614039613dbe836149b5565b82815281810190858301838502870184018b1015614055578889fd5b8896505b848710156140855780518060060b811461407157898afd5b835260019690960195918301918301614059565b509188015191965090935050508082111561409e578283fd5b506140ab85828601613d9e565b9150509250929050565b6000602082840312156140c6578081fd5b815161145e816149e7565b6000602082840312156140e2578081fd5b5051919050565b600080604083850312156140fb578182fd5b505080516020909101519092909150565b60008060008060608587031215614121578182fd5b843593506020850135925060408501356001600160401b0380821115614145578384fd5b818701915087601f830112614158578384fd5b813581811115614166578485fd5b886020828501011115614177578485fd5b95989497505060200194505050565b600060608284031215614197578081fd5b604051606081018181106001600160401b03821117156141b357fe5b80604052508251815260208301516020820152604083015160408201528091505092915050565b6000608082840312156141eb578081fd5b604051608081018181106001600160401b038211171561420757fe5b6040528251614215816149d2565b81526020830151614225816149f5565b60208201526040830151614238816149f5565b6040820152606083015161424b816149f5565b60608201529392505050565b600060808284031215614268578081fd5b604051608081018181106001600160401b038211171561428457fe5b6040528235614292816149d2565b815260208301356142a2816149d2565b6020820152604083810135908201526060928301359281019290925250919050565b6000606082840312156142d5578081fd5b604051606081018181106001600160401b03821117156142f157fe5b6040526142fd83613e1e565b815260208301516020820152604083015160408201528091505092915050565b600060e0828403121561432e578081fd5b60405160e081018181106001600160401b038211171561434a57fe5b60405261435683613d93565b815261436460208401613d93565b602082015261437560408401613e13565b604082015261438660608401613e13565b606082015261439760808401613e13565b608082015260a083013560a08201526143b260c08401613d93565b60c08201529392505050565b600080600080600080600060e0888a0312156143d8578485fd5b87516143e3816149d2565b96506143f160208901613e1e565b95506143ff60408901613e30565b945061440d60608901613e30565b935061441b60808901613e30565b925060a088015160ff81168114614430578283fd5b60c0890151909250614441816149e7565b8091505092959891949750929550565b600060208284031215614462578081fd5b815161145e816149f5565b60006020828403121561447e578081fd5b815161145e81614a06565b15159052565b60020b9052565b80518252602090810151910152565b62ffffff169052565b6001600160a01b0391909116815260200190565b6001600160a01b0392831681529116602082015260400190565b6001600160a01b03848116825283166020820152608081016122816040830184614496565b600060018060a01b038088168352602087151581850152866040850152818616606085015260a06080850152845191508160a0850152825b828110156145555785810182015185820160c001528101614539565b82811115614566578360c084870101525b5050601f01601f19169190910160c0019695505050505050565b6020808252825182820181905260009190848201906040850190845b818110156145be57835163ffffffff168352928401929184019160010161459c565b50909695505050505050565b901515815260200190565b90815260200190565b60008582528460208301526060604083015282606083015282846080840137818301608090810191909152601f909201601f191601019392505050565b82815260608101611c3e6020830184614496565b60208082526008908201526745585f4f504c425360c01b604082015260600190565b60208082526007908201526645585f42544e4560c81b604082015260600190565b6020808252600790820152660869088be9e86960cb1b604082015260600190565b60208082526008908201526745585f414f504c4f60c01b604082015260600190565b60208082526008908201526745585f4f504c415360c01b604082015260600190565b6020808252600590820152640455f4142360dc1b604082015260600190565b602080825260069082015265455f4f424e4360d01b604082015260600190565b6020808252600a908201526922ac2fa6aa21a627a7a960b11b604082015260600190565b6020808252600790820152662aa1a12fa321ab60c91b604082015260600190565b6020808252601c908201527f506572704d6174683a20696e76657273696f6e206f766572666c6f7700000000604082015260600190565b602080825260069082015265455f43484e4360d01b604082015260600190565b60208082526006908201526555425f554f4160d01b604082015260600190565b602080825260069082015265045585f4d49560d41b604082015260600190565b60208082526006908201526545585f424e4360d01b604082015260600190565b60006101208201905060018060a01b03808451168352602084015115156020840152604084015115156040840152606084015160608401528060808501511660808401525060a083015161486960a08401826144a5565b5060c083015161487c60c08401826144a5565b5060e083015161488f60e0840182614496565b5092915050565b81516001600160a01b0390811682526020808401518216908301526040808401519091169082015260608083015162ffffff16908201526080918201519181019190915260a00190565b600061014082019050825182526020830151602083015260408301516040830152606083015160608301526080830151608083015260a083015160a083015260c083015160c083015260e083015160e0830152610100808401516149468285018261448f565b50506101208084015161495b82850182614489565b505092915050565b62ffffff91909116815260200190565b918252602082015260400190565b63ffffffff91909116815260200190565b6040518181016001600160401b03811182821017156149ad57fe5b604052919050565b60006001600160401b038211156149c857fe5b5060209081020190565b6001600160a01b038116811461293a57600080fd5b801515811461293a57600080fd5b62ffffff8116811461293a57600080fd5b63ffffffff8116811461293a57600080fdfe5369676e6564536166654d6174683a206164646974696f6e206f766572666c6f7753616665436173743a2076616c756520646f65736e27742066697420696e20616e2032342062697473496e697469616c697a61626c653a20636f6e747261637420697320616c726561647920696e697469616c697a65645369676e6564536166654d6174683a206469766973696f6e206f766572666c6f778be0079c531659141344cd1fd0a4f28419497f9722a3daafe3b4186f6b6457e05369676e6564536166654d6174683a206d756c7469706c69636174696f6e206f766572666c6f7753616665436173743a2076616c756520646f65736e27742066697420696e203332206269747353616665436173743a2076616c756520646f65736e27742066697420696e20616e20696e743235365369676e6564536166654d6174683a207375627472616374696f6e206f766572666c6f77a2646970667358221220a24f6b0a2d480c4e5f621a7406c7d2663a1620e27b1cbdb4cf6bfeeefd7930f064736f6c63430007060033",
  "linkReferences": {},
  "deployedLinkReferences": {}
}