{
  "_format": "hh-sol-artifact-1",
  "contractName": "OrderBook",
  "sourceName": "contracts/OrderBook.sol",
  "abi": [
    {
      "anonymous": false,
      "inputs": [
        {
          "indexed": true,
          "internalType": "address",
          "name": "clearingHouse",
          "type": "address"
        }
      ],
      "name": "ClearingHouseChanged",
      "type": "event"
    },
    {
      "anonymous": false,
      "inputs": [
        {
          "indexed": true,
          "internalType": "address",
          "name": "exchange",
          "type": "address"
        }
      ],
      "name": "ExchangeChanged",
      "type": "event"
    },
    {
      "anonymous": false,
      "inputs": [
        {
          "indexed": true,
          "internalType": "address",
          "name": "previousOwner",
          "type": "address"
        },
        {
          "indexed": true,
          "internalType": "address",
          "name": "newOwner",
          "type": "address"
        }
      ],
      "name": "OwnershipTransferred",
      "type": "event"
    },
    {
      "inputs": [
        {
          "components": [
            {
              "internalType": "address",
              "name": "trader",
              "type": "address"
            },
            {
              "internalType": "address",
              "name": "baseToken",
              "type": "address"
            },
            {
              "internalType": "uint256",
              "name": "base",
              "type": "uint256"
            },
            {
              "internalType": "uint256",
              "name": "quote",
              "type": "uint256"
            },
            {
              "internalType": "int24",
              "name": "lowerTick",
              "type": "int24"
            },
            {
              "internalType": "int24",
              "name": "upperTick",
              "type": "int24"
            },
            {
              "components": [
                {
                  "internalType": "int256",
                  "name": "twPremiumX96",
                  "type": "int256"
                },
                {
                  "internalType": "int256",
                  "name": "twPremiumDivBySqrtPriceX96",
                  "type": "int256"
                }
              ],
              "internalType": "struct Funding.Growth",
              "name": "fundingGrowthGlobal",
              "type": "tuple"
            }
          ],
          "internalType": "struct IOrderBook.AddLiquidityParams",
          "name": "params",
          "type": "tuple"
        }
      ],
      "name": "addLiquidity",
      "outputs": [
        {
          "components": [
            {
              "internalType": "uint256",
              "name": "base",
              "type": "uint256"
            },
            {
              "internalType": "uint256",
              "name": "quote",
              "type": "uint256"
            },
            {
              "internalType": "uint256",
              "name": "fee",
              "type": "uint256"
            },
            {
              "internalType": "uint128",
              "name": "liquidity",
              "type": "uint128"
            }
          ],
          "internalType": "struct IOrderBook.AddLiquidityResponse",
          "name": "",
          "type": "tuple"
        }
      ],
      "stateMutability": "nonpayable",
      "type": "function"
    },
    {
      "inputs": [],
      "name": "candidate",
      "outputs": [
        {
          "internalType": "address",
          "name": "",
          "type": "address"
        }
      ],
      "stateMutability": "view",
      "type": "function"
    },
    {
      "inputs": [],
      "name": "getClearingHouse",
      "outputs": [
        {
          "internalType": "address",
          "name": "",
          "type": "address"
        }
      ],
      "stateMutability": "view",
      "type": "function"
    },
    {
      "inputs": [],
      "name": "getExchange",
      "outputs": [
        {
          "internalType": "address",
          "name": "",
          "type": "address"
        }
      ],
      "stateMutability": "view",
      "type": "function"
    },
    {
      "inputs": [
        {
          "internalType": "address",
          "name": "trader",
          "type": "address"
        },
        {
          "internalType": "address",
          "name": "baseToken",
          "type": "address"
        },
        {
          "components": [
            {
              "internalType": "int256",
              "name": "twPremiumX96",
              "type": "int256"
            },
            {
              "internalType": "int256",
              "name": "twPremiumDivBySqrtPriceX96",
              "type": "int256"
            }
          ],
          "internalType": "struct Funding.Growth",
          "name": "fundingGrowthGlobal",
          "type": "tuple"
        }
      ],
      "name": "getLiquidityCoefficientInFundingPayment",
      "outputs": [
        {
          "internalType": "int256",
          "name": "liquidityCoefficientInFundingPayment",
          "type": "int256"
        }
      ],
      "stateMutability": "view",
      "type": "function"
    },
    {
      "inputs": [],
      "name": "getMarketRegistry",
      "outputs": [
        {
          "internalType": "address",
          "name": "",
          "type": "address"
        }
      ],
      "stateMutability": "view",
      "type": "function"
    },
    {
      "inputs": [
        {
          "internalType": "address",
          "name": "trader",
          "type": "address"
        },
        {
          "internalType": "address",
          "name": "baseToken",
          "type": "address"
        },
        {
          "internalType": "int24",
          "name": "lowerTick",
          "type": "int24"
        },
        {
          "internalType": "int24",
          "name": "upperTick",
          "type": "int24"
        }
      ],
      "name": "getOpenOrder",
      "outputs": [
        {
          "components": [
            {
              "internalType": "uint128",
              "name": "liquidity",
              "type": "uint128"
            },
            {
              "internalType": "int24",
              "name": "lowerTick",
              "type": "int24"
            },
            {
              "internalType": "int24",
              "name": "upperTick",
              "type": "int24"
            },
            {
              "internalType": "uint256",
              "name": "lastFeeGrowthInsideX128",
              "type": "uint256"
            },
            {
              "internalType": "int256",
              "name": "lastTwPremiumGrowthInsideX96",
              "type": "int256"
            },
            {
              "internalType": "int256",
              "name": "lastTwPremiumGrowthBelowX96",
              "type": "int256"
            },
            {
              "internalType": "int256",
              "name": "lastTwPremiumDivBySqrtPriceGrowthInsideX96",
              "type": "int256"
            },
            {
              "internalType": "uint256",
              "name": "baseDebt",
              "type": "uint256"
            },
            {
              "internalType": "uint256",
              "name": "quoteDebt",
              "type": "uint256"
            }
          ],
          "internalType": "struct OpenOrder.Info",
          "name": "",
          "type": "tuple"
        }
      ],
      "stateMutability": "view",
      "type": "function"
    },
    {
      "inputs": [
        {
          "internalType": "bytes32",
          "name": "orderId",
          "type": "bytes32"
        }
      ],
      "name": "getOpenOrderById",
      "outputs": [
        {
          "components": [
            {
              "internalType": "uint128",
              "name": "liquidity",
              "type": "uint128"
            },
            {
              "internalType": "int24",
              "name": "lowerTick",
              "type": "int24"
            },
            {
              "internalType": "int24",
              "name": "upperTick",
              "type": "int24"
            },
            {
              "internalType": "uint256",
              "name": "lastFeeGrowthInsideX128",
              "type": "uint256"
            },
            {
              "internalType": "int256",
              "name": "lastTwPremiumGrowthInsideX96",
              "type": "int256"
            },
            {
              "internalType": "int256",
              "name": "lastTwPremiumGrowthBelowX96",
              "type": "int256"
            },
            {
              "internalType": "int256",
              "name": "lastTwPremiumDivBySqrtPriceGrowthInsideX96",
              "type": "int256"
            },
            {
              "internalType": "uint256",
              "name": "baseDebt",
              "type": "uint256"
            },
            {
              "internalType": "uint256",
              "name": "quoteDebt",
              "type": "uint256"
            }
          ],
          "internalType": "struct OpenOrder.Info",
          "name": "",
          "type": "tuple"
        }
      ],
      "stateMutability": "view",
      "type": "function"
    },
    {
      "inputs": [
        {
          "internalType": "address",
          "name": "trader",
          "type": "address"
        },
        {
          "internalType": "address",
          "name": "baseToken",
          "type": "address"
        }
      ],
      "name": "getOpenOrderIds",
      "outputs": [
        {
          "internalType": "bytes32[]",
          "name": "",
          "type": "bytes32[]"
        }
      ],
      "stateMutability": "view",
      "type": "function"
    },
    {
      "inputs": [
        {
          "internalType": "address",
          "name": "trader",
          "type": "address"
        },
        {
          "internalType": "address",
          "name": "baseToken",
          "type": "address"
        },
        {
          "internalType": "int24",
          "name": "lowerTick",
          "type": "int24"
        },
        {
          "internalType": "int24",
          "name": "upperTick",
          "type": "int24"
        }
      ],
      "name": "getPendingFee",
      "outputs": [
        {
          "internalType": "uint256",
          "name": "",
          "type": "uint256"
        }
      ],
      "stateMutability": "view",
      "type": "function"
    },
    {
      "inputs": [
        {
          "internalType": "address",
          "name": "trader",
          "type": "address"
        },
        {
          "internalType": "address",
          "name": "baseToken",
          "type": "address"
        },
        {
          "internalType": "bool",
          "name": "fetchBase",
          "type": "bool"
        }
      ],
      "name": "getTotalOrderDebt",
      "outputs": [
        {
          "internalType": "uint256",
          "name": "",
          "type": "uint256"
        }
      ],
      "stateMutability": "view",
      "type": "function"
    },
    {
      "inputs": [
        {
          "internalType": "address",
          "name": "trader",
          "type": "address"
        },
        {
          "internalType": "address[]",
          "name": "baseTokens",
          "type": "address[]"
        }
      ],
      "name": "getTotalQuoteBalanceAndPendingFee",
      "outputs": [
        {
          "internalType": "int256",
          "name": "totalQuoteAmountInPools",
          "type": "int256"
        },
        {
          "internalType": "uint256",
          "name": "totalPendingFee",
          "type": "uint256"
        }
      ],
      "stateMutability": "view",
      "type": "function"
    },
    {
      "inputs": [
        {
          "internalType": "address",
          "name": "trader",
          "type": "address"
        },
        {
          "internalType": "address",
          "name": "baseToken",
          "type": "address"
        },
        {
          "internalType": "bool",
          "name": "fetchBase",
          "type": "bool"
        }
      ],
      "name": "getTotalTokenAmountInPoolAndPendingFee",
      "outputs": [
        {
          "internalType": "uint256",
          "name": "tokenAmount",
          "type": "uint256"
        },
        {
          "internalType": "uint256",
          "name": "pendingFee",
          "type": "uint256"
        }
      ],
      "stateMutability": "view",
      "type": "function"
    },
    {
      "inputs": [
        {
          "internalType": "address",
          "name": "trader",
          "type": "address"
        },
        {
          "internalType": "address[]",
          "name": "tokens",
          "type": "address[]"
        }
      ],
      "name": "hasOrder",
      "outputs": [
        {
          "internalType": "bool",
          "name": "",
          "type": "bool"
        }
      ],
      "stateMutability": "view",
      "type": "function"
    },
    {
      "inputs": [
        {
          "internalType": "address",
          "name": "marketRegistryArg",
          "type": "address"
        }
      ],
      "name": "initialize",
      "outputs": [],
      "stateMutability": "nonpayable",
      "type": "function"
    },
    {
      "inputs": [],
      "name": "owner",
      "outputs": [
        {
          "internalType": "address",
          "name": "",
          "type": "address"
        }
      ],
      "stateMutability": "view",
      "type": "function"
    },
    {
      "inputs": [
        {
          "components": [
            {
              "internalType": "address",
              "name": "maker",
              "type": "address"
            },
            {
              "internalType": "address",
              "name": "baseToken",
              "type": "address"
            },
            {
              "internalType": "int24",
              "name": "lowerTick",
              "type": "int24"
            },
            {
              "internalType": "int24",
              "name": "upperTick",
              "type": "int24"
            },
            {
              "internalType": "uint128",
              "name": "liquidity",
              "type": "uint128"
            }
          ],
          "internalType": "struct IOrderBook.RemoveLiquidityParams",
          "name": "params",
          "type": "tuple"
        }
      ],
      "name": "removeLiquidity",
      "outputs": [
        {
          "components": [
            {
              "internalType": "uint256",
              "name": "base",
              "type": "uint256"
            },
            {
              "internalType": "uint256",
              "name": "quote",
              "type": "uint256"
            },
            {
              "internalType": "uint256",
              "name": "fee",
              "type": "uint256"
            },
            {
              "internalType": "int256",
              "name": "takerBase",
              "type": "int256"
            },
            {
              "internalType": "int256",
              "name": "takerQuote",
              "type": "int256"
            }
          ],
          "internalType": "struct IOrderBook.RemoveLiquidityResponse",
          "name": "",
          "type": "tuple"
        }
      ],
      "stateMutability": "nonpayable",
      "type": "function"
    },
    {
      "inputs": [],
      "name": "renounceOwnership",
      "outputs": [],
      "stateMutability": "nonpayable",
      "type": "function"
    },
    {
      "inputs": [
        {
          "components": [
            {
              "internalType": "address",
              "name": "baseToken",
              "type": "address"
            },
            {
              "internalType": "bool",
              "name": "isBaseToQuote",
              "type": "bool"
            },
            {
              "internalType": "bool",
              "name": "shouldUpdateState",
              "type": "bool"
            },
            {
              "internalType": "int256",
              "name": "amount",
              "type": "int256"
            },
            {
              "internalType": "uint160",
              "name": "sqrtPriceLimitX96",
              "type": "uint160"
            },
            {
              "internalType": "uint24",
              "name": "exchangeFeeRatio",
              "type": "uint24"
            },
            {
              "internalType": "uint24",
              "name": "uniswapFeeRatio",
              "type": "uint24"
            },
            {
              "components": [
                {
                  "internalType": "int256",
                  "name": "twPremiumX96",
                  "type": "int256"
                },
                {
                  "internalType": "int256",
                  "name": "twPremiumDivBySqrtPriceX96",
                  "type": "int256"
                }
              ],
              "internalType": "struct Funding.Growth",
              "name": "globalFundingGrowth",
              "type": "tuple"
            }
          ],
          "internalType": "struct IOrderBook.ReplaySwapParams",
          "name": "params",
          "type": "tuple"
        }
      ],
      "name": "replaySwap",
      "outputs": [
        {
          "components": [
            {
              "internalType": "int24",
              "name": "tick",
              "type": "int24"
            },
            {
              "internalType": "uint256",
              "name": "fee",
              "type": "uint256"
            },
            {
              "internalType": "uint256",
              "name": "insuranceFundFee",
              "type": "uint256"
            }
          ],
          "internalType": "struct IOrderBook.ReplaySwapResponse",
          "name": "",
          "type": "tuple"
        }
      ],
      "stateMutability": "nonpayable",
      "type": "function"
    },
    {
      "inputs": [
        {
          "internalType": "address",
          "name": "clearingHouseArg",
          "type": "address"
        }
      ],
      "name": "setClearingHouse",
      "outputs": [],
      "stateMutability": "nonpayable",
      "type": "function"
    },
    {
      "inputs": [
        {
          "internalType": "address",
          "name": "exchangeArg",
          "type": "address"
        }
      ],
      "name": "setExchange",
      "outputs": [],
      "stateMutability": "nonpayable",
      "type": "function"
    },
    {
      "inputs": [
        {
          "internalType": "address",
          "name": "newOwner",
          "type": "address"
        }
      ],
      "name": "setOwner",
      "outputs": [],
      "stateMutability": "nonpayable",
      "type": "function"
    },
    {
      "inputs": [
        {
          "internalType": "uint256",
          "name": "amount0Owed",
          "type": "uint256"
        },
        {
          "internalType": "uint256",
          "name": "amount1Owed",
          "type": "uint256"
        },
        {
          "internalType": "bytes",
          "name": "data",
          "type": "bytes"
        }
      ],
      "name": "uniswapV3MintCallback",
      "outputs": [],
      "stateMutability": "nonpayable",
      "type": "function"
    },
    {
      "inputs": [
        {
          "internalType": "address",
          "name": "trader",
          "type": "address"
        },
        {
          "internalType": "address",
          "name": "baseToken",
          "type": "address"
        },
        {
          "components": [
            {
              "internalType": "int256",
              "name": "twPremiumX96",
              "type": "int256"
            },
            {
              "internalType": "int256",
              "name": "twPremiumDivBySqrtPriceX96",
              "type": "int256"
            }
          ],
          "internalType": "struct Funding.Growth",
          "name": "fundingGrowthGlobal",
          "type": "tuple"
        }
      ],
      "name": "updateFundingGrowthAndLiquidityCoefficientInFundingPayment",
      "outputs": [
        {
          "internalType": "int256",
          "name": "liquidityCoefficientInFundingPayment",
          "type": "int256"
        }
      ],
      "stateMutability": "nonpayable",
      "type": "function"
    },
    {
      "inputs": [
        {
          "internalType": "bytes32",
          "name": "orderId",
          "type": "bytes32"
        },
        {
          "internalType": "int256",
          "name": "base",
          "type": "int256"
        },
        {
          "internalType": "int256",
          "name": "quote",
          "type": "int256"
        }
      ],
      "name": "updateOrderDebt",
      "outputs": [],
      "stateMutability": "nonpayable",
      "type": "function"
    },
    {
      "inputs": [],
      "name": "updateOwner",
      "outputs": [],
      "stateMutability": "nonpayable",
      "type": "function"
    }
  ],
  "bytecode": "0x608060405234801561001057600080fd5b50615d1080620000216000396000f3fe608060405234801561001057600080fd5b506004361061016e5760003560e01c8063a3bf0df8116100ce578063c66b8ed211610087578063c66b8ed214610319578063d0581a9314610321578063d348799714610334578063e8ab2fb314610347578063eaad235414610367578063f807cd221461037a578063fb112d6c146103825761016e565b8063a3bf0df8146102a3578063acf71827146102c3578063b0c04174146102e3578063bc5920ba146102f6578063c4d66de8146102fe578063c575ff79146103115761016e565b80635d8a541d1161012b5780635d8a541d1461022457806367b1f5df146102455780636c8381f814610258578063715018a61461026d5780637c2b7c53146102755780637fc26736146102885780638da5cb5b1461029b5761016e565b806313af403514610173578063436933ea14610188578063449323d8146101b157806347b52fb7146101c45780634dffaee5146101e45780635b778b9d14610204575b600080fd5b610186610181366004615175565b610395565b005b61019b6101963660046151ad565b6104f0565b6040516101a8919061588e565b60405180910390f35b6101866101bf366004615175565b61056a565b6101d76101d236600461528a565b610611565b6040516101a8919061591f565b6101f76101f23660046152d1565b610832565b6040516101a891906158d2565b61021761021236600461547d565b6108b5565b6040516101a89190615abd565b6102376102323660046151e5565b610a5f565b6040516101a8929190615928565b610186610253366004615175565b610a79565b610260610b20565b6040516101a891906157b7565b610186610b2f565b6101d76102833660046151e5565b610bd0565b6101d761029636600461528a565b610d42565b610260610fa6565b6102b66102b136600461548e565b610fb5565b6040516101a89190615af7565b6102d66102d1366004615352565b611585565b6040516101a89190615a23565b6101866102f136600461536a565b611620565b610186611680565b61018661030c366004615175565b61176c565b610260611820565b61026061182f565b61023761032f3660046152d1565b61183e565b61018661034236600461571c565b6118b5565b61035a6103553660046153cd565b611a5e565b6040516101a891906159ef565b6102d661037536600461522f565b611e2b565b610260611ee0565b6101d761039036600461522f565b611eef565b61039d611fa8565b6001600160a01b03166103ae610fa6565b6001600160a01b0316146103f2576040805162461bcd60e51b8152602060048201526006602482015265534f5f434e4f60d01b604482015290519081900360640190fd5b6001600160a01b038116610436576040805162461bcd60e51b81526020600482015260066024820152650534f5f4e57360d41b604482015290519081900360640190fd5b6033546001600160a01b0382811691161415610482576040805162461bcd60e51b8152602060048201526006602482015265534f5f53414f60d01b604482015290519081900360640190fd5b6034546001600160a01b03828116911614156104ce576040805162461bcd60e51b8152602060048201526006602482015265534f5f53414360d01b604482015290519081900360640190fd5b603480546001600160a01b0319166001600160a01b0392909216919091179055565b6001600160a01b03808316600090815260ce6020908152604080832093851683529281529082902080548351818402810184019094528084526060939283018282801561055c57602002820191906000526020600020905b815481526020019060010190808311610548575b505050505090505b92915050565b610572611fa8565b6001600160a01b0316610583610fa6565b6001600160a01b0316146105c7576040805162461bcd60e51b8152602060048201526006602482015265534f5f434e4f60d01b604482015290519081900360640190fd5b606780546001600160a01b0319166001600160a01b0383169081179091556040517fd0654f5900f9e7e4e605a19334306e6a2786bbf960ac0484a4c12feb6428fe2f90600090a250565b6001600160a01b03808416600090815260ce602090815260408083209386168352928152828220805484518184028101840190955280855292938493909283018282801561067e57602002820191906000526020600020905b81548152602001906001019080831161066a575b5050506001600160a01b03808816600090815260d06020526040808220609a54915163bbe4f6db60e01b815296975095919450909116915063bbe4f6db906106ca9089906004016157b7565b60206040518083038186803b1580156106e257600080fd5b505afa1580156106f6573d6000803e3d6000fd5b505050506040513d601f19601f8201168201806040525081019061071a9190615191565b9050600061072782611fac565b505050505091505060005b845181101561082557600060cf600087848151811061074d57fe5b6020908102919091018101518252818101929092526040908101600090812082516101208101845281546001600160801b0381168252600160801b8104600290810b810b810b838801819052600160981b909204810b810b810b958301869052600184015460608401528301546080830152600383015460a0830152600483015460c0830152600583015460e08301526006909201546101008201528c51948d01519095509193610803938a939091899161203f565b90506108196108128383612123565b899061220f565b97505050600101610732565b50505050505b9392505050565b6000805b828110156108aa576001600160a01b038516600090815260ce602052604081208186868581811061086357fe5b90506020020160208101906108789190615175565b6001600160a01b0316815260208101919091526040016000205411156108a257600191505061082b565b600101610836565b506000949350505050565b6108bd614f31565b6108c5612274565b609a546000906001600160a01b031663bbe4f6db6108e96040860160208701615175565b6040518263ffffffff1660e01b815260040161090591906157b7565b60206040518083038186803b15801561091d57600080fd5b505afa158015610931573d6000803e3d6000fd5b505050506040513d601f19601f820116820180604052508101906109559190615191565b9050600061099e6109696020860186615175565b6109796040870160208801615175565b6109896060880160408901615395565b6109996080890160608a01615395565b6122b0565b6040805160e08101909152909150610a5590806109be6020880188615175565b6001600160a01b031681526020018660200160208101906109df9190615175565b6001600160a01b03168152602001846001600160a01b03168152602001838152602001866040016020810190610a159190615395565b60020b8152602001610a2d6080880160608901615395565b60020b8152602001610a4560a0880160808901615543565b6001600160801b03169052612311565b925050505b919050565b600080610a6d858585612493565b90969095509350505050565b610a81611fa8565b6001600160a01b0316610a92610fa6565b6001600160a01b031614610ad6576040805162461bcd60e51b8152602060048201526006602482015265534f5f434e4f60d01b604482015290519081900360640190fd5b60cd80546001600160a01b0319166001600160a01b0383169081179091556040517f39870277935708b88965de17b0c29d3c1ad93a200dce569fc56702229432973e90600090a250565b6034546001600160a01b031690565b610b37611fa8565b6001600160a01b0316610b48610fa6565b6001600160a01b031614610b8c576040805162461bcd60e51b8152602060048201526006602482015265534f5f434e4f60d01b604482015290519081900360640190fd5b6033546040516000916001600160a01b031690600080516020615c48833981519152908390a3603380546001600160a01b0319908116909155603480549091169055565b6001600160a01b03808416600090815260ce6020908152604080832093861683529281528282208054845181840281018401909552808552929384938493919291830182828015610c4057602002820191906000526020600020905b815481526020019060010190808311610c2c575b505083519394506000925050505b81811015610d3657600060cf6000858481518110610c6857fe5b6020908102919091018101518252818101929092526040908101600090812082516101208101845281546001600160801b0381168252600160801b8104600290810b810b810b96830196909652600160981b9004850b850b850b9381019390935260018101546060840152928301546080830152600383015460a0830152600483015460c0830152600583015460e0830152600690920154610100820152915087610d1857816101000151610d1e565b8160e001515b9050610d2a868261276f565b95505050600101610c4e565b50919695505050505050565b6000610d4c6127c9565b6001600160a01b03808516600090815260ce60209081526040808320938716835292815282822080548451818402810184019095528085529293929091830182828015610db857602002820191906000526020600020905b815481526020019060010190808311610da4575b5050506001600160a01b03808816600090815260d06020526040808220609a54915163bbe4f6db60e01b815296975095919450909116915063bbe4f6db90610e049089906004016157b7565b60206040518083038186803b158015610e1c57600080fd5b505afa158015610e30573d6000803e3d6000fd5b505050506040513d601f19601f82011682018060405250810190610e549190615191565b83519091506000610e6483611fac565b505050505091505060005b82811015610f9957600060cf6000888481518110610e8957fe5b602090810291909101810151825281810192909252604001600090812080548c51938d01519194509192610ed8928a92600160801b8204600290810b93600160981b909304900b91899161203f565b604080516101208101825284546001600160801b0381168252600160801b8104600290810b810b810b6020840152600160981b909104810b810b810b9282019290925260018501546060820152908401546080820152600384015460a0820152600484015460c0820152600584015460e08201526006840154610100820152909150610f6f90610f689083612123565b8a9061220f565b81516002840155602082015160038401556040909101516004909201919091559650600101610e6f565b5050505050509392505050565b6033546001600160a01b031690565b610fbd614f60565b610fc56127c9565b609a54825160405163bbe4f6db60e01b81526000926001600160a01b03169163bbe4f6db91610ff791906004016157b7565b60206040518083038186803b15801561100f57600080fd5b505afa158015611023573d6000803e3d6000fd5b505050506040513d601f19601f820116820180604052508101906110479190615191565b6060840151609a54855160405163033e16f360e21b81529394506000928312936001600160a01b0390921691630cf85bcc91611085916004016157b7565b60806040518083038186803b15801561109d57600080fd5b505afa1580156110b1573d6000803e3d6000fd5b505050506040513d601f19601f820116820180604052508101906110d59190615400565b606001519050600080600061111886896060015160d160008c600001516001600160a01b03166001600160a01b0316815260200190815260200160002054612803565b905087608001516001600160a01b0316600014611139578760800151611163565b876020015161115c5773fffd8963efd1fc6a506488495d951d5263988d25611163565b6401000276a45b6001600160a01b03166080890152600061117c876128d9565b90505b6040820151158015906111ac575088608001516001600160a01b031682602001516001600160a01b031614155b15611534576111b9614f84565b6020808401516001600160a01b031682528351908b01516111dd918a91859061294c565b15156040830152600290810b810b60208301819052620d89e719910b121561120e57620d89e719602082015261122d565b6020810151620d89e860029190910b131561122d57620d89e860208201525b61123a8160200151612a6e565b6001600160a01b03166060820152602080840151908b01516112d7919061127d578b608001516001600160a01b031683606001516001600160a01b03161161129b565b8b608001516001600160a01b031683606001516001600160a01b0316105b6112a95782606001516112af565b8b608001515b856080015186604001518e602001516112cc578e60a001516112d2565b8e60c001515b612d96565b60c085015260a084015260808301526001600160a01b0316602084015286156113355761132b61132061131b8360c00151846080015161276f90919063ffffffff16565b612f88565b604085015190612fd4565b6040840152611356565b6113506113458260a00151612f88565b60408501519061220f565b60408401525b60808301516001600160801b0316156113f8578960200151156113945761138e8160a001518b60a0015162ffffff16620f4240613039565b60c08201525b60c0810151948501946000906113b39062ffffff8916620f4240613039565b60c0830151958101959091506000906113cc9083613073565b90506113ea81600160801b87608001516001600160801b03166130d0565b606086018051909101905250505b80606001516001600160a01b031683602001516001600160a01b031614156114f6578060400151156114cc578960400151156114835789516001600160a01b0316600090815260d0602090815260409182902083820151835160608082018652880151815260e08f0180515182860152519093015193830193909352916114819183919061317f565b505b60006114938983602001516131be565b90508a60200151156114ae576114ab81600f0b61324d565b90505b6114bc846080015182613280565b6001600160801b03166080850152505b89602001516114df5780602001516114e8565b60018160200151035b600290810b900b835261152e565b80600001516001600160a01b031683602001516001600160a01b03161461152e576115248360200151613336565b600290810b900b83525b5061117f565b88604001511561155e57606082015189516001600160a01b0316600090815260d160205260409020555b5060408051606081018252915160020b825260208201939093529182015295945050505050565b61158d614fc0565b50600090815260cf602090815260409182902082516101208101845281546001600160801b0381168252600160801b8104600290810b810b810b94830194909452600160981b9004830b830b830b9381019390935260018101546060840152908101546080830152600381015460a0830152600481015460c0830152600581015460e08301526006015461010082015290565b611628612274565b600083815260cf6020526040902060058101546116599061165490859061164e90612f88565b9061220f565b613634565b81600501819055506116756116548361164e8460060154612f88565b600690910155505050565b6034546001600160a01b03166116c5576040805162461bcd60e51b81526020600482015260056024820152640534f5f43360dc1b604482015290519081900360640190fd5b6116cd611fa8565b6034546001600160a01b03908116911614611718576040805162461bcd60e51b8152602060048201526006602482015265534f5f434e4360d01b604482015290519081900360640190fd5b6034546033546040516001600160a01b039283169290911690600080516020615c4883398151915290600090a360348054603380546001600160a01b03199081166001600160a01b03841617909155169055565b600054610100900460ff1680611785575061178561368b565b80611793575060005460ff16155b6117ce5760405162461bcd60e51b815260040180806020018281038252602e815260200180615bf9602e913960400191505060405180910390fd5b600054610100900460ff161580156117f9576000805460ff1961ff0019909116610100171660011790555b61180161369c565b61180a82613746565b801561181c576000805461ff00191690555b5050565b6067546001600160a01b031690565b609a546001600160a01b031690565b60008060005b838110156118ac57600085858381811061185a57fe5b905060200201602081019061186f9190615175565b90506000806118808984600061380b565b909250905061188f868361220f565b955061189b858261276f565b945050600190920191506118449050565b50935093915050565b60006118bf611fa8565b90506000816001600160a01b0316630dfe16816040518163ffffffff1660e01b815260040160206040518083038186803b1580156118fc57600080fd5b505afa158015611910573d6000803e3d6000fd5b505050506040513d601f19601f820116820180604052508101906119349190615191565b609a5460405163bbe4f6db60e01b81529192506001600160a01b03169063bbe4f6db906119659084906004016157b7565b60206040518083038186803b15801561197d57600080fd5b505afa158015611991573d6000803e3d6000fd5b505050506040513d601f19601f820116820180604052508101906119b59190615191565b6001600160a01b0316826001600160a01b0316146119ee5760405162461bcd60e51b81526004016119e590615977565b60405180910390fd5b60675460405163d348799760e01b81526001600160a01b039091169063d348799790611a24908990899089908990600401615b1b565b600060405180830381600087803b158015611a3e57600080fd5b505af1158015611a52573d6000803e3d6000fd5b50505050505050505050565b611a6661501b565b611a6e612274565b609a546000906001600160a01b031663bbe4f6db611a926040860160208701615175565b6040518263ffffffff1660e01b8152600401611aae91906157b7565b60206040518083038186803b158015611ac657600080fd5b505afa158015611ada573d6000803e3d6000fd5b505050506040513d601f19601f82011682018060405250810190611afe9190615191565b9050600060d181611b156040870160208801615175565b6001600160a01b03166001600160a01b03168152602001908152602001600020549050600060d06000866020016020810190611b519190615175565b6001600160a01b03166001600160a01b031681526020019081526020016000209050611b7b61504c565b6000611b9685611b9160a08a0160808b01615395565b613852565b90506000611bae86611b9160c08b0160a08c01615395565b9050611c746040518060c00160405280886001600160a01b031681526020018a6080016020810190611be09190615395565b60020b8152602001611bf860c08c0160a08d01615395565b60020b81526020018a6040013581526020018a60600135815260200160405180604001604052808c6000016020810190611c329190615175565b6001600160a01b031681526020018a6001600160a01b0316815250604051602001611c5d9190615a9a565b6040516020818303038152906040528152506138e0565b92506000611c8187611fac565b505050505091505082158015611ca65750611ca687611b9160a08c0160808d01615395565b15611ceb57611ceb611cbe60a08b0160808c01615395565b6040805160608101825289815260c08d0135602082015260e08d01359181019190915287919084906139fa565b81158015611d085750611d0887611b9160c08c0160a08d01615395565b15611d2057611d20611cbe60c08b0160a08c01615395565b505060408051610140810190915260009150611def9080611d4460208b018b615175565b6001600160a01b03168152602001896020016020810190611d659190615175565b6001600160a01b03908116825288166020820152604001611d8c60a08b0160808c01615395565b60020b8152602001611da460c08b0160a08c01615395565b60020b815260208082018890526040868101516001600160801b03169083015285516060830152850151608082015260a001611de8368b90038b0160c08c016153e5565b9052613a39565b6040805160808101825284518152602080860151908201528082019290925292909201516001600160801b031660608301525095945050505050565b611e33614fc0565b60cf6000611e43878787876122b0565b8152602080820192909252604090810160002081516101208101835281546001600160801b0381168252600160801b8104600290810b810b810b95830195909552600160981b9004840b840b840b9281019290925260018101546060830152918201546080820152600382015460a0820152600482015460c0820152600582015460e082015260069091015461010082015290505b949350505050565b60cd546001600160a01b031690565b600080611f9d8560cf6000611f068a8a8a8a6122b0565b8152602080820192909252604090810160002081516101208101835281546001600160801b0381168252600160801b8104600290810b810b810b95830195909552600160981b9004840b840b840b9281019290925260018101546060830152918201546080820152600382015460a0820152600482015460c0820152600582015460e0820152600690910154610100820152613d3f565b509695505050505050565b3390565b6000806000806000806000876001600160a01b0316633850c7bd6040518163ffffffff1660e01b815260040160e06040518083038186803b158015611ff057600080fd5b505afa158015612004573d6000803e3d6000fd5b505050506040513d601f19601f820116820180604052508101906120289190615653565b959e949d50929b5090995097509550909350915050565b612047615076565b600286810b810b60009081526020899052604080822088840b90930b8252902060018083015490820154612079615076565b8a60020b8960020b121561208f57828803612091565b825b6020820152600060028b810b908b900b126120ae578289036120b0565b825b905060008660020154905060008660020154905060008e60020b8d60020b12156120dc57828b036120de565b825b905060008e60020b8e60020b126120f757828c036120f9565b825b6020870151909d03949094038552909903999099036040830152509b9a5050505050505050505050565b6000806121338460400151612a6e565b905060006121506121478660200151612a6e565b86518490613dee565b905060006121816121728760a001518760200151612fd490919063ffffffff16565b61217b84612f88565b90613e57565b905060006121ea6121d66121bd6121a98a608001518a60000151612fd490919063ffffffff16565b600160601b886001600160a01b0316613f00565b60c08a015160408a01516121d091612fd4565b90612fd4565b885161217b906001600160801b0316612f88565b9050612204600160601b6121fe848461220f565b90613fa4565b979650505050505050565b60008282018183128015906122245750838112155b80612239575060008312801561223957508381125b61082b5760405162461bcd60e51b8152600401808060200182810382526021815260200180615bd86021913960400191505060405180910390fd5b6067546001600160a01b0316612288611fa8565b6001600160a01b0316146122ae5760405162461bcd60e51b81526004016119e590615936565b565b604080516bffffffffffffffffffffffff19606096871b81166020808401919091529590961b9095166034860152600292830b60e890811b60488701529190920b901b604b8401528051602e818503018152604e9093019052815191012090565b612319614f31565b60006123906040518060a0016040528085604001516001600160a01b03168152602001606760009054906101000a90046001600160a01b03166001600160a01b03168152602001856080015160020b81526020018560a0015160020b81526020018560c001516001600160801b031681525061405c565b905060008060006123a0866141b2565b92509250925060006123bf6123b484612f88565b86516121d090612f88565b905060006123dc6123cf84612f88565b6121d08860200151612f88565b90506123f088604001518960800151613852565b61241f5760808801516020808a01516001600160a01b0316600090815260d09091526040902061241f9161437b565b61243188604001518960a00151613852565b6124605760a08801516020808a01516001600160a01b0316600090815260d0909152604090206124609161437b565b6040805160a081018252875181526020978801519781019790975286019490945260608501525050608082015292915050565b6001600160a01b03808416600090815260ce602090815260408083209386168352928152828220805484518184028101840190955280855292938493849391929183018282801561250357602002820191906000526020600020905b8154815260200190600101908083116124ef575b5050609a5460405163bbe4f6db60e01b815294955060009461259794506001600160a01b03909116925063bbe4f6db9150612542908a906004016157b7565b60206040518083038186803b15801561255a57600080fd5b505afa15801561256e573d6000803e3d6000fd5b505050506040513d601f19601f820116820180604052508101906125929190615191565b611fac565b50508651949550600093505050505b8181101561276357600060cf60008684815181106125c057fe5b6020908102919091018101518252818101929092526040908101600090812082516101208101845281546001600160801b0381168252600160801b8104600290810b810b810b968301879052600160981b909104810b810b810b9482019490945260018201546060820152928101546080840152600381015460a0840152600481015460c0840152600581015460e08401526006015461010083015290925090819061266b90612a6e565b9050600061267c8460400151612a6e565b90508a801561269c5750806001600160a01b0316876001600160a01b0316105b156126d5576126ce826001600160a01b0316886001600160a01b0316116126c357826126c5565b875b85518390613dee565b9250612728565b8a1580156126f45750816001600160a01b0316876001600160a01b0316115b156127285761272582826001600160a01b0316896001600160a01b03161061271c578261271e565b885b865161439f565b92505b506127359050888261276f565b9750886127595760006127488b84613d3f565b509050612755888261276f565b9750505b50506001016125a6565b50505050935093915050565b60008282018381101561082b576040805162461bcd60e51b815260206004820152601b60248201527f536166654d6174683a206164646974696f6e206f766572666c6f770000000000604482015290519081900360640190fd5b60cd546001600160a01b03166127dd611fa8565b6001600160a01b0316146122ae5760405162461bcd60e51b81526004016119e590615957565b61280b615097565b60008061281786611fac565b5050505050915091506000866001600160a01b0316631a6865026040518163ffffffff1660e01b815260040160206040518083038186803b15801561285b57600080fd5b505afa15801561286f573d6000803e3d6000fd5b505050506040513d601f19601f82011682018060405250810190612893919061555f565b6040805160a08101825260029490940b84526001600160a01b0390941660208401529282019590955260608101939093526001600160801b031660808301525092915050565b6000816001600160a01b031663d0c93a7c6040518163ffffffff1660e01b815260040160206040518083038186803b15801561291457600080fd5b505afa158015612928573d6000803e3d6000fd5b505050506040513d601f19601f8201168201806040525081019061056491906153b1565b60008060008460020b8660020b8161296057fe5b05905060008660020b12801561298757508460020b8660020b8161298057fe5b0760020b15155b1561299157600019015b83156129fa576000806129a3836143e2565b9092509050600160ff82161b8001600019016000816129c28c866143f4565b1680151596509050856129dc57888360ff168603026129ef565b886129e682614473565b840360ff168603025b965050505050612a64565b600080612a09836001016143e2565b9092509050600019600160ff83161b0119600081612a278c866143f4565b168015159650905085612a4757888360ff0360ff16866001010102612a5d565b8883612a528361450e565b0360ff168660010101025b9650505050505b5094509492505050565b60008060008360020b12612a85578260020b612a8d565b8260020b6000035b9050620d89e8811115612acb576040805162461bcd60e51b81526020600482015260016024820152601560fa1b604482015290519081900360640190fd5b600060018216612adf57600160801b612af1565b6ffffcb933bd6fad37aa2d162d1a5940015b6001600160881b031690506002821615612b1b576ffff97272373d413259a46990580e213a0260801c5b6004821615612b3a576ffff2e50f5f656932ef12357cf3c7fdcc0260801c5b6008821615612b59576fffe5caca7e10e4e61c3624eaa0941cd00260801c5b6010821615612b78576fffcb9843d60f6159c9db58835c9266440260801c5b6020821615612b97576fff973b41fa98c081472e6896dfb254c00260801c5b6040821615612bb6576fff2ea16466c96a3843ec78b326b528610260801c5b6080821615612bd5576ffe5dee046a99a2a811c461f1969c30530260801c5b610100821615612bf5576ffcbe86c7900a88aedcffc83b479aa3a40260801c5b610200821615612c15576ff987a7253ac413176f2b074cf7815e540260801c5b610400821615612c35576ff3392b0822b70005940c7a398e4b70f30260801c5b610800821615612c55576fe7159475a2c29b7443b29c7fa6e889d90260801c5b611000821615612c75576fd097f3bdfd2022b8845ad8f792aa58250260801c5b612000821615612c95576fa9f746462d870fdf8a65dc1f90e061e50260801c5b614000821615612cb5576f70d869a156d2a1b890bb3df62baf32f70260801c5b618000821615612cd5576f31be135f97d08fd981231505542fcfa60260801c5b62010000821615612cf6576f09aa508b5b7a84e1c677de54f3e99bc90260801c5b62020000821615612d16576e5d6af8dedb81196699c329225ee6040260801c5b62040000821615612d35576d2216e584f5fa1ea926041bedfe980260801c5b62080000821615612d52576b048a170391f7dc42444e8fa20260801c5b60008460020b1315612d6d578060001981612d6957fe5b0490505b640100000000810615612d81576001612d84565b60005b60ff16602082901c0192505050919050565b60008080806001600160a01b03808916908a161015818712801590612e1b576000612dcf8989620f42400362ffffff16620f42406130d0565b905082612de857612de38c8c8c60016145f7565b612df5565b612df58b8d8c6001614670565b9550858110612e06578a9650612e15565b612e128c8b8386614710565b96505b50612e65565b81612e3257612e2d8b8b8b6000614670565b612e3f565b612e3f8a8c8b60006145f7565b9350838860000310612e5357899550612e65565b612e628b8a8a6000038561475c565b95505b6001600160a01b038a8116908716148215612ec857808015612e845750815b612e9a57612e95878d8c6001614670565b612e9c565b855b9550808015612ea9575081155b612ebf57612eba878d8c60006145f7565b612ec1565b845b9450612f12565b808015612ed25750815b612ee857612ee38c888c60016145f7565b612eea565b855b9550808015612ef7575081155b612f0d57612f088c888c6000614670565b612f0f565b845b94505b81158015612f2257508860000385115b15612f2e578860000394505b818015612f4d57508a6001600160a01b0316876001600160a01b031614155b15612f5c578589039350612f79565b612f76868962ffffff168a620f42400362ffffff16613039565b93505b50505095509550955095915050565b60006001600160ff1b03821115612fd05760405162461bcd60e51b8152600401808060200182810382526028815260200180615c8f6028913960400191505060405180910390fd5b5090565b6000818303818312801590612fe95750838113155b80612ffe5750600083128015612ffe57508381135b61082b5760405162461bcd60e51b8152600401808060200182810382526024815260200180615cb76024913960400191505060405180910390fd5b60006130468484846130d0565b90506000828061305257fe5b848609111561082b57600019811061306957600080fd5b6001019392505050565b6000828211156130ca576040805162461bcd60e51b815260206004820152601e60248201527f536166654d6174683a207375627472616374696f6e206f766572666c6f770000604482015290519081900360640190fd5b50900390565b600080806000198587098686029250828110908390030390508061310657600084116130fb57600080fd5b50829004905061082b565b80841161311257600080fd5b6000848688096000868103871696879004966002600389028118808a02820302808a02820302808a02820302808a02820302808a02820302808a02909103029181900381900460010186841190950394909402919094039290920491909117919091029150509392505050565b600291820b820b600090815260209384526040908190208054835103815560018101805495840151959095039094559290910180549190920151039055565b60405163f30dba9360e01b81526000906001600160a01b0384169063f30dba93906131ed9085906004016158eb565b6101006040518083038186803b15801561320657600080fd5b505afa15801561321a573d6000803e3d6000fd5b505050506040513d601f19601f8201168201806040525081019061323e919061557b565b50949998505050505050505050565b600060016001607f1b031982600f0b136132795760405162461bcd60e51b81526004016119e590615998565b5060000390565b60008082600f0b12156132e557826001600160801b03168260000384039150816001600160801b0316106132e0576040805162461bcd60e51b81526020600482015260026024820152614c5360f01b604482015290519081900360640190fd5b610564565b826001600160801b03168284019150816001600160801b03161015610564576040805162461bcd60e51b81526020600482015260026024820152614c4160f01b604482015290519081900360640190fd5b60006401000276a36001600160a01b03831610801590613372575073fffd8963efd1fc6a506488495d951d5263988d266001600160a01b038316105b6133a7576040805162461bcd60e51b81526020600482015260016024820152602960f91b604482015290519081900360640190fd5b640100000000600160c01b03602083901b166001600160801b03811160071b81811c6001600160401b03811160061b90811c63ffffffff811160051b90811c61ffff811160041b90811c60ff8111600390811b91821c600f811160021b90811c918211600190811b92831c9790881196179094179092171790911717176080811061343a57607f810383901c9150613444565b80607f0383901b91505b908002607f81811c60ff83811c9190911c800280831c81831c1c800280841c81841c1c800280851c81851c1c800280861c81861c1c800280871c81871c1c800280881c81881c1c800280891c81891c1c8002808a1c818a1c1c8002808b1c818b1c1c8002808c1c818c1c1c8002808d1c818d1c1c8002808e1c9c81901c9c909c1c80029c8d901c9e9d607f198f0160401b60c09190911c6001603f1b161760c19b909b1c6001603e1b169a909a1760c29990991c6001603d1b169890981760c39790971c6001603c1b169690961760c49590951c6001603b1b169490941760c59390931c6001603a1b169290921760c69190911c600160391b161760c79190911c600160381b161760c89190911c6680000000000000161760c99190911c6640000000000000161760ca9190911c6620000000000000161760cb9190911c6610000000000000161760cc9190911c6608000000000000161760cd9190911c66040000000000001617693627a301d71055774c8581026f028f6481ab7f045a5af012a19d003aa9198101608090811d906fdb2df09e81959a81455e260799a0632f8301901d600281810b9083900b1461362557886001600160a01b031661360982612a6e565b6001600160a01b0316111561361e5781613620565b805b613627565b815b9998505050505050505050565b600080821215612fd0576040805162461bcd60e51b815260206004820181905260248201527f53616665436173743a2076616c7565206d75737420626520706f736974697665604482015290519081900360640190fd5b6000613696306147a8565b15905090565b600054610100900460ff16806136b557506136b561368b565b806136c3575060005460ff16155b6136fe5760405162461bcd60e51b815260040180806020018281038252602e815260200180615bf9602e913960400191505060405180910390fd5b600054610100900460ff16158015613729576000805460ff1961ff0019909116610100171660011790555b6137316147ae565b8015613743576000805461ff00191690555b50565b600054610100900460ff168061375f575061375f61368b565b8061376d575060005460ff16155b6137a85760405162461bcd60e51b815260040180806020018281038252602e815260200180615bf9602e913960400191505060405180910390fd5b600054610100900460ff161580156137d3576000805460ff1961ff0019909116610100171660011790555b6137db61489d565b609a80546001600160a01b0319166001600160a01b038416179055801561181c576000805461ff00191690555050565b60008060008061381c878787612493565b91509150600061382d888888610bd0565b905061384461383b82612f88565b6121d085612f88565b989197509095505050505050565b60405163f30dba9360e01b81526000906001600160a01b0384169063f30dba93906138819085906004016158eb565b6101006040518083038186803b15801561389a57600080fd5b505afa1580156138ae573d6000803e3d6000fd5b505050506040513d601f19601f820116820180604052508101906138d2919061557b565b9a9950505050505050505050565b6138e861504c565b60006138f78360000151611fac565b5050505050509050600061392e826139128660200151612a6e565b61391f8760400151612a6e565b87606001518860800151614932565b8451602086015160408088015160a08901519151633c8a7d8d60e01b815294955060009485946001600160a01b031693633c8a7d8d9361397693309390918a916004016157cb565b6040805180830381600087803b15801561398f57600080fd5b505af11580156139a3573d6000803e3d6000fd5b505050506040513d601f19601f820116820180604052508101906139c791906156f9565b915091506040518060600160405280838152602001828152602001846001600160801b0316815250945050505050919050565b8160020b8360020b13613a3357600283810b810b6000908152602086815260409182902084518155908401516001820155908301519101555b50505050565b600080613a5883600001518460200151856060015186608001516122b0565b600081815260cf602052604090208054919250906001600160801b0316613c1f5783516001600160a01b03908116600090815260ce602090815260408083208289015185168452825291829020609a548351633b38243160e21b815293519194169263ece090c4926004808301939192829003018186803b158015613adc57600080fd5b505afa158015613af0573d6000803e3d6000fd5b505050506040513d601f19601f82011682018060405250810190613b149190615796565b60ff16818054905010613b395760405162461bcd60e51b81526004016119e5906159cf565b8054600181018255600082815260208120909101849055606086015183546080880151600290810b62ffffff908116600160981b0262ffffff60981b199490920b16600160801b0262ffffff60801b1990921691909117919091161783556040860151613ba590611fac565b5050506020808b01516001600160a01b0316600090815260d082526040812089546101208e015180519401519698509096509094613c009450869350600160801b8204600290810b93600160981b909304900b91889161203f565b8051600287015560208101516003870155604001516004860155505050505b602080850151604080516101208101825284546001600160801b0381168252600160801b8104600290810b810b810b95830195909552600160981b9004840b840b840b9181019190915260018401546060820152918301546080830152600383015460a0830152600483015460c0830152600583015460e083015260068301546101008301526000918291613cb391613d3f565b60c08801518554929450909250613cdf91613cda916001600160801b03918216911661276f565b6149f4565b83546001600160801b0319166001600160801b03919091161783556001830181905560e08601516005840154613d149161276f565b60058401556101008601516006840154613d2d9161276f565b60069093019290925592505050919050565b609a5460405163bbe4f6db60e01b815260009182918291613d7a916001600160a01b039091169063bbe4f6db906125429089906004016157b7565b505050506001600160a01b038816600090815260d0602090815260408083208a8301518b83015160d19094529190932054949650919450613dbf938593508690614a3c565b9250613de38560600151840386600001516001600160801b0316600160801b6130d0565b935050509250929050565b6000826001600160a01b0316846001600160a01b03161115613e0e579192915b836001600160a01b0316613e47606060ff16846001600160801b0316901b8686036001600160a01b0316866001600160a01b03166130d0565b81613e4e57fe5b04949350505050565b600082613e6657506000610564565b82600019148015613e7a5750600160ff1b82145b15613eb65760405162461bcd60e51b8152600401808060200182810382526027815260200180615c686027913960400191505060405180910390fd5b82820282848281613ec357fe5b051461082b5760405162461bcd60e51b8152600401808060200182810382526027815260200180615c686027913960400191505060405180910390fd5b60008060008512613f115784613f1a565b613f1a85614aa4565b90506000808512613f2b5784613f34565b613f3485614aa4565b905060008087128015613f475750600086135b80613f5d5750600087138015613f5d5750600086125b613f68576000613f6b565b60015b90506000613f7a8484886130d0565b905081613f8f57613f8a81612f88565b613f98565b613f9881614ac9565b98975050505050505050565b600081613ff8576040805162461bcd60e51b815260206004820181905260248201527f5369676e6564536166654d6174683a206469766973696f6e206279207a65726f604482015290519081900360640190fd5b8160001914801561400c5750600160ff1b83145b156140485760405162461bcd60e51b8152600401808060200182810382526021815260200180615c276021913960400191505060405180910390fd5b600082848161405357fe5b05949350505050565b6140646150c5565b60008083600001516001600160a01b031663a34123a78560400151866060015187608001516040518463ffffffff1660e01b81526004016140a7939291906158f9565b6040805180830381600087803b1580156140c057600080fd5b505af11580156140d4573d6000803e3d6000fd5b505050506040513d601f19601f820116820180604052508101906140f891906156f9565b9150915083600001516001600160a01b0316634f1eb3d88560200151866040015187606001516001600160801b03806040518663ffffffff1660e01b8152600401614147959493929190615851565b6040805180830381600087803b15801561416057600080fd5b505af1158015614174573d6000803e3d6000fd5b505050506040513d601f19601f820116820180604052508101906141989190615625565b505060408051808201909152918252602082015292915050565b606080820151600090815260cf602090815260408083208286015182516101208101845282546001600160801b0381168252600160801b8104600290810b810b810b96830196909652600160981b9004850b850b850b93810193909352600182015495830195909552918201546080820152600382015460a0820152600482015460c0820152600582015460e082015260068201546101008201529192839283929183916142609190613d3f565b60c088015191965091506001600160801b03161561433f576005820154156142bd57600582015460c087015183546142a592916001600160801b0390811691166130d0565b60058301549094506142b79085613073565b60058301555b60068201541561430257600682015460c087015183546142ea92916001600160801b0390811691166130d0565b60068301549093506142fc9084613073565b60068301555b60c0860151825461432391613cda916001600160801b039081169116613073565b82546001600160801b0319166001600160801b03919091161782555b81546001600160801b031661436a57614365866000015187602001518860600151614add565b614372565b600182018190555b50509193909250565b600290810b810b600090815260209290925260408220828155600181018390550155565b6000826001600160a01b0316846001600160a01b031611156143bf579192915b611ed8826001600160801b03168585036001600160a01b0316600160601b6130d0565b60020b600881901d9161010090910790565b60405163299ce14b60e11b81526000906001600160a01b03841690635339c296906144239085906004016158dd565b60206040518083038186803b15801561443b57600080fd5b505afa15801561444f573d6000803e3d6000fd5b505050506040513d601f19601f8201168201806040525081019061082b91906156e1565b600080821161448157600080fd5b600160801b821061449457608091821c91015b600160401b82106144a757604091821c91015b64010000000082106144bb57602091821c91015b6201000082106144cd57601091821c91015b61010082106144de57600891821c91015b601082106144ee57600491821c91015b600482106144fe57600291821c91015b60028210610a5a57600101919050565b600080821161451c57600080fd5b5060ff6001600160801b0382161561453757607f190161453f565b608082901c91505b6001600160401b0382161561455757603f190161455f565b604082901c91505b63ffffffff82161561457457601f190161457c565b602082901c91505b61ffff82161561458f57600f1901614597565b601082901c91505b60ff8216156145a957600719016145b1565b600882901c91505b600f8216156145c357600319016145cb565b600482901c91505b60038216156145dd57600119016145e5565b600282901c91505b6001821615610a5a5760001901919050565b6000836001600160a01b0316856001600160a01b03161115614617579293925b816146445761463f836001600160801b03168686036001600160a01b0316600160601b6130d0565b614667565b614667836001600160801b03168686036001600160a01b0316600160601b613039565b95945050505050565b6000836001600160a01b0316856001600160a01b03161115614690579293925b600160601b600160e01b03606084901b166001600160a01b0386860381169087166146ba57600080fd5b836146ea57866001600160a01b03166146dd8383896001600160a01b03166130d0565b816146e457fe5b04612204565b6122046147018383896001600160a01b0316613039565b886001600160a01b0316614be6565b600080856001600160a01b03161161472757600080fd5b6000846001600160801b03161161473d57600080fd5b8161474f5761463f8585856001614bf1565b6146678585856001614cd2565b600080856001600160a01b03161161477357600080fd5b6000846001600160801b03161161478957600080fd5b8161479b5761463f8585856000614cd2565b6146678585856000614bf1565b3b151590565b600054610100900460ff16806147c757506147c761368b565b806147d5575060005460ff16155b6148105760405162461bcd60e51b815260040180806020018281038252602e815260200180615bf9602e913960400191505060405180910390fd5b600054610100900460ff1615801561483b576000805460ff1961ff0019909116610100171660011790555b61484361489d565b600061484d611fa8565b603380546001600160a01b0319166001600160a01b03831690811790915560405191925090600090600080516020615c48833981519152908290a3508015613743576000805461ff001916905550565b600054610100900460ff16806148b657506148b661368b565b806148c4575060005460ff16155b6148ff5760405162461bcd60e51b815260040180806020018281038252602e815260200180615bf9602e913960400191505060405180910390fd5b600054610100900460ff1615801561492a576000805460ff1961ff0019909116610100171660011790555b613731614db5565b6000836001600160a01b0316856001600160a01b03161115614952579293925b846001600160a01b0316866001600160a01b03161161497d57614976858585614e55565b9050614667565b836001600160a01b0316866001600160a01b031610156149df5760006149a4878686614e55565b905060006149b3878986614eb8565b9050806001600160801b0316826001600160801b0316106149d457806149d6565b815b92505050614667565b6149ea858584614eb8565b9695505050505050565b806001600160801b0381168114610a5a5760405162461bcd60e51b8152600401808060200182810382526027815260200180615bb16027913960400191505060405180910390fd5b600284810b80820b6000908152602088905260408082205487850b850b83529082205491939092849187900b1215614a7657828503614a78565b825b905060008760020b8760020b12614a9157828603614a93565b825b919095030398975050505050505050565b6000600160ff1b82136132795760405162461bcd60e51b81526004016119e590615998565b6000614ad482612f88565b60000392915050565b6001600160a01b03808416600090815260ce602090815260408083209386168352929052908120805490915b81811015614bde5783838281548110614b1e57fe5b90600052602060002001541415614bd657600182038114614b6c57826001830381548110614b4857fe5b9060005260206000200154838281548110614b5f57fe5b6000918252602090912001555b82805480614b7657fe5b60008281526020808220830160001990810183905590920190925585825260cf90526040812080546001600160b01b0319168155600181018290556002810182905560038101829055600481018290556005810182905560060155614bde565b600101614b09565b505050505050565b808204910615150190565b60008115614c645760006001600160a01b03841115614c2757614c2284600160601b876001600160801b03166130d0565b614c3f565b6001600160801b038516606085901b81614c3d57fe5b045b9050614c5c614c576001600160a01b03881683614ef5565b614f05565b915050611ed8565b60006001600160a01b03841115614c9257614c8d84600160601b876001600160801b0316613039565b614ca9565b614ca9606085901b6001600160801b038716614be6565b905080866001600160a01b031611614cc057600080fd5b6001600160a01b038616039050611ed8565b600082614ce0575083611ed8565b600160601b600160e01b03606085901b168215614d6e576001600160a01b03861684810290858281614d0e57fe5b041415614d3f57818101828110614d3d57614d3383896001600160a01b031683613039565b9350505050611ed8565b505b614d6582614d60878a6001600160a01b03168681614d5957fe5b0490614ef5565b614be6565b92505050611ed8565b6001600160a01b03861684810290858281614d8557fe5b04148015614d9257508082115b614d9b57600080fd5b808203614d33614c57846001600160a01b038b1684613039565b600054610100900460ff1680614dce5750614dce61368b565b80614ddc575060005460ff16155b614e175760405162461bcd60e51b815260040180806020018281038252602e815260200180615bf9602e913960400191505060405180910390fd5b600054610100900460ff16158015613731576000805460ff1961ff0019909116610100171660011790558015613743576000805461ff001916905550565b6000826001600160a01b0316846001600160a01b03161115614e75579192915b6000614e98856001600160a01b0316856001600160a01b0316600160601b6130d0565b9050614667614eb384838888036001600160a01b03166130d0565b614f1b565b6000826001600160a01b0316846001600160a01b03161115614ed8579192915b611ed8614eb383600160601b8787036001600160a01b03166130d0565b8082018281101561056457600080fd5b806001600160a01b0381168114610a5a57600080fd5b806001600160801b0381168114610a5a57600080fd5b6040518060a0016040528060008152602001600081526020016000815260200160008152602001600081525090565b6040518060600160405280600060020b815260200160008152602001600081525090565b6040805160e081018252600080825260208201819052918101829052606081018290526080810182905260a0810182905260c081019190915290565b60405180610120016040528060006001600160801b03168152602001600060020b8152602001600060020b81526020016000815260200160008152602001600081526020016000815260200160008152602001600081525090565b604051806080016040528060008152602001600081526020016000815260200160006001600160801b031681525090565b6040518060600160405280600081526020016000815260200160006001600160801b031681525090565b60405180606001604052806000815260200160008152602001600081525090565b6040805160a08101825260008082526020820181905291810182905260608101829052608081019190915290565b604051806040016040528060008152602001600081525090565b8035610a5a81615b58565b8035610a5a81615b6d565b8051610a5a81615b6d565b600060408284031215615111578081fd5b604051604081018181106001600160401b038211171561512d57fe5b604052823581526020928301359281019290925250919050565b805161ffff81168114610a5a57600080fd5b8035610a5a81615b9f565b805160ff81168114610a5a57600080fd5b600060208284031215615186578081fd5b813561082b81615b58565b6000602082840312156151a2578081fd5b815161082b81615b58565b600080604083850312156151bf578081fd5b82356151ca81615b58565b915060208301356151da81615b58565b809150509250929050565b6000806000606084860312156151f9578081fd5b833561520481615b58565b9250602084013561521481615b58565b9150604084013561522481615b6d565b809150509250925092565b60008060008060808587031215615244578182fd5b843561524f81615b58565b9350602085013561525f81615b58565b9250604085013561526f81615b7b565b9150606085013561527f81615b7b565b939692955090935050565b60008060006080848603121561529e578081fd5b83356152a981615b58565b925060208401356152b981615b58565b91506152c88560408601615100565b90509250925092565b6000806000604084860312156152e5578081fd5b83356152f081615b58565b925060208401356001600160401b038082111561530b578283fd5b818601915086601f83011261531e578283fd5b81358181111561532c578384fd5b876020808302850101111561533f578384fd5b6020830194508093505050509250925092565b600060208284031215615363578081fd5b5035919050565b60008060006060848603121561537e578081fd5b505081359360208301359350604090920135919050565b6000602082840312156153a6578081fd5b813561082b81615b7b565b6000602082840312156153c2578081fd5b815161082b81615b7b565b600061010082840312156153df578081fd5b50919050565b6000604082840312156153f6578081fd5b61082b8383615100565b600060808284031215615411578081fd5b604051608081018181106001600160401b038211171561542d57fe5b604052825161543b81615b58565b8152602083015161544b81615b9f565b6020820152604083015161545e81615b9f565b6040820152606083015161547181615b9f565b60608201529392505050565b600060a082840312156153df578081fd5b600061012082840312156154a0578081fd5b60405161010081018181106001600160401b03821117156154bd57fe5b6040526154c9836150df565b81526154d7602084016150ea565b60208201526154e8604084016150ea565b604082015260608301356060820152615503608084016150df565b608082015261551460a08401615159565b60a082015261552560c08401615159565b60c08201526155378460e08501615100565b60e08201529392505050565b600060208284031215615554578081fd5b813561082b81615b8a565b600060208284031215615570578081fd5b815161082b81615b8a565b600080600080600080600080610100898b031215615597578586fd5b88516155a281615b8a565b80985050602089015180600f0b81146155b9578687fd5b80975050604089015195506060890151945060808901518060060b81146155de578485fd5b60a08a01519094506155ef81615b58565b60c08a015190935063ffffffff81168114615608578283fd5b915061561660e08a016150f5565b90509295985092959890939650565b60008060408385031215615637578182fd5b825161564281615b8a565b60208401519092506151da81615b8a565b600080600080600080600060e0888a03121561566d578081fd5b875161567881615b58565b602089015190975061568981615b7b565b955061569760408901615147565b94506156a560608901615147565b93506156b360808901615147565b92506156c160a08901615164565b915060c08801516156d181615b6d565b8091505092959891949750929550565b6000602082840312156156f2578081fd5b5051919050565b6000806040838503121561570b578182fd5b505080516020909101519092909150565b60008060008060608587031215615731578182fd5b843593506020850135925060408501356001600160401b0380821115615755578384fd5b818701915087601f830112615768578384fd5b813581811115615776578485fd5b886020828501011115615787578485fd5b95989497505060200194505050565b6000602082840312156157a7578081fd5b61082b82615164565b60020b9052565b6001600160a01b0391909116815260200190565b600060018060a01b038716825260208660020b818401528560020b604084015260018060801b038516606084015260a0608084015283518060a0850152825b818110156158265785810183015185820160c00152820161580a565b81811115615837578360c083870101525b50601f01601f19169290920160c001979650505050505050565b6001600160a01b03959095168552600293840b60208601529190920b60408401526001600160801b03918216606084015216608082015260a00190565b6020808252825182820181905260009190848201906040850190845b818110156158c6578351835292840192918401916001016158aa565b50909695505050505050565b901515815260200190565b60019190910b815260200190565b60029190910b815260200190565b600293840b81529190920b60208201526001600160801b03909116604082015260600190565b90815260200190565b918252602082015260400190565b6020808252600790820152660869088be9e86960cb1b604082015260600190565b60208082526006908201526509e84be9e8ab60d31b604082015260600190565b6020808252600790820152662aa1a12fa321ab60c91b604082015260600190565b6020808252601c908201527f506572704d6174683a20696e76657273696f6e206f766572666c6f7700000000604082015260600190565b6020808252600690820152654f425f4f4e4560d01b604082015260600190565b8151815260208083015190820152604080830151908201526060918201516001600160801b03169181019190915260800190565b81516001600160801b0316815260208083015160020b90820152604080830151610120830191615a55908401826157b0565b50606083015160608301526080830151608083015260a083015160a083015260c083015160c083015260e083015160e083015261010080840151818401525092915050565b81516001600160a01b039081168252602092830151169181019190915260400190565b600060a082019050825182526020830151602083015260408301516040830152606083015160608301526080830151608083015292915050565b815160020b8152602080830151908201526040918201519181019190915260600190565b60008582528460208301526060604083015282606083015282846080840137818301608090810191909152601f909201601f191601019392505050565b6001600160a01b038116811461374357600080fd5b801515811461374357600080fd5b8060020b811461374357600080fd5b6001600160801b038116811461374357600080fd5b62ffffff8116811461374357600080fdfe53616665436173743a2076616c756520646f65736e27742066697420696e2031323820626974735369676e6564536166654d6174683a206164646974696f6e206f766572666c6f77496e697469616c697a61626c653a20636f6e747261637420697320616c726561647920696e697469616c697a65645369676e6564536166654d6174683a206469766973696f6e206f766572666c6f778be0079c531659141344cd1fd0a4f28419497f9722a3daafe3b4186f6b6457e05369676e6564536166654d6174683a206d756c7469706c69636174696f6e206f766572666c6f7753616665436173743a2076616c756520646f65736e27742066697420696e20616e20696e743235365369676e6564536166654d6174683a207375627472616374696f6e206f766572666c6f77a264697066735822122056eb5a5fb2c2a116ad9e5f4191aa7f83c7b5e41156efe17263d793b3719c554d64736f6c63430007060033",
  "linkReferences": {},
  "deployedLinkReferences": {}
}