{
  "_format": "hh-sol-artifact-1",
  "contractName": "ChainlinkPriceFeedV3",
  "sourceName": "@perp/perp-oracle-contract/contracts/ChainlinkPriceFeedV3.sol",
  "abi": [
    {
      "inputs": [
        {
          "internalType": "contract AggregatorV3Interface",
          "name": "aggregator",
          "type": "address"
        },
        {
          "internalType": "uint256",
          "name": "timeout",
          "type": "uint256"
        },
        {
          "internalType": "uint24",
          "name": "maxOutlierDeviationRatio",
          "type": "uint24"
        },
        {
          "internalType": "uint256",
          "name": "outlierCoolDownPeriod",
          "type": "uint256"
        },
        {
          "internalType": "uint80",
          "name": "twapInterval",
          "type": "uint80"
        }
      ],
      "stateMutability": "nonpayable",
      "type": "constructor"
    },
    {
      "anonymous": false,
      "inputs": [
        {
          "indexed": false,
          "internalType": "uint256",
          "name": "price",
          "type": "uint256"
        },
        {
          "indexed": false,
          "internalType": "uint256",
          "name": "timestamp",
          "type": "uint256"
        },
        {
          "indexed": false,
          "internalType": "enum IChainlinkPriceFeedV3Event.FreezedReason",
          "name": "freezedReason",
          "type": "uint8"
        }
      ],
      "name": "ChainlinkPriceUpdated",
      "type": "event"
    },
    {
      "inputs": [
        {
          "internalType": "uint256",
          "name": "interval",
          "type": "uint256"
        }
      ],
      "name": "cacheTwap",
      "outputs": [],
      "stateMutability": "nonpayable",
      "type": "function"
    },
    {
      "inputs": [],
      "name": "currentObservationIndex",
      "outputs": [
        {
          "internalType": "uint8",
          "name": "",
          "type": "uint8"
        }
      ],
      "stateMutability": "view",
      "type": "function"
    },
    {
      "inputs": [],
      "name": "decimals",
      "outputs": [
        {
          "internalType": "uint8",
          "name": "",
          "type": "uint8"
        }
      ],
      "stateMutability": "view",
      "type": "function"
    },
    {
      "inputs": [],
      "name": "getAggregator",
      "outputs": [
        {
          "internalType": "address",
          "name": "",
          "type": "address"
        }
      ],
      "stateMutability": "view",
      "type": "function"
    },
    {
      "inputs": [
        {
          "internalType": "uint256",
          "name": "interval",
          "type": "uint256"
        }
      ],
      "name": "getCachedTwap",
      "outputs": [
        {
          "internalType": "uint256",
          "name": "",
          "type": "uint256"
        }
      ],
      "stateMutability": "view",
      "type": "function"
    },
    {
      "inputs": [],
      "name": "getLastValidPrice",
      "outputs": [
        {
          "internalType": "uint256",
          "name": "",
          "type": "uint256"
        }
      ],
      "stateMutability": "view",
      "type": "function"
    },
    {
      "inputs": [],
      "name": "getLastValidTimestamp",
      "outputs": [
        {
          "internalType": "uint256",
          "name": "",
          "type": "uint256"
        }
      ],
      "stateMutability": "view",
      "type": "function"
    },
    {
      "inputs": [],
      "name": "isTimedOut",
      "outputs": [
        {
          "internalType": "bool",
          "name": "",
          "type": "bool"
        }
      ],
      "stateMutability": "view",
      "type": "function"
    },
    {
      "inputs": [
        {
          "internalType": "uint256",
          "name": "",
          "type": "uint256"
        }
      ],
      "name": "observations",
      "outputs": [
        {
          "internalType": "uint256",
          "name": "price",
          "type": "uint256"
        },
        {
          "internalType": "uint256",
          "name": "priceCumulative",
          "type": "uint256"
        },
        {
          "internalType": "uint256",
          "name": "timestamp",
          "type": "uint256"
        }
      ],
      "stateMutability": "view",
      "type": "function"
    }
  ],
  "bytecode": "0x6101206040523480156200001257600080fd5b506040516200140c3803806200140c8339810160408190526200003591620001b1565b6103028054600160a01b600160f01b031916600160a01b6001600160501b038416021790556200007a6001600160a01b038616620001ab602090811b6200025f17901c565b620000a25760405162461bcd60e51b815260040162000099906200027f565b60405180910390fd5b6001600160601b0319606086901b1661010052620f424062ffffff841610620000df5760405162461bcd60e51b815260040162000099906200025c565b6001600160e81b031960e884901b1660a05260c082905260e08490526040805163313ce56760e01b815290516001600160a01b0387169163313ce567916004808301926020929190829003018186803b1580156200013c57600080fd5b505afa15801562000151573d6000803e3d6000fd5b505050506040513d601f19601f8201168201806040525081019062000177919062000232565b60f81b7fff000000000000000000000000000000000000000000000000000000000000001660805250620002a09350505050565b3b151590565b600080600080600060a08688031215620001c9578081fd5b85516001600160a01b0381168114620001e0578182fd5b60208701516040880151919650945062ffffff8116811462000200578182fd5b6060870151608088015191945092506001600160501b038116811462000224578182fd5b809150509295509295909350565b60006020828403121562000244578081fd5b815160ff8116811462000255578182fd5b9392505050565b60208082526009908201526821a8232fa4a6a7a22960b91b604082015260600190565b6020808252600790820152664350465f414e4360c81b604082015260600190565b60805160f81c60a05160e81c60c05160e0516101005160601c6110fb62000311600039806101fd52806106ae52806107485250806101855250806102ee5280610580525080610333528061035e52806105c552806105f05280610ac85250806101d9528061081252506110fb6000f3fe608060405234801561001057600080fd5b50600436106100825760003560e01c80626059a014610087578063086a855e146100a55780631d1a111a146100ad5780631d7866de146100c2578063252c09d7146100d7578063313ce567146100f95780633ad59dbc1461010e578063a6f56bea14610123578063aed3aff714610136575b600080fd5b61008f61013e565b60405161009c9190611051565b60405180910390f35b61008f610146565b6100c06100bb366004610f6b565b61014d565b005b6100ca610171565b60405161009c9190611007565b6100ea6100e5366004610f6b565b6101af565b60405161009c93929190611080565b6101016101d7565b60405161009c9190611096565b6101166101fb565b60405161009c9190610ff3565b61008f610131366004610f6b565b61021f565b610101610256565b610303545b90565b6103045490565b610155610265565b801561016e5761016c8161030354610304546103ea565b505b50565b600061017b610483565b610304546101a9907f0000000000000000000000000000000000000000000000000000000000000000610487565b11905090565b60018161010081106101c057600080fd5b600302018054600182015460029092015490925083565b7f000000000000000000000000000000000000000000000000000000000000000090565b7f000000000000000000000000000000000000000000000000000000000000000090565b600080600061022c6104ea565b91509150836000141561024157509050610251565b61024c84838361064b565b925050505b919050565b60005460ff1681565b3b151590565b600061026f6106a4565b90506103045460001415801561028b5750806040015161030454145b1561029657506103e8565b60006102a1826107fd565b905060008160068111156102b157fe5b14156102ce576020820151610303556040820151610304556103a4565b60068160068111156102dc57fe5b14801561031c575061030454610312907f0000000000000000000000000000000000000000000000000000000000000000610487565b61031a610483565b115b156103a45760006103035483602001511161035c577f0000000000000000000000000000000000000000000000000000000000000000620f424003610383565b7f0000000000000000000000000000000000000000000000000000000000000000620f4240015b905061039261030354826108ea565b6103035561039e610483565b61030455505b7fcfc00d555c19103be8966c15035956ddd6912f374557b4e585dd076399400c306103035461030454836040516103dd9392919061105a565b60405180910390a150505b565b61030254600090600160a01b90046001600160501b0316841461041957610412848484610908565b905061047c565b610302546001600160a01b031661042e610483565b146104765761043d838361092f565b610445610483565b61030280546001600160a01b0319166001600160a01b0392909216919091179055610471848484610908565b610301555b50610301545b9392505050565b4290565b6000828201838110156104e1576040805162461bcd60e51b815260206004820152601b60248201527f536166654d6174683a206164646974696f6e206f766572666c6f770000000000604482015290519081900360640190fd5b90505b92915050565b60008060006104f76106a4565b9050610304546000141580156105135750806040015161030454145b1561052a5761030354610304549250925050610647565b6000610535826107fd565b9050600081600681111561054557fe5b14156105605781602001518260400151935093505050610647565b600681600681111561056e57fe5b1480156105ae5750610304546105a4907f0000000000000000000000000000000000000000000000000000000000000000610487565b6105ac610483565b115b15610638576000610303548360200151116105ee577f0000000000000000000000000000000000000000000000000000000000000000620f424003610615565b7f0000000000000000000000000000000000000000000000000000000000000000620f4240015b905061062461030354826108ea565b61062c610483565b94509450505050610647565b61030354610304549350935050505b9091565b610302546000906001600160a01b0316610663610483565b148015610682575061030254600160a01b90046001600160501b031684145b1561069157506103015461047c565b61069c848484610908565b949350505050565b6106ac610f05565b7f00000000000000000000000000000000000000000000000000000000000000006001600160a01b031663313ce5676040518163ffffffff1660e01b815260040160206040518083038186803b15801561070557600080fd5b505afa925050508015610735575060408051601f3d908101601f1916820190925261073291810190610fd2565b60015b61073e57610143565b60ff1660808201527f00000000000000000000000000000000000000000000000000000000000000006001600160a01b031663feaf968c6040518163ffffffff1660e01b815260040160a06040518083038186803b15801561079f57600080fd5b505afa9250505080156107cf575060408051601f3d908101601f191682019092526107cc91810190610f83565b60015b6107d857610143565b506001600160501b039093168452506020830152604082015260016060820152610143565b6000816060015161081057506001610251565b7f000000000000000000000000000000000000000000000000000000000000000060ff16826080015160ff161461084957506002610251565b81516001600160501b031661086057506003610251565b604082015115806108775750610304548260400151105b8061088c5750610885610483565b8260400151115b1561089957506004610251565b60008260200151136108ad57506005610251565b61030354158015906108c157506103045415155b80156108d557506108d58260200151610a8b565b156108e257506006610251565b506000919050565b60006104e1620f42406109028562ffffff8616610af6565b90610b4f565b600080610916858585610bb6565b905080156109245780610926565b835b95945050505050565b60005460ff161580156109425750600354155b1561099c576040518060600160405280838152602001600081526020018281525060016000610100811061097257fe5b6003020160008201518160000155602082015181600101556040820151816002015590505061016c565b6000805460019060ff1661010081106109b157fe5b604080516060810182526003929092029290920180548252600181015460208301526002015491810182905291508211610a065760405162461bcd60e51b81526004016109fd90611032565b60405180910390fd5b6000805460ff198116600160ff92831681018316919091179283905560408481015181516060810183528881528651602080890151938a0391820290930192820192909252918201879052939092166101008110610a6057fe5b6003020160008201518160000155602082015181600101556040820151816002015590505050505050565b60008082610303541015610aa457610303548303610aab565b8261030354035b61030354909150600090610ac69061090284620f4240610af6565b7f000000000000000000000000000000000000000000000000000000000000000062ffffff161115949350505050565b600082610b05575060006104e4565b82820282848281610b1257fe5b04146104e15760405162461bcd60e51b81526004018080602001828103825260218152602001806110a56021913960400191505060405180910390fd5b6000808211610ba5576040805162461bcd60e51b815260206004820152601a60248201527f536166654d6174683a206469766973696f6e206279207a65726f000000000000604482015290519081900360640190fd5b818381610bae57fe5b049392505050565b6000805460ff16158015610bca5750600354155b15610bd75750600061047c565b6000805460019060ff166101008110610bec57fe5b60030201604051806060016040529081600082015481526020016001820154815260200160028201548152505090506000610c25610483565b90506000610c338288610d59565b90506000610c84610c79610c51610c4a868a610d59565b8a90610af6565b610c73610c6b88604001518b610d5990919063ffffffff16565b885190610af6565b90610487565b602086015190610487565b9050600080610c9284610db6565b91509150600082604001518511610cb6578260400151945082602001519050610d2a565b84826040015111610cd4578160400151945081602001519050610d2a565b6000836040015183604001510390506000846040015187039050610d25610d1a8361090284610d148a602001518a60200151610d5990919063ffffffff16565b90610af6565b602087015190610487565b925050505b8486038015610d4657610d41816109028785610d59565b610d49565b60005b9c9b505050505050505050505050565b600082821115610db0576040805162461bcd60e51b815260206004820152601e60248201527f536166654d6174683a207375627472616374696f6e206f766572666c6f770000604482015290519081900360640190fd5b50900390565b610dbe610f33565b610dc6610f33565b6000805460ff169080610100815b81811015610e47578760018660ff166101008110610dee57fe5b600302016002015411610e385760018560ff166101008110610e0c57fe5b600302016002015460001415610e2a57846001019350839250610e47565b849350836001019250610e47565b60001990940193600101610dd4565b81811415610e675760405162461bcd60e51b81526004016109fd90611012565b60018460ff166101008110610e7857fe5b600302016040518060600160405290816000820154815260200160018201548152602001600282015481525050965060018360ff166101008110610eb857fe5b6003020160405180606001604052908160008201548152602001600182015481526020016002820154815250509550866040015186604001511015610efb578695505b5050505050915091565b6040805160a08101825260008082526020820181905291810182905260608101829052608081019190915290565b60405180606001604052806000815260200160008152602001600081525090565b80516001600160501b038116811461025157600080fd5b600060208284031215610f7c578081fd5b5035919050565b600080600080600060a08688031215610f9a578081fd5b610fa386610f54565b9450602086015193506040860151925060608601519150610fc660808701610f54565b90509295509295909350565b600060208284031215610fe3578081fd5b815160ff811681146104e1578182fd5b6001600160a01b0391909116815260200190565b901515815260200190565b602080825260069082015265086a8be9c8a960d31b604082015260600190565b60208082526005908201526410d517d25560da1b604082015260600190565b90815260200190565b83815260208101839052606081016007831061107257fe5b826040830152949350505050565b9283526020830191909152604082015260600190565b60ff9190911681526020019056fe536166654d6174683a206d756c7469706c69636174696f6e206f766572666c6f77a264697066735822122028ab1eafbc304613d26b911c600dab509eb1a13de9ffd2261a216edd8faff2c664736f6c63430007060033",
  "linkReferences": {},
  "deployedLinkReferences": {}
}