{
  "_format": "hh-sol-artifact-1",
  "contractName": "TestPerpMath",
  "sourceName": "contracts/test/TestPerpMath.sol",
  "abi": [
    {
      "inputs": [
        {
          "internalType": "int256",
          "name": "value",
          "type": "int256"
        }
      ],
      "name": "testAbs",
      "outputs": [
        {
          "internalType": "uint256",
          "name": "",
          "type": "uint256"
        }
      ],
      "stateMutability": "pure",
      "type": "function"
    },
    {
      "inputs": [
        {
          "internalType": "uint256",
          "name": "value",
          "type": "uint256"
        }
      ],
      "name": "testDivBy10_18",
      "outputs": [
        {
          "internalType": "uint256",
          "name": "",
          "type": "uint256"
        }
      ],
      "stateMutability": "pure",
      "type": "function"
    },
    {
      "inputs": [
        {
          "internalType": "int256",
          "name": "value",
          "type": "int256"
        }
      ],
      "name": "testDivBy10_18",
      "outputs": [
        {
          "internalType": "int256",
          "name": "",
          "type": "int256"
        }
      ],
      "stateMutability": "pure",
      "type": "function"
    },
    {
      "inputs": [
        {
          "internalType": "uint160",
          "name": "value",
          "type": "uint160"
        }
      ],
      "name": "testFormatSqrtPriceX96ToPriceX96",
      "outputs": [
        {
          "internalType": "uint256",
          "name": "",
          "type": "uint256"
        }
      ],
      "stateMutability": "pure",
      "type": "function"
    },
    {
      "inputs": [
        {
          "internalType": "uint256",
          "name": "value",
          "type": "uint256"
        }
      ],
      "name": "testFormatX10_18ToX96",
      "outputs": [
        {
          "internalType": "uint256",
          "name": "",
          "type": "uint256"
        }
      ],
      "stateMutability": "pure",
      "type": "function"
    },
    {
      "inputs": [
        {
          "internalType": "uint256",
          "name": "value",
          "type": "uint256"
        }
      ],
      "name": "testFormatX96ToX10_18",
      "outputs": [
        {
          "internalType": "uint256",
          "name": "",
          "type": "uint256"
        }
      ],
      "stateMutability": "pure",
      "type": "function"
    },
    {
      "inputs": [
        {
          "internalType": "int256",
          "name": "a",
          "type": "int256"
        },
        {
          "internalType": "int256",
          "name": "b",
          "type": "int256"
        }
      ],
      "name": "testMax",
      "outputs": [
        {
          "internalType": "int256",
          "name": "",
          "type": "int256"
        }
      ],
      "stateMutability": "pure",
      "type": "function"
    },
    {
      "inputs": [
        {
          "internalType": "int256",
          "name": "a",
          "type": "int256"
        },
        {
          "internalType": "int256",
          "name": "b",
          "type": "int256"
        }
      ],
      "name": "testMin",
      "outputs": [
        {
          "internalType": "int256",
          "name": "",
          "type": "int256"
        }
      ],
      "stateMutability": "pure",
      "type": "function"
    },
    {
      "inputs": [
        {
          "internalType": "int256",
          "name": "value",
          "type": "int256"
        },
        {
          "internalType": "uint24",
          "name": "ratio",
          "type": "uint24"
        }
      ],
      "name": "testMulRatio",
      "outputs": [
        {
          "internalType": "int256",
          "name": "",
          "type": "int256"
        }
      ],
      "stateMutability": "pure",
      "type": "function"
    },
    {
      "inputs": [
        {
          "internalType": "uint256",
          "name": "value",
          "type": "uint256"
        },
        {
          "internalType": "uint24",
          "name": "ratio",
          "type": "uint24"
        }
      ],
      "name": "testMulRatio",
      "outputs": [
        {
          "internalType": "uint256",
          "name": "",
          "type": "uint256"
        }
      ],
      "stateMutability": "pure",
      "type": "function"
    }
  ],
  "bytecode": "0x608060405234801561001057600080fd5b5061063f806100206000396000f3fe608060405234801561001057600080fd5b506004361061009e5760003560e01c80638ffd0e9a116100665780638ffd0e9a14610160578063ae46dd531461017d578063b8e057fc1461019a578063c731e4d1146101c2578063e17eebf0146101e55761009e565b8063382d8bfd146100a35780633cbadb69146100dd57806353a9d080146101005780636331575f14610126578063696c695b14610143575b600080fd5b6100cb600480360360408110156100b957600080fd5b508035906020013562ffffff16610202565b60408051918252519081900360200190f35b6100cb600480360360408110156100f357600080fd5b5080359060200135610215565b6100cb6004803603602081101561011657600080fd5b50356001600160a01b0316610221565b6100cb6004803603602081101561013c57600080fd5b503561023b565b6100cb6004803603602081101561015957600080fd5b5035610246565b6100cb6004803603602081101561017657600080fd5b5035610251565b6100cb6004803603602081101561019357600080fd5b503561025c565b6100cb600480360360408110156101b057600080fd5b508035906020013562ffffff16610267565b6100cb600480360360408110156101d857600080fd5b5080359060200135610273565b6100cb600480360360208110156101fb57600080fd5b503561027f565b600061020e838361028a565b9392505050565b600061020e838361029f565b6000610235826001600160a01b03166102b6565b92915050565b6000610235826102d0565b6000610235826102de565b6000610235826102f7565b600061023582610310565b600061020e8383610339565b600061020e838361034e565b60006102358261035d565b600061020e838362ffffff16620f424061036b565b6000818312156102af578161020e565b5090919050565b60006102356001600160a01b03831680600160601b61040f565b670de0b6b3a7640000900490565b600061023582600160601b670de0b6b3a764000061040f565b600061023582670de0b6b3a7640000600160601b61040f565b6000808212156103305761032b610326836104be565b6104f3565b610235565b610235826104f3565b600061020e838362ffffff16620f424061040f565b60008183126102af578161020e565b670de0b6b3a7640000900590565b6000806000851261037c5784610385565b610385856104be565b90506000808512610396578461039f565b61039f856104be565b9050600080871280156103b25750600086135b806103c857506000871380156103c85750600086125b6103d35760006103d6565b60015b905060006103e584848861040f565b9050816103fa576103f58161054e565b610403565b61040381610596565b98975050505050505050565b6000808060001985870986860292508281109083900303905080610445576000841161043a57600080fd5b50829004905061020e565b80841161045157600080fd5b6000848688096000868103871696879004966002600389028118808a02820302808a02820302808a02820302808a02820302808a02820302808a02909103029181900381900460010186841190950394909402919094039290920491909117919091029150509392505050565b6000600160ff1b82136104ec5760405162461bcd60e51b81526004016104e3906105aa565b60405180910390fd5b5060000390565b60008082121561054a576040805162461bcd60e51b815260206004820181905260248201527f53616665436173743a2076616c7565206d75737420626520706f736974697665604482015290519081900360640190fd5b5090565b60006001600160ff1b0382111561054a5760405162461bcd60e51b81526004018080602001828103825260288152602001806105e26028913960400191505060405180910390fd5b60006105a18261054e565b60000392915050565b6020808252601c908201527f506572704d6174683a20696e76657273696f6e206f766572666c6f770000000060408201526060019056fe53616665436173743a2076616c756520646f65736e27742066697420696e20616e20696e74323536a26469706673582212209a3db759d2a782375a49447ec1fc18309258bde75a07099cbbfcecbed83d0a0a64736f6c63430007060033",
  "linkReferences": {},
  "deployedLinkReferences": {}
}