{
  "_format": "hh-sol-artifact-1",
  "contractName": "UniswapV3PoolDeployer",
  "sourceName": "@uniswap/v3-core/contracts/UniswapV3PoolDeployer.sol",
  "abi": [
    {
      "inputs": [],
      "name": "parameters",
      "outputs": [
        {
          "internalType": "address",
          "name": "factory",
          "type": "address"
        },
        {
          "internalType": "address",
          "name": "token0",
          "type": "address"
        },
        {
          "internalType": "address",
          "name": "token1",
          "type": "address"
        },
        {
          "internalType": "uint24",
          "name": "fee",
          "type": "uint24"
        },
        {
          "internalType": "int24",
          "name": "tickSpacing",
          "type": "int24"
        }
      ],
      "stateMutability": "view",
      "type": "function"
    }
  ],
  "bytecode": "0x608060405234801561001057600080fd5b5060e18061001f6000396000f3fe6080604052348015600f57600080fd5b506004361060285760003560e01c80638903573014602d575b600080fd5b60336075565b604080516001600160a01b0396871681529486166020860152929094168383015262ffffff16606083015260029290920b608082015290519081900360a00190f35b600054600154600280546001600160a01b03938416939283169281169162ffffff600160a01b83041691600160b81b9004900b8556fea2646970667358221220ec619acaaf95a555fa40d8d41f3523c0ed639371c4e9a08c278302f79fb594cb64736f6c63430007060033",
  "linkReferences": {},
  "deployedLinkReferences": {}
}