{
  "_format": "hh-sol-artifact-1",
  "contractName": "TestExchange",
  "sourceName": "contracts/test/TestExchange.sol",
  "abi": [
    {
      "anonymous": false,
      "inputs": [
        {
          "indexed": false,
          "internalType": "address",
          "name": "accountBalance",
          "type": "address"
        }
      ],
      "name": "AccountBalanceChanged",
      "type": "event"
    },
    {
      "anonymous": false,
      "inputs": [
        {
          "indexed": true,
          "internalType": "address",
          "name": "clearingHouse",
          "type": "address"
        }
      ],
      "name": "ClearingHouseChanged",
      "type": "event"
    },
    {
      "anonymous": false,
      "inputs": [
        {
          "indexed": true,
          "internalType": "address",
          "name": "baseToken",
          "type": "address"
        },
        {
          "indexed": false,
          "internalType": "uint256",
          "name": "markTwap",
          "type": "uint256"
        },
        {
          "indexed": false,
          "internalType": "uint256",
          "name": "indexTwap",
          "type": "uint256"
        }
      ],
      "name": "FundingUpdated",
      "type": "event"
    },
    {
      "anonymous": false,
      "inputs": [
        {
          "indexed": true,
          "internalType": "address",
          "name": "baseToken",
          "type": "address"
        },
        {
          "indexed": false,
          "internalType": "uint24",
          "name": "maxTickCrossedWithinBlock",
          "type": "uint24"
        }
      ],
      "name": "MaxTickCrossedWithinBlockChanged",
      "type": "event"
    },
    {
      "anonymous": false,
      "inputs": [
        {
          "indexed": true,
          "internalType": "address",
          "name": "previousOwner",
          "type": "address"
        },
        {
          "indexed": true,
          "internalType": "address",
          "name": "newOwner",
          "type": "address"
        }
      ],
      "name": "OwnershipTransferred",
      "type": "event"
    },
    {
      "inputs": [],
      "name": "candidate",
      "outputs": [
        {
          "internalType": "address",
          "name": "",
          "type": "address"
        }
      ],
      "stateMutability": "view",
      "type": "function"
    },
    {
      "inputs": [],
      "name": "getAccountBalance",
      "outputs": [
        {
          "internalType": "address",
          "name": "",
          "type": "address"
        }
      ],
      "stateMutability": "view",
      "type": "function"
    },
    {
      "inputs": [
        {
          "internalType": "address",
          "name": "trader",
          "type": "address"
        }
      ],
      "name": "getAllPendingFundingPayment",
      "outputs": [
        {
          "internalType": "int256",
          "name": "pendingFundingPayment",
          "type": "int256"
        }
      ],
      "stateMutability": "view",
      "type": "function"
    },
    {
      "inputs": [],
      "name": "getBlockTimestamp",
      "outputs": [
        {
          "internalType": "uint256",
          "name": "",
          "type": "uint256"
        }
      ],
      "stateMutability": "view",
      "type": "function"
    },
    {
      "inputs": [],
      "name": "getClearingHouse",
      "outputs": [
        {
          "internalType": "address",
          "name": "",
          "type": "address"
        }
      ],
      "stateMutability": "view",
      "type": "function"
    },
    {
      "inputs": [],
      "name": "getClearingHouseConfig",
      "outputs": [
        {
          "internalType": "address",
          "name": "",
          "type": "address"
        }
      ],
      "stateMutability": "view",
      "type": "function"
    },
    {
      "inputs": [],
      "name": "getMarketRegistry",
      "outputs": [
        {
          "internalType": "address",
          "name": "",
          "type": "address"
        }
      ],
      "stateMutability": "view",
      "type": "function"
    },
    {
      "inputs": [
        {
          "internalType": "address",
          "name": "baseToken",
          "type": "address"
        }
      ],
      "name": "getMaxTickCrossedWithinBlock",
      "outputs": [
        {
          "internalType": "uint24",
          "name": "",
          "type": "uint24"
        }
      ],
      "stateMutability": "view",
      "type": "function"
    },
    {
      "inputs": [],
      "name": "getOrderBook",
      "outputs": [
        {
          "internalType": "address",
          "name": "",
          "type": "address"
        }
      ],
      "stateMutability": "view",
      "type": "function"
    },
    {
      "inputs": [
        {
          "internalType": "address",
          "name": "trader",
          "type": "address"
        },
        {
          "internalType": "address",
          "name": "baseToken",
          "type": "address"
        }
      ],
      "name": "getPendingFundingPayment",
      "outputs": [
        {
          "internalType": "int256",
          "name": "",
          "type": "int256"
        }
      ],
      "stateMutability": "view",
      "type": "function"
    },
    {
      "inputs": [
        {
          "components": [
            {
              "internalType": "address",
              "name": "trader",
              "type": "address"
            },
            {
              "internalType": "address",
              "name": "baseToken",
              "type": "address"
            },
            {
              "internalType": "int256",
              "name": "base",
              "type": "int256"
            },
            {
              "internalType": "int256",
              "name": "quote",
              "type": "int256"
            }
          ],
          "internalType": "struct IExchange.RealizePnlParams",
          "name": "params",
          "type": "tuple"
        }
      ],
      "name": "getPnlToBeRealized",
      "outputs": [
        {
          "internalType": "int256",
          "name": "",
          "type": "int256"
        }
      ],
      "stateMutability": "view",
      "type": "function"
    },
    {
      "inputs": [
        {
          "internalType": "address",
          "name": "baseToken",
          "type": "address"
        },
        {
          "internalType": "uint32",
          "name": "twapInterval",
          "type": "uint32"
        }
      ],
      "name": "getSqrtMarkTwapX96",
      "outputs": [
        {
          "internalType": "uint160",
          "name": "",
          "type": "uint160"
        }
      ],
      "stateMutability": "view",
      "type": "function"
    },
    {
      "inputs": [
        {
          "internalType": "address",
          "name": "marketRegistryArg",
          "type": "address"
        },
        {
          "internalType": "address",
          "name": "orderBookArg",
          "type": "address"
        },
        {
          "internalType": "address",
          "name": "clearingHouseConfigArg",
          "type": "address"
        }
      ],
      "name": "initialize",
      "outputs": [],
      "stateMutability": "nonpayable",
      "type": "function"
    },
    {
      "inputs": [
        {
          "internalType": "address",
          "name": "baseToken",
          "type": "address"
        }
      ],
      "name": "isOverPriceSpread",
      "outputs": [
        {
          "internalType": "bool",
          "name": "",
          "type": "bool"
        }
      ],
      "stateMutability": "view",
      "type": "function"
    },
    {
      "inputs": [],
      "name": "owner",
      "outputs": [
        {
          "internalType": "address",
          "name": "",
          "type": "address"
        }
      ],
      "stateMutability": "view",
      "type": "function"
    },
    {
      "inputs": [],
      "name": "renounceOwnership",
      "outputs": [],
      "stateMutability": "nonpayable",
      "type": "function"
    },
    {
      "inputs": [
        {
          "internalType": "address",
          "name": "accountBalanceArg",
          "type": "address"
        }
      ],
      "name": "setAccountBalance",
      "outputs": [],
      "stateMutability": "nonpayable",
      "type": "function"
    },
    {
      "inputs": [
        {
          "internalType": "uint256",
          "name": "blockTimestamp",
          "type": "uint256"
        }
      ],
      "name": "setBlockTimestamp",
      "outputs": [],
      "stateMutability": "nonpayable",
      "type": "function"
    },
    {
      "inputs": [
        {
          "internalType": "address",
          "name": "clearingHouseArg",
          "type": "address"
        }
      ],
      "name": "setClearingHouse",
      "outputs": [],
      "stateMutability": "nonpayable",
      "type": "function"
    },
    {
      "inputs": [
        {
          "internalType": "address",
          "name": "baseToken",
          "type": "address"
        },
        {
          "internalType": "uint24",
          "name": "maxTickCrossedWithinBlock",
          "type": "uint24"
        }
      ],
      "name": "setMaxTickCrossedWithinBlock",
      "outputs": [],
      "stateMutability": "nonpayable",
      "type": "function"
    },
    {
      "inputs": [
        {
          "internalType": "address",
          "name": "newOwner",
          "type": "address"
        }
      ],
      "name": "setOwner",
      "outputs": [],
      "stateMutability": "nonpayable",
      "type": "function"
    },
    {
      "inputs": [
        {
          "internalType": "address",
          "name": "trader",
          "type": "address"
        },
        {
          "internalType": "address",
          "name": "baseToken",
          "type": "address"
        }
      ],
      "name": "settleFunding",
      "outputs": [
        {
          "internalType": "int256",
          "name": "fundingPayment",
          "type": "int256"
        },
        {
          "components": [
            {
              "internalType": "int256",
              "name": "twPremiumX96",
              "type": "int256"
            },
            {
              "internalType": "int256",
              "name": "twPremiumDivBySqrtPriceX96",
              "type": "int256"
            }
          ],
          "internalType": "struct Funding.Growth",
          "name": "fundingGrowthGlobal",
          "type": "tuple"
        }
      ],
      "stateMutability": "nonpayable",
      "type": "function"
    },
    {
      "inputs": [
        {
          "components": [
            {
              "internalType": "address",
              "name": "trader",
              "type": "address"
            },
            {
              "internalType": "address",
              "name": "baseToken",
              "type": "address"
            },
            {
              "internalType": "bool",
              "name": "isBaseToQuote",
              "type": "bool"
            },
            {
              "internalType": "bool",
              "name": "isExactInput",
              "type": "bool"
            },
            {
              "internalType": "bool",
              "name": "isClose",
              "type": "bool"
            },
            {
              "internalType": "uint256",
              "name": "amount",
              "type": "uint256"
            },
            {
              "internalType": "uint160",
              "name": "sqrtPriceLimitX96",
              "type": "uint160"
            }
          ],
          "internalType": "struct IExchange.SwapParams",
          "name": "params",
          "type": "tuple"
        }
      ],
      "name": "swap",
      "outputs": [
        {
          "components": [
            {
              "internalType": "uint256",
              "name": "base",
              "type": "uint256"
            },
            {
              "internalType": "uint256",
              "name": "quote",
              "type": "uint256"
            },
            {
              "internalType": "int256",
              "name": "exchangedPositionSize",
              "type": "int256"
            },
            {
              "internalType": "int256",
              "name": "exchangedPositionNotional",
              "type": "int256"
            },
            {
              "internalType": "uint256",
              "name": "fee",
              "type": "uint256"
            },
            {
              "internalType": "uint256",
              "name": "insuranceFundFee",
              "type": "uint256"
            },
            {
              "internalType": "int256",
              "name": "pnlToBeRealized",
              "type": "int256"
            },
            {
              "internalType": "uint256",
              "name": "sqrtPriceAfterX96",
              "type": "uint256"
            },
            {
              "internalType": "int24",
              "name": "tick",
              "type": "int24"
            },
            {
              "internalType": "bool",
              "name": "isPartialClose",
              "type": "bool"
            }
          ],
          "internalType": "struct IExchange.SwapResponse",
          "name": "",
          "type": "tuple"
        }
      ],
      "stateMutability": "nonpayable",
      "type": "function"
    },
    {
      "inputs": [
        {
          "internalType": "int256",
          "name": "amount0Delta",
          "type": "int256"
        },
        {
          "internalType": "int256",
          "name": "amount1Delta",
          "type": "int256"
        },
        {
          "internalType": "bytes",
          "name": "data",
          "type": "bytes"
        }
      ],
      "name": "uniswapV3SwapCallback",
      "outputs": [],
      "stateMutability": "nonpayable",
      "type": "function"
    },
    {
      "inputs": [],
      "name": "updateOwner",
      "outputs": [],
      "stateMutability": "nonpayable",
      "type": "function"
    }
  ],
  "bytecode": "0x608060405234801561001057600080fd5b50614bf1806100206000396000f3fe608060405234801561001057600080fd5b50600436106101635760003560e01c806380f57f11116100ce578063c0c53b8b11610087578063c0c53b8b146102b3578063c575ff79146102c6578063c66b8ed2146102ce578063cb379aa2146102d6578063e0abdf66146102e9578063fa461e33146102fc578063ff8180111461030f57610163565b806380f57f111461026d5780638da5cb5b1461028057806399e4a77114610288578063aa2a82941461029b578063b248c4ef146102a3578063bc5920ba146102ab57610163565b8063449323d811610120578063449323d81461021a5780635eb8a4e61461022d5780636896fabf146102405780636c8381f814610255578063715018a61461025d578063796b89b91461026557610163565b80631393a4691461016857806313af403514610191578063199387cc146101a65780631e81ac33146101b957806329386b7b146101da5780634314ca1c146101fa575b600080fd5b61017b610176366004614290565b61032f565b6040516101889190614626565b60405180910390f35b6101a461019f366004613e7b565b610455565b005b6101a46101b4366004613e7b565b6105b0565b6101cc6101c7366004613eb3565b610692565b60405161018892919061466c565b6101ed6101e8366004613e7b565b610b1c565b60405161018891906149b4565b61020d610208366004614356565b610b3c565b6040516101889190614931565b6101a4610228366004613e7b565b610ffe565b6101a461023b366004613f35565b6110a5565b610248611262565b60405161018891906144ff565b610248611271565b6101a4611280565b61017b611321565b61017b61027b366004613e7b565b611327565b6102486113f9565b610248610296366004613f62565b611408565b61024861149e565b6102486114ad565b6101a46114bc565b6101a46102c1366004613eeb565b6115a8565b6102486116ea565b6102486116f9565b61017b6102e4366004613eb3565b611708565b6101a46102f73660046144a6565b6118bf565b6101a461030a366004614145565b6118c4565b61032261031d366004613e7b565b611a64565b604051610188919061461b565b60ce54815160208301516040516331997f7b60e11b815260009384936001600160a01b0390911692636332fef69261036b929190600401614513565b60606040518083038186803b15801561038357600080fd5b505afa158015610397573d6000803e3d6000fd5b505050506040513d601f19601f820116820180604052508101906103bb91906141bf565b6020810151815191925090600081156103e15760408601516000808412911214156103e4565b60005b9050806103f2576000610449565b6104496040518060c0016040528088600001516001600160a01b0316815260200188602001516001600160a01b03168152602001848152602001858152602001886040015181526020018860600151815250611bcc565b9450505050505b919050565b61045d611c81565b6001600160a01b031661046e6113f9565b6001600160a01b0316146104b2576040805162461bcd60e51b8152602060048201526006602482015265534f5f434e4f60d01b604482015290519081900360640190fd5b6001600160a01b0381166104f6576040805162461bcd60e51b81526020600482015260066024820152650534f5f4e57360d41b604482015290519081900360640190fd5b6033546001600160a01b0382811691161415610542576040805162461bcd60e51b8152602060048201526006602482015265534f5f53414f60d01b604482015290519081900360640190fd5b6034546001600160a01b038281169116141561058e576040805162461bcd60e51b8152602060048201526006602482015265534f5f53414360d01b604482015290519081900360640190fd5b603480546001600160a01b0319166001600160a01b0392909216919091179055565b6105b8611c81565b6001600160a01b03166105c96113f9565b6001600160a01b03161461060d576040805162461bcd60e51b8152602060048201526006602482015265534f5f434e4f60d01b604482015290519081900360640190fd5b6001600160a01b03811661063c5760405162461bcd60e51b815260040161063390614728565b60405180910390fd5b60ce80546001600160a01b0319166001600160a01b0383161790556040517f2b28168781da733c8a034f84683b9c955f156de5e07e24920b1348f51445d3e6906106879083906144ff565b60405180910390a150565b600061069c613d1a565b6106a4611c85565b609a54604051631246dbf560e01b81526001600160a01b0390911690631246dbf5906106d49086906004016144ff565b60206040518083038186803b1580156106ec57600080fd5b505afa158015610700573d6000803e3d6000fd5b505050506040513d601f19601f8201168201806040525081019061072491906140ee565b6107405760405162461bcd60e51b8152600401610633906146a2565b826001600160a01b0316631d1a111a60cf60009054906101000a90046001600160a01b03166001600160a01b0316633e742e3b6040518163ffffffff1660e01b815260040160206040518083038186803b15801561079d57600080fd5b505afa1580156107b1573d6000803e3d6000fd5b505050506040513d601f19601f820116820180604052508101906107d591906144be565b6040518263ffffffff1660e01b81526004016107f191906149d2565b600060405180830381600087803b15801561080b57600080fd5b505af192505050801561081c575060015b5060008061082985611cc1565b60ce546040516359deb70960e11b8152939650919450925061094791889188916001600160a01b039091169063b3bd6e129061086b9085908590600401614513565b60206040518083038186803b15801561088357600080fd5b505afa158015610897573d6000803e3d6000fd5b505050506040513d601f19601f820116820180604052508101906108bb919061410a565b60ce546040516331997f7b60e11b81526001600160a01b0390911690636332fef6906108ed908d908d90600401614513565b60606040518083038186803b15801561090557600080fd5b505afa158015610919573d6000803e3d6000fd5b505050506040513d601f19601f8201168201806040525081019061093d91906141bf565b604001518761215e565b93506000856001600160a01b03166347535d7b6040518163ffffffff1660e01b815260040160206040518083038186803b15801561098457600080fd5b505afa158015610998573d6000803e3d6000fd5b505050506040513d601f19601f820116820180604052508101906109bc91906140ee565b610a3657856001600160a01b031663fe3434616040518163ffffffff1660e01b815260040160206040518083038186803b1580156109f957600080fd5b505afa158015610a0d573d6000803e3d6000fd5b505050506040513d601f19601f82011682018060405250810190610a31919061410a565b610a3e565b610a3e611321565b6001600160a01b038716600090815260d260205260409020549091508114610b12576001600160a01b038616600081815260d36020908152604080832088518984015160d290945293829020600182019390935592835590849055519091907f54e4482fe1d38392effe5d53f0e9e72f60221a75a10cea7abbb684bfb03519bf90610acc90879087906149c4565b60405180910390a2610add87612202565b6001600160a01b038816600090815260d060205260409020805460029290920b62ffffff1662ffffff19909216919091179055505b5050509250929050565b6001600160a01b0316600090815260d4602052604090205462ffffff1690565b610b44613d34565b610b4c611c85565b6020808301516001600160a01b0316600090815260d4909152604090205462ffffff16610b8b5760405162461bcd60e51b815260040161063390614823565b60ce548251602084015160405163165c4e2960e31b81526000936001600160a01b03169263b2e2714892610bc192600401614513565b60206040518083038186803b158015610bd957600080fd5b505afa158015610bed573d6000803e3d6000fd5b505050506040513d601f19601f82011682018060405250810190610c11919061410a565b9050600080610c238560200151612247565b905084608001518015610c3557508215155b15610d75578080610c575750610c578560200151600085128760a0015161225f565b15610d70576000610c66611321565b86516001600160a01b03908116600090815260d560209081526040808320828c015190941683529290522054909150811415610cb45760405162461bcd60e51b8152600401610633906146e4565b85516001600160a01b03908116600090815260d560209081526040808320828b015185168452825280832085905560cf548151633a14199b60e11b8152915193941692637428333692600480840193919291829003018186803b158015610d1a57600080fd5b505afa158015610d2e573d6000803e3d6000fd5b505050506040513d601f19601f82011682018060405250810190610d52919061448a565b60a0880151909150610d6490826122c1565b60a08801525060019250505b610d93565b8015610d935760405162461bcd60e51b815260040161063390614680565b60ce548551602087015160405163d50d01b760e01b81526000936001600160a01b03169263d50d01b792610dc992600401614513565b60206040518083038186803b158015610de157600080fd5b505afa158015610df5573d6000803e3d6000fd5b505050506040513d601f19601f82011682018060405250810190610e19919061410a565b90506000610e26876122d6565b9050610e3a87602001518260c001516126f6565b15610e575760405162461bcd60e51b815260040161063390614706565b60008515610e715760408801511515600087121415610e74565b60005b905060008115610ed857610ed56040518060c001604052808b600001516001600160a01b031681526020018b602001516001600160a01b03168152602001898152602001868152602001856000015181526020018560200151815250611bcc565b90505b609a5460208a015160405163bbe4f6db60e01b8152600092610f67926001600160a01b039091169163bbe4f6db91610f12916004016144ff565b60206040518083038186803b158015610f2a57600080fd5b505afa158015610f3e573d6000803e3d6000fd5b505050506040513d601f19601f82011682018060405250810190610f629190613e97565b61277f565b5050505050506001600160a01b03169050604051806101400160405280610f918660000151612812565b8152602001610fa38660200151612812565b81526020018560400151815260200185606001518152602001856080015181526020018560a0015181526020018381526020018281526020018560c0015160020b815260200188151581525098505050505050505050919050565b611006611c81565b6001600160a01b03166110176113f9565b6001600160a01b03161461105b576040805162461bcd60e51b8152602060048201526006602482015265534f5f434e4f60d01b604482015290519081900360640190fd5b606780546001600160a01b0319166001600160a01b0383169081179091556040517fd0654f5900f9e7e4e605a19334306e6a2786bbf960ac0484a4c12feb6428fe2f90600090a250565b6110ad611c81565b6001600160a01b03166110be6113f9565b6001600160a01b031614611102576040805162461bcd60e51b8152602060048201526006602482015265534f5f434e4f60d01b604482015290519081900360640190fd5b611114826001600160a01b031661283b565b6111305760405162461bcd60e51b815260040161063390614843565b609a54604051631246dbf560e01b81526001600160a01b0390911690631246dbf5906111609085906004016144ff565b60206040518083038186803b15801561117857600080fd5b505afa15801561118c573d6000803e3d6000fd5b505050506040513d601f19601f820116820180604052508101906111b091906140ee565b6111cc5760405162461bcd60e51b8152600401610633906146a2565b6111d4612841565b62ffffff168162ffffff1611156111fd5760405162461bcd60e51b815260040161063390614767565b6001600160a01b038216600081815260d4602052604090819020805462ffffff191662ffffff8516179055517f998d553f208e581d188c66da9e7d19bac5ca64d002753791210c4271c8e955d0906112569084906149b4565b60405180910390a25050565b60ce546001600160a01b031690565b6034546001600160a01b031690565b611288611c81565b6001600160a01b03166112996113f9565b6001600160a01b0316146112dd576040805162461bcd60e51b8152602060048201526006602482015265534f5f434e4f60d01b604482015290519081900360640190fd5b6033546040516000916001600160a01b031690600080516020614b03833981519152908390a3603380546001600160a01b0319908116909155603480549091169055565b60d65490565b60ce546040516357ba739b60e11b815260009182916001600160a01b039091169063af74e7369061135c9086906004016144ff565b60006040518083038186803b15801561137457600080fd5b505afa158015611388573d6000803e3d6000fd5b505050506040513d6000823e601f3d908101601f191682016040526113b09190810190613f8f565b805190915060005b818110156113f1576113e76113e0868584815181106113d357fe5b6020026020010151611708565b8590612848565b93506001016113b8565b505050919050565b6033546001600160a01b031690565b609a5460405163bbe4f6db60e01b8152600091611495916001600160a01b039091169063bbe4f6db9061143f9087906004016144ff565b60206040518083038186803b15801561145757600080fd5b505afa15801561146b573d6000803e3d6000fd5b505050506040513d601f19601f8201168201806040525081019061148f9190613e97565b836128ad565b90505b92915050565b60cf546001600160a01b031690565b60cd546001600160a01b031690565b6034546001600160a01b0316611501576040805162461bcd60e51b81526020600482015260056024820152640534f5f43360dc1b604482015290519081900360640190fd5b611509611c81565b6034546001600160a01b03908116911614611554576040805162461bcd60e51b8152602060048201526006602482015265534f5f434e4360d01b604482015290519081900360640190fd5b6034546033546040516001600160a01b039283169290911690600080516020614b0383398151915290600090a360348054603380546001600160a01b03199081166001600160a01b03841617909155169055565b600054610100900460ff16806115c157506115c16128bb565b806115cf575060005460ff16155b61160a5760405162461bcd60e51b815260040180806020018281038252602e815260200180614ab4602e913960400191505060405180910390fd5b600054610100900460ff16158015611635576000805460ff1961ff0019909116610100171660011790555b61163d6128cc565b61164684612976565b611658836001600160a01b031661283b565b6116745760405162461bcd60e51b815260040161063390614747565b611686826001600160a01b031661283b565b6116a25760405162461bcd60e51b8152600401610633906147e3565b60cd80546001600160a01b038086166001600160a01b03199283161790925560cf80549285169290911691909117905580156116e4576000805461ff00191690555b50505050565b6067546001600160a01b031690565b609a546001600160a01b031690565b60008061171483611cc1565b505060cd546040516347b52fb760e01b81529192506000916001600160a01b03909116906347b52fb7906117509088908890879060040161452d565b60206040518083038186803b15801561176857600080fd5b505afa15801561177c573d6000803e3d6000fd5b505050506040513d601f19601f820116820180604052508101906117a0919061410a565b60ce546040516359deb70960e11b81529192506118b6916001600160a01b039091169063b3bd6e12906117d99089908990600401614513565b60206040518083038186803b1580156117f157600080fd5b505afa158015611805573d6000803e3d6000fd5b505050506040513d601f19601f82011682018060405250810190611829919061410a565b60ce546040516331997f7b60e11b81526001600160a01b0390911690636332fef69061185b908a908a90600401614513565b60606040518083038186803b15801561187357600080fd5b505afa158015611887573d6000803e3d6000fd5b505050506040513d601f19601f820116820180604052508101906118ab91906141bf565b604001518484612a3c565b95945050505050565b60d655565b60006118ce611c81565b90506000816001600160a01b0316630dfe16816040518163ffffffff1660e01b815260040160206040518083038186803b15801561190b57600080fd5b505afa15801561191f573d6000803e3d6000fd5b505050506040513d601f19601f820116820180604052508101906119439190613e97565b609a5460405163bbe4f6db60e01b81529192506001600160a01b03169063bbe4f6db906119749084906004016144ff565b60206040518083038186803b15801561198c57600080fd5b505afa1580156119a0573d6000803e3d6000fd5b505050506040513d601f19601f820116820180604052508101906119c49190613e97565b6001600160a01b0316826001600160a01b0316146119f45760405162461bcd60e51b81526004016106339061478b565b60675460405163fa461e3360e01b81526001600160a01b039091169063fa461e3390611a2a90899089908990899060040161462f565b600060405180830381600087803b158015611a4457600080fd5b505af1158015611a58573d6000803e3d6000fd5b50505050505050505050565b600080611a8b611a86611a78856000611408565b6001600160a01b0316612a87565b612aa1565b90506000836001600160a01b0316631208064760cf60009054906101000a90046001600160a01b03166001600160a01b0316633e742e3b6040518163ffffffff1660e01b815260040160206040518083038186803b158015611aec57600080fd5b505afa158015611b00573d6000803e3d6000fd5b505050506040513d601f19601f82011682018060405250810190611b2491906144be565b6040518263ffffffff1660e01b8152600401611b4091906149d2565b60206040518083038186803b158015611b5857600080fd5b505afa158015611b6c573d6000803e3d6000fd5b505050506040513d601f19601f82011682018060405250810190611b90919061410a565b90506000818311611baa57611ba58284612aba565b611bb4565b611bb48383612aba565b9050611bc382620186a06122c1565b10949350505050565b600080611bfa611bdf8460800151612812565b670de0b6b3a7640000611bf58660400151612812565b612b17565b90506000670de0b6b3a76400008211611c49576000611c2f611c1b84612bc6565b606087015190670de0b6b3a7640000612c12565b60a0860151909150611c419082612848565b915050611c7a565b60a0840151600090611c6490670de0b6b3a764000085612c12565b6060860151909150611c769082612848565b9150505b9392505050565b3390565b6067546001600160a01b0316611c99611c81565b6001600160a01b031614611cbf5760405162461bcd60e51b8152600401610633906146c3565b565b611cc9613d1a565b6000806000846001600160a01b03166347535d7b6040518163ffffffff1660e01b815260040160206040518083038186803b158015611d0757600080fd5b505afa158015611d1b573d6000803e3d6000fd5b505050506040513d601f19601f82011682018060405250810190611d3f91906140ee565b9050600081611dbe57856001600160a01b031663fe3434616040518163ffffffff1660e01b815260040160206040518083038186803b158015611d8157600080fd5b505afa158015611d95573d6000803e3d6000fd5b505050506040513d601f19601f82011682018060405250810190611db9919061410a565b611dc6565b611dc6611321565b6001600160a01b038716600090815260d160205260408120549192509015611ec05760cf60009054906101000a90046001600160a01b03166001600160a01b0316633e742e3b6040518163ffffffff1660e01b815260040160206040518083038186803b158015611e3657600080fd5b505afa158015611e4a573d6000803e3d6000fd5b505050506040513d601f19601f82011682018060405250810190611e6e91906144be565b6001600160a01b038816600090815260d1602052604081205491925090611e9f90611e9a908590612aba565b612cb6565b90508063ffffffff168263ffffffff1611611eba5781611ebc565b805b9150505b60008315611f5b57611ed5611a788984611408565b604051631208064760e01b81529091506001600160a01b03891690631208064790611f049085906004016149d2565b60206040518083038186803b158015611f1c57600080fd5b505afa158015611f30573d6000803e3d6000fd5b505050506040513d601f19601f82011682018060405250810190611f54919061410a565b9450612079565b6000611f72611e9a85611f6c611321565b90612aba565b609a5460405163bbe4f6db60e01b815291925061200291611a78916001600160a01b03169063bbe4f6db90611fab908e906004016144ff565b60206040518083038186803b158015611fc357600080fd5b505afa158015611fd7573d6000803e3d6000fd5b505050506040513d601f19601f82011682018060405250810190611ffb9190613e97565b8386612cfb565b9150886001600160a01b0316631c2ab4056040518163ffffffff1660e01b815260040160206040518083038186803b15801561203d57600080fd5b505afa158015612051573d6000803e3d6000fd5b505050506040513d601f19601f82011682018060405250810190612075919061410a565b9550505b61208281612aa1565b6001600160a01b038916600090815260d2602090815260408083205460d390925290912091975090848214806120b6575081155b156120da576040805180820190915281548152600182015460208201529850612151565b60006121096120f16120ec8886612aba565b612bc6565b612103866120fe8c612e60565b612e79565b90612f83565b82549091506121189082612848565b8a5261214a61213f82600160601b6121318f6000611408565b6001600160a01b0316612c12565b600184015490612848565b60208b0152505b5050505050509193909250565b60cd54604051633fe1339b60e11b815260009182916001600160a01b0390911690637fc2673690612197908a908a90889060040161452d565b602060405180830381600087803b1580156121b157600080fd5b505af11580156121c5573d6000803e3d6000fd5b505050506040513d601f19601f820116820180604052508101906121e9919061410a565b90506121f785858584612a3c565b979650505050505050565b609a5460405163bbe4f6db60e01b81526000918291612239916001600160a01b03169063bbe4f6db90610f129087906004016144ff565b509398975050505050505050565b60008061225383612202565b9050611c7a83826126f6565b60006122b9846122b46040518060a00160405280886001600160a01b031681526020018715151581526020018715151581526020018681526020016122a4898961302c565b6001600160a01b031690526130b7565b6126f6565b949350505050565b6000611495838362ffffff16620f4240612b17565b6122de613d8c565b609a54602083015160405163033e16f360e21b81526000926001600160a01b031691630cf85bcc9161231391906004016144ff565b60806040518083038186803b15801561232b57600080fd5b505afa15801561233f573d6000803e3d6000fd5b505050506040513d601f19601f820116820180604052508101906123639190614213565b9050600080612389856040015186606001518760a001518660200151876040015161325f565b91509150600061239c8660200151611cc1565b50509050600060cd60009054906101000a90046001600160a01b03166001600160a01b031663a3bf0df86040518061010001604052808a602001516001600160a01b031681526020018a60400151151581526020016001151581526020018681526020018a60c001516001600160a01b03168152602001886020015162ffffff168152602001886040015162ffffff168152602001858152506040518263ffffffff1660e01b81526004016124519190614863565b606060405180830381600087803b15801561246b57600080fd5b505af115801561247f573d6000803e3d6000fd5b505050506040513d601f19601f820116820180604052508101906124a391906142fd565b9050600061259f6040518060e0016040528088600001516001600160a01b03168152602001606760009054906101000a90046001600160a01b03166001600160a01b031681526020018a60400151151581526020018a60600151151581526020018781526020018a60c001516001600160a01b031681526020016040518060a001604052808c600001516001600160a01b031681526020018c602001516001600160a01b031681526020018a600001516001600160a01b031681526020018a6040015162ffffff168152602001866020015181525060405160200161258891906148e7565b6040516020818303038152906040528152506132eb565b90506000808960400151156125e0576125ca6125c584600001518a604001516000613515565b61355c565b91506125d98360200151612bc6565b9050612646565b82516125eb90612bc6565b9150896060015180156126015750868360200151145b1561262c576125d96126276120ec86602001518d60a00151612aba90919063ffffffff16565b613570565b6126436125c584602001518a604001516000613515565b90505b6020808b01516001600160a01b0316600090815260d1909152604090205461268f57612670611321565b6020808c01516001600160a01b0316600090815260d190915260409020555b6040518060e001604052808381526020016126b76126b08760200151612bc6565b849061359c565b81526020018381526020018281526020018560200151815260200185604001518152602001856000015160020b81525098505050505050505050919050565b6001600160a01b038216600090815260d4602090815260408083205460d090925282205462ffffff90911690600290810b9083906127409061273b9084900b85612848565b613601565b9050600061275a61273b600285900b62ffffff871661359c565b90508060020b8660020b12806121f757508160020b8660020b13979650505050505050565b6000806000806000806000876001600160a01b0316633850c7bd6040518163ffffffff1660e01b815260040160e06040518083038186803b1580156127c357600080fd5b505afa1580156127d7573d6000803e3d6000fd5b505050506040513d601f19601f820116820180604052508101906127fb91906143f7565b959e949d50929b5090995097509550909350915050565b6000808212156128325761282d61282883613570565b613644565b611498565b61149882613644565b3b151590565b621b13d090565b600082820181831280159061285d5750838112155b80612872575060008312801561287257508381125b6114955760405162461bcd60e51b8152600401808060200182810382526021815260200180614a6a6021913960400191505060405180910390fd5b600061149583600084612cfb565b60006128c63061283b565b15905090565b600054610100900460ff16806128e557506128e56128bb565b806128f3575060005460ff16155b61292e5760405162461bcd60e51b815260040180806020018281038252602e815260200180614ab4602e913960400191505060405180910390fd5b600054610100900460ff16158015612959576000805460ff1961ff0019909116610100171660011790555b61296161369b565b8015612973576000805461ff00191690555b50565b600054610100900460ff168061298f575061298f6128bb565b8061299d575060005460ff16155b6129d85760405162461bcd60e51b815260040180806020018281038252602e815260200180614ab4602e913960400191505060405180910390fd5b600054610100900460ff16158015612a03576000805460ff1961ff0019909116610100171660011790555b612a0b61378a565b609a80546001600160a01b0319166001600160a01b0384161790558015612a38576000805461ff00191690555b5050565b600080612a6486612a5a87876000015161359c90919063ffffffff16565b600160601b612c12565b9050612a7d62015180612a778584612848565b9061381f565b9695505050505050565b60006114986001600160a01b03831680600160601b612b17565b600061149882670de0b6b3a7640000600160601b612b17565b600082821115612b11576040805162461bcd60e51b815260206004820152601e60248201527f536166654d6174683a207375627472616374696f6e206f766572666c6f770000604482015290519081900360640190fd5b50900390565b6000808060001985870986860292508281109083900303905080612b4d5760008411612b4257600080fd5b508290049050611c7a565b808411612b5957600080fd5b6000848688096000868103871696879004966002600389028118808a02820302808a02820302808a02820302808a02820302808a02820302808a02909103029181900381900460010186841190950394909402919094039290920491909117919091029150509392505050565b60006001600160ff1b03821115612c0e5760405162461bcd60e51b8152600401808060200182810382526028815260200180614b706028913960400191505060405180910390fd5b5090565b60008060008512612c235784612c2c565b612c2c85613570565b90506000808512612c3d5784612c46565b612c4685613570565b905060008087128015612c595750600086135b80612c6f5750600087138015612c6f5750600086125b612c7a576000612c7d565b60015b90506000612c8c848488612b17565b905081612ca157612c9c81612bc6565b612caa565b612caa8161355c565b98975050505050505050565b8063ffffffff811681146104505760405162461bcd60e51b8152600401808060200182810382526026815260200180614b4a6026913960400191505060405180910390fd5b6000600a8263ffffffff161015612d27576000612d178561277f565b50949650611c7a95505050505050565b60408051600280825260608201835260009260208301908036833701905050905082840181600081518110612d5857fe5b602002602001019063ffffffff16908163ffffffff16815250508381600181518110612d8057fe5b63ffffffff9092166020928302919091019091015260405163883bdbfd60e01b81526000906001600160a01b0387169063883bdbfd90612dc49085906004016145d1565b60006040518083038186803b158015612ddc57600080fd5b505afa158015612df0573d6000803e3d6000fd5b505050506040513d6000823e601f3d908101601f19168201604052612e189190810190614027565b509050612a7d8463ffffffff1682600081518110612e3257fe5b602002602001015183600181518110612e4757fe5b60200260200101510360060b81612e5a57fe5b056138d7565b600061149882600160601b670de0b6b3a7640000612b17565b60008060cf60009054906101000a90046001600160a01b03166001600160a01b0316636e1d2dd26040518163ffffffff1660e01b815260040160206040518083038186803b158015612eca57600080fd5b505afa158015612ede573d6000803e3d6000fd5b505050506040513d601f19601f82011682018060405250810190612f02919061448a565b90506000612f1084836122c1565b9050600084861115612f4d57612f268686612aba565b9050818111612f3d57612f3881612bc6565b612f46565b612f4682612bc6565b9350612f7a565b612f578587612aba565b9050818111612f6e57612f698161355c565b612f77565b612f778261355c565b93505b50505092915050565b600082612f9257506000611498565b82600019148015612fa65750600160ff1b82145b15612fe25760405162461bcd60e51b8152600401808060200182810382526027815260200180614b236027913960400191505060405180910390fd5b82820282848281612fef57fe5b05146114955760405162461bcd60e51b8152600401808060200182810382526027815260200180614b236027913960400191505060405180910390fd5b6001600160a01b038216600090815260d0602090815260408083205460d490925282205460029190910b9062ffffff16828461306d57600182840303613074565b8183016001015b9050620d89e8600282900b1361308a578061308f565b620d89e85b9050620d89e719600282900b126130a657806130ac565b620d89e7195b9050612f77816138d7565b609a54815160405163033e16f360e21b815260009283926001600160a01b0390911691630cf85bcc916130ec916004016144ff565b60806040518083038186803b15801561310457600080fd5b505afa158015613118573d6000803e3d6000fd5b505050506040513d601f19601f8201168201806040525081019061313c9190614213565b9050600081602001519050600082604001519050600061316b866020015187604001518860600151868661325f565b60cd5460408051610100810182528a516001600160a01b0390811682526020808d01511515818401526000838501819052606084018790526080808f015184169085015262ffffff808c1660a08601528a1660c08501528451808601865281815291820181905260e08401919091529251631477e1bf60e31b815294965091945091169163a3bf0df89161320191600401614863565b606060405180830381600087803b15801561321b57600080fd5b505af115801561322f573d6000803e3d6000fd5b505050506040513d601f19601f8201168201806040525081019061325391906142fd565b51979650505050505050565b6000808615613291578561327e5761327985856001613515565b61328a565b61328a85846001613515565b91506132ac565b8561329c57846132a9565b6132a98584866001613bff565b91505b866132bf576132ba85612bc6565b6132c8565b6132c882612bc6565b9050856132dd576132d881613570565b6132df565b805b90509550959350505050565b6132f3613d1a565b600082606001516133105761330b836080015161355c565b61331d565b61331d8360800151612bc6565b905060008084600001516001600160a01b031663128acb0886602001518760400151868960a001516001600160a01b031660001461335f578960a00151613389565b89604001516133825773fffd8963efd1fc6a506488495d951d5263988d25613389565b6401000276a45b8a60c001516040518663ffffffff1660e01b81526004016133ae959493929190614552565b6040805180830381600087803b1580156133c757600080fd5b505af11580156133db573d6000803e3d6000fd5b505050506040513d601f19601f820116820180604052508101906133ff9190614122565b9150915060008061340f84612812565b61341884612812565b9150915060008760400151151588606001511515146134375781613439565b825b90508760600151158015613458575060a08801516001600160a01b0316155b156134f957600a8860800151821161347e5760808901516134799083612aba565b61348e565b608089015161348e908390612aba565b106134ab5760405162461bcd60e51b815260040161063390614803565b87604001516134d257604051806040016040528089608001518152602001838152506134ec565b604051806040016040528084815260200189608001518152505b9650505050505050610450565b5060408051808201909152918252602082015295945050505050565b6000816135405761353b84613532620f424062ffffff8716612aba565b620f4240612b17565b6122b9565b6122b984620f42406135578162ffffff8816612aba565b613c40565b600061356782612bc6565b60000392915050565b6000600160ff1b82136135955760405162461bcd60e51b8152600401610633906147ac565b5060000390565b60008183038183128015906135b15750838113155b806135c657506000831280156135c657508381135b6114955760405162461bcd60e51b8152600401808060200182810382526024815260200180614b986024913960400191505060405180910390fd5b80600281900b81146104505760405162461bcd60e51b8152600401808060200182810382526029815260200180614a8b6029913960400191505060405180910390fd5b600080821215612c0e576040805162461bcd60e51b815260206004820181905260248201527f53616665436173743a2076616c7565206d75737420626520706f736974697665604482015290519081900360640190fd5b600054610100900460ff16806136b457506136b46128bb565b806136c2575060005460ff16155b6136fd5760405162461bcd60e51b815260040180806020018281038252602e815260200180614ab4602e913960400191505060405180910390fd5b600054610100900460ff16158015613728576000805460ff1961ff0019909116610100171660011790555b61373061378a565b600061373a611c81565b603380546001600160a01b0319166001600160a01b03831690811790915560405191925090600090600080516020614b03833981519152908290a3508015612973576000805461ff001916905550565b600054610100900460ff16806137a357506137a36128bb565b806137b1575060005460ff16155b6137ec5760405162461bcd60e51b815260040180806020018281038252602e815260200180614ab4602e913960400191505060405180910390fd5b600054610100900460ff16158015613817576000805460ff1961ff0019909116610100171660011790555b612961613c7a565b600081613873576040805162461bcd60e51b815260206004820181905260248201527f5369676e6564536166654d6174683a206469766973696f6e206279207a65726f604482015290519081900360640190fd5b816000191480156138875750600160ff1b83145b156138c35760405162461bcd60e51b8152600401808060200182810382526021815260200180614ae26021913960400191505060405180910390fd5b60008284816138ce57fe5b05949350505050565b60008060008360020b126138ee578260020b6138f6565b8260020b6000035b9050620d89e8811115613934576040805162461bcd60e51b81526020600482015260016024820152601560fa1b604482015290519081900360640190fd5b60006001821661394857600160801b61395a565b6ffffcb933bd6fad37aa2d162d1a5940015b6001600160881b031690506002821615613984576ffff97272373d413259a46990580e213a0260801c5b60048216156139a3576ffff2e50f5f656932ef12357cf3c7fdcc0260801c5b60088216156139c2576fffe5caca7e10e4e61c3624eaa0941cd00260801c5b60108216156139e1576fffcb9843d60f6159c9db58835c9266440260801c5b6020821615613a00576fff973b41fa98c081472e6896dfb254c00260801c5b6040821615613a1f576fff2ea16466c96a3843ec78b326b528610260801c5b6080821615613a3e576ffe5dee046a99a2a811c461f1969c30530260801c5b610100821615613a5e576ffcbe86c7900a88aedcffc83b479aa3a40260801c5b610200821615613a7e576ff987a7253ac413176f2b074cf7815e540260801c5b610400821615613a9e576ff3392b0822b70005940c7a398e4b70f30260801c5b610800821615613abe576fe7159475a2c29b7443b29c7fa6e889d90260801c5b611000821615613ade576fd097f3bdfd2022b8845ad8f792aa58250260801c5b612000821615613afe576fa9f746462d870fdf8a65dc1f90e061e50260801c5b614000821615613b1e576f70d869a156d2a1b890bb3df62baf32f70260801c5b618000821615613b3e576f31be135f97d08fd981231505542fcfa60260801c5b62010000821615613b5f576f09aa508b5b7a84e1c677de54f3e99bc90260801c5b62020000821615613b7f576e5d6af8dedb81196699c329225ee6040260801c5b62040000821615613b9e576d2216e584f5fa1ea926041bedfe980260801c5b62080000821615613bbb576b048a170391f7dc42444e8fa20260801c5b60008460020b1315613bd6578060001981613bd257fe5b0490505b640100000000810615613bea576001613bed565b60005b60ff16602082901c0192505050919050565b600080600083613c10578585613c13565b84865b90925090506121f787613c2e620f424062ffffff8616612aba565b613557620f424062ffffff8616612aba565b6000613c4d848484612b17565b905060008280613c5957fe5b8486091115611c7a576000198110613c7057600080fd5b6001019392505050565b600054610100900460ff1680613c935750613c936128bb565b80613ca1575060005460ff16155b613cdc5760405162461bcd60e51b815260040180806020018281038252602e815260200180614ab4602e913960400191505060405180910390fd5b600054610100900460ff16158015612961576000805460ff1961ff0019909116610100171660011790558015612973576000805461ff001916905550565b604051806040016040528060008152602001600081525090565b6040518061014001604052806000815260200160008152602001600081526020016000815260200160008152602001600081526020016000815260200160008152602001600060020b81526020016000151581525090565b6040518060e00160405280600081526020016000815260200160008152602001600081526020016000815260200160008152602001600060020b81525090565b803561045081614a23565b600082601f830112613de7578081fd5b81516020613dfc613df783614a06565b6149e3565b8281528181019085830183850287018401881015613e18578586fd5b855b85811015613e3f578151613e2d81614a23565b84529284019290840190600101613e1a565b5090979650505050505050565b803561045081614a38565b8051600281900b811461045057600080fd5b805161ffff8116811461045057600080fd5b600060208284031215613e8c578081fd5b813561149581614a23565b600060208284031215613ea8578081fd5b815161149581614a23565b60008060408385031215613ec5578081fd5b8235613ed081614a23565b91506020830135613ee081614a23565b809150509250929050565b600080600060608486031215613eff578081fd5b8335613f0a81614a23565b92506020840135613f1a81614a23565b91506040840135613f2a81614a23565b809150509250925092565b60008060408385031215613f47578182fd5b8235613f5281614a23565b91506020830135613ee081614a46565b60008060408385031215613f74578182fd5b8235613f7f81614a23565b91506020830135613ee081614a57565b60006020808385031215613fa1578182fd5b82516001600160401b03811115613fb6578283fd5b8301601f81018513613fc6578283fd5b8051613fd4613df782614a06565b8181528381019083850185840285018601891015613ff0578687fd5b8694505b8385101561401b57805161400781614a23565b835260019490940193918501918501613ff4565b50979650505050505050565b60008060408385031215614039578182fd5b82516001600160401b038082111561404f578384fd5b818501915085601f830112614062578384fd5b81516020614072613df783614a06565b82815281810190858301838502870184018b101561408e578889fd5b8896505b848710156140be5780518060060b81146140aa57898afd5b835260019690960195918301918301614092565b50918801519196509093505050808211156140d7578283fd5b506140e485828601613dd7565b9150509250929050565b6000602082840312156140ff578081fd5b815161149581614a38565b60006020828403121561411b578081fd5b5051919050565b60008060408385031215614134578182fd5b505080516020909101519092909150565b6000806000806060858703121561415a578182fd5b843593506020850135925060408501356001600160401b038082111561417e578384fd5b818701915087601f830112614191578384fd5b81358181111561419f578485fd5b8860208285010111156141b0578485fd5b95989497505060200194505050565b6000606082840312156141d0578081fd5b604051606081018181106001600160401b03821117156141ec57fe5b80604052508251815260208301516020820152604083015160408201528091505092915050565b600060808284031215614224578081fd5b604051608081018181106001600160401b038211171561424057fe5b604052825161424e81614a23565b8152602083015161425e81614a46565b6020820152604083015161427181614a46565b6040820152606083015161428481614a46565b60608201529392505050565b6000608082840312156142a1578081fd5b604051608081018181106001600160401b03821117156142bd57fe5b60405282356142cb81614a23565b815260208301356142db81614a23565b6020820152604083810135908201526060928301359281019290925250919050565b60006060828403121561430e578081fd5b604051606081018181106001600160401b038211171561432a57fe5b60405261433683613e57565b815260208301516020820152604083015160408201528091505092915050565b600060e08284031215614367578081fd5b60405160e081018181106001600160401b038211171561438357fe5b60405261438f83613dcc565b815261439d60208401613dcc565b60208201526143ae60408401613e4c565b60408201526143bf60608401613e4c565b60608201526143d060808401613e4c565b608082015260a083013560a08201526143eb60c08401613dcc565b60c08201529392505050565b600080600080600080600060e0888a031215614411578485fd5b875161441c81614a23565b965061442a60208901613e57565b955061443860408901613e69565b945061444660608901613e69565b935061445460808901613e69565b925060a088015160ff81168114614469578283fd5b60c089015190925061447a81614a38565b8091505092959891949750929550565b60006020828403121561449b578081fd5b815161149581614a46565b6000602082840312156144b7578081fd5b5035919050565b6000602082840312156144cf578081fd5b815161149581614a57565b15159052565b60020b9052565b80518252602090810151910152565b62ffffff169052565b6001600160a01b0391909116815260200190565b6001600160a01b0392831681529116602082015260400190565b6001600160a01b03848116825283166020820152608081016122b960408301846144e7565b600060018060a01b038088168352602087151581850152866040850152818616606085015260a06080850152845191508160a0850152825b828110156145a65785810182015185820160c00152810161458a565b828111156145b7578360c084870101525b5050601f01601f19169190910160c0019695505050505050565b6020808252825182820181905260009190848201906040850190845b8181101561460f57835163ffffffff16835292840192918401916001016145ed565b50909695505050505050565b901515815260200190565b90815260200190565b60008582528460208301526060604083015282606083015282846080840137818301608090810191909152601f909201601f191601019392505050565b82815260608101611c7a60208301846144e7565b60208082526008908201526745585f4f504c425360c01b604082015260600190565b60208082526007908201526645585f42544e4560c81b604082015260600190565b6020808252600790820152660869088be9e86960cb1b604082015260600190565b60208082526008908201526745585f414f504c4f60c01b604082015260600190565b60208082526008908201526745585f4f504c415360c01b604082015260600190565b6020808252600590820152640455f4142360dc1b604082015260600190565b602080825260069082015265455f4f424e4360d01b604082015260600190565b6020808252600a908201526922ac2fa6aa21a627a7a960b11b604082015260600190565b6020808252600790820152662aa1a12fa321ab60c91b604082015260600190565b6020808252601c908201527f506572704d6174683a20696e76657273696f6e206f766572666c6f7700000000604082015260600190565b602080825260069082015265455f43484e4360d01b604082015260600190565b60208082526006908201526555425f554f4160d01b604082015260600190565b602080825260069082015265045585f4d49560d41b604082015260600190565b60208082526006908201526545585f424e4360d01b604082015260600190565b60006101208201905060018060a01b03808451168352602084015115156020840152604084015115156040840152606084015160608401528060808501511660808401525060a08301516148ba60a08401826144f6565b5060c08301516148cd60c08401826144f6565b5060e08301516148e060e08401826144e7565b5092915050565b81516001600160a01b0390811682526020808401518216908301526040808401519091169082015260608083015162ffffff16908201526080918201519181019190915260a00190565b600061014082019050825182526020830151602083015260408301516040830152606083015160608301526080830151608083015260a083015160a083015260c083015160c083015260e083015160e083015261010080840151614997828501826144e0565b5050610120808401516149ac828501826144da565b505092915050565b62ffffff91909116815260200190565b918252602082015260400190565b63ffffffff91909116815260200190565b6040518181016001600160401b03811182821017156149fe57fe5b604052919050565b60006001600160401b03821115614a1957fe5b5060209081020190565b6001600160a01b038116811461297357600080fd5b801515811461297357600080fd5b62ffffff8116811461297357600080fd5b63ffffffff8116811461297357600080fdfe5369676e6564536166654d6174683a206164646974696f6e206f766572666c6f7753616665436173743a2076616c756520646f65736e27742066697420696e20616e2032342062697473496e697469616c697a61626c653a20636f6e747261637420697320616c726561647920696e697469616c697a65645369676e6564536166654d6174683a206469766973696f6e206f766572666c6f778be0079c531659141344cd1fd0a4f28419497f9722a3daafe3b4186f6b6457e05369676e6564536166654d6174683a206d756c7469706c69636174696f6e206f766572666c6f7753616665436173743a2076616c756520646f65736e27742066697420696e203332206269747353616665436173743a2076616c756520646f65736e27742066697420696e20616e20696e743235365369676e6564536166654d6174683a207375627472616374696f6e206f766572666c6f77a26469706673582212200543d9a1293629fff989ce073f6dcc67214423ee9f9a236853bbf67fc16f5cc264736f6c63430007060033",
  "linkReferences": {},
  "deployedLinkReferences": {}
}