{
  "_format": "hh-sol-artifact-1",
  "contractName": "BaseToken",
  "sourceName": "contracts/BaseToken.sol",
  "abi": [
    {
      "anonymous": false,
      "inputs": [
        {
          "indexed": true,
          "internalType": "address",
          "name": "owner",
          "type": "address"
        },
        {
          "indexed": true,
          "internalType": "address",
          "name": "spender",
          "type": "address"
        },
        {
          "indexed": false,
          "internalType": "uint256",
          "name": "value",
          "type": "uint256"
        }
      ],
      "name": "Approval",
      "type": "event"
    },
    {
      "anonymous": false,
      "inputs": [
        {
          "indexed": true,
          "internalType": "address",
          "name": "previousOwner",
          "type": "address"
        },
        {
          "indexed": true,
          "internalType": "address",
          "name": "newOwner",
          "type": "address"
        }
      ],
      "name": "OwnershipTransferred",
      "type": "event"
    },
    {
      "anonymous": false,
      "inputs": [
        {
          "indexed": true,
          "internalType": "address",
          "name": "priceFeed",
          "type": "address"
        }
      ],
      "name": "PriceFeedChanged",
      "type": "event"
    },
    {
      "anonymous": false,
      "inputs": [
        {
          "indexed": true,
          "internalType": "enum IBaseToken.Status",
          "name": "status",
          "type": "uint8"
        }
      ],
      "name": "StatusUpdated",
      "type": "event"
    },
    {
      "anonymous": false,
      "inputs": [
        {
          "indexed": true,
          "internalType": "address",
          "name": "from",
          "type": "address"
        },
        {
          "indexed": true,
          "internalType": "address",
          "name": "to",
          "type": "address"
        },
        {
          "indexed": false,
          "internalType": "uint256",
          "name": "value",
          "type": "uint256"
        }
      ],
      "name": "Transfer",
      "type": "event"
    },
    {
      "anonymous": false,
      "inputs": [
        {
          "indexed": false,
          "internalType": "address",
          "name": "account",
          "type": "address"
        }
      ],
      "name": "WhitelistAdded",
      "type": "event"
    },
    {
      "anonymous": false,
      "inputs": [
        {
          "indexed": false,
          "internalType": "address",
          "name": "account",
          "type": "address"
        }
      ],
      "name": "WhitelistRemoved",
      "type": "event"
    },
    {
      "inputs": [
        {
          "internalType": "address",
          "name": "account",
          "type": "address"
        }
      ],
      "name": "addWhitelist",
      "outputs": [],
      "stateMutability": "nonpayable",
      "type": "function"
    },
    {
      "inputs": [
        {
          "internalType": "address",
          "name": "owner",
          "type": "address"
        },
        {
          "internalType": "address",
          "name": "spender",
          "type": "address"
        }
      ],
      "name": "allowance",
      "outputs": [
        {
          "internalType": "uint256",
          "name": "",
          "type": "uint256"
        }
      ],
      "stateMutability": "view",
      "type": "function"
    },
    {
      "inputs": [
        {
          "internalType": "address",
          "name": "spender",
          "type": "address"
        },
        {
          "internalType": "uint256",
          "name": "amount",
          "type": "uint256"
        }
      ],
      "name": "approve",
      "outputs": [
        {
          "internalType": "bool",
          "name": "",
          "type": "bool"
        }
      ],
      "stateMutability": "nonpayable",
      "type": "function"
    },
    {
      "inputs": [
        {
          "internalType": "address",
          "name": "account",
          "type": "address"
        }
      ],
      "name": "balanceOf",
      "outputs": [
        {
          "internalType": "uint256",
          "name": "",
          "type": "uint256"
        }
      ],
      "stateMutability": "view",
      "type": "function"
    },
    {
      "inputs": [
        {
          "internalType": "uint256",
          "name": "interval",
          "type": "uint256"
        }
      ],
      "name": "cacheTwap",
      "outputs": [],
      "stateMutability": "nonpayable",
      "type": "function"
    },
    {
      "inputs": [],
      "name": "candidate",
      "outputs": [
        {
          "internalType": "address",
          "name": "",
          "type": "address"
        }
      ],
      "stateMutability": "view",
      "type": "function"
    },
    {
      "inputs": [
        {
          "internalType": "uint256",
          "name": "closedPrice",
          "type": "uint256"
        }
      ],
      "name": "close",
      "outputs": [],
      "stateMutability": "nonpayable",
      "type": "function"
    },
    {
      "inputs": [],
      "name": "close",
      "outputs": [],
      "stateMutability": "nonpayable",
      "type": "function"
    },
    {
      "inputs": [],
      "name": "decimals",
      "outputs": [
        {
          "internalType": "uint8",
          "name": "",
          "type": "uint8"
        }
      ],
      "stateMutability": "view",
      "type": "function"
    },
    {
      "inputs": [
        {
          "internalType": "address",
          "name": "spender",
          "type": "address"
        },
        {
          "internalType": "uint256",
          "name": "subtractedValue",
          "type": "uint256"
        }
      ],
      "name": "decreaseAllowance",
      "outputs": [
        {
          "internalType": "bool",
          "name": "",
          "type": "bool"
        }
      ],
      "stateMutability": "nonpayable",
      "type": "function"
    },
    {
      "inputs": [],
      "name": "getClosedPrice",
      "outputs": [
        {
          "internalType": "uint256",
          "name": "",
          "type": "uint256"
        }
      ],
      "stateMutability": "view",
      "type": "function"
    },
    {
      "inputs": [
        {
          "internalType": "uint256",
          "name": "interval",
          "type": "uint256"
        }
      ],
      "name": "getIndexPrice",
      "outputs": [
        {
          "internalType": "uint256",
          "name": "",
          "type": "uint256"
        }
      ],
      "stateMutability": "view",
      "type": "function"
    },
    {
      "inputs": [],
      "name": "getPausedIndexPrice",
      "outputs": [
        {
          "internalType": "uint256",
          "name": "",
          "type": "uint256"
        }
      ],
      "stateMutability": "view",
      "type": "function"
    },
    {
      "inputs": [],
      "name": "getPausedTimestamp",
      "outputs": [
        {
          "internalType": "uint256",
          "name": "",
          "type": "uint256"
        }
      ],
      "stateMutability": "view",
      "type": "function"
    },
    {
      "inputs": [],
      "name": "getPriceFeed",
      "outputs": [
        {
          "internalType": "address",
          "name": "",
          "type": "address"
        }
      ],
      "stateMutability": "view",
      "type": "function"
    },
    {
      "inputs": [],
      "name": "getPriceFeedDispatcher",
      "outputs": [
        {
          "internalType": "address",
          "name": "",
          "type": "address"
        }
      ],
      "stateMutability": "view",
      "type": "function"
    },
    {
      "inputs": [
        {
          "internalType": "address",
          "name": "spender",
          "type": "address"
        },
        {
          "internalType": "uint256",
          "name": "addedValue",
          "type": "uint256"
        }
      ],
      "name": "increaseAllowance",
      "outputs": [
        {
          "internalType": "bool",
          "name": "",
          "type": "bool"
        }
      ],
      "stateMutability": "nonpayable",
      "type": "function"
    },
    {
      "inputs": [
        {
          "internalType": "string",
          "name": "nameArg",
          "type": "string"
        },
        {
          "internalType": "string",
          "name": "symbolArg",
          "type": "string"
        },
        {
          "internalType": "address",
          "name": "priceFeedArg",
          "type": "address"
        }
      ],
      "name": "initialize",
      "outputs": [],
      "stateMutability": "nonpayable",
      "type": "function"
    },
    {
      "inputs": [],
      "name": "isClosed",
      "outputs": [
        {
          "internalType": "bool",
          "name": "",
          "type": "bool"
        }
      ],
      "stateMutability": "view",
      "type": "function"
    },
    {
      "inputs": [
        {
          "internalType": "address",
          "name": "account",
          "type": "address"
        }
      ],
      "name": "isInWhitelist",
      "outputs": [
        {
          "internalType": "bool",
          "name": "",
          "type": "bool"
        }
      ],
      "stateMutability": "view",
      "type": "function"
    },
    {
      "inputs": [],
      "name": "isOpen",
      "outputs": [
        {
          "internalType": "bool",
          "name": "",
          "type": "bool"
        }
      ],
      "stateMutability": "view",
      "type": "function"
    },
    {
      "inputs": [],
      "name": "isPaused",
      "outputs": [
        {
          "internalType": "bool",
          "name": "",
          "type": "bool"
        }
      ],
      "stateMutability": "view",
      "type": "function"
    },
    {
      "inputs": [
        {
          "internalType": "address",
          "name": "recipient",
          "type": "address"
        }
      ],
      "name": "mintMaximumTo",
      "outputs": [],
      "stateMutability": "nonpayable",
      "type": "function"
    },
    {
      "inputs": [],
      "name": "name",
      "outputs": [
        {
          "internalType": "string",
          "name": "",
          "type": "string"
        }
      ],
      "stateMutability": "view",
      "type": "function"
    },
    {
      "inputs": [],
      "name": "owner",
      "outputs": [
        {
          "internalType": "address",
          "name": "",
          "type": "address"
        }
      ],
      "stateMutability": "view",
      "type": "function"
    },
    {
      "inputs": [],
      "name": "pause",
      "outputs": [],
      "stateMutability": "nonpayable",
      "type": "function"
    },
    {
      "inputs": [
        {
          "internalType": "address",
          "name": "account",
          "type": "address"
        }
      ],
      "name": "removeWhitelist",
      "outputs": [],
      "stateMutability": "nonpayable",
      "type": "function"
    },
    {
      "inputs": [],
      "name": "renounceOwnership",
      "outputs": [],
      "stateMutability": "nonpayable",
      "type": "function"
    },
    {
      "inputs": [
        {
          "internalType": "address",
          "name": "newOwner",
          "type": "address"
        }
      ],
      "name": "setOwner",
      "outputs": [],
      "stateMutability": "nonpayable",
      "type": "function"
    },
    {
      "inputs": [
        {
          "internalType": "address",
          "name": "priceFeedDispatcherArg",
          "type": "address"
        }
      ],
      "name": "setPriceFeedDispatcher",
      "outputs": [],
      "stateMutability": "nonpayable",
      "type": "function"
    },
    {
      "inputs": [],
      "name": "symbol",
      "outputs": [
        {
          "internalType": "string",
          "name": "",
          "type": "string"
        }
      ],
      "stateMutability": "view",
      "type": "function"
    },
    {
      "inputs": [],
      "name": "totalSupply",
      "outputs": [
        {
          "internalType": "uint256",
          "name": "",
          "type": "uint256"
        }
      ],
      "stateMutability": "view",
      "type": "function"
    },
    {
      "inputs": [
        {
          "internalType": "address",
          "name": "recipient",
          "type": "address"
        },
        {
          "internalType": "uint256",
          "name": "amount",
          "type": "uint256"
        }
      ],
      "name": "transfer",
      "outputs": [
        {
          "internalType": "bool",
          "name": "",
          "type": "bool"
        }
      ],
      "stateMutability": "nonpayable",
      "type": "function"
    },
    {
      "inputs": [
        {
          "internalType": "address",
          "name": "sender",
          "type": "address"
        },
        {
          "internalType": "address",
          "name": "recipient",
          "type": "address"
        },
        {
          "internalType": "uint256",
          "name": "amount",
          "type": "uint256"
        }
      ],
      "name": "transferFrom",
      "outputs": [
        {
          "internalType": "bool",
          "name": "",
          "type": "bool"
        }
      ],
      "stateMutability": "nonpayable",
      "type": "function"
    },
    {
      "inputs": [],
      "name": "updateOwner",
      "outputs": [],
      "stateMutability": "nonpayable",
      "type": "function"
    }
  ],
  "bytecode": "0x608060405234801561001057600080fd5b50612304806100206000396000f3fe608060405234801561001057600080fd5b50600436106101d15760003560e01c80636c8381f811610105578063a707665e1161009d578063a707665e146105dc578063a9059cbb14610610578063b187bd261461063c578063bc5920ba14610644578063c2b6b58c1461064c578063dd62ed3e14610654578063f52e308e14610682578063f80f5dd5146106a8578063fe343461146106ce576101d1565b80636c8381f81461054c57806370a0823114610570578063715018a61461059657806378c8cda71461059e5780638456cb59146105c45780638da5cb5b146105cc57806395d89b41146105d45780639e87a5cd146105dc578063a457c2d7146105e4576101d1565b80631c2ab405116101785780631c2ab405146104695780631d1a111a1461047157806323b872dd1461048e5780632d327175146104c4578063313ce567146104ea578063395093511461050857806343d726d61461053457806347535d7b1461053c57806357a48b0114610544576101d1565b806306fdde03146101d6578063077f224a14610253578063095ea7b31461038957806309fd8212146103c95780630aebeb4e146103ef578063120806471461040c57806313af40351461043b57806318160ddd14610461575b600080fd5b6101de6106d6565b6040805160208082528351818301528351919283929083019185019080838360005b83811015610218578181015183820152602001610200565b50505050905090810190601f1680156102455780820380516001836020036101000a031916815260200191505b509250505060405180910390f35b6103876004803603606081101561026957600080fd5b810190602081018135600160201b81111561028357600080fd5b82018360208201111561029557600080fd5b803590602001918460018302840111600160201b831117156102b657600080fd5b91908080601f0160208091040260200160405190810160405280939291908181526020018383808284376000920191909152509295949360208101935035915050600160201b81111561030857600080fd5b82018360208201111561031a57600080fd5b803590602001918460018302840111600160201b8311171561033b57600080fd5b91908080601f016020809104026020016040519081016040528093929190818152602001838380828437600092019190915250929550505090356001600160a01b0316915061076c9050565b005b6103b56004803603604081101561039f57600080fd5b506001600160a01b0381351690602001356108fe565b604080519115158252519081900360200190f35b6103b5600480360360208110156103df57600080fd5b50356001600160a01b031661091c565b6103876004803603602081101561040557600080fd5b503561093e565b6104296004803603602081101561042257600080fd5b50356109fb565b60408051918252519081900360200190f35b6103876004803603602081101561045157600080fd5b50356001600160a01b0316610aae565b610429610c09565b610429610c0f565b6103876004803603602081101561048757600080fd5b5035610c15565b6103b5600480360360608110156104a457600080fd5b506001600160a01b03813581169160208101359091169060400135610c8b565b610387600480360360208110156104da57600080fd5b50356001600160a01b0316610d12565b6104f2610e85565b6040805160ff9092168252519081900360200190f35b6103b56004803603604081101561051e57600080fd5b506001600160a01b038135169060200135610e8e565b610387610edc565b6103b5610f89565b610429610fab565b610554611008565b604080516001600160a01b039092168252519081900360200190f35b6104296004803603602081101561058657600080fd5b50356001600160a01b0316611017565b610387611032565b610387600480360360208110156105b457600080fd5b50356001600160a01b03166110d3565b6103876111cc565b6105546112ec565b6101de6112fb565b61055461135c565b6103b5600480360360408110156105fa57600080fd5b506001600160a01b038135169060200135611370565b6103b56004803603604081101561062657600080fd5b506001600160a01b0381351690602001356113d8565b6103b56113ec565b6103876113f5565b6103b56114e1565b6104296004803603604081101561066a57600080fd5b506001600160a01b03813581169160200135166114ea565b6103876004803603602081101561069857600080fd5b50356001600160a01b0316611515565b610387600480360360208110156106be57600080fd5b50356001600160a01b031661157e565b610429611636565b606a8054604080516020601f60026000196101006001881615020190951694909404938401819004810282018101909252828152606093909290918301828280156107625780601f1061073757610100808354040283529160200191610762565b820191906000526020600020905b81548152906001019060200180831161074557829003601f168201915b5050505050905090565b600054610100900460ff1680610785575061078561163c565b80610793575060005460ff16155b6107ce5760405162461bcd60e51b815260040180806020018281038252602e8152602001806121ca602e913960400191505060405180910390fd5b600054610100900460ff161580156107f9576000805460ff1961ff0019909116610100171660011790555b610803848461164d565b6000826001600160a01b031663313ce5676040518163ffffffff1660e01b815260040160206040518083038186803b15801561083e57600080fd5b505afa158015610852573d6000803e3d6000fd5b505050506040513d602081101561086857600080fd5b50519050610874610e85565b60ff168160ff1611156108b8576040805162461bcd60e51b8152602060048201526007602482015266109517d254119160ca1b604482015290519081900360640190fd5b60cc8054610100600160a81b0319166101006001600160a01b038616021760ff191660ff9290921691909117905580156108f8576000805461ff00191690555b50505050565b600061091261090b611703565b8484611707565b5060015b92915050565b6001600160a01b03811660009081526099602052604090205460ff165b919050565b610946611703565b6001600160a01b03166109576112ec565b6001600160a01b03161461099b576040805162461bcd60e51b8152602060048201526006602482015265534f5f434e4f60d01b604482015290519081900360640190fd5b600160cc54600160a81b900460ff1660028111156109b557fe5b146109ef576040805162461bcd60e51b8152602060048201526005602482015264042545f4e560dc1b604482015290519081900360640190fd5b6109f8816117f3565b50565b60008060cc54600160a81b900460ff166002811115610a1657fe5b1415610aa65760cc5460408051630a4d3a8360e31b8152600481018590529051610a9f9261010090046001600160a01b031691635269d418916024808301926020929190829003018186803b158015610a6e57600080fd5b505afa158015610a82573d6000803e3d6000fd5b505050506040513d6020811015610a9857600080fd5b505161184e565b9050610939565b505060cd5490565b610ab6611703565b6001600160a01b0316610ac76112ec565b6001600160a01b031614610b0b576040805162461bcd60e51b8152602060048201526006602482015265534f5f434e4f60d01b604482015290519081900360640190fd5b6001600160a01b038116610b4f576040805162461bcd60e51b81526020600482015260066024820152650534f5f4e57360d41b604482015290519081900360640190fd5b6033546001600160a01b0382811691161415610b9b576040805162461bcd60e51b8152602060048201526006602482015265534f5f53414f60d01b604482015290519081900360640190fd5b6034546001600160a01b0382811691161415610be7576040805162461bcd60e51b8152602060048201526006602482015265534f5f53414360d01b604482015290519081900360640190fd5b603480546001600160a01b0319166001600160a01b0392909216919091179055565b60695490565b60cd5490565b60cc60019054906101000a90046001600160a01b03166001600160a01b03166321edfc39826040518263ffffffff1660e01b815260040180828152602001915050600060405180830381600087803b158015610c7057600080fd5b505af1158015610c84573d6000803e3d6000fd5b5050505050565b6000610c98848484611898565b610d0884610ca4611703565b610d0385604051806060016040528060288152602001612219602891396001600160a01b038a16600090815260686020526040812090610ce2611703565b6001600160a01b0316815260208101919091526040016000205491906119f5565b611707565b5060019392505050565b610d1a611703565b6001600160a01b0316610d2b6112ec565b6001600160a01b031614610d6f576040805162461bcd60e51b8152602060048201526006602482015265534f5f434e4f60d01b604482015290519081900360640190fd5b6000816001600160a01b031663313ce5676040518163ffffffff1660e01b815260040160206040518083038186803b158015610daa57600080fd5b505afa158015610dbe573d6000803e3d6000fd5b505050506040513d6020811015610dd457600080fd5b50519050610de0610e85565b60ff168160ff161115610e24576040805162461bcd60e51b8152602060048201526007602482015266109517d254119160ca1b604482015290519081900360640190fd5b60cc8054610100600160a81b0319166101006001600160a01b0385811682029290921760ff191660ff85161792839055604051920416907f70880247142cf113e15f57599afcb48f4cdd196159d882cda54475da68ea996190600090a25050565b606c5460ff1690565b6000610912610e9b611703565b84610d038560686000610eac611703565b6001600160a01b03908116825260208083019390935260409182016000908120918c168152925290205490611a8c565b600160cc54600160a81b900460ff166002811115610ef657fe5b14610f30576040805162461bcd60e51b8152602060048201526005602482015264042545f4e560dc1b604482015290519081900360640190fd5b6206978060ce5401610f40611aed565b11610f7c576040805162461bcd60e51b815260206004820152600760248201526642545f57504e4560c81b604482015290519081900360640190fd5b610f8760cd546117f3565b565b6000805b60cc54600160a81b900460ff166002811115610fa557fe5b14905090565b6000600260cc54600160a81b900460ff166002811115610fc757fe5b14611001576040805162461bcd60e51b815260206004820152600560248201526442545f4e4360d81b604482015290519081900360640190fd5b5060cf5490565b6034546001600160a01b031690565b6001600160a01b031660009081526067602052604090205490565b61103a611703565b6001600160a01b031661104b6112ec565b6001600160a01b03161461108f576040805162461bcd60e51b8152602060048201526006602482015265534f5f434e4f60d01b604482015290519081900360640190fd5b6033546040516000916001600160a01b031690600080516020612241833981519152908390a3603380546001600160a01b0319908116909155603480549091169055565b6110db611703565b6001600160a01b03166110ec6112ec565b6001600160a01b031614611130576040805162461bcd60e51b8152602060048201526006602482015265534f5f434e4f60d01b604482015290519081900360640190fd5b61113981611017565b15611174576040805162461bcd60e51b81526020600482015260066024820152652b2a2fa1272d60d11b604482015290519081900360640190fd5b6001600160a01b038116600081815260996020908152604091829020805460ff19169055815192835290517fde8cf212af7ce38b2840785a2768d97ff2dbf3c21b516961cec0061e134c2a1e9281900390910190a150565b6111d4611703565b6001600160a01b03166111e56112ec565b6001600160a01b031614611229576040805162461bcd60e51b8152602060048201526006602482015265534f5f434e4f60d01b604482015290519081900360640190fd5b600060cc54600160a81b900460ff16600281111561124357fe5b1461127d576040805162461bcd60e51b815260206004820152600560248201526442545f4e4f60d81b604482015290519081900360640190fd5b6112886103846109fb565b60cd5560cc805460ff60a81b1916600160a81b1790556112a6611aed565b60ce5560cc54600160a81b900460ff1660028111156112c157fe5b6040517f7101a660456a4e2f94e6b0ccd3d6a034724e26130a817471aaf5a3de8fba384a90600090a2565b6033546001600160a01b031690565b606b8054604080516020601f60026000196101006001881615020190951694909404938401819004810282018101909252828152606093909290918301828280156107625780601f1061073757610100808354040283529160200191610762565b60cc5461010090046001600160a01b031690565b600061091261137d611703565b84610d03856040518060600160405280602581526020016122aa60259139606860006113a7611703565b6001600160a01b03908116825260208083019390935260409182016000908120918d168152925290205491906119f5565b60006109126113e5611703565b8484611898565b60006001610f8d565b6034546001600160a01b031661143a576040805162461bcd60e51b81526020600482015260056024820152640534f5f43360dc1b604482015290519081900360640190fd5b611442611703565b6034546001600160a01b0390811691161461148d576040805162461bcd60e51b8152602060048201526006602482015265534f5f434e4360d01b604482015290519081900360640190fd5b6034546033546040516001600160a01b03928316929091169060008051602061224183398151915290600090a360348054603380546001600160a01b03199081166001600160a01b03841617909155169055565b60006002610f8d565b6001600160a01b03918216600090815260686020908152604080832093909416825291909152205490565b61151d611703565b6001600160a01b031661152e6112ec565b6001600160a01b031614611572576040805162461bcd60e51b8152602060048201526006602482015265534f5f434e4f60d01b604482015290519081900360640190fd5b6109f881600019611af1565b611586611703565b6001600160a01b03166115976112ec565b6001600160a01b0316146115db576040805162461bcd60e51b8152602060048201526006602482015265534f5f434e4f60d01b604482015290519081900360640190fd5b6001600160a01b038116600081815260996020908152604091829020805460ff19166001179055815192835290517f4790a4adb426ca2345bb5108f6e454eae852a7bf687544cd66a7270dff3a41d69281900390910190a150565b60ce5490565b600061164730611be3565b15905090565b600054610100900460ff1680611666575061166661163c565b80611674575060005460ff16155b6116af5760405162461bcd60e51b815260040180806020018281038252602e8152602001806121ca602e913960400191505060405180910390fd5b600054610100900460ff161580156116da576000805460ff1961ff0019909116610100171660011790555b6116e2611be9565b6116ec8383611cd8565b80156116fe576000805461ff00191690555b505050565b3390565b6001600160a01b03831661174c5760405162461bcd60e51b81526004018080602001828103825260248152602001806122866024913960400191505060405180910390fd5b6001600160a01b0382166117915760405162461bcd60e51b81526004018080602001828103825260228152602001806121826022913960400191505060405180910390fd5b6001600160a01b03808416600081815260686020908152604080832094871680845294825291829020859055815185815291517f8c5be1e5ebec7d5bd14f71427d1e84f3dd0314c0f7b2291e5b200ac8c7c3b9259281900390910190a3505050565b60cc805460ff60a81b1916600160a91b179081905560cf829055600160a81b900460ff16600281111561182257fe5b6040517f7101a660456a4e2f94e6b0ccd3d6a034724e26130a817471aaf5a3de8fba384a90600090a250565b6000611858610e85565b60cc5460ff9081169116141561186f575080610939565b60cc546109169061188e9060ff16611885610e85565b60ff1690611d77565b8390600a0a611dd4565b6001600160a01b0383166118dd5760405162461bcd60e51b81526004018080602001828103825260258152602001806122616025913960400191505060405180910390fd5b6001600160a01b0382166119225760405162461bcd60e51b815260040180806020018281038252602381526020018061215f6023913960400191505060405180910390fd5b61192d838383611e2d565b61196a816040518060600160405280602681526020016121a4602691396001600160a01b03861660009081526067602052604090205491906119f5565b6001600160a01b0380851660009081526067602052604080822093909355908416815220546119999082611a8c565b6001600160a01b0380841660008181526067602090815260409182902094909455805185815290519193928716927fddf252ad1be2c89b69c2b068fc378daa952ba7f163c4a11628f55a4df523b3ef92918290030190a3505050565b60008184841115611a845760405162461bcd60e51b81526004018080602001828103825283818151815260200191508051906020019080838360005b83811015611a49578181015183820152602001611a31565b50505050905090810190601f168015611a765780820380516001836020036101000a031916815260200191505b509250505060405180910390fd5b505050900390565b600082820183811015611ae6576040805162461bcd60e51b815260206004820152601b60248201527f536166654d6174683a206164646974696f6e206f766572666c6f770000000000604482015290519081900360640190fd5b9392505050565b4290565b6001600160a01b038216611b4c576040805162461bcd60e51b815260206004820152601f60248201527f45524332303a206d696e7420746f20746865207a65726f206164647265737300604482015290519081900360640190fd5b611b5860008383611e2d565b606954611b659082611a8c565b6069556001600160a01b038216600090815260676020526040902054611b8b9082611a8c565b6001600160a01b03831660008181526067602090815260408083209490945583518581529351929391927fddf252ad1be2c89b69c2b068fc378daa952ba7f163c4a11628f55a4df523b3ef9281900390910190a35050565b3b151590565b600054610100900460ff1680611c025750611c0261163c565b80611c10575060005460ff16155b611c4b5760405162461bcd60e51b815260040180806020018281038252602e8152602001806121ca602e913960400191505060405180910390fd5b600054610100900460ff16158015611c76576000805460ff1961ff0019909116610100171660011790555b611c7e611e9c565b6000611c88611703565b603380546001600160a01b0319166001600160a01b03831690811790915560405191925090600090600080516020612241833981519152908290a35080156109f8576000805461ff001916905550565b600054610100900460ff1680611cf15750611cf161163c565b80611cff575060005460ff16155b611d3a5760405162461bcd60e51b815260040180806020018281038252602e8152602001806121ca602e913960400191505060405180910390fd5b600054610100900460ff16158015611d65576000805460ff1961ff0019909116610100171660011790555b611d6d611f45565b6116ec8383611fe5565b600082821115611dce576040805162461bcd60e51b815260206004820152601e60248201527f536166654d6174683a207375627472616374696f6e206f766572666c6f770000604482015290519081900360640190fd5b50900390565b600082611de357506000610916565b82820282848281611df057fe5b0414611ae65760405162461bcd60e51b81526004018080602001828103825260218152602001806121f86021913960400191505060405180910390fd5b611e388383836116fe565b6001600160a01b038316156116fe576001600160a01b03831660009081526099602052604090205460ff166116fe576040805162461bcd60e51b815260206004820152600560248201526456545f4e5760d81b604482015290519081900360640190fd5b600054610100900460ff1680611eb55750611eb561163c565b80611ec3575060005460ff16155b611efe5760405162461bcd60e51b815260040180806020018281038252602e8152602001806121ca602e913960400191505060405180910390fd5b600054610100900460ff16158015611f29576000805460ff1961ff0019909116610100171660011790555b611f31611f45565b80156109f8576000805461ff001916905550565b600054610100900460ff1680611f5e5750611f5e61163c565b80611f6c575060005460ff16155b611fa75760405162461bcd60e51b815260040180806020018281038252602e8152602001806121ca602e913960400191505060405180910390fd5b600054610100900460ff16158015611f31576000805460ff1961ff00199091166101001716600117905580156109f8576000805461ff001916905550565b600054610100900460ff1680611ffe5750611ffe61163c565b8061200c575060005460ff16155b6120475760405162461bcd60e51b815260040180806020018281038252602e8152602001806121ca602e913960400191505060405180910390fd5b600054610100900460ff16158015612072576000805460ff1961ff0019909116610100171660011790555b825161208590606a9060208601906120bd565b50815161209990606b9060208501906120bd565b50606c805460ff1916601217905580156116fe576000805461ff0019169055505050565b828054600181600116156101000203166002900490600052602060002090601f0160209004810192826120f35760008555612139565b82601f1061210c57805160ff1916838001178555612139565b82800160010185558215612139579182015b8281111561213957825182559160200191906001019061211e565b50612145929150612149565b5090565b5b80821115612145576000815560010161214a56fe45524332303a207472616e7366657220746f20746865207a65726f206164647265737345524332303a20617070726f766520746f20746865207a65726f206164647265737345524332303a207472616e7366657220616d6f756e7420657863656564732062616c616e6365496e697469616c697a61626c653a20636f6e747261637420697320616c726561647920696e697469616c697a6564536166654d6174683a206d756c7469706c69636174696f6e206f766572666c6f7745524332303a207472616e7366657220616d6f756e74206578636565647320616c6c6f77616e63658be0079c531659141344cd1fd0a4f28419497f9722a3daafe3b4186f6b6457e045524332303a207472616e736665722066726f6d20746865207a65726f206164647265737345524332303a20617070726f76652066726f6d20746865207a65726f206164647265737345524332303a2064656372656173656420616c6c6f77616e63652062656c6f77207a65726fa2646970667358221220477779b791d411ecbd4ed6163bc5df23663f4d7a2ae12088f962863a498392d564736f6c63430007060033",
  "linkReferences": {},
  "deployedLinkReferences": {}
}