{
  "_format": "hh-sol-artifact-1",
  "contractName": "PriceFeedDispatcher",
  "sourceName": "@perp/perp-oracle-contract/contracts/PriceFeedDispatcher.sol",
  "abi": [
    {
      "inputs": [
        {
          "internalType": "contract UniswapV3PriceFeed",
          "name": "uniswapV3PriceFeed",
          "type": "address"
        },
        {
          "internalType": "contract ChainlinkPriceFeedV3",
          "name": "chainlinkPriceFeedV3",
          "type": "address"
        }
      ],
      "stateMutability": "nonpayable",
      "type": "constructor"
    },
    {
      "anonymous": false,
      "inputs": [
        {
          "indexed": false,
          "internalType": "contract ChainlinkPriceFeedV3",
          "name": "chainlinkPriceFeedV3",
          "type": "address"
        }
      ],
      "name": "ChainlinkPriceFeedV3Updated",
      "type": "event"
    },
    {
      "anonymous": false,
      "inputs": [
        {
          "indexed": true,
          "internalType": "address",
          "name": "previousOwner",
          "type": "address"
        },
        {
          "indexed": true,
          "internalType": "address",
          "name": "newOwner",
          "type": "address"
        }
      ],
      "name": "OwnershipTransferred",
      "type": "event"
    },
    {
      "anonymous": false,
      "inputs": [
        {
          "indexed": false,
          "internalType": "enum IPriceFeedDispatcherEvent.Status",
          "name": "status",
          "type": "uint8"
        }
      ],
      "name": "StatusUpdated",
      "type": "event"
    },
    {
      "anonymous": false,
      "inputs": [
        {
          "indexed": false,
          "internalType": "contract UniswapV3PriceFeed",
          "name": "uniswapV3PriceFeed",
          "type": "address"
        }
      ],
      "name": "UniswapV3PriceFeedUpdated",
      "type": "event"
    },
    {
      "inputs": [],
      "name": "decimals",
      "outputs": [
        {
          "internalType": "uint8",
          "name": "",
          "type": "uint8"
        }
      ],
      "stateMutability": "pure",
      "type": "function"
    },
    {
      "inputs": [
        {
          "internalType": "uint256",
          "name": "interval",
          "type": "uint256"
        }
      ],
      "name": "dispatchPrice",
      "outputs": [],
      "stateMutability": "nonpayable",
      "type": "function"
    },
    {
      "inputs": [],
      "name": "getChainlinkPriceFeedV3",
      "outputs": [
        {
          "internalType": "contract ChainlinkPriceFeedV3",
          "name": "",
          "type": "address"
        }
      ],
      "stateMutability": "view",
      "type": "function"
    },
    {
      "inputs": [
        {
          "internalType": "uint256",
          "name": "interval",
          "type": "uint256"
        }
      ],
      "name": "getDispatchedPrice",
      "outputs": [
        {
          "internalType": "uint256",
          "name": "",
          "type": "uint256"
        }
      ],
      "stateMutability": "view",
      "type": "function"
    },
    {
      "inputs": [],
      "name": "getStatus",
      "outputs": [
        {
          "internalType": "enum IPriceFeedDispatcherEvent.Status",
          "name": "",
          "type": "uint8"
        }
      ],
      "stateMutability": "view",
      "type": "function"
    },
    {
      "inputs": [],
      "name": "getUniswapV3PriceFeed",
      "outputs": [
        {
          "internalType": "contract UniswapV3PriceFeed",
          "name": "",
          "type": "address"
        }
      ],
      "stateMutability": "view",
      "type": "function"
    },
    {
      "inputs": [],
      "name": "owner",
      "outputs": [
        {
          "internalType": "address",
          "name": "",
          "type": "address"
        }
      ],
      "stateMutability": "view",
      "type": "function"
    },
    {
      "inputs": [],
      "name": "renounceOwnership",
      "outputs": [],
      "stateMutability": "nonpayable",
      "type": "function"
    },
    {
      "inputs": [
        {
          "internalType": "contract ChainlinkPriceFeedV3",
          "name": "chainlinkPriceFeedV3",
          "type": "address"
        }
      ],
      "name": "setChainlinkPriceFeedV3",
      "outputs": [],
      "stateMutability": "nonpayable",
      "type": "function"
    },
    {
      "inputs": [
        {
          "internalType": "enum IPriceFeedDispatcherEvent.Status",
          "name": "status",
          "type": "uint8"
        }
      ],
      "name": "setPriceFeedStatus",
      "outputs": [],
      "stateMutability": "nonpayable",
      "type": "function"
    },
    {
      "inputs": [
        {
          "internalType": "contract UniswapV3PriceFeed",
          "name": "uniswapV3PriceFeed",
          "type": "address"
        }
      ],
      "name": "setUniswapV3PriceFeed",
      "outputs": [],
      "stateMutability": "nonpayable",
      "type": "function"
    },
    {
      "inputs": [
        {
          "internalType": "address",
          "name": "newOwner",
          "type": "address"
        }
      ],
      "name": "transferOwnership",
      "outputs": [],
      "stateMutability": "nonpayable",
      "type": "function"
    }
  ],
  "bytecode": "0x60806040526000805460ff60a01b191690553480156200001e57600080fd5b5060405162000fb238038062000fb283398101604081905262000041916200016a565b60006200004d62000160565b600080546001600160a01b0319166001600160a01b0383169081178255604051929350917f8be0079c531659141344cd1fd0a4f28419497f9722a3daafe3b4186f6b6457e0908290a3506001600160a01b0382161580620000c85750620000c8826001600160a01b03166200016460201b6200098d1760201c565b620000f05760405162461bcd60e51b8152600401620000e790620001a8565b60405180910390fd5b6200010f816001600160a01b03166200016460201b6200098d1760201c565b6200012e5760405162461bcd60e51b8152600401620000e790620001cb565b600180546001600160a01b039384166001600160a01b0319918216179091556002805492909316911617905562000205565b3390565b3b151590565b600080604083850312156200017d578182fd5b82516200018a81620001ec565b60208401519092506200019d81620001ec565b809150509250929050565b6020808252600990820152685046445f5545434f5560b81b604082015260600190565b6020808252600790820152665046445f434e4360c81b604082015260600190565b6001600160a01b03811681146200020257600080fd5b50565b610d9d80620002156000396000f3fe608060405234801561001057600080fd5b50600436106100b45760003560e01c80638da5cb5b116100715780638da5cb5b1461013e578063b96ced5d14610146578063bd6a7a1214610159578063d48b70251461016c578063d651dd4b14610174578063f2fde38b14610187576100b4565b806321edfc39146100b9578063313ce567146100ce5780634e69d560146100ec5780635269d41814610101578063715018a61461012157806382b4ad1614610129575b600080fd5b6100cc6100c7366004610bd6565b61019a565b005b6100d6610285565b6040516100e39190610cdd565b60405180910390f35b6100f461028a565b6040516100e39190610c3b565b61011461010f366004610bd6565b61029a565b6040516100e39190610cd4565b6100cc610491565b61013161053d565b6040516100e39190610c27565b61013161054c565b6100cc610154366004610b7b565b61055b565b6100cc610167366004610b7b565b6106a1565b61013161077c565b6100cc610182366004610bb7565b61078b565b6100cc610195366004610b7b565b61088b565b6101a2610993565b1561021f576001600054600160a01b900460ff1660018111156101c157fe5b1461021a576000805460ff60a01b1916600160a01b908117918290556040517f7101a660456a4e2f94e6b0ccd3d6a034724e26130a817471aaf5a3de8fba384a9261021192900460ff1690610c3b565b60405180910390a15b610282565b600254604051630e8d088d60e11b81526001600160a01b0390911690631d1a111a9061024f908490600401610cd4565b600060405180830381600087803b15801561026957600080fd5b505af115801561027d573d6000803e3d6000fd5b505050505b50565b601290565b600054600160a01b900460ff1690565b60006102a4610993565b156103b95760015460408051634c6afee560e11b815290516103b2926001600160a01b0316916398d5fdca916004808301926020929190829003018186803b1580156102ef57600080fd5b505afa158015610303573d6000803e3d6000fd5b505050506040513d601f19601f820116820180604052508101906103279190610bee565b600160009054906101000a90046001600160a01b03166001600160a01b031663313ce5676040518163ffffffff1660e01b815260040160206040518083038186803b15801561037557600080fd5b505afa158015610389573d6000803e3d6000fd5b505050506040513d601f19601f820116820180604052508101906103ad9190610c06565b610a58565b905061048c565b60025460405163537ab5f560e11b8152610489916001600160a01b03169063a6f56bea906103eb908690600401610cd4565b60206040518083038186803b15801561040357600080fd5b505afa158015610417573d6000803e3d6000fd5b505050506040513d601f19601f8201168201806040525081019061043b9190610bee565b600260009054906101000a90046001600160a01b03166001600160a01b031663313ce5676040518163ffffffff1660e01b815260040160206040518083038186803b15801561037557600080fd5b90505b919050565b610499610ab0565b6001600160a01b03166104aa61054c565b6001600160a01b0316146104f3576040805162461bcd60e51b81526020600482018190526024820152600080516020610d48833981519152604482015290519081900360640190fd5b600080546040516001600160a01b03909116907f8be0079c531659141344cd1fd0a4f28419497f9722a3daafe3b4186f6b6457e0908390a3600080546001600160a01b0319169055565b6002546001600160a01b031690565b6000546001600160a01b031690565b610563610ab0565b6001600160a01b031661057461054c565b6001600160a01b0316146105bd576040805162461bcd60e51b81526020600482018190526024820152600080516020610d48833981519152604482015290519081900360640190fd5b6001600160a01b03811615806105e057506105e0816001600160a01b031661098d565b6106055760405162461bcd60e51b81526004016105fc90610c4f565b60405180910390fd5b6001600160a01b03811661064b576001600054600160a01b900460ff16600181111561062d57fe5b141561064b5760405162461bcd60e51b81526004016105fc90610c92565b600180546001600160a01b0319166001600160a01b0383161790556040517fcc38df4cffc97c63a74bdcf095d2987ef21f05ae75ef6faba701e9f2c834dc2790610696908390610c27565b60405180910390a150565b6106a9610ab0565b6001600160a01b03166106ba61054c565b6001600160a01b031614610703576040805162461bcd60e51b81526020600482018190526024820152600080516020610d48833981519152604482015290519081900360640190fd5b610715816001600160a01b031661098d565b6107315760405162461bcd60e51b81526004016105fc90610cb3565b600280546001600160a01b0319166001600160a01b0383161790556040517fbd7727adc3e455a9acc9c2ed6a9d7694d62837c8b04b99f069509604dd8ce57190610696908390610c27565b6001546001600160a01b031690565b610793610ab0565b6001600160a01b03166107a461054c565b6001600160a01b0316146107ed576040805162461bcd60e51b81526020600482018190526024820152600080516020610d48833981519152604482015290519081900360640190fd5b60018160018111156107fb57fe5b1415610829576001546001600160a01b03166108295760405162461bcd60e51b81526004016105fc90610c72565b6000805482919060ff60a01b1916600160a01b83600181111561084857fe5b02179055507f7101a660456a4e2f94e6b0ccd3d6a034724e26130a817471aaf5a3de8fba384a600060149054906101000a900460ff166040516106969190610c3b565b610893610ab0565b6001600160a01b03166108a461054c565b6001600160a01b0316146108ed576040805162461bcd60e51b81526020600482018190526024820152600080516020610d48833981519152604482015290519081900360640190fd5b6001600160a01b0381166109325760405162461bcd60e51b8152600401808060200182810382526026815260200180610d016026913960400191505060405180910390fd5b600080546040516001600160a01b03808516939216917f8be0079c531659141344cd1fd0a4f28419497f9722a3daafe3b4186f6b6457e091a3600080546001600160a01b0319166001600160a01b0392909216919091179055565b3b151590565b6001546000906001600160a01b031615801590610a535750600260009054906101000a90046001600160a01b03166001600160a01b0316631d7866de6040518163ffffffff1660e01b815260040160206040518083038186803b1580156109f957600080fd5b505afa158015610a0d573d6000803e3d6000fd5b505050506040513d601f19601f82011682018060405250810190610a319190610b97565b80610a5357506001600054600160a01b900460ff166001811115610a5157fe5b145b905090565b6000601260ff8316811415610a705783915050610aaa565b8060ff168360ff1611610a9457610a8f8460ff85840316600a0a610ab4565b610aa6565b610aa68460ff83860316600a0a610b14565b9150505b92915050565b3390565b600082610ac357506000610aaa565b82820282848281610ad057fe5b0414610b0d5760405162461bcd60e51b8152600401808060200182810382526021815260200180610d276021913960400191505060405180910390fd5b9392505050565b6000808211610b6a576040805162461bcd60e51b815260206004820152601a60248201527f536166654d6174683a206469766973696f6e206279207a65726f000000000000604482015290519081900360640190fd5b818381610b7357fe5b049392505050565b600060208284031215610b8c578081fd5b8135610b0d81610ceb565b600060208284031215610ba8578081fd5b81518015158114610b0d578182fd5b600060208284031215610bc8578081fd5b813560028110610b0d578182fd5b600060208284031215610be7578081fd5b5035919050565b600060208284031215610bff578081fd5b5051919050565b600060208284031215610c17578081fd5b815160ff81168114610b0d578182fd5b6001600160a01b0391909116815260200190565b6020810160028310610c4957fe5b91905290565b6020808252600990820152685046445f5545434f5560b81b604082015260600190565b6020808252600690820152655046445f555560d01b604082015260600190565b6020808252600790820152665046445f554e5360c81b604082015260600190565b6020808252600790820152665046445f434e4360c81b604082015260600190565b90815260200190565b60ff91909116815260200190565b6001600160a01b038116811461028257600080fdfe4f776e61626c653a206e6577206f776e657220697320746865207a65726f2061646472657373536166654d6174683a206d756c7469706c69636174696f6e206f766572666c6f774f776e61626c653a2063616c6c6572206973206e6f7420746865206f776e6572a26469706673582212202a089c73fd6af929ed7d5b524afc2f524bc4848f550049ce80ad57e5eb77fceb64736f6c63430007060033",
  "linkReferences": {},
  "deployedLinkReferences": {}
}