{
  "_format": "hh-sol-artifact-1",
  "contractName": "TestLimitOrderBook",
  "sourceName": "contracts/test/TestLimitOrderBook.sol",
  "abi": [
    {
      "inputs": [
        {
          "internalType": "address",
          "name": "clearingHouseArg",
          "type": "address"
        }
      ],
      "stateMutability": "nonpayable",
      "type": "constructor"
    },
    {
      "inputs": [
        {
          "internalType": "address",
          "name": "trader",
          "type": "address"
        },
        {
          "components": [
            {
              "internalType": "address",
              "name": "baseToken",
              "type": "address"
            },
            {
              "internalType": "bool",
              "name": "isBaseToQuote",
              "type": "bool"
            },
            {
              "internalType": "bool",
              "name": "isExactInput",
              "type": "bool"
            },
            {
              "internalType": "uint256",
              "name": "amount",
              "type": "uint256"
            },
            {
              "internalType": "uint256",
              "name": "oppositeAmountBound",
              "type": "uint256"
            },
            {
              "internalType": "uint256",
              "name": "deadline",
              "type": "uint256"
            },
            {
              "internalType": "uint160",
              "name": "sqrtPriceLimitX96",
              "type": "uint160"
            },
            {
              "internalType": "bytes32",
              "name": "referralCode",
              "type": "bytes32"
            }
          ],
          "internalType": "struct IClearingHouse.OpenPositionParams",
          "name": "params",
          "type": "tuple"
        }
      ],
      "name": "openPositionFor",
      "outputs": [],
      "stateMutability": "nonpayable",
      "type": "function"
    }
  ],
  "bytecode": "0x608060405234801561001057600080fd5b5060405161039f38038061039f83398101604081905261002f91610054565b600080546001600160a01b0319166001600160a01b0392909216919091179055610082565b600060208284031215610065578081fd5b81516001600160a01b038116811461007b578182fd5b9392505050565b61030e806100916000396000f3fe608060405234801561001057600080fd5b506004361061002a5760003560e01c8062c2473e1461002f575b600080fd5b61004261003d366004610147565b610044565b005b600054604080516101008101825283516001600160a01b03908116825260208086015115159083015284830151151582840152606080860151908301526080808601519083015260a0808601519083015260c08086015182169083015260e0808601519083015291516261239f60e11b8152919092169162c2473e916100ce918691600401610246565b606060405180830381600087803b1580156100e857600080fd5b505af11580156100fc573d6000803e3d6000fd5b505050506040513d601f19601f82011682018060405250810190610120919061020c565b5050505050565b8035610132816102c0565b919050565b8035801515811461013257600080fd5b60008082840361012081121561015b578283fd5b8335610166816102c0565b9250610100601f19820181131561017b578283fd5b604051915080820182811067ffffffffffffffff8211171561019957fe5b6040526101a860208601610127565b82526101b660408601610137565b60208301526101c760608601610137565b60408301526080850135606083015260a0850135608083015260c085013560a08301526101f660e08601610127565b60c0830152939093013560e08401525092909150565b600080600060608486031215610220578081fd5b8351925060208401519150604084015190509250925092565b6001600160a01b03169052565b60006101208201905060018060a01b0380851683528084511660208401525060208301511515604083015260408301511515606083015260608301516080830152608083015160a083015260a083015160c083015260c08301516102ad60e0840182610239565b5060e08301516101008301529392505050565b6001600160a01b03811681146102d557600080fd5b5056fea26469706673582212208fed4ee6cadd0f8e29d714ee239c9451710e1e430a51aad7bad627134b3c805664736f6c63430007060033",
  "linkReferences": {},
  "deployedLinkReferences": {}
}