{
  "_format": "hh-sol-artifact-1",
  "contractName": "ClearingHouseConfig",
  "sourceName": "contracts/ClearingHouseConfig.sol",
  "abi": [
    {
      "anonymous": false,
      "inputs": [
        {
          "indexed": true,
          "internalType": "address",
          "name": "account",
          "type": "address"
        },
        {
          "indexed": true,
          "internalType": "bool",
          "name": "isProvider",
          "type": "bool"
        }
      ],
      "name": "BackstopLiquidityProviderChanged",
      "type": "event"
    },
    {
      "anonymous": false,
      "inputs": [
        {
          "indexed": false,
          "internalType": "uint24",
          "name": "liquidationPenaltyRatio",
          "type": "uint24"
        }
      ],
      "name": "LiquidationPenaltyRatioChanged",
      "type": "event"
    },
    {
      "anonymous": false,
      "inputs": [
        {
          "indexed": false,
          "internalType": "uint32",
          "name": "twapInterval",
          "type": "uint32"
        }
      ],
      "name": "MarkPriceMarketTwapIntervalChanged",
      "type": "event"
    },
    {
      "anonymous": false,
      "inputs": [
        {
          "indexed": false,
          "internalType": "uint32",
          "name": "premiumInterval",
          "type": "uint32"
        }
      ],
      "name": "MarkPricePremiumIntervalChanged",
      "type": "event"
    },
    {
      "anonymous": false,
      "inputs": [
        {
          "indexed": false,
          "internalType": "uint24",
          "name": "rate",
          "type": "uint24"
        }
      ],
      "name": "MaxFundingRateChanged",
      "type": "event"
    },
    {
      "anonymous": false,
      "inputs": [
        {
          "indexed": false,
          "internalType": "uint8",
          "name": "maxMarketsPerAccount",
          "type": "uint8"
        }
      ],
      "name": "MaxMarketsPerAccountChanged",
      "type": "event"
    },
    {
      "anonymous": false,
      "inputs": [
        {
          "indexed": true,
          "internalType": "address",
          "name": "previousOwner",
          "type": "address"
        },
        {
          "indexed": true,
          "internalType": "address",
          "name": "newOwner",
          "type": "address"
        }
      ],
      "name": "OwnershipTransferred",
      "type": "event"
    },
    {
      "anonymous": false,
      "inputs": [
        {
          "indexed": false,
          "internalType": "uint24",
          "name": "partialCloseRatio",
          "type": "uint24"
        }
      ],
      "name": "PartialCloseRatioChanged",
      "type": "event"
    },
    {
      "anonymous": false,
      "inputs": [
        {
          "indexed": false,
          "internalType": "uint256",
          "name": "cap",
          "type": "uint256"
        }
      ],
      "name": "SettlementTokenBalanceCapChanged",
      "type": "event"
    },
    {
      "anonymous": false,
      "inputs": [
        {
          "indexed": false,
          "internalType": "uint256",
          "name": "twapInterval",
          "type": "uint256"
        }
      ],
      "name": "TwapIntervalChanged",
      "type": "event"
    },
    {
      "inputs": [],
      "name": "candidate",
      "outputs": [
        {
          "internalType": "address",
          "name": "",
          "type": "address"
        }
      ],
      "stateMutability": "view",
      "type": "function"
    },
    {
      "inputs": [],
      "name": "getImRatio",
      "outputs": [
        {
          "internalType": "uint24",
          "name": "",
          "type": "uint24"
        }
      ],
      "stateMutability": "view",
      "type": "function"
    },
    {
      "inputs": [],
      "name": "getLiquidationPenaltyRatio",
      "outputs": [
        {
          "internalType": "uint24",
          "name": "",
          "type": "uint24"
        }
      ],
      "stateMutability": "view",
      "type": "function"
    },
    {
      "inputs": [],
      "name": "getMarkPriceConfig",
      "outputs": [
        {
          "internalType": "uint32",
          "name": "",
          "type": "uint32"
        },
        {
          "internalType": "uint32",
          "name": "",
          "type": "uint32"
        }
      ],
      "stateMutability": "view",
      "type": "function"
    },
    {
      "inputs": [],
      "name": "getMaxFundingRate",
      "outputs": [
        {
          "internalType": "uint24",
          "name": "",
          "type": "uint24"
        }
      ],
      "stateMutability": "view",
      "type": "function"
    },
    {
      "inputs": [],
      "name": "getMaxMarketsPerAccount",
      "outputs": [
        {
          "internalType": "uint8",
          "name": "",
          "type": "uint8"
        }
      ],
      "stateMutability": "view",
      "type": "function"
    },
    {
      "inputs": [],
      "name": "getMmRatio",
      "outputs": [
        {
          "internalType": "uint24",
          "name": "",
          "type": "uint24"
        }
      ],
      "stateMutability": "view",
      "type": "function"
    },
    {
      "inputs": [],
      "name": "getPartialCloseRatio",
      "outputs": [
        {
          "internalType": "uint24",
          "name": "",
          "type": "uint24"
        }
      ],
      "stateMutability": "view",
      "type": "function"
    },
    {
      "inputs": [],
      "name": "getSettlementTokenBalanceCap",
      "outputs": [
        {
          "internalType": "uint256",
          "name": "",
          "type": "uint256"
        }
      ],
      "stateMutability": "view",
      "type": "function"
    },
    {
      "inputs": [],
      "name": "getTwapInterval",
      "outputs": [
        {
          "internalType": "uint32",
          "name": "",
          "type": "uint32"
        }
      ],
      "stateMutability": "view",
      "type": "function"
    },
    {
      "inputs": [],
      "name": "initialize",
      "outputs": [],
      "stateMutability": "nonpayable",
      "type": "function"
    },
    {
      "inputs": [
        {
          "internalType": "address",
          "name": "account",
          "type": "address"
        }
      ],
      "name": "isBackstopLiquidityProvider",
      "outputs": [
        {
          "internalType": "bool",
          "name": "",
          "type": "bool"
        }
      ],
      "stateMutability": "view",
      "type": "function"
    },
    {
      "inputs": [],
      "name": "owner",
      "outputs": [
        {
          "internalType": "address",
          "name": "",
          "type": "address"
        }
      ],
      "stateMutability": "view",
      "type": "function"
    },
    {
      "inputs": [],
      "name": "renounceOwnership",
      "outputs": [],
      "stateMutability": "nonpayable",
      "type": "function"
    },
    {
      "inputs": [
        {
          "internalType": "address",
          "name": "account",
          "type": "address"
        },
        {
          "internalType": "bool",
          "name": "isProvider",
          "type": "bool"
        }
      ],
      "name": "setBackstopLiquidityProvider",
      "outputs": [],
      "stateMutability": "nonpayable",
      "type": "function"
    },
    {
      "inputs": [
        {
          "internalType": "uint24",
          "name": "liquidationPenaltyRatioArg",
          "type": "uint24"
        }
      ],
      "name": "setLiquidationPenaltyRatio",
      "outputs": [],
      "stateMutability": "nonpayable",
      "type": "function"
    },
    {
      "inputs": [
        {
          "internalType": "uint32",
          "name": "twapIntervalArg",
          "type": "uint32"
        }
      ],
      "name": "setMarkPriceMarketTwapInterval",
      "outputs": [],
      "stateMutability": "nonpayable",
      "type": "function"
    },
    {
      "inputs": [
        {
          "internalType": "uint32",
          "name": "premiumIntervalArg",
          "type": "uint32"
        }
      ],
      "name": "setMarkPricePremiumInterval",
      "outputs": [],
      "stateMutability": "nonpayable",
      "type": "function"
    },
    {
      "inputs": [
        {
          "internalType": "uint24",
          "name": "rate",
          "type": "uint24"
        }
      ],
      "name": "setMaxFundingRate",
      "outputs": [],
      "stateMutability": "nonpayable",
      "type": "function"
    },
    {
      "inputs": [
        {
          "internalType": "uint8",
          "name": "maxMarketsPerAccountArg",
          "type": "uint8"
        }
      ],
      "name": "setMaxMarketsPerAccount",
      "outputs": [],
      "stateMutability": "nonpayable",
      "type": "function"
    },
    {
      "inputs": [
        {
          "internalType": "address",
          "name": "newOwner",
          "type": "address"
        }
      ],
      "name": "setOwner",
      "outputs": [],
      "stateMutability": "nonpayable",
      "type": "function"
    },
    {
      "inputs": [
        {
          "internalType": "uint24",
          "name": "partialCloseRatioArg",
          "type": "uint24"
        }
      ],
      "name": "setPartialCloseRatio",
      "outputs": [],
      "stateMutability": "nonpayable",
      "type": "function"
    },
    {
      "inputs": [
        {
          "internalType": "uint256",
          "name": "cap",
          "type": "uint256"
        }
      ],
      "name": "setSettlementTokenBalanceCap",
      "outputs": [],
      "stateMutability": "nonpayable",
      "type": "function"
    },
    {
      "inputs": [
        {
          "internalType": "uint32",
          "name": "twapIntervalArg",
          "type": "uint32"
        }
      ],
      "name": "setTwapInterval",
      "outputs": [],
      "stateMutability": "nonpayable",
      "type": "function"
    },
    {
      "inputs": [],
      "name": "updateOwner",
      "outputs": [],
      "stateMutability": "nonpayable",
      "type": "function"
    }
  ],
  "bytecode": "0x608060405234801561001057600080fd5b5061136a806100206000396000f3fe608060405234801561001057600080fd5b50600436106101635760003560e01c80637bce35ae116100ce57806390cf78e41161008757806390cf78e414610344578063a2495a9614610372578063a8549402146103ac578063b0a336a7146103b4578063bc5920ba146103e5578063c846961e146103ed578063fedf924b1461040a57610163565b80637bce35ae146102b35780637df59538146102d55780638129fc1c146102f857806385eacc77146103005780638af3a60d1461031a5780638da5cb5b1461033c57610163565b80635e42f05e116101205780635e42f05e146102345780636c8381f8146102575780636e1d2dd21461027b578063715018a61461028357806373f625011461028b57806374283336146102ab57610163565b8063050a0ba31461016857806313af40351461018c5780631d27050f146101b25780632c47ccba146101d55780633e742e3b146101f3578063543ce73a14610214575b600080fd5b61018a6004803603602081101561017e57600080fd5b503562ffffff16610412565b005b61018a600480360360208110156101a257600080fd5b50356001600160a01b031661050f565b61018a600480360360208110156101c857600080fd5b503563ffffffff1661066a565b6101dd610721565b6040805160ff9092168252519081900360200190f35b6101fb61072a565b6040805163ffffffff9092168252519081900360200190f35b61021c61073d565b6040805162ffffff9092168252519081900360200190f35b61018a6004803603602081101561024a57600080fd5b503563ffffffff1661074d565b61025f61083d565b604080516001600160a01b039092168252519081900360200190f35b61021c61084c565b61018a61085e565b61018a600480360360208110156102a157600080fd5b503560ff166108ff565b61021c6109a4565b61018a600480360360208110156102c957600080fd5b503562ffffff166109b6565b61018a600480360360208110156102eb57600080fd5b503563ffffffff16610af8565b61018a610bf5565b610308610d38565b60408051918252519081900360200190f35b61018a6004803603602081101561033057600080fd5b503562ffffff16610d3e565b61025f610df3565b61018a6004803603604081101561035a57600080fd5b506001600160a01b0381351690602001351515610e02565b6103986004803603602081101561038857600080fd5b50356001600160a01b0316610eb3565b604080519115158252519081900360200190f35b61021c610ed1565b6103bc610ee4565b604051808363ffffffff1681526020018263ffffffff1681526020019250505060405180910390f35b61018a610efd565b61018a6004803603602081101561040357600080fd5b5035610fe9565b61021c611081565b80620f42408162ffffff161115610459576040805162461bcd60e51b81526020600482015260066024820152654348435f524f60d01b604482015290519081900360640190fd5b610461611093565b6001600160a01b0316610472610df3565b6001600160a01b0316146104b6576040805162461bcd60e51b8152602060048201526006602482015265534f5f434e4f60d01b604482015290519081900360640190fd5b6067805462ffffff8416600160381b810262ffffff60381b199092169190911790915560408051918252517ff95b3e2798060899824a0bebdd89ff5df3d51c51c5d30f5184bd30d7a6b017089181900360200190a15050565b610517611093565b6001600160a01b0316610528610df3565b6001600160a01b03161461056c576040805162461bcd60e51b8152602060048201526006602482015265534f5f434e4f60d01b604482015290519081900360640190fd5b6001600160a01b0381166105b0576040805162461bcd60e51b81526020600482015260066024820152650534f5f4e57360d41b604482015290519081900360640190fd5b6033546001600160a01b03828116911614156105fc576040805162461bcd60e51b8152602060048201526006602482015265534f5f53414f60d01b604482015290519081900360640190fd5b6034546001600160a01b0382811691161415610648576040805162461bcd60e51b8152602060048201526006602482015265534f5f53414360d01b604482015290519081900360640190fd5b603480546001600160a01b0319166001600160a01b0392909216919091179055565b610672611093565b6001600160a01b0316610683610df3565b6001600160a01b0316146106c7576040805162461bcd60e51b8152602060048201526006602482015265534f5f434e4f60d01b604482015290519081900360640190fd5b6067805463ffffffff8316600160801b810263ffffffff60801b199092169190911790915560408051918252517f0bd5e02c0d6277fdf7c7c72fae10042c4c832b26ea94623a04b79a50a35a217e9181900360200190a150565b60675460ff1690565b606754600160801b900463ffffffff1690565b606754610100900462ffffff1690565b610755611093565b6001600160a01b0316610766610df3565b6001600160a01b0316146107aa576040805162461bcd60e51b8152602060048201526006602482015265534f5f434e4f60d01b604482015290519081900360640190fd5b63ffffffff81166107ef576040805162461bcd60e51b815260206004820152600a6024820152694348435f494d504d544960b01b604482015290519081900360640190fd5b606a805463ffffffff831663ffffffff19909116811790915560408051918252517f043c6e0951171948ce43384f016d5cf8b28aaf1cc67b386b7f24c7cd442a101f9181900360200190a150565b6034546001600160a01b031690565b606754600160681b900462ffffff1690565b610866611093565b6001600160a01b0316610877610df3565b6001600160a01b0316146108bb576040805162461bcd60e51b8152602060048201526006602482015265534f5f434e4f60d01b604482015290519081900360640190fd5b6033546040516000916001600160a01b031690600080516020611315833981519152908390a3603380546001600160a01b0319908116909155603480549091169055565b610907611093565b6001600160a01b0316610918610df3565b6001600160a01b03161461095c576040805162461bcd60e51b8152602060048201526006602482015265534f5f434e4f60d01b604482015290519081900360640190fd5b6067805460ff831660ff19909116811790915560408051918252517fa7b4760b38e2a630f3073fcd5119972cbf81bd50e3761f86534a69661caf81109181900360200190a150565b606754600160501b900462ffffff1690565b80620f42408162ffffff1611156109fd576040805162461bcd60e51b81526020600482015260066024820152654348435f524f60d01b604482015290519081900360640190fd5b610a05611093565b6001600160a01b0316610a16610df3565b6001600160a01b031614610a5a576040805162461bcd60e51b8152602060048201526006602482015265534f5f434e4f60d01b604482015290519081900360640190fd5b60008262ffffff1611610a9f576040805162461bcd60e51b815260206004820152600860248201526721a421afa4a821a960c11b604482015290519081900360640190fd5b6067805462ffffff8416600160501b810262ffffff60501b199092169190911790915560408051918252517f4757c16c46bedf5171cc1e2c53c99225da1bff2c0a5cb51b0f852909dbae1ebd9181900360200190a15050565b610b00611093565b6001600160a01b0316610b11610df3565b6001600160a01b031614610b55576040805162461bcd60e51b8152602060048201526006602482015265534f5f434e4f60d01b604482015290519081900360640190fd5b63ffffffff8116610b99576040805162461bcd60e51b81526020600482015260096024820152684348435f494d50504960b81b604482015290519081900360640190fd5b606a805463ffffffff8316640100000000810267ffffffff00000000199092169190911790915560408051918252517f2ded22d3f7efd4c22dabf8f320ff2d8d1ecdce90fa5d891616bd9de5ef5849bb9181900360200190a150565b600054610100900460ff1680610c0e5750610c0e611097565b80610c1c575060005460ff16155b610c575760405162461bcd60e51b815260040180806020018281038252602e8152602001806112e7602e913960400191505060405180910390fd5b600054610100900460ff16158015610c82576000805460ff1961ff0019909116610100171660011790555b610c8a6110a8565b6067805460ff60ff199091161763ffffff001916630186a0001766ffffff00000000191665f424000000001762ffffff60381b1916610c35603b1b1762ffffff60501b1916613d0960541b1762ffffff60681b1916610c35606d1b1763ffffffff60801b191660e160821b1790556000606855606a805461070863ffffffff199091161767ffffffff000000001916650384000000001790558015610d35576000805461ff00191690555b50565b60685490565b610d46611093565b6001600160a01b0316610d57610df3565b6001600160a01b031614610d9b576040805162461bcd60e51b8152602060048201526006602482015265534f5f434e4f60d01b604482015290519081900360640190fd5b6067805462ffffff8316600160681b810262ffffff60681b199092169190911790915560408051918252517f0bcb070f78e3c4fec82334dff77e5369a878886b8be26c9f98daa534a8cf67789181900360200190a150565b6033546001600160a01b031690565b610e0a611093565b6001600160a01b0316610e1b610df3565b6001600160a01b031614610e5f576040805162461bcd60e51b8152602060048201526006602482015265534f5f434e4f60d01b604482015290519081900360640190fd5b6001600160a01b038216600081815260696020526040808220805460ff191685151590811790915590519092917fea46bd0a90ba772a1dbffd4f585e1418c095cb5f70177a38f6eeadf26046e8a991a35050565b6001600160a01b031660009081526069602052604090205460ff1690565b606754640100000000900462ffffff1690565b606a5463ffffffff808216916401000000009004169091565b6034546001600160a01b0316610f42576040805162461bcd60e51b81526020600482015260056024820152640534f5f43360dc1b604482015290519081900360640190fd5b610f4a611093565b6034546001600160a01b03908116911614610f95576040805162461bcd60e51b8152602060048201526006602482015265534f5f434e4360d01b604482015290519081900360640190fd5b6034546033546040516001600160a01b03928316929091169060008051602061131583398151915290600090a360348054603380546001600160a01b03199081166001600160a01b03841617909155169055565b610ff1611093565b6001600160a01b0316611002610df3565b6001600160a01b031614611046576040805162461bcd60e51b8152602060048201526006602482015265534f5f434e4f60d01b604482015290519081900360640190fd5b60688190556040805182815290517fc6564be86420b541b7946583fdb54d45535a59a04e3b3525b536ccc547b4cd8f9181900360200190a150565b606754600160381b900462ffffff1690565b3390565b60006110a230611197565b15905090565b600054610100900460ff16806110c157506110c1611097565b806110cf575060005460ff16155b61110a5760405162461bcd60e51b815260040180806020018281038252602e8152602001806112e7602e913960400191505060405180910390fd5b600054610100900460ff16158015611135576000805460ff1961ff0019909116610100171660011790555b61113d61119d565b6000611147611093565b603380546001600160a01b0319166001600160a01b03831690811790915560405191925090600090600080516020611315833981519152908290a3508015610d35576000805461ff001916905550565b3b151590565b600054610100900460ff16806111b657506111b6611097565b806111c4575060005460ff16155b6111ff5760405162461bcd60e51b815260040180806020018281038252602e8152602001806112e7602e913960400191505060405180910390fd5b600054610100900460ff1615801561122a576000805460ff1961ff0019909116610100171660011790555b611232611246565b8015610d35576000805461ff001916905550565b600054610100900460ff168061125f575061125f611097565b8061126d575060005460ff16155b6112a85760405162461bcd60e51b815260040180806020018281038252602e8152602001806112e7602e913960400191505060405180910390fd5b600054610100900460ff16158015611232576000805460ff1961ff0019909116610100171660011790558015610d35576000805461ff00191690555056fe496e697469616c697a61626c653a20636f6e747261637420697320616c726561647920696e697469616c697a65648be0079c531659141344cd1fd0a4f28419497f9722a3daafe3b4186f6b6457e0a2646970667358221220464102313419d29a59250e27ec5ea5091f09c7b4cd53fcc0d50237a97b4f3f1464736f6c63430007060033",
  "linkReferences": {},
  "deployedLinkReferences": {}
}