{
  "_format": "hh-sol-artifact-1",
  "contractName": "TestPerpSafeCast",
  "sourceName": "contracts/test/TestPerpSafeCast.sol",
  "abi": [
    {
      "inputs": [
        {
          "internalType": "int256",
          "name": "value",
          "type": "int256"
        }
      ],
      "name": "testToInt128",
      "outputs": [
        {
          "internalType": "int128",
          "name": "",
          "type": "int128"
        }
      ],
      "stateMutability": "pure",
      "type": "function"
    },
    {
      "inputs": [
        {
          "internalType": "int256",
          "name": "value",
          "type": "int256"
        }
      ],
      "name": "testToInt16",
      "outputs": [
        {
          "internalType": "int16",
          "name": "",
          "type": "int16"
        }
      ],
      "stateMutability": "pure",
      "type": "function"
    },
    {
      "inputs": [
        {
          "internalType": "int256",
          "name": "value",
          "type": "int256"
        }
      ],
      "name": "testToInt24",
      "outputs": [
        {
          "internalType": "int24",
          "name": "",
          "type": "int24"
        }
      ],
      "stateMutability": "pure",
      "type": "function"
    },
    {
      "inputs": [
        {
          "internalType": "uint256",
          "name": "value",
          "type": "uint256"
        }
      ],
      "name": "testToInt256",
      "outputs": [
        {
          "internalType": "int256",
          "name": "",
          "type": "int256"
        }
      ],
      "stateMutability": "pure",
      "type": "function"
    },
    {
      "inputs": [
        {
          "internalType": "int256",
          "name": "value",
          "type": "int256"
        }
      ],
      "name": "testToInt32",
      "outputs": [
        {
          "internalType": "int32",
          "name": "",
          "type": "int32"
        }
      ],
      "stateMutability": "pure",
      "type": "function"
    },
    {
      "inputs": [
        {
          "internalType": "int256",
          "name": "value",
          "type": "int256"
        }
      ],
      "name": "testToInt64",
      "outputs": [
        {
          "internalType": "int64",
          "name": "",
          "type": "int64"
        }
      ],
      "stateMutability": "pure",
      "type": "function"
    },
    {
      "inputs": [
        {
          "internalType": "int256",
          "name": "value",
          "type": "int256"
        }
      ],
      "name": "testToInt8",
      "outputs": [
        {
          "internalType": "int8",
          "name": "",
          "type": "int8"
        }
      ],
      "stateMutability": "pure",
      "type": "function"
    },
    {
      "inputs": [
        {
          "internalType": "uint256",
          "name": "value",
          "type": "uint256"
        }
      ],
      "name": "testToUint128",
      "outputs": [
        {
          "internalType": "uint128",
          "name": "",
          "type": "uint128"
        }
      ],
      "stateMutability": "pure",
      "type": "function"
    },
    {
      "inputs": [
        {
          "internalType": "uint256",
          "name": "value",
          "type": "uint256"
        }
      ],
      "name": "testToUint16",
      "outputs": [
        {
          "internalType": "uint16",
          "name": "",
          "type": "uint16"
        }
      ],
      "stateMutability": "pure",
      "type": "function"
    },
    {
      "inputs": [
        {
          "internalType": "int256",
          "name": "value",
          "type": "int256"
        }
      ],
      "name": "testToUint24",
      "outputs": [
        {
          "internalType": "uint24",
          "name": "",
          "type": "uint24"
        }
      ],
      "stateMutability": "pure",
      "type": "function"
    },
    {
      "inputs": [
        {
          "internalType": "int256",
          "name": "value",
          "type": "int256"
        }
      ],
      "name": "testToUint256",
      "outputs": [
        {
          "internalType": "uint256",
          "name": "",
          "type": "uint256"
        }
      ],
      "stateMutability": "pure",
      "type": "function"
    },
    {
      "inputs": [
        {
          "internalType": "uint256",
          "name": "value",
          "type": "uint256"
        }
      ],
      "name": "testToUint32",
      "outputs": [
        {
          "internalType": "uint32",
          "name": "",
          "type": "uint32"
        }
      ],
      "stateMutability": "pure",
      "type": "function"
    },
    {
      "inputs": [
        {
          "internalType": "uint256",
          "name": "value",
          "type": "uint256"
        }
      ],
      "name": "testToUint64",
      "outputs": [
        {
          "internalType": "uint64",
          "name": "",
          "type": "uint64"
        }
      ],
      "stateMutability": "pure",
      "type": "function"
    },
    {
      "inputs": [
        {
          "internalType": "uint256",
          "name": "value",
          "type": "uint256"
        }
      ],
      "name": "testToUint8",
      "outputs": [
        {
          "internalType": "uint8",
          "name": "",
          "type": "uint8"
        }
      ],
      "stateMutability": "pure",
      "type": "function"
    }
  ],
  "bytecode": "0x608060405234801561001057600080fd5b50610965806100206000396000f3fe608060405234801561001057600080fd5b50600436106100ca5760003560e01c80639daa27ef1161007c5780639daa27ef146101b85780639f751116146101d8578063b1f9dc45146101f8578063ce6378e914610218578063ddcdff9714610238578063edb7f5ff14610258578063fc4c3bc21461026b576100ca565b80631c58457e146100cf5780632ff4b10e146100f8578063592e3e22146101185780637034d70114610138578063719ecc0914610158578063837c55c7146101785780639a4cc77d14610198575b600080fd5b6100e26100dd366004610701565b61028b565b6040516100ef91906107ba565b60405180910390f35b61010b610106366004610701565b61029e565b6040516100ef91906107a9565b61012b610126366004610701565b6102a9565b6040516100ef9190610735565b61014b610146366004610701565b6102b4565b6040516100ef9190610768565b61016b610166366004610701565b6102bf565b6040516100ef9190610719565b61018b610186366004610701565b6102ca565b6040516100ef9190610727565b6101ab6101a6366004610701565b6102d5565b6040516100ef91906107cf565b6101cb6101c6366004610701565b6102e0565b6040516100ef919061075a565b6101eb6101e6366004610701565b6102eb565b6040516100ef9190610776565b61020b610206366004610701565b6102f6565b6040516100ef9190610799565b61022b610226366004610701565b610301565b6040516100ef9190610743565b61024b610246366004610701565b61030c565b6040516100ef919061074c565b61022b610266366004610701565b610317565b61027e610279366004610701565b610322565b6040516100ef919061078a565b60006102968261032d565b90505b919050565b600061029682610376565b6000610296826103bb565b6000610296826103fe565b600061029682610441565b600061029682610484565b6000610296826104c7565b600061029682610509565b60006102968261054c565b600061029682610594565b6000610296826105d8565b600061029682610633565b600061029682610676565b6000610296826106be565b8067ffffffffffffffff811681146102995760405162461bcd60e51b81526004018080602001828103825260268152602001806108bc6026913960400191505060405180910390fd5b8063ffffffff811681146102995760405162461bcd60e51b81526004018080602001828103825260268152602001806108e26026913960400191505060405180910390fd5b80600281900b81146102995760405162461bcd60e51b81526004018080602001828103825260298152602001806108506029913960400191505060405180910390fd5b80600081900b81146102995760405162461bcd60e51b81526004018080602001828103825260258152602001806108046025913960400191505060405180910390fd5b80600f81900b81146102995760405162461bcd60e51b81526004018080602001828103825260278152602001806108296027913960400191505060405180910390fd5b80600181900b81146102995760405162461bcd60e51b81526004018080602001828103825260268152602001806107de6026913960400191505060405180910390fd5b8060ff811681146102995760405162461bcd60e51b81526004018080602001828103825260258152602001806108046025913960400191505060405180910390fd5b80600781900b81146102995760405162461bcd60e51b81526004018080602001828103825260268152602001806108bc6026913960400191505060405180910390fd5b806001600160801b03811681146102995760405162461bcd60e51b81526004018080602001828103825260278152602001806108296027913960400191505060405180910390fd5b8062ffffff811681146102995760405162461bcd60e51b81526004018080602001828103825260438152602001806108796043913960600191505060405180910390fd5b60008082121561062f576040805162461bcd60e51b815260206004820181905260248201527f53616665436173743a2076616c7565206d75737420626520706f736974697665604482015290519081900360640190fd5b5090565b80600381900b81146102995760405162461bcd60e51b81526004018080602001828103825260268152602001806108e26026913960400191505060405180910390fd5b60006001600160ff1b0382111561062f5760405162461bcd60e51b81526004018080602001828103825260288152602001806109086028913960400191505060405180910390fd5b8061ffff811681146102995760405162461bcd60e51b81526004018080602001828103825260268152602001806107de6026913960400191505060405180910390fd5b600060208284031215610712578081fd5b5035919050565b600f9190910b815260200190565b60019190910b815260200190565b60029190910b815260200190565b90815260200190565b60039190910b815260200190565b60079190910b815260200190565b60009190910b815260200190565b6001600160801b0391909116815260200190565b61ffff91909116815260200190565b62ffffff91909116815260200190565b63ffffffff91909116815260200190565b67ffffffffffffffff91909116815260200190565b60ff9190911681526020019056fe53616665436173743a2076616c756520646f65736e27742066697420696e203136206269747353616665436173743a2076616c756520646f65736e27742066697420696e2038206269747353616665436173743a2076616c756520646f65736e27742066697420696e20313238206269747353616665436173743a2076616c756520646f65736e27742066697420696e20616e203234206269747353616665436173743a2076616c7565206d75737420626520706f736974697665206f722076616c756520646f65736e27742066697420696e20616e203234206269747353616665436173743a2076616c756520646f65736e27742066697420696e203634206269747353616665436173743a2076616c756520646f65736e27742066697420696e203332206269747353616665436173743a2076616c756520646f65736e27742066697420696e20616e20696e74323536a26469706673582212200c6e398bd09b7b3062a1d6d15dc873c67144390d21a4c7202fca61abd4b397ce64736f6c63430007060033",
  "linkReferences": {},
  "deployedLinkReferences": {}
}