{
  "_format": "hh-sol-artifact-1",
  "contractName": "TestMetaTxRecipient",
  "sourceName": "contracts/test/TestMetaTxRecipient.sol",
  "abi": [
    {
      "anonymous": false,
      "inputs": [
        {
          "indexed": false,
          "internalType": "address",
          "name": "trustedForwarder",
          "type": "address"
        }
      ],
      "name": "TrustedForwarderUpdated",
      "type": "event"
    },
    {
      "inputs": [
        {
          "internalType": "address",
          "name": "trustedForwarderArg",
          "type": "address"
        }
      ],
      "name": "__TestMetaTxRecipient_init",
      "outputs": [],
      "stateMutability": "nonpayable",
      "type": "function"
    },
    {
      "inputs": [],
      "name": "error",
      "outputs": [],
      "stateMutability": "pure",
      "type": "function"
    },
    {
      "inputs": [],
      "name": "getTrustedForwarder",
      "outputs": [
        {
          "internalType": "address",
          "name": "",
          "type": "address"
        }
      ],
      "stateMutability": "view",
      "type": "function"
    },
    {
      "inputs": [
        {
          "internalType": "address",
          "name": "forwarder",
          "type": "address"
        }
      ],
      "name": "isTrustedForwarder",
      "outputs": [
        {
          "internalType": "bool",
          "name": "",
          "type": "bool"
        }
      ],
      "stateMutability": "view",
      "type": "function"
    },
    {
      "inputs": [],
      "name": "poke",
      "outputs": [],
      "stateMutability": "nonpayable",
      "type": "function"
    },
    {
      "inputs": [],
      "name": "pokedBy",
      "outputs": [
        {
          "internalType": "address",
          "name": "",
          "type": "address"
        }
      ],
      "stateMutability": "view",
      "type": "function"
    },
    {
      "inputs": [],
      "name": "versionRecipient",
      "outputs": [
        {
          "internalType": "string",
          "name": "",
          "type": "string"
        }
      ],
      "stateMutability": "pure",
      "type": "function"
    }
  ],
  "bytecode": "0x608060405234801561001057600080fd5b5061040d806100206000396000f3fe608060405234801561001057600080fd5b506004361061006d5760003560e01c80631817835814610072578063486ff0cd1461007c578063572b6c05146100f9578063a48d6a9c14610133578063c79f8b6214610159578063ce1b815f14610161578063dfc32df614610185575b600080fd5b61007a61018d565b005b6100846101bd565b6040805160208082528351818301528351919283929083019185019080838360005b838110156100be5781810151838201526020016100a6565b50505050905090810190601f1680156100eb5780820380516001836020036101000a031916815260200191505b509250505060405180910390f35b61011f6004803603602081101561010f57600080fd5b50356001600160a01b03166101dd565b604080519115158252519081900360200190f35b61007a6004803603602081101561014957600080fd5b50356001600160a01b03166101f1565b61007a61029d565b6101696102ea565b604080516001600160a01b039092168252519081900360200190f35b6101696102f9565b61019561030e565b603360026101000a8154816001600160a01b0302191690836001600160a01b03160217905550565b6040805180820190915260058152640322e302e360dc1b60208201525b90565b6000546001600160a01b0390811691161490565b603354610100900460ff168061020a575061020a61033e565b80610218575060335460ff16155b6102535760405162461bcd60e51b815260040180806020018281038252602e8152602001806103aa602e913960400191505060405180910390fd5b603354610100900460ff1615801561027e576033805460ff1961ff0019909116610100171660011790555b6102878261034f565b8015610299576033805461ff00191690555b5050565b6040805162461bcd60e51b815260206004820152601a60248201527f4d6574615478526563697069656e744d6f636b3a204572726f72000000000000604482015290519081900360640190fd5b6000546001600160a01b031690565b6033546201000090046001600160a01b031681565b6000601436108015906103255750610325336101dd565b15610339575060131936013560601c6101da565b503390565b6000610349306103a3565b15905090565b600080546001600160a01b0383166001600160a01b0319909116811790915560408051918252517fa4388ecc389b1390354ae0c65a856c0d7dd4fb648419f5d3ac0b99e38f46fd119181900360200190a150565b3b15159056fe496e697469616c697a61626c653a20636f6e747261637420697320616c726561647920696e697469616c697a6564a2646970667358221220ab753e689b7b1b67dc5aef8bd9056f82d1a3b9c8c6503797981927ab63a69c2264736f6c63430007060033",
  "linkReferences": {},
  "deployedLinkReferences": {}
}