{
  "_format": "hh-sol-artifact-1",
  "contractName": "TestAggregatorV3",
  "sourceName": "contracts/test/TestAggregatorV3.sol",
  "abi": [
    {
      "inputs": [],
      "name": "decimals",
      "outputs": [
        {
          "internalType": "uint8",
          "name": "",
          "type": "uint8"
        }
      ],
      "stateMutability": "view",
      "type": "function"
    },
    {
      "inputs": [],
      "name": "description",
      "outputs": [
        {
          "internalType": "string",
          "name": "",
          "type": "string"
        }
      ],
      "stateMutability": "view",
      "type": "function"
    },
    {
      "inputs": [
        {
          "internalType": "uint80",
          "name": "_roundId",
          "type": "uint80"
        }
      ],
      "name": "getRoundData",
      "outputs": [
        {
          "internalType": "uint80",
          "name": "roundId",
          "type": "uint80"
        },
        {
          "internalType": "int256",
          "name": "answer",
          "type": "int256"
        },
        {
          "internalType": "uint256",
          "name": "startedAt",
          "type": "uint256"
        },
        {
          "internalType": "uint256",
          "name": "updatedAt",
          "type": "uint256"
        },
        {
          "internalType": "uint80",
          "name": "answeredInRound",
          "type": "uint80"
        }
      ],
      "stateMutability": "view",
      "type": "function"
    },
    {
      "inputs": [],
      "name": "latestRoundData",
      "outputs": [
        {
          "internalType": "uint80",
          "name": "roundId",
          "type": "uint80"
        },
        {
          "internalType": "int256",
          "name": "answer",
          "type": "int256"
        },
        {
          "internalType": "uint256",
          "name": "startedAt",
          "type": "uint256"
        },
        {
          "internalType": "uint256",
          "name": "updatedAt",
          "type": "uint256"
        },
        {
          "internalType": "uint80",
          "name": "answeredInRound",
          "type": "uint80"
        }
      ],
      "stateMutability": "view",
      "type": "function"
    },
    {
      "inputs": [],
      "name": "version",
      "outputs": [
        {
          "internalType": "uint256",
          "name": "",
          "type": "uint256"
        }
      ],
      "stateMutability": "view",
      "type": "function"
    }
  ],
  "bytecode": "0x608060405234801561001057600080fd5b506101ef806100206000396000f3fe608060405234801561001057600080fd5b50600436106100575760003560e01c8063313ce5671461005c57806354fd4d501461007a5780637284e4161461008f5780639a6fc8f5146100a4578063feaf968c146100c8575b600080fd5b6100646100d0565b60405161007191906101ab565b60405180910390f35b6100826100d0565b604051610071919061016f565b6100976100d7565b604051610071919061011c565b6100b76100b23660046100eb565b6100de565b604051610071959493929190610178565b6100b76100de565b6000806000fd5b6060600080fd5b6000806000806000806000fd5b6000602082840312156100fc578081fd5b813569ffffffffffffffffffff81168114610115578182fd5b9392505050565b6000602080835283518082850152825b818110156101485785810183015185820160400152820161012c565b818111156101595783604083870101525b50601f01601f1916929092016040019392505050565b90815260200190565b69ffffffffffffffffffff9586168152602081019490945260408401929092526060830152909116608082015260a00190565b60ff9190911681526020019056fea264697066735822122034f1645c439c206f1860acfe70b708c6c4e7a865a8b22dc70d932c200ae93aff64736f6c63430007060033",
  "linkReferences": {},
  "deployedLinkReferences": {}
}