{
  "_format": "hh-sol-artifact-1",
  "contractName": "ERC20PresetMinterPauserUpgradeable",
  "sourceName": "@openzeppelin/contracts-upgradeable/presets/ERC20PresetMinterPauserUpgradeable.sol",
  "abi": [
    {
      "anonymous": false,
      "inputs": [
        {
          "indexed": true,
          "internalType": "address",
          "name": "owner",
          "type": "address"
        },
        {
          "indexed": true,
          "internalType": "address",
          "name": "spender",
          "type": "address"
        },
        {
          "indexed": false,
          "internalType": "uint256",
          "name": "value",
          "type": "uint256"
        }
      ],
      "name": "Approval",
      "type": "event"
    },
    {
      "anonymous": false,
      "inputs": [
        {
          "indexed": false,
          "internalType": "address",
          "name": "account",
          "type": "address"
        }
      ],
      "name": "Paused",
      "type": "event"
    },
    {
      "anonymous": false,
      "inputs": [
        {
          "indexed": true,
          "internalType": "bytes32",
          "name": "role",
          "type": "bytes32"
        },
        {
          "indexed": true,
          "internalType": "bytes32",
          "name": "previousAdminRole",
          "type": "bytes32"
        },
        {
          "indexed": true,
          "internalType": "bytes32",
          "name": "newAdminRole",
          "type": "bytes32"
        }
      ],
      "name": "RoleAdminChanged",
      "type": "event"
    },
    {
      "anonymous": false,
      "inputs": [
        {
          "indexed": true,
          "internalType": "bytes32",
          "name": "role",
          "type": "bytes32"
        },
        {
          "indexed": true,
          "internalType": "address",
          "name": "account",
          "type": "address"
        },
        {
          "indexed": true,
          "internalType": "address",
          "name": "sender",
          "type": "address"
        }
      ],
      "name": "RoleGranted",
      "type": "event"
    },
    {
      "anonymous": false,
      "inputs": [
        {
          "indexed": true,
          "internalType": "bytes32",
          "name": "role",
          "type": "bytes32"
        },
        {
          "indexed": true,
          "internalType": "address",
          "name": "account",
          "type": "address"
        },
        {
          "indexed": true,
          "internalType": "address",
          "name": "sender",
          "type": "address"
        }
      ],
      "name": "RoleRevoked",
      "type": "event"
    },
    {
      "anonymous": false,
      "inputs": [
        {
          "indexed": true,
          "internalType": "address",
          "name": "from",
          "type": "address"
        },
        {
          "indexed": true,
          "internalType": "address",
          "name": "to",
          "type": "address"
        },
        {
          "indexed": false,
          "internalType": "uint256",
          "name": "value",
          "type": "uint256"
        }
      ],
      "name": "Transfer",
      "type": "event"
    },
    {
      "anonymous": false,
      "inputs": [
        {
          "indexed": false,
          "internalType": "address",
          "name": "account",
          "type": "address"
        }
      ],
      "name": "Unpaused",
      "type": "event"
    },
    {
      "inputs": [],
      "name": "DEFAULT_ADMIN_ROLE",
      "outputs": [
        {
          "internalType": "bytes32",
          "name": "",
          "type": "bytes32"
        }
      ],
      "stateMutability": "view",
      "type": "function"
    },
    {
      "inputs": [],
      "name": "MINTER_ROLE",
      "outputs": [
        {
          "internalType": "bytes32",
          "name": "",
          "type": "bytes32"
        }
      ],
      "stateMutability": "view",
      "type": "function"
    },
    {
      "inputs": [],
      "name": "PAUSER_ROLE",
      "outputs": [
        {
          "internalType": "bytes32",
          "name": "",
          "type": "bytes32"
        }
      ],
      "stateMutability": "view",
      "type": "function"
    },
    {
      "inputs": [
        {
          "internalType": "address",
          "name": "owner",
          "type": "address"
        },
        {
          "internalType": "address",
          "name": "spender",
          "type": "address"
        }
      ],
      "name": "allowance",
      "outputs": [
        {
          "internalType": "uint256",
          "name": "",
          "type": "uint256"
        }
      ],
      "stateMutability": "view",
      "type": "function"
    },
    {
      "inputs": [
        {
          "internalType": "address",
          "name": "spender",
          "type": "address"
        },
        {
          "internalType": "uint256",
          "name": "amount",
          "type": "uint256"
        }
      ],
      "name": "approve",
      "outputs": [
        {
          "internalType": "bool",
          "name": "",
          "type": "bool"
        }
      ],
      "stateMutability": "nonpayable",
      "type": "function"
    },
    {
      "inputs": [
        {
          "internalType": "address",
          "name": "account",
          "type": "address"
        }
      ],
      "name": "balanceOf",
      "outputs": [
        {
          "internalType": "uint256",
          "name": "",
          "type": "uint256"
        }
      ],
      "stateMutability": "view",
      "type": "function"
    },
    {
      "inputs": [
        {
          "internalType": "uint256",
          "name": "amount",
          "type": "uint256"
        }
      ],
      "name": "burn",
      "outputs": [],
      "stateMutability": "nonpayable",
      "type": "function"
    },
    {
      "inputs": [
        {
          "internalType": "address",
          "name": "account",
          "type": "address"
        },
        {
          "internalType": "uint256",
          "name": "amount",
          "type": "uint256"
        }
      ],
      "name": "burnFrom",
      "outputs": [],
      "stateMutability": "nonpayable",
      "type": "function"
    },
    {
      "inputs": [],
      "name": "decimals",
      "outputs": [
        {
          "internalType": "uint8",
          "name": "",
          "type": "uint8"
        }
      ],
      "stateMutability": "view",
      "type": "function"
    },
    {
      "inputs": [
        {
          "internalType": "address",
          "name": "spender",
          "type": "address"
        },
        {
          "internalType": "uint256",
          "name": "subtractedValue",
          "type": "uint256"
        }
      ],
      "name": "decreaseAllowance",
      "outputs": [
        {
          "internalType": "bool",
          "name": "",
          "type": "bool"
        }
      ],
      "stateMutability": "nonpayable",
      "type": "function"
    },
    {
      "inputs": [
        {
          "internalType": "bytes32",
          "name": "role",
          "type": "bytes32"
        }
      ],
      "name": "getRoleAdmin",
      "outputs": [
        {
          "internalType": "bytes32",
          "name": "",
          "type": "bytes32"
        }
      ],
      "stateMutability": "view",
      "type": "function"
    },
    {
      "inputs": [
        {
          "internalType": "bytes32",
          "name": "role",
          "type": "bytes32"
        },
        {
          "internalType": "uint256",
          "name": "index",
          "type": "uint256"
        }
      ],
      "name": "getRoleMember",
      "outputs": [
        {
          "internalType": "address",
          "name": "",
          "type": "address"
        }
      ],
      "stateMutability": "view",
      "type": "function"
    },
    {
      "inputs": [
        {
          "internalType": "bytes32",
          "name": "role",
          "type": "bytes32"
        }
      ],
      "name": "getRoleMemberCount",
      "outputs": [
        {
          "internalType": "uint256",
          "name": "",
          "type": "uint256"
        }
      ],
      "stateMutability": "view",
      "type": "function"
    },
    {
      "inputs": [
        {
          "internalType": "bytes32",
          "name": "role",
          "type": "bytes32"
        },
        {
          "internalType": "address",
          "name": "account",
          "type": "address"
        }
      ],
      "name": "grantRole",
      "outputs": [],
      "stateMutability": "nonpayable",
      "type": "function"
    },
    {
      "inputs": [
        {
          "internalType": "bytes32",
          "name": "role",
          "type": "bytes32"
        },
        {
          "internalType": "address",
          "name": "account",
          "type": "address"
        }
      ],
      "name": "hasRole",
      "outputs": [
        {
          "internalType": "bool",
          "name": "",
          "type": "bool"
        }
      ],
      "stateMutability": "view",
      "type": "function"
    },
    {
      "inputs": [
        {
          "internalType": "address",
          "name": "spender",
          "type": "address"
        },
        {
          "internalType": "uint256",
          "name": "addedValue",
          "type": "uint256"
        }
      ],
      "name": "increaseAllowance",
      "outputs": [
        {
          "internalType": "bool",
          "name": "",
          "type": "bool"
        }
      ],
      "stateMutability": "nonpayable",
      "type": "function"
    },
    {
      "inputs": [
        {
          "internalType": "string",
          "name": "name",
          "type": "string"
        },
        {
          "internalType": "string",
          "name": "symbol",
          "type": "string"
        }
      ],
      "name": "initialize",
      "outputs": [],
      "stateMutability": "nonpayable",
      "type": "function"
    },
    {
      "inputs": [
        {
          "internalType": "address",
          "name": "to",
          "type": "address"
        },
        {
          "internalType": "uint256",
          "name": "amount",
          "type": "uint256"
        }
      ],
      "name": "mint",
      "outputs": [],
      "stateMutability": "nonpayable",
      "type": "function"
    },
    {
      "inputs": [],
      "name": "name",
      "outputs": [
        {
          "internalType": "string",
          "name": "",
          "type": "string"
        }
      ],
      "stateMutability": "view",
      "type": "function"
    },
    {
      "inputs": [],
      "name": "pause",
      "outputs": [],
      "stateMutability": "nonpayable",
      "type": "function"
    },
    {
      "inputs": [],
      "name": "paused",
      "outputs": [
        {
          "internalType": "bool",
          "name": "",
          "type": "bool"
        }
      ],
      "stateMutability": "view",
      "type": "function"
    },
    {
      "inputs": [
        {
          "internalType": "bytes32",
          "name": "role",
          "type": "bytes32"
        },
        {
          "internalType": "address",
          "name": "account",
          "type": "address"
        }
      ],
      "name": "renounceRole",
      "outputs": [],
      "stateMutability": "nonpayable",
      "type": "function"
    },
    {
      "inputs": [
        {
          "internalType": "bytes32",
          "name": "role",
          "type": "bytes32"
        },
        {
          "internalType": "address",
          "name": "account",
          "type": "address"
        }
      ],
      "name": "revokeRole",
      "outputs": [],
      "stateMutability": "nonpayable",
      "type": "function"
    },
    {
      "inputs": [],
      "name": "symbol",
      "outputs": [
        {
          "internalType": "string",
          "name": "",
          "type": "string"
        }
      ],
      "stateMutability": "view",
      "type": "function"
    },
    {
      "inputs": [],
      "name": "totalSupply",
      "outputs": [
        {
          "internalType": "uint256",
          "name": "",
          "type": "uint256"
        }
      ],
      "stateMutability": "view",
      "type": "function"
    },
    {
      "inputs": [
        {
          "internalType": "address",
          "name": "recipient",
          "type": "address"
        },
        {
          "internalType": "uint256",
          "name": "amount",
          "type": "uint256"
        }
      ],
      "name": "transfer",
      "outputs": [
        {
          "internalType": "bool",
          "name": "",
          "type": "bool"
        }
      ],
      "stateMutability": "nonpayable",
      "type": "function"
    },
    {
      "inputs": [
        {
          "internalType": "address",
          "name": "sender",
          "type": "address"
        },
        {
          "internalType": "address",
          "name": "recipient",
          "type": "address"
        },
        {
          "internalType": "uint256",
          "name": "amount",
          "type": "uint256"
        }
      ],
      "name": "transferFrom",
      "outputs": [
        {
          "internalType": "bool",
          "name": "",
          "type": "bool"
        }
      ],
      "stateMutability": "nonpayable",
      "type": "function"
    },
    {
      "inputs": [],
      "name": "unpause",
      "outputs": [],
      "stateMutability": "nonpayable",
      "type": "function"
    }
  ],
  "bytecode": "0x608060405234801561001057600080fd5b50611ee1806100206000396000f3fe608060405234801561001057600080fd5b50600436106101845760003560e01c806370a08231116100d9578063a457c2d711610087578063a457c2d7146105ae578063a9059cbb146105da578063ca15c87314610606578063d539139314610623578063d547741f1461062b578063dd62ed3e14610657578063e63ab1e91461068557610184565b806370a08231146104d957806379cc6790146104ff5780638456cb591461052b5780639010d07c1461053357806391d148541461057257806395d89b411461059e578063a217fddf146105a657610184565b806336568abe1161013657806336568abe146102ff578063395093511461032b5780633f4ba83a1461035757806340c10f191461035f57806342966c681461038b5780634cd88b76146103a85780635c975abb146104d157610184565b806306fdde0314610189578063095ea7b31461020657806318160ddd1461024657806323b872dd14610260578063248a9ca3146102965780632f2ff15d146102b3578063313ce567146102e1575b600080fd5b61019161068d565b6040805160208082528351818301528351919283929083019185019080838360005b838110156101cb5781810151838201526020016101b3565b50505050905090810190601f1680156101f85780820380516001836020036101000a031916815260200191505b509250505060405180910390f35b6102326004803603604081101561021c57600080fd5b506001600160a01b038135169060200135610723565b604080519115158252519081900360200190f35b61024e610741565b60408051918252519081900360200190f35b6102326004803603606081101561027657600080fd5b506001600160a01b03813581169160208101359091169060400135610747565b61024e600480360360208110156102ac57600080fd5b50356107ce565b6102df600480360360408110156102c957600080fd5b50803590602001356001600160a01b03166107e3565b005b6102e961084f565b6040805160ff9092168252519081900360200190f35b6102df6004803603604081101561031557600080fd5b50803590602001356001600160a01b0316610858565b6102326004803603604081101561034157600080fd5b506001600160a01b0381351690602001356108b9565b6102df610907565b6102df6004803603604081101561037557600080fd5b506001600160a01b038135169060200135610966565b6102df600480360360208110156103a157600080fd5b50356109c5565b6102df600480360360408110156103be57600080fd5b810190602081018135600160201b8111156103d857600080fd5b8201836020820111156103ea57600080fd5b803590602001918460018302840111600160201b8311171561040b57600080fd5b91908080601f0160208091040260200160405190810160405280939291908181526020018383808284376000920191909152509295949360208101935035915050600160201b81111561045d57600080fd5b82018360208201111561046f57600080fd5b803590602001918460018302840111600160201b8311171561049057600080fd5b91908080601f0160208091040260200160405190810160405280939291908181526020018383808284376000920191909152509295506109d9945050505050565b610232610a87565b61024e600480360360208110156104ef57600080fd5b50356001600160a01b0316610a90565b6102df6004803603604081101561051557600080fd5b506001600160a01b038135169060200135610aab565b6102df610b00565b6105566004803603604081101561054957600080fd5b5080359060200135610b5d565b604080516001600160a01b039092168252519081900360200190f35b6102326004803603604081101561058857600080fd5b50803590602001356001600160a01b0316610b7c565b610191610b94565b61024e610bf5565b610232600480360360408110156105c457600080fd5b506001600160a01b038135169060200135610bfa565b610232600480360360408110156105f057600080fd5b506001600160a01b038135169060200135610c62565b61024e6004803603602081101561061c57600080fd5b5035610c76565b61024e610c8d565b6102df6004803603604081101561064157600080fd5b50803590602001356001600160a01b0316610c9f565b61024e6004803603604081101561066d57600080fd5b506001600160a01b0381358116916020013516610cf8565b61024e610d23565b60688054604080516020601f60026000196101006001881615020190951694909404938401819004810282018101909252828152606093909290918301828280156107195780601f106106ee57610100808354040283529160200191610719565b820191906000526020600020905b8154815290600101906020018083116106fc57829003601f168201915b5050505050905090565b6000610737610730610d35565b8484610d39565b5060015b92915050565b60675490565b6000610754848484610e25565b6107c484610760610d35565b6107bf85604051806060016040528060288152602001611cab602891396001600160a01b038a1660009081526066602052604081209061079e610d35565b6001600160a01b031681526020810191909152604001600020549190610f70565b610d39565b5060019392505050565b60009081526033602052604090206002015490565b60008281526033602052604090206002015461080690610801610d35565b610b7c565b6108415760405162461bcd60e51b815260040180806020018281038252602f815260200180611b7b602f913960400191505060405180910390fd5b61084b8282611007565b5050565b606a5460ff1690565b610860610d35565b6001600160a01b0316816001600160a01b0316146108af5760405162461bcd60e51b815260040180806020018281038252602f815260200180611e53602f913960400191505060405180910390fd5b61084b8282611070565b60006107376108c6610d35565b846107bf85606660006108d7610d35565b6001600160a01b03908116825260208083019390935260409182016000908120918c1681529252902054906110d9565b610921600080516020611cd3833981519152610801610d35565b61095c5760405162461bcd60e51b8152600401808060200182810382526039815260200180611bcc6039913960400191505060405180910390fd5b610964611133565b565b610980600080516020611d4d833981519152610801610d35565b6109bb5760405162461bcd60e51b8152600401808060200182810382526036815260200180611cf36036913960400191505060405180910390fd5b61084b82826111d3565b6109d66109d0610d35565b826112b3565b50565b600054610100900460ff16806109f257506109f261139d565b80610a00575060005460ff16155b610a3b5760405162461bcd60e51b815260040180806020018281038252602e815260200180611c7d602e913960400191505060405180910390fd5b600054610100900460ff16158015610a66576000805460ff1961ff0019909116610100171660011790555b610a7083836113ae565b8015610a82576000805461ff00191690555b505050565b60c95460ff1690565b6001600160a01b031660009081526065602052604090205490565b6000610ae282604051806060016040528060248152602001611d2960249139610adb86610ad6610d35565b610cf8565b9190610f70565b9050610af683610af0610d35565b83610d39565b610a8283836112b3565b610b1a600080516020611cd3833981519152610801610d35565b610b555760405162461bcd60e51b8152600401808060200182810382526037815260200180611df76037913960400191505060405180910390fd5b610964611477565b6000828152603360205260408120610b7590836114fa565b9392505050565b6000828152603360205260408120610b759083611506565b60698054604080516020601f60026000196101006001881615020190951694909404938401819004810282018101909252828152606093909290918301828280156107195780601f106106ee57610100808354040283529160200191610719565b600081565b6000610737610c07610d35565b846107bf85604051806060016040528060258152602001611e2e6025913960666000610c31610d35565b6001600160a01b03908116825260208083019390935260409182016000908120918d16815292529020549190610f70565b6000610737610c6f610d35565b8484610e25565b600081815260336020526040812061073b9061151b565b600080516020611d4d83398151915281565b600082815260336020526040902060020154610cbd90610801610d35565b6108af5760405162461bcd60e51b8152600401808060200182810382526030815260200180611c4d6030913960400191505060405180910390fd5b6001600160a01b03918216600090815260666020908152604080832093909416825291909152205490565b600080516020611cd383398151915281565b3390565b6001600160a01b038316610d7e5760405162461bcd60e51b8152600401808060200182810382526024815260200180611dd36024913960400191505060405180910390fd5b6001600160a01b038216610dc35760405162461bcd60e51b8152600401808060200182810382526022815260200180611c056022913960400191505060405180910390fd5b6001600160a01b03808416600081815260666020908152604080832094871680845294825291829020859055815185815291517f8c5be1e5ebec7d5bd14f71427d1e84f3dd0314c0f7b2291e5b200ac8c7c3b9259281900390910190a3505050565b6001600160a01b038316610e6a5760405162461bcd60e51b8152600401808060200182810382526025815260200180611dae6025913960400191505060405180910390fd5b6001600160a01b038216610eaf5760405162461bcd60e51b8152600401808060200182810382526023815260200180611b586023913960400191505060405180910390fd5b610eba838383611526565b610ef781604051806060016040528060268152602001611c27602691396001600160a01b0386166000908152606560205260409020549190610f70565b6001600160a01b038085166000908152606560205260408082209390935590841681522054610f2690826110d9565b6001600160a01b038084166000818152606560209081526040918290209490945580518581529051919392871692600080516020611d6d83398151915292918290030190a3505050565b60008184841115610fff5760405162461bcd60e51b81526004018080602001828103825283818151815260200191508051906020019080838360005b83811015610fc4578181015183820152602001610fac565b50505050905090810190601f168015610ff15780820380516001836020036101000a031916815260200191505b509250505060405180910390fd5b505050900390565b600082815260336020526040902061101f9082611531565b1561084b5761102c610d35565b6001600160a01b0316816001600160a01b0316837f2f8788117e7eff1d82e926ec794901d17c78024a50270940304540a733656f0d60405160405180910390a45050565b60008281526033602052604090206110889082611546565b1561084b57611095610d35565b6001600160a01b0316816001600160a01b0316837ff6391f5c32d9c69d2a47ea670b442974b53935d1edc7fd64eb21e047a839171b60405160405180910390a45050565b600082820183811015610b75576040805162461bcd60e51b815260206004820152601b60248201527f536166654d6174683a206164646974696f6e206f766572666c6f770000000000604482015290519081900360640190fd5b61113b610a87565b611183576040805162461bcd60e51b815260206004820152601460248201527314185d5cd8589b194e881b9bdd081c185d5cd95960621b604482015290519081900360640190fd5b60c9805460ff191690557f5db9ee0a495bf2e6ff9c91a7834c1ba4fdd244a5e8aa4e537bd38aeae4b073aa6111b6610d35565b604080516001600160a01b039092168252519081900360200190a1565b6001600160a01b03821661122e576040805162461bcd60e51b815260206004820152601f60248201527f45524332303a206d696e7420746f20746865207a65726f206164647265737300604482015290519081900360640190fd5b61123a60008383611526565b60675461124790826110d9565b6067556001600160a01b03821660009081526065602052604090205461126d90826110d9565b6001600160a01b0383166000818152606560209081526040808320949094558351858152935192939192600080516020611d6d8339815191529281900390910190a35050565b6001600160a01b0382166112f85760405162461bcd60e51b8152600401808060200182810382526021815260200180611d8d6021913960400191505060405180910390fd5b61130482600083611526565b61134181604051806060016040528060228152602001611baa602291396001600160a01b0385166000908152606560205260409020549190610f70565b6001600160a01b038316600090815260656020526040902055606754611367908261155b565b6067556040805182815290516000916001600160a01b03851691600080516020611d6d8339815191529181900360200190a35050565b60006113a8306115b8565b15905090565b600054610100900460ff16806113c757506113c761139d565b806113d5575060005460ff16155b6114105760405162461bcd60e51b815260040180806020018281038252602e815260200180611c7d602e913960400191505060405180910390fd5b600054610100900460ff1615801561143b576000805460ff1961ff0019909116610100171660011790555b6114436115be565b61144b6115be565b611455838361165f565b61145d6115be565b611465611737565b61146d6115be565b610a7083836117e2565b61147f610a87565b156114c4576040805162461bcd60e51b815260206004820152601060248201526f14185d5cd8589b194e881c185d5cd95960821b604482015290519081900360640190fd5b60c9805460ff191660011790557f62e78cea01bee320cd4e420270b5ea74000d11b0c9f74754ebdbfc544b05a2586111b6610d35565b6000610b7583836118b5565b6000610b75836001600160a01b038416611919565b600061073b82611931565b610a82838383611935565b6000610b75836001600160a01b038416611984565b6000610b75836001600160a01b0384166119ce565b6000828211156115b2576040805162461bcd60e51b815260206004820152601e60248201527f536166654d6174683a207375627472616374696f6e206f766572666c6f770000604482015290519081900360640190fd5b50900390565b3b151590565b600054610100900460ff16806115d757506115d761139d565b806115e5575060005460ff16155b6116205760405162461bcd60e51b815260040180806020018281038252602e815260200180611c7d602e913960400191505060405180910390fd5b600054610100900460ff1615801561164b576000805460ff1961ff0019909116610100171660011790555b80156109d6576000805461ff001916905550565b600054610100900460ff1680611678575061167861139d565b80611686575060005460ff16155b6116c15760405162461bcd60e51b815260040180806020018281038252602e815260200180611c7d602e913960400191505060405180910390fd5b600054610100900460ff161580156116ec576000805460ff1961ff0019909116610100171660011790555b82516116ff906068906020860190611a94565b508151611713906069906020850190611a94565b50606a805460ff191660121790558015610a82576000805461ff0019169055505050565b600054610100900460ff1680611750575061175061139d565b8061175e575060005460ff16155b6117995760405162461bcd60e51b815260040180806020018281038252602e815260200180611c7d602e913960400191505060405180910390fd5b600054610100900460ff161580156117c4576000805460ff1961ff0019909116610100171660011790555b60c9805460ff1916905580156109d6576000805461ff001916905550565b600054610100900460ff16806117fb57506117fb61139d565b80611809575060005460ff16155b6118445760405162461bcd60e51b815260040180806020018281038252602e815260200180611c7d602e913960400191505060405180910390fd5b600054610100900460ff1615801561186f576000805460ff1961ff0019909116610100171660011790555b611881600061187c610d35565b610841565b61189b600080516020611d4d83398151915261187c610d35565b610a70600080516020611cd383398151915261187c610d35565b815460009082106118f75760405162461bcd60e51b8152600401808060200182810382526022815260200180611b366022913960400191505060405180910390fd5b82600001828154811061190657fe5b9060005260206000200154905092915050565b60009081526001919091016020526040902054151590565b5490565b611940838383610a82565b611948610a87565b15610a825760405162461bcd60e51b815260040180806020018281038252602a815260200180611e82602a913960400191505060405180910390fd5b60006119908383611919565b6119c65750815460018181018455600084815260208082209093018490558454848252828601909352604090209190915561073b565b50600061073b565b60008181526001830160205260408120548015611a8a5783546000198083019190810190600090879083908110611a0157fe5b9060005260206000200154905080876000018481548110611a1e57fe5b600091825260208083209091019290925582815260018981019092526040902090840190558654879080611a4e57fe5b6001900381819060005260206000200160009055905586600101600087815260200190815260200160002060009055600194505050505061073b565b600091505061073b565b828054600181600116156101000203166002900490600052602060002090601f016020900481019282611aca5760008555611b10565b82601f10611ae357805160ff1916838001178555611b10565b82800160010185558215611b10579182015b82811115611b10578251825591602001919060010190611af5565b50611b1c929150611b20565b5090565b5b80821115611b1c5760008155600101611b2156fe456e756d657261626c655365743a20696e646578206f7574206f6620626f756e647345524332303a207472616e7366657220746f20746865207a65726f2061646472657373416363657373436f6e74726f6c3a2073656e646572206d75737420626520616e2061646d696e20746f206772616e7445524332303a206275726e20616d6f756e7420657863656564732062616c616e636545524332305072657365744d696e7465725061757365723a206d75737420686176652070617573657220726f6c6520746f20756e706175736545524332303a20617070726f766520746f20746865207a65726f206164647265737345524332303a207472616e7366657220616d6f756e7420657863656564732062616c616e6365416363657373436f6e74726f6c3a2073656e646572206d75737420626520616e2061646d696e20746f207265766f6b65496e697469616c697a61626c653a20636f6e747261637420697320616c726561647920696e697469616c697a656445524332303a207472616e7366657220616d6f756e74206578636565647320616c6c6f77616e636565d7a28e3265b37a6474929f336521b332c1681b933f6cb9f3376673440d862a45524332305072657365744d696e7465725061757365723a206d7573742068617665206d696e74657220726f6c6520746f206d696e7445524332303a206275726e20616d6f756e74206578636565647320616c6c6f77616e63659f2df0fed2c77648de5860a4cc508cd0818c85b8b8a1ab4ceeef8d981c8956a6ddf252ad1be2c89b69c2b068fc378daa952ba7f163c4a11628f55a4df523b3ef45524332303a206275726e2066726f6d20746865207a65726f206164647265737345524332303a207472616e736665722066726f6d20746865207a65726f206164647265737345524332303a20617070726f76652066726f6d20746865207a65726f206164647265737345524332305072657365744d696e7465725061757365723a206d75737420686176652070617573657220726f6c6520746f20706175736545524332303a2064656372656173656420616c6c6f77616e63652062656c6f77207a65726f416363657373436f6e74726f6c3a2063616e206f6e6c792072656e6f756e636520726f6c657320666f722073656c6645524332305061757361626c653a20746f6b656e207472616e73666572207768696c6520706175736564a2646970667358221220cd1eefbe9d56757092522afdda6f0d8c9451b3d0a0a0e1b3434568b2767822d364736f6c63430007060033",
  "linkReferences": {},
  "deployedLinkReferences": {}
}