{
  "_format": "hh-sol-artifact-1",
  "contractName": "UniswapV3Pool",
  "sourceName": "@uniswap/v3-core/contracts/UniswapV3Pool.sol",
  "abi": [
    {
      "inputs": [],
      "stateMutability": "nonpayable",
      "type": "constructor"
    },
    {
      "anonymous": false,
      "inputs": [
        {
          "indexed": true,
          "internalType": "address",
          "name": "owner",
          "type": "address"
        },
        {
          "indexed": true,
          "internalType": "int24",
          "name": "tickLower",
          "type": "int24"
        },
        {
          "indexed": true,
          "internalType": "int24",
          "name": "tickUpper",
          "type": "int24"
        },
        {
          "indexed": false,
          "internalType": "uint128",
          "name": "amount",
          "type": "uint128"
        },
        {
          "indexed": false,
          "internalType": "uint256",
          "name": "amount0",
          "type": "uint256"
        },
        {
          "indexed": false,
          "internalType": "uint256",
          "name": "amount1",
          "type": "uint256"
        }
      ],
      "name": "Burn",
      "type": "event"
    },
    {
      "anonymous": false,
      "inputs": [
        {
          "indexed": true,
          "internalType": "address",
          "name": "owner",
          "type": "address"
        },
        {
          "indexed": false,
          "internalType": "address",
          "name": "recipient",
          "type": "address"
        },
        {
          "indexed": true,
          "internalType": "int24",
          "name": "tickLower",
          "type": "int24"
        },
        {
          "indexed": true,
          "internalType": "int24",
          "name": "tickUpper",
          "type": "int24"
        },
        {
          "indexed": false,
          "internalType": "uint128",
          "name": "amount0",
          "type": "uint128"
        },
        {
          "indexed": false,
          "internalType": "uint128",
          "name": "amount1",
          "type": "uint128"
        }
      ],
      "name": "Collect",
      "type": "event"
    },
    {
      "anonymous": false,
      "inputs": [
        {
          "indexed": true,
          "internalType": "address",
          "name": "sender",
          "type": "address"
        },
        {
          "indexed": true,
          "internalType": "address",
          "name": "recipient",
          "type": "address"
        },
        {
          "indexed": false,
          "internalType": "uint128",
          "name": "amount0",
          "type": "uint128"
        },
        {
          "indexed": false,
          "internalType": "uint128",
          "name": "amount1",
          "type": "uint128"
        }
      ],
      "name": "CollectProtocol",
      "type": "event"
    },
    {
      "anonymous": false,
      "inputs": [
        {
          "indexed": true,
          "internalType": "address",
          "name": "sender",
          "type": "address"
        },
        {
          "indexed": true,
          "internalType": "address",
          "name": "recipient",
          "type": "address"
        },
        {
          "indexed": false,
          "internalType": "uint256",
          "name": "amount0",
          "type": "uint256"
        },
        {
          "indexed": false,
          "internalType": "uint256",
          "name": "amount1",
          "type": "uint256"
        },
        {
          "indexed": false,
          "internalType": "uint256",
          "name": "paid0",
          "type": "uint256"
        },
        {
          "indexed": false,
          "internalType": "uint256",
          "name": "paid1",
          "type": "uint256"
        }
      ],
      "name": "Flash",
      "type": "event"
    },
    {
      "anonymous": false,
      "inputs": [
        {
          "indexed": false,
          "internalType": "uint16",
          "name": "observationCardinalityNextOld",
          "type": "uint16"
        },
        {
          "indexed": false,
          "internalType": "uint16",
          "name": "observationCardinalityNextNew",
          "type": "uint16"
        }
      ],
      "name": "IncreaseObservationCardinalityNext",
      "type": "event"
    },
    {
      "anonymous": false,
      "inputs": [
        {
          "indexed": false,
          "internalType": "uint160",
          "name": "sqrtPriceX96",
          "type": "uint160"
        },
        {
          "indexed": false,
          "internalType": "int24",
          "name": "tick",
          "type": "int24"
        }
      ],
      "name": "Initialize",
      "type": "event"
    },
    {
      "anonymous": false,
      "inputs": [
        {
          "indexed": false,
          "internalType": "address",
          "name": "sender",
          "type": "address"
        },
        {
          "indexed": true,
          "internalType": "address",
          "name": "owner",
          "type": "address"
        },
        {
          "indexed": true,
          "internalType": "int24",
          "name": "tickLower",
          "type": "int24"
        },
        {
          "indexed": true,
          "internalType": "int24",
          "name": "tickUpper",
          "type": "int24"
        },
        {
          "indexed": false,
          "internalType": "uint128",
          "name": "amount",
          "type": "uint128"
        },
        {
          "indexed": false,
          "internalType": "uint256",
          "name": "amount0",
          "type": "uint256"
        },
        {
          "indexed": false,
          "internalType": "uint256",
          "name": "amount1",
          "type": "uint256"
        }
      ],
      "name": "Mint",
      "type": "event"
    },
    {
      "anonymous": false,
      "inputs": [
        {
          "indexed": false,
          "internalType": "uint8",
          "name": "feeProtocol0Old",
          "type": "uint8"
        },
        {
          "indexed": false,
          "internalType": "uint8",
          "name": "feeProtocol1Old",
          "type": "uint8"
        },
        {
          "indexed": false,
          "internalType": "uint8",
          "name": "feeProtocol0New",
          "type": "uint8"
        },
        {
          "indexed": false,
          "internalType": "uint8",
          "name": "feeProtocol1New",
          "type": "uint8"
        }
      ],
      "name": "SetFeeProtocol",
      "type": "event"
    },
    {
      "anonymous": false,
      "inputs": [
        {
          "indexed": true,
          "internalType": "address",
          "name": "sender",
          "type": "address"
        },
        {
          "indexed": true,
          "internalType": "address",
          "name": "recipient",
          "type": "address"
        },
        {
          "indexed": false,
          "internalType": "int256",
          "name": "amount0",
          "type": "int256"
        },
        {
          "indexed": false,
          "internalType": "int256",
          "name": "amount1",
          "type": "int256"
        },
        {
          "indexed": false,
          "internalType": "uint160",
          "name": "sqrtPriceX96",
          "type": "uint160"
        },
        {
          "indexed": false,
          "internalType": "uint128",
          "name": "liquidity",
          "type": "uint128"
        },
        {
          "indexed": false,
          "internalType": "int24",
          "name": "tick",
          "type": "int24"
        }
      ],
      "name": "Swap",
      "type": "event"
    },
    {
      "inputs": [
        {
          "internalType": "int24",
          "name": "tickLower",
          "type": "int24"
        },
        {
          "internalType": "int24",
          "name": "tickUpper",
          "type": "int24"
        },
        {
          "internalType": "uint128",
          "name": "amount",
          "type": "uint128"
        }
      ],
      "name": "burn",
      "outputs": [
        {
          "internalType": "uint256",
          "name": "amount0",
          "type": "uint256"
        },
        {
          "internalType": "uint256",
          "name": "amount1",
          "type": "uint256"
        }
      ],
      "stateMutability": "nonpayable",
      "type": "function"
    },
    {
      "inputs": [
        {
          "internalType": "address",
          "name": "recipient",
          "type": "address"
        },
        {
          "internalType": "int24",
          "name": "tickLower",
          "type": "int24"
        },
        {
          "internalType": "int24",
          "name": "tickUpper",
          "type": "int24"
        },
        {
          "internalType": "uint128",
          "name": "amount0Requested",
          "type": "uint128"
        },
        {
          "internalType": "uint128",
          "name": "amount1Requested",
          "type": "uint128"
        }
      ],
      "name": "collect",
      "outputs": [
        {
          "internalType": "uint128",
          "name": "amount0",
          "type": "uint128"
        },
        {
          "internalType": "uint128",
          "name": "amount1",
          "type": "uint128"
        }
      ],
      "stateMutability": "nonpayable",
      "type": "function"
    },
    {
      "inputs": [
        {
          "internalType": "address",
          "name": "recipient",
          "type": "address"
        },
        {
          "internalType": "uint128",
          "name": "amount0Requested",
          "type": "uint128"
        },
        {
          "internalType": "uint128",
          "name": "amount1Requested",
          "type": "uint128"
        }
      ],
      "name": "collectProtocol",
      "outputs": [
        {
          "internalType": "uint128",
          "name": "amount0",
          "type": "uint128"
        },
        {
          "internalType": "uint128",
          "name": "amount1",
          "type": "uint128"
        }
      ],
      "stateMutability": "nonpayable",
      "type": "function"
    },
    {
      "inputs": [],
      "name": "factory",
      "outputs": [
        {
          "internalType": "address",
          "name": "",
          "type": "address"
        }
      ],
      "stateMutability": "view",
      "type": "function"
    },
    {
      "inputs": [],
      "name": "fee",
      "outputs": [
        {
          "internalType": "uint24",
          "name": "",
          "type": "uint24"
        }
      ],
      "stateMutability": "view",
      "type": "function"
    },
    {
      "inputs": [],
      "name": "feeGrowthGlobal0X128",
      "outputs": [
        {
          "internalType": "uint256",
          "name": "",
          "type": "uint256"
        }
      ],
      "stateMutability": "view",
      "type": "function"
    },
    {
      "inputs": [],
      "name": "feeGrowthGlobal1X128",
      "outputs": [
        {
          "internalType": "uint256",
          "name": "",
          "type": "uint256"
        }
      ],
      "stateMutability": "view",
      "type": "function"
    },
    {
      "inputs": [
        {
          "internalType": "address",
          "name": "recipient",
          "type": "address"
        },
        {
          "internalType": "uint256",
          "name": "amount0",
          "type": "uint256"
        },
        {
          "internalType": "uint256",
          "name": "amount1",
          "type": "uint256"
        },
        {
          "internalType": "bytes",
          "name": "data",
          "type": "bytes"
        }
      ],
      "name": "flash",
      "outputs": [],
      "stateMutability": "nonpayable",
      "type": "function"
    },
    {
      "inputs": [
        {
          "internalType": "uint16",
          "name": "observationCardinalityNext",
          "type": "uint16"
        }
      ],
      "name": "increaseObservationCardinalityNext",
      "outputs": [],
      "stateMutability": "nonpayable",
      "type": "function"
    },
    {
      "inputs": [
        {
          "internalType": "uint160",
          "name": "sqrtPriceX96",
          "type": "uint160"
        }
      ],
      "name": "initialize",
      "outputs": [],
      "stateMutability": "nonpayable",
      "type": "function"
    },
    {
      "inputs": [],
      "name": "liquidity",
      "outputs": [
        {
          "internalType": "uint128",
          "name": "",
          "type": "uint128"
        }
      ],
      "stateMutability": "view",
      "type": "function"
    },
    {
      "inputs": [],
      "name": "maxLiquidityPerTick",
      "outputs": [
        {
          "internalType": "uint128",
          "name": "",
          "type": "uint128"
        }
      ],
      "stateMutability": "view",
      "type": "function"
    },
    {
      "inputs": [
        {
          "internalType": "address",
          "name": "recipient",
          "type": "address"
        },
        {
          "internalType": "int24",
          "name": "tickLower",
          "type": "int24"
        },
        {
          "internalType": "int24",
          "name": "tickUpper",
          "type": "int24"
        },
        {
          "internalType": "uint128",
          "name": "amount",
          "type": "uint128"
        },
        {
          "internalType": "bytes",
          "name": "data",
          "type": "bytes"
        }
      ],
      "name": "mint",
      "outputs": [
        {
          "internalType": "uint256",
          "name": "amount0",
          "type": "uint256"
        },
        {
          "internalType": "uint256",
          "name": "amount1",
          "type": "uint256"
        }
      ],
      "stateMutability": "nonpayable",
      "type": "function"
    },
    {
      "inputs": [
        {
          "internalType": "uint256",
          "name": "",
          "type": "uint256"
        }
      ],
      "name": "observations",
      "outputs": [
        {
          "internalType": "uint32",
          "name": "blockTimestamp",
          "type": "uint32"
        },
        {
          "internalType": "int56",
          "name": "tickCumulative",
          "type": "int56"
        },
        {
          "internalType": "uint160",
          "name": "secondsPerLiquidityCumulativeX128",
          "type": "uint160"
        },
        {
          "internalType": "bool",
          "name": "initialized",
          "type": "bool"
        }
      ],
      "stateMutability": "view",
      "type": "function"
    },
    {
      "inputs": [
        {
          "internalType": "uint32[]",
          "name": "secondsAgos",
          "type": "uint32[]"
        }
      ],
      "name": "observe",
      "outputs": [
        {
          "internalType": "int56[]",
          "name": "tickCumulatives",
          "type": "int56[]"
        },
        {
          "internalType": "uint160[]",
          "name": "secondsPerLiquidityCumulativeX128s",
          "type": "uint160[]"
        }
      ],
      "stateMutability": "view",
      "type": "function"
    },
    {
      "inputs": [
        {
          "internalType": "bytes32",
          "name": "",
          "type": "bytes32"
        }
      ],
      "name": "positions",
      "outputs": [
        {
          "internalType": "uint128",
          "name": "liquidity",
          "type": "uint128"
        },
        {
          "internalType": "uint256",
          "name": "feeGrowthInside0LastX128",
          "type": "uint256"
        },
        {
          "internalType": "uint256",
          "name": "feeGrowthInside1LastX128",
          "type": "uint256"
        },
        {
          "internalType": "uint128",
          "name": "tokensOwed0",
          "type": "uint128"
        },
        {
          "internalType": "uint128",
          "name": "tokensOwed1",
          "type": "uint128"
        }
      ],
      "stateMutability": "view",
      "type": "function"
    },
    {
      "inputs": [],
      "name": "protocolFees",
      "outputs": [
        {
          "internalType": "uint128",
          "name": "token0",
          "type": "uint128"
        },
        {
          "internalType": "uint128",
          "name": "token1",
          "type": "uint128"
        }
      ],
      "stateMutability": "view",
      "type": "function"
    },
    {
      "inputs": [
        {
          "internalType": "uint8",
          "name": "feeProtocol0",
          "type": "uint8"
        },
        {
          "internalType": "uint8",
          "name": "feeProtocol1",
          "type": "uint8"
        }
      ],
      "name": "setFeeProtocol",
      "outputs": [],
      "stateMutability": "nonpayable",
      "type": "function"
    },
    {
      "inputs": [],
      "name": "slot0",
      "outputs": [
        {
          "internalType": "uint160",
          "name": "sqrtPriceX96",
          "type": "uint160"
        },
        {
          "internalType": "int24",
          "name": "tick",
          "type": "int24"
        },
        {
          "internalType": "uint16",
          "name": "observationIndex",
          "type": "uint16"
        },
        {
          "internalType": "uint16",
          "name": "observationCardinality",
          "type": "uint16"
        },
        {
          "internalType": "uint16",
          "name": "observationCardinalityNext",
          "type": "uint16"
        },
        {
          "internalType": "uint8",
          "name": "feeProtocol",
          "type": "uint8"
        },
        {
          "internalType": "bool",
          "name": "unlocked",
          "type": "bool"
        }
      ],
      "stateMutability": "view",
      "type": "function"
    },
    {
      "inputs": [
        {
          "internalType": "int24",
          "name": "tickLower",
          "type": "int24"
        },
        {
          "internalType": "int24",
          "name": "tickUpper",
          "type": "int24"
        }
      ],
      "name": "snapshotCumulativesInside",
      "outputs": [
        {
          "internalType": "int56",
          "name": "tickCumulativeInside",
          "type": "int56"
        },
        {
          "internalType": "uint160",
          "name": "secondsPerLiquidityInsideX128",
          "type": "uint160"
        },
        {
          "internalType": "uint32",
          "name": "secondsInside",
          "type": "uint32"
        }
      ],
      "stateMutability": "view",
      "type": "function"
    },
    {
      "inputs": [
        {
          "internalType": "address",
          "name": "recipient",
          "type": "address"
        },
        {
          "internalType": "bool",
          "name": "zeroForOne",
          "type": "bool"
        },
        {
          "internalType": "int256",
          "name": "amountSpecified",
          "type": "int256"
        },
        {
          "internalType": "uint160",
          "name": "sqrtPriceLimitX96",
          "type": "uint160"
        },
        {
          "internalType": "bytes",
          "name": "data",
          "type": "bytes"
        }
      ],
      "name": "swap",
      "outputs": [
        {
          "internalType": "int256",
          "name": "amount0",
          "type": "int256"
        },
        {
          "internalType": "int256",
          "name": "amount1",
          "type": "int256"
        }
      ],
      "stateMutability": "nonpayable",
      "type": "function"
    },
    {
      "inputs": [
        {
          "internalType": "int16",
          "name": "",
          "type": "int16"
        }
      ],
      "name": "tickBitmap",
      "outputs": [
        {
          "internalType": "uint256",
          "name": "",
          "type": "uint256"
        }
      ],
      "stateMutability": "view",
      "type": "function"
    },
    {
      "inputs": [],
      "name": "tickSpacing",
      "outputs": [
        {
          "internalType": "int24",
          "name": "",
          "type": "int24"
        }
      ],
      "stateMutability": "view",
      "type": "function"
    },
    {
      "inputs": [
        {
          "internalType": "int24",
          "name": "",
          "type": "int24"
        }
      ],
      "name": "ticks",
      "outputs": [
        {
          "internalType": "uint128",
          "name": "liquidityGross",
          "type": "uint128"
        },
        {
          "internalType": "int128",
          "name": "liquidityNet",
          "type": "int128"
        },
        {
          "internalType": "uint256",
          "name": "feeGrowthOutside0X128",
          "type": "uint256"
        },
        {
          "internalType": "uint256",
          "name": "feeGrowthOutside1X128",
          "type": "uint256"
        },
        {
          "internalType": "int56",
          "name": "tickCumulativeOutside",
          "type": "int56"
        },
        {
          "internalType": "uint160",
          "name": "secondsPerLiquidityOutsideX128",
          "type": "uint160"
        },
        {
          "internalType": "uint32",
          "name": "secondsOutside",
          "type": "uint32"
        },
        {
          "internalType": "bool",
          "name": "initialized",
          "type": "bool"
        }
      ],
      "stateMutability": "view",
      "type": "function"
    },
    {
      "inputs": [],
      "name": "token0",
      "outputs": [
        {
          "internalType": "address",
          "name": "",
          "type": "address"
        }
      ],
      "stateMutability": "view",
      "type": "function"
    },
    {
      "inputs": [],
      "name": "token1",
      "outputs": [
        {
          "internalType": "address",
          "name": "",
          "type": "address"
        }
      ],
      "stateMutability": "view",
      "type": "function"
    }
  ],
  "bytecode": "0x6101606040523480156200001257600080fd5b503060601b60805260408051630890357360e41b81529051600091339163890357309160048082019260a092909190829003018186803b1580156200005657600080fd5b505afa1580156200006b573d6000803e3d6000fd5b505050506040513d60a08110156200008257600080fd5b508051602080830151604084015160608086015160809096015160e896871b6001600160e81b0319166101005291811b6001600160601b031990811660e05292811b831660c0529390931b1660a052600282810b900b90921b610120529150620000f79082906200010f811b62002abb17901c565b60801b6001600160801b03191661014052506200017d565b60008082600281900b620d89e719816200012557fe5b05029050600083600281900b620d89e8816200013d57fe5b0502905060008460020b83830360020b816200015557fe5b0560010190508062ffffff166001600160801b038016816200017357fe5b0495945050505050565b60805160601c60a05160601c60c05160601c60e05160601c6101005160e81c6101205160e81c6101405160801c6154ee6200024a60003980611f8b52806149ed5280614a24525080610bb852806128775280614a585280614a8a525080610ca75280611968528061199f52806128bf5250806111655280611a225280611e9152806123c6528061289b5280613d2152508061088a528061129352806119f15280611e2b52806123405280613bd852508061201852806121ff5280612853525080612b3252506154ee6000f3fe608060405234801561001057600080fd5b506004361061016e5760003560e01c806370cf754a116100ce578063c45a015511610087578063c45a015514610789578063d0c93a7c14610791578063d21220a7146107b0578063ddca3f43146107b8578063f3058399146107d8578063f30dba93146107e0578063f637731d146108625761016e565b806370cf754a146105805780638206a4d11461058857806385b66729146105b0578063883bdbfd146105ed578063a34123a7146106f4578063a38807f21461072e5761016e565b80633850c7bd1161012b5780633850c7bd146103195780633c8a7d8d146103725780634614131914610412578063490e6cbc1461042c5780634f1eb3d8146104b6578063514ea4bf146105075780635339c296146105605761016e565b80630dfe168114610173578063128acb08146101975780631a686502146102445780631ad8b03b14610268578063252c09d71461029f57806332148f67146102f6575b600080fd5b61017b610888565b604080516001600160a01b039092168252519081900360200190f35b61022b600480360360a08110156101ad57600080fd5b6001600160a01b0382358116926020810135151592604082013592606083013516919081019060a081016080820135600160201b8111156101ed57600080fd5b8201836020820111156101ff57600080fd5b803590602001918460018302840111600160201b8311171561022057600080fd5b5090925090506108ac565b6040805192835260208301919091528051918290030190f35b61024c61144b565b604080516001600160801b039092168252519081900360200190f35b61027061145a565b60405180836001600160801b03168152602001826001600160801b031681526020019250505060405180910390f35b6102bc600480360360208110156102b557600080fd5b5035611474565b6040805163ffffffff909516855260069390930b60208501526001600160a01b039091168383015215156060830152519081900360800190f35b6103176004803603602081101561030c57600080fd5b503561ffff166114b9565b005b6103216115b3565b604080516001600160a01b03909816885260029690960b602088015261ffff9485168787015292841660608701529216608085015260ff90911660a0840152151560c0830152519081900360e00190f35b61022b600480360360a081101561038857600080fd5b6001600160a01b03823516916020810135600290810b92604083013590910b916001600160801b036060820135169181019060a081016080820135600160201b8111156103d457600080fd5b8201836020820111156103e657600080fd5b803590602001918460018302840111600160201b8311171561040757600080fd5b509092509050611603565b61041a6118bf565b60408051918252519081900360200190f35b6103176004803603608081101561044257600080fd5b6001600160a01b038235169160208101359160408201359190810190608081016060820135600160201b81111561047857600080fd5b82018360208201111561048a57600080fd5b803590602001918460018302840111600160201b831117156104ab57600080fd5b5090925090506118c5565b610270600480360360a08110156104cc57600080fd5b506001600160a01b03813516906020810135600290810b91604081013590910b906001600160801b0360608201358116916080013516611d20565b6105246004803603602081101561051d57600080fd5b5035611f3a565b604080516001600160801b0396871681526020810195909552848101939093529084166060840152909216608082015290519081900360a00190f35b61041a6004803603602081101561057657600080fd5b503560010b611f77565b61024c611f89565b6103176004803603604081101561059e57600080fd5b5060ff81358116916020013516611fad565b610270600480360360608110156105c657600080fd5b506001600160a01b03813516906001600160801b0360208201358116916040013516612191565b61065b6004803603602081101561060357600080fd5b810190602081018135600160201b81111561061d57600080fd5b82018360208201111561062f57600080fd5b803590602001918460208302840111600160201b8311171561065057600080fd5b50909250905061245e565b604051808060200180602001838103835285818151815260200191508051906020019060200280838360005b8381101561069f578181015183820152602001610687565b50505050905001838103825284818151815260200191508051906020019060200280838360005b838110156106de5781810151838201526020016106c6565b5050505090500194505050505060405180910390f35b61022b6004803603606081101561070a57600080fd5b508035600290810b91602081013590910b90604001356001600160801b03166124eb565b6107586004803603604081101561074457600080fd5b508035600290810b9160200135900b612662565b6040805160069490940b84526001600160a01b03909216602084015263ffffffff1682820152519081900360600190f35b61017b612851565b610799612875565b6040805160029290920b8252519081900360200190f35b61017b612899565b6107c06128bd565b6040805162ffffff9092168252519081900360200190f35b61041a6128e1565b610800600480360360208110156107f657600080fd5b503560020b6128e7565b604080516001600160801b039099168952600f9790970b602089015287870195909552606087019390935260069190910b60808601526001600160a01b031660a085015263ffffffff1660c0840152151560e083015251908190036101000190f35b6103176004803603602081101561087857600080fd5b50356001600160a01b0316612951565b7f000000000000000000000000000000000000000000000000000000000000000081565b6000806108b7612b27565b856108ee576040805162461bcd60e51b8152602060048201526002602482015261415360f01b604482015290519081900360640190fd5b6040805160e0810182526000546001600160a01b0381168252600160a01b8104600290810b810b900b602083015261ffff600160b81b8204811693830193909352600160c81b810483166060830152600160d81b8104909216608082015260ff600160e81b8304811660a0830152600160f01b909204909116151560c082018190526109a7576040805162461bcd60e51b81526020600482015260036024820152624c4f4b60e81b604482015290519081900360640190fd5b876109f25780600001516001600160a01b0316866001600160a01b03161180156109ed575073fffd8963efd1fc6a506488495d951d5263988d266001600160a01b038716105b610a24565b80600001516001600160a01b0316866001600160a01b0316108015610a2457506401000276a36001600160a01b038716115b610a5b576040805162461bcd60e51b815260206004820152600360248201526214d41360ea1b604482015290519081900360640190fd5b6000805460ff60f01b191681556040805160c08101909152808a610a8a5760048460a0015160ff16901c610a9d565b60108460a0015160ff1681610a9b57fe5b065b60ff1681526004546001600160801b03166020820152604001610abe612b5e565b63ffffffff168152602001600060060b815260200160006001600160a01b031681526020016000151581525090506000808913905060006040518060e001604052808b81526020016000815260200185600001516001600160a01b03168152602001856020015160020b81526020018c610b3a57600254610b3e565b6001545b815260200160006001600160801b0316815260200184602001516001600160801b031681525090505b805115801590610b8d5750886001600160a01b031681604001516001600160a01b031614155b15610f5757610b9a615455565b60408201516001600160a01b031681526060820151610bdd906006907f00000000000000000000000000000000000000000000000000000000000000008f612b62565b15156040830152600290810b810b60208301819052620d89e719910b1215610c0e57620d89e7196020820152610c2d565b6020810151620d89e860029190910b1315610c2d57620d89e860208201525b610c3a8160200151612ca4565b6001600160a01b031660608201526040820151610ccb908d610c74578b6001600160a01b031683606001516001600160a01b031611610c8e565b8b6001600160a01b031683606001516001600160a01b0316105b610c9c578260600151610c9e565b8b5b60c085015185517f0000000000000000000000000000000000000000000000000000000000000000612fcb565b60c085015260a084015260808301526001600160a01b031660408301528215610d2d57610d018160c001518260800151016131bd565b825103825260a0810151610d2390610d18906131bd565b6020840151906131d3565b6020830152610d68565b610d3a8160a001516131bd565b825101825260c08101516080820151610d6291610d5791016131bd565b6020840151906131ef565b60208301525b835160ff1615610dae576000846000015160ff168260c0015181610d8857fe5b60c0840180519290910491829003905260a0840180519091016001600160801b03169052505b60c08201516001600160801b031615610ded57610de18160c00151600160801b8460c001516001600160801b0316613205565b60808301805190910190525b80606001516001600160a01b031682604001516001600160a01b03161415610f1657806040015115610eed578360a00151610e7757610e55846040015160008760200151886040015188602001518a6060015160086132b5909695949392919063ffffffff16565b6001600160a01b03166080860152600690810b900b6060850152600160a08501525b6000610ec382602001518e610e8e57600154610e94565b84608001515b8f610ea3578560800151610ea7565b6002545b608089015160608a015160408b01516005959493929190613447565b90508c15610ecf576000035b610edd8360c0015182613501565b6001600160801b031660c0840152505b8b610efc578060200151610f05565b60018160200151035b600290810b900b6060830152610f51565b80600001516001600160a01b031682604001516001600160a01b031614610f5157610f4482604001516135b7565b600290810b900b60608301525b50610b67565b836020015160020b816060015160020b1461102557600080610fa586604001518660400151886020015188602001518a606001518b6080015160086138b6909695949392919063ffffffff16565b604085015160608601516000805461ffff60c81b1916600160c81b61ffff958616021761ffff60b81b1916600160b81b95909416949094029290921762ffffff60a01b1916600160a01b62ffffff60029490940b9390931692909202919091176001600160a01b0319166001600160a01b039091161790555061104a9050565b6040810151600080546001600160a01b0319166001600160a01b039092169190911790555b8060c001516001600160801b031683602001516001600160801b0316146110905760c0810151600480546001600160801b0319166001600160801b039092169190911790555b8a156110e057608081015160015560a08101516001600160801b0316156110db5760a0810151600380546001600160801b031981166001600160801b03918216909301169190911790555b611126565b608081015160025560a08101516001600160801b0316156111265760a0810151600380546001600160801b03808216600160801b92839004821690940116029190911790555b8115158b15151461113f57602081015181518b0361114c565b80600001518a0381602001515b90965094508a1561128557600085121561118e5761118e7f00000000000000000000000000000000000000000000000000000000000000008d87600003613a3c565b6000611198613b8a565b9050336001600160a01b031663fa461e3388888c8c6040518563ffffffff1660e01b815260040180858152602001848152602001806020018281038252848482818152602001925080828437600081840152601f19601f82011690508083019250505095505050505050600060405180830381600087803b15801561121c57600080fd5b505af1158015611230573d6000803e3d6000fd5b5050505061123c613b8a565b6112468289613cc3565b111561127f576040805162461bcd60e51b815260206004820152600360248201526249494160e81b604482015290519081900360640190fd5b506113af565b60008612156112bc576112bc7f00000000000000000000000000000000000000000000000000000000000000008d88600003613a3c565b60006112c6613cd3565b9050336001600160a01b031663fa461e3388888c8c6040518563ffffffff1660e01b815260040180858152602001848152602001806020018281038252848482818152602001925080828437600081840152601f19601f82011690508083019250505095505050505050600060405180830381600087803b15801561134a57600080fd5b505af115801561135e573d6000803e3d6000fd5b5050505061136a613cd3565b6113748288613cc3565b11156113ad576040805162461bcd60e51b815260206004820152600360248201526249494160e81b604482015290519081900360640190fd5b505b60408082015160c083015160608085015184518b8152602081018b90526001600160a01b03948516818701526001600160801b039093169183019190915260020b60808201529151908e169133917fc42079f94a6350d7e6235f29174924f928cc2ac818eb64fed8004e115fbcca679181900360a00190a350506000805460ff60f01b1916600160f01b17905550919890975095505050505050565b6004546001600160801b031681565b6003546001600160801b0380821691600160801b90041682565b60088161ffff811061148557600080fd5b015463ffffffff81169150600160201b810460060b90600160581b81046001600160a01b031690600160f81b900460ff1684565b600054600160f01b900460ff166114fd576040805162461bcd60e51b81526020600482015260036024820152624c4f4b60e81b604482015290519081900360640190fd5b6000805460ff60f01b19169055611512612b27565b60008054600160d81b900461ffff169061152e60088385613d6b565b6000805461ffff808416600160d81b810261ffff60d81b199093169290921790925591925083161461159b576040805161ffff80851682528316602082015281517fac49e518f90a358f652e4400164f05a5d8f7e35e7747279bc3a93dbf584e125a929181900390910190a15b50506000805460ff60f01b1916600160f01b17905550565b6000546001600160a01b03811690600160a01b810460020b9061ffff600160b81b8204811691600160c81b8104821691600160d81b8204169060ff600160e81b8204811691600160f01b90041687565b600080548190600160f01b900460ff1661164a576040805162461bcd60e51b81526020600482015260036024820152624c4f4b60e81b604482015290519081900360640190fd5b6000805460ff60f01b191690556001600160801b03851661166a57600080fd5b6000806116b860405180608001604052808c6001600160a01b031681526020018b60020b81526020018a60020b81526020016116ae8a6001600160801b0316613e0e565b600f0b9052613e1f565b925092505081935080925060008060008611156116da576116d7613b8a565b91505b84156116eb576116e8613cd3565b90505b336001600160a01b031663d348799787878b8b6040518563ffffffff1660e01b815260040180858152602001848152602001806020018281038252848482818152602001925080828437600081840152601f19601f82011690508083019250505095505050505050600060405180830381600087803b15801561176d57600080fd5b505af1158015611781573d6000803e3d6000fd5b5050505060008611156117d857611796613b8a565b6117a08388613cc3565b11156117d8576040805162461bcd60e51b815260206004820152600260248201526104d360f41b604482015290519081900360640190fd5b8415611828576117e6613cd3565b6117f08287613cc3565b1115611828576040805162461bcd60e51b81526020600482015260026024820152614d3160f01b604482015290519081900360640190fd5b8960020b8b60020b8d6001600160a01b03167f7a53080ba414158be7ec69b987b5fb7d07dee101fe85488f0853ae16239d0bde338d8b8b60405180856001600160a01b03168152602001846001600160801b0316815260200183815260200182815260200194505050505060405180910390a450506000805460ff60f01b1916600160f01b17905550919890975095505050505050565b60025481565b600054600160f01b900460ff16611909576040805162461bcd60e51b81526020600482015260036024820152624c4f4b60e81b604482015290519081900360640190fd5b6000805460ff60f01b1916905561191e612b27565b6004546001600160801b031680611960576040805162461bcd60e51b81526020600482015260016024820152601360fa1b604482015290519081900360640190fd5b6000611995867f000000000000000000000000000000000000000000000000000000000000000062ffffff16620f424061405f565b905060006119cc867f000000000000000000000000000000000000000000000000000000000000000062ffffff16620f424061405f565b905060006119d8613b8a565b905060006119e4613cd3565b90508815611a1757611a177f00000000000000000000000000000000000000000000000000000000000000008b8b613a3c565b8715611a4857611a487f00000000000000000000000000000000000000000000000000000000000000008b8a613a3c565b336001600160a01b031663e9cbafb085858a8a6040518563ffffffff1660e01b815260040180858152602001848152602001806020018281038252848482818152602001925080828437600081840152601f19601f82011690508083019250505095505050505050600060405180830381600087803b158015611aca57600080fd5b505af1158015611ade573d6000803e3d6000fd5b505050506000611aec613b8a565b90506000611af8613cd3565b905081611b058588613cc3565b1115611b3d576040805162461bcd60e51b8152602060048201526002602482015261046360f41b604482015290519081900360640190fd5b80611b488487613cc3565b1115611b80576040805162461bcd60e51b8152602060048201526002602482015261463160f01b604482015290519081900360640190fd5b8382038382038115611c0f5760008054600160e81b9004600f16908115611bb3578160ff168481611bad57fe5b04611bb6565b60005b90506001600160801b03811615611be957600380546001600160801b038082168401166001600160801b03199091161790555b611c03818503600160801b8d6001600160801b0316613205565b60018054909101905550505b8015611c9a5760008054600160e81b900460041c600f16908115611c3f578160ff168381611c3957fe5b04611c42565b60005b90506001600160801b03811615611c7457600380546001600160801b03600160801b8083048216850182160291161790555b611c8e818403600160801b8d6001600160801b0316613205565b60028054909101905550505b8d6001600160a01b0316336001600160a01b03167fbdbdb71d7860376ba52b25a5028beea23581364a40522f6bcfb86bb1f2dca6338f8f86866040518085815260200184815260200183815260200182815260200194505050505060405180910390a350506000805460ff60f01b1916600160f01b179055505050505050505050505050565b600080548190600160f01b900460ff16611d67576040805162461bcd60e51b81526020600482015260036024820152624c4f4b60e81b604482015290519081900360640190fd5b6000805460ff60f01b19168155611d816007338989614099565b60038101549091506001600160801b0390811690861611611da25784611db1565b60038101546001600160801b03165b60038201549093506001600160801b03600160801b909104811690851611611dd95783611def565b6003810154600160801b90046001600160801b03165b91506001600160801b03831615611e54576003810180546001600160801b031981166001600160801b03918216869003821617909155611e54907f0000000000000000000000000000000000000000000000000000000000000000908a908616613a3c565b6001600160801b03821615611eba576003810180546001600160801b03600160801b808304821686900382160291811691909117909155611eba907f0000000000000000000000000000000000000000000000000000000000000000908a908516613a3c565b604080516001600160a01b038a1681526001600160801b0380861660208301528416818301529051600288810b92908a900b9133917f70935338e69775456a85ddef226c395fb668b63fa0115f5f20610b388e6ca9c0919081900360600190a4506000805460ff60f01b1916600160f01b17905590969095509350505050565b60076020526000908152604090208054600182015460028301546003909301546001600160801b0392831693919281811691600160801b90041685565b60066020526000908152604090205481565b7f000000000000000000000000000000000000000000000000000000000000000081565b600054600160f01b900460ff16611ff1576040805162461bcd60e51b81526020600482015260036024820152624c4f4b60e81b604482015290519081900360640190fd5b6000805460ff60f01b1916905560408051638da5cb5b60e01b815290516001600160a01b037f00000000000000000000000000000000000000000000000000000000000000001691638da5cb5b916004808301926020929190829003018186803b15801561205e57600080fd5b505afa158015612072573d6000803e3d6000fd5b505050506040513d602081101561208857600080fd5b50516001600160a01b0316331461209e57600080fd5b60ff821615806120c1575060048260ff16101580156120c15750600a8260ff1611155b80156120eb575060ff811615806120eb575060048160ff16101580156120eb5750600a8160ff1611155b6120f457600080fd5b60008054610ff0600484901b16840160ff908116600160e81b90810260ff60e81b19841617909355919004167f973d8d92bb299f4af6ce49b52a8adb85ae46b9f214c4c4fc06ac77401237b1336010826040805160ff9390920683168252600f600486901c16602083015286831682820152918516606082015290519081900360800190a150506000805460ff60f01b1916600160f01b17905550565b600080548190600160f01b900460ff166121d8576040805162461bcd60e51b81526020600482015260036024820152624c4f4b60e81b604482015290519081900360640190fd5b6000805460ff60f01b1916905560408051638da5cb5b60e01b815290516001600160a01b037f00000000000000000000000000000000000000000000000000000000000000001691638da5cb5b916004808301926020929190829003018186803b15801561224557600080fd5b505afa158015612259573d6000803e3d6000fd5b505050506040513d602081101561226f57600080fd5b50516001600160a01b0316331461228557600080fd5b6003546001600160801b03908116908516116122a157836122ae565b6003546001600160801b03165b6003549092506001600160801b03600160801b9091048116908416116122d457826122e8565b600354600160801b90046001600160801b03165b90506001600160801b03821615612369576003546001600160801b038381169116141561231757600019909101905b600380546001600160801b031981166001600160801b03918216859003821617909155612369907f00000000000000000000000000000000000000000000000000000000000000009087908516613a3c565b6001600160801b038116156123ef576003546001600160801b03828116600160801b90920416141561239a57600019015b600380546001600160801b03600160801b8083048216859003821602918116919091179091556123ef907f00000000000000000000000000000000000000000000000000000000000000009087908416613a3c565b604080516001600160801b0380851682528316602082015281516001600160a01b0388169233927f596b573906218d3411850b26a6b437d6c4522fdb43d2d2386263f86d50b8b151929081900390910190a36000805460ff60f01b1916600160f01b1790559094909350915050565b606080612469612b27565b6124e0612474612b5e565b858580806020026020016040519081016040528093929190818152602001838360200280828437600092018290525054600454600896959450600160a01b820460020b935061ffff600160b81b8304811693506001600160801b0390911691600160c81b9004166140fd565b915091509250929050565b600080548190600160f01b900460ff16612532576040805162461bcd60e51b81526020600482015260036024820152624c4f4b60e81b604482015290519081900360640190fd5b6000805460ff60f01b1916815560408051608081018252338152600288810b602083015287900b918101919091528190819061258b906060810161257e6001600160801b038a16613e0e565b600003600f0b9052613e1f565b92509250925081600003945080600003935060008511806125ac5750600084115b156125eb576003830180546001600160801b038082168089018216600160801b93849004831689019092169092029091176001600160801b0319161790555b604080516001600160801b0388168152602081018790528082018690529051600289810b92908b900b9133917f0c396cd989a39f4459b5fa1aed6a9a8dcdbc45908acfd67e028cd568da98982c919081900360600190a450506000805460ff60f01b1916600160f01b179055509094909350915050565b600080600061266f612b27565b6126798585614257565b600285810b810b60009081526005602052604080822087840b90930b825281206003830154600681900b93600160381b82046001600160a01b0316928492600160d81b810463ffffffff169284929091600160f81b900460ff16806126dd57600080fd5b6003820154600681900b9850600160381b81046001600160a01b03169650600160d81b810463ffffffff169450600160f81b900460ff168061271e57600080fd5b50506040805160e0810182526000546001600160a01b0381168252600160a01b8104600290810b810b810b6020840181905261ffff600160b81b8404811695850195909552600160c81b830485166060850152600160d81b8304909416608084015260ff600160e81b8304811660a0850152600160f01b909204909116151560c08301529093508e810b91900b121590506127c75750939094039650900393509003905061284a565b8a60020b816020015160020b121561283b5760006127e3612b5e565b6020830151604084015160045460608601519394506000938493612819936008938893879392916001600160801b0316906132b5565b9a9003989098039b50509490960392909203965090910303925061284a915050565b50949093039650039350900390505b9250925092565b7f000000000000000000000000000000000000000000000000000000000000000081565b7f000000000000000000000000000000000000000000000000000000000000000081565b7f000000000000000000000000000000000000000000000000000000000000000081565b7f000000000000000000000000000000000000000000000000000000000000000081565b60015481565b60056020526000908152604090208054600182015460028301546003909301546001600160801b03831693600160801b909304600f0b9290600681900b90600160381b81046001600160a01b031690600160d81b810463ffffffff1690600160f81b900460ff1688565b6000546001600160a01b031615612994576040805162461bcd60e51b8152602060048201526002602482015261414960f01b604482015290519081900360640190fd5b600061299f826135b7565b90506000806129b76129af612b5e565b600890614320565b6040805160e0810182526001600160a01b038816808252600288810b6020808501829052600085870181905261ffff898116606088018190529089166080880181905260a08801839052600160c0909801979097528154600160f01b6001600160a01b0319909116871762ffffff60a01b1916600160a01b62ffffff9787900b97909716969096029590951763ffffffff60b81b1916600160c81b9091021761ffff60d81b1916600160d81b9096029590951761ffff60e81b191692909217909355835191825281019190915281519395509193507f98636036cb66a9c19a37435efc1e90142190214e8abeb821bdba3f2990dd4c9592918290030190a150505050565b60008082600281900b620d89e71981612ad057fe5b05029050600083600281900b620d89e881612ae757fe5b0502905060008460020b83830360020b81612afe57fe5b0560010190508062ffffff166001600160801b03801681612b1b57fe5b0493505050505b919050565b306001600160a01b037f00000000000000000000000000000000000000000000000000000000000000001614612b5c57600080fd5b565b4290565b60008060008460020b8660020b81612b7657fe5b05905060008660020b128015612b9d57508460020b8660020b81612b9657fe5b0760020b15155b15612ba757600019015b8315612c1c57600080612bb98361436c565b600182810b810b600090815260208d9052604090205460ff83169190911b80016000190190811680151597509294509092509085612bfe57888360ff16860302612c11565b88612c088261437e565b840360ff168603025b965050505050612c9a565b600080612c2b8360010161436c565b91509150600060018260ff166001901b031990506000818b60008660010b60010b8152602001908152602001600020541690508060001415955085612c7d57888360ff0360ff16866001010102612c93565b8883612c8883614418565b0360ff168660010101025b9650505050505b5094509492505050565b60008060008360020b12612cbb578260020b612cc3565b8260020b6000035b9050620d89e8811115612d01576040805162461bcd60e51b81526020600482015260016024820152601560fa1b604482015290519081900360640190fd5b600060018216612d1557600160801b612d27565b6ffffcb933bd6fad37aa2d162d1a5940015b6001600160881b031690506002821615612d51576ffff97272373d413259a46990580e213a0260801c5b6004821615612d70576ffff2e50f5f656932ef12357cf3c7fdcc0260801c5b6008821615612d8f576fffe5caca7e10e4e61c3624eaa0941cd00260801c5b6010821615612dae576fffcb9843d60f6159c9db58835c9266440260801c5b6020821615612dcd576fff973b41fa98c081472e6896dfb254c00260801c5b6040821615612dec576fff2ea16466c96a3843ec78b326b528610260801c5b6080821615612e0b576ffe5dee046a99a2a811c461f1969c30530260801c5b610100821615612e2b576ffcbe86c7900a88aedcffc83b479aa3a40260801c5b610200821615612e4b576ff987a7253ac413176f2b074cf7815e540260801c5b610400821615612e6b576ff3392b0822b70005940c7a398e4b70f30260801c5b610800821615612e8b576fe7159475a2c29b7443b29c7fa6e889d90260801c5b611000821615612eab576fd097f3bdfd2022b8845ad8f792aa58250260801c5b612000821615612ecb576fa9f746462d870fdf8a65dc1f90e061e50260801c5b614000821615612eeb576f70d869a156d2a1b890bb3df62baf32f70260801c5b618000821615612f0b576f31be135f97d08fd981231505542fcfa60260801c5b62010000821615612f2c576f09aa508b5b7a84e1c677de54f3e99bc90260801c5b62020000821615612f4c576e5d6af8dedb81196699c329225ee6040260801c5b62040000821615612f6b576d2216e584f5fa1ea926041bedfe980260801c5b62080000821615612f88576b048a170391f7dc42444e8fa20260801c5b60008460020b1315612fa3578060001981612f9f57fe5b0490505b600160201b810615612fb6576001612fb9565b60005b60ff16602082901c0192505050919050565b60008080806001600160a01b03808916908a1610158187128015906130505760006130048989620f42400362ffffff16620f4240613205565b90508261301d576130188c8c8c6001614502565b61302a565b61302a8b8d8c600161457d565b955085811061303b578a965061304a565b6130478c8b8386614628565b96505b5061309a565b81613067576130628b8b8b600061457d565b613074565b6130748a8c8b6000614502565b93508388600003106130885789955061309a565b6130978b8a8a60000385614674565b95505b6001600160a01b038a81169087161482156130fd578080156130b95750815b6130cf576130ca878d8c600161457d565b6130d1565b855b95508080156130de575081155b6130f4576130ef878d8c6000614502565b6130f6565b845b9450613147565b8080156131075750815b61311d576131188c888c6001614502565b61311f565b855b955080801561312c575081155b6131425761313d8c888c600061457d565b613144565b845b94505b8115801561315757508860000385115b15613163578860000394505b81801561318257508a6001600160a01b0316876001600160a01b031614155b156131915785890393506131ae565b6131ab868962ffffff168a620f42400362ffffff1661405f565b93505b50505095509550955095915050565b6000600160ff1b82106131cf57600080fd5b5090565b808203828113156000831215146131e957600080fd5b92915050565b818101828112156000831215146131e957600080fd5b600080806000198587098686029250828110908390030390508061323b576000841161323057600080fd5b5082900490506132ae565b80841161324757600080fd5b6000848688096000868103871696879004966002600389028118808a02820302808a02820302808a02820302808a02820302808a02820302808a02909103029181900381900460010186841190950394909402919094039290920491909117919091029150505b9392505050565b60008063ffffffff871661335b576000898661ffff1661ffff81106132d657fe5b60408051608081018252919092015463ffffffff808216808452600160201b8304600690810b810b900b6020850152600160581b83046001600160a01b031694840194909452600160f81b90910460ff16151560608301529092508a161461334757613344818a89886146c0565b90505b80602001518160400151925092505061343b565b8688036000806133708c8c858c8c8c8c614763565b91509150816000015163ffffffff168363ffffffff1614156133a257816020015182604001519450945050505061343b565b805163ffffffff848116911614156133ca57806020015181604001519450945050505061343b565b8151815160208085015190840151918390039286039163ffffffff80841692908516910360060b816133f857fe5b05028460200151018263ffffffff168263ffffffff1686604001518660400151036001600160a01b0316028161342a57fe5b048560400151019650965050505050505b97509795505050505050565b600295860b860b60009081526020979097526040909620600181018054909503909455938301805490920390915560038201805463ffffffff600160d81b6001600160a01b03600160381b808504821690960316909402600160381b600160d81b031990921691909117600681810b90960390950b66ffffffffffffff1666ffffffffffffff199095169490941782810485169095039093160263ffffffff60d81b1990931692909217905554600160801b9004600f0b90565b60008082600f0b121561356657826001600160801b03168260000384039150816001600160801b031610613561576040805162461bcd60e51b81526020600482015260026024820152614c5360f01b604482015290519081900360640190fd5b6131e9565b826001600160801b03168284019150816001600160801b031610156131e9576040805162461bcd60e51b81526020600482015260026024820152614c4160f01b604482015290519081900360640190fd5b60006401000276a36001600160a01b038316108015906135f3575073fffd8963efd1fc6a506488495d951d5263988d266001600160a01b038316105b613628576040805162461bcd60e51b81526020600482015260016024820152602960f91b604482015290519081900360640190fd5b640100000000600160c01b03602083901b166001600160801b03811160071b81811c67ffffffffffffffff811160061b90811c63ffffffff811160051b90811c61ffff811160041b90811c60ff8111600390811b91821c600f811160021b90811c918211600190811b92831c979088119617909417909217179091171717608081106136bc57607f810383901c91506136c6565b80607f0383901b91505b908002607f81811c60ff83811c9190911c800280831c81831c1c800280841c81841c1c800280851c81851c1c800280861c81861c1c800280871c81871c1c800280881c81881c1c800280891c81891c1c8002808a1c818a1c1c8002808b1c818b1c1c8002808c1c818c1c1c8002808d1c818d1c1c8002808e1c9c81901c9c909c1c80029c8d901c9e9d607f198f0160401b60c09190911c6001603f1b161760c19b909b1c6001603e1b169a909a1760c29990991c6001603d1b169890981760c39790971c6001603c1b169690961760c49590951c6001603b1b169490941760c59390931c6001603a1b169290921760c69190911c600160391b161760c79190911c600160381b161760c89190911c6680000000000000161760c99190911c6640000000000000161760ca9190911c6620000000000000161760cb9190911c6610000000000000161760cc9190911c6608000000000000161760cd9190911c66040000000000001617693627a301d71055774c8581026f028f6481ab7f045a5af012a19d003aa9198101608090811d906fdb2df09e81959a81455e260799a0632f8301901d600281810b9083900b146138a757886001600160a01b031661388b82612ca4565b6001600160a01b031611156138a057816138a2565b805b6138a9565b815b9998505050505050505050565b6000806000898961ffff1661ffff81106138cc57fe5b60408051608081018252919092015463ffffffff808216808452600160201b8304600690810b810b900b6020850152600160581b83046001600160a01b031694840194909452600160f81b90910460ff16151560608301529092508916141561393b578885925092505061343b565b8461ffff168461ffff1611801561395c57506001850361ffff168961ffff16145b156139695783915061396d565b8491505b8161ffff168960010161ffff168161398157fe5b069250613990818989896146c0565b8a8461ffff1661ffff81106139a157fe5b825191018054602084015160408501516060909501511515600160f81b026001600160f81b036001600160a01b03909616600160581b02600160581b600160f81b031960069390930b66ffffffffffffff16600160201b026affffffffffffff000000001963ffffffff90971663ffffffff199095169490941795909516929092171692909217929092161790555097509795505050505050565b604080516001600160a01b038481166024830152604480830185905283518084039091018152606490920183526020820180516001600160e01b031663a9059cbb60e01b1781529251825160009485949389169392918291908083835b60208310613ab85780518252601f199092019160209182019101613a99565b6001836020036101000a0380198251168184511680821785525050505050509050019150506000604051808303816000865af19150503d8060008114613b1a576040519150601f19603f3d011682016040523d82523d6000602084013e613b1f565b606091505b5091509150818015613b4d575080511580613b4d5750808060200190516020811015613b4a57600080fd5b50515b613b83576040805162461bcd60e51b81526020600482015260026024820152612a2360f11b604482015290519081900360640190fd5b5050505050565b604080513060248083019190915282518083039091018152604490910182526020810180516001600160e01b03166370a0823160e01b17815291518151600093849384936001600160a01b037f00000000000000000000000000000000000000000000000000000000000000001693919290918291908083835b60208310613c235780518252601f199092019160209182019101613c04565b6001836020036101000a038019825116818451168082178552505050505050905001915050600060405180830381855afa9150503d8060008114613c83576040519150601f19603f3d011682016040523d82523d6000602084013e613c88565b606091505b5091509150818015613c9c57506020815110155b613ca557600080fd5b808060200190516020811015613cba57600080fd5b50519250505090565b808201828110156131e957600080fd5b604080513060248083019190915282518083039091018152604490910182526020810180516001600160e01b03166370a0823160e01b17815291518151600093849384936001600160a01b037f000000000000000000000000000000000000000000000000000000000000000016939192909182919080838360208310613c235780518252601f199092019160209182019101613c04565b6000808361ffff1611613da9576040805162461bcd60e51b81526020600482015260016024820152604960f81b604482015290519081900360640190fd5b8261ffff168261ffff1611613dbf5750816132ae565b825b8261ffff168161ffff161015613e05576001858261ffff1661ffff8110613de457fe5b01805463ffffffff191663ffffffff92909216919091179055600101613dc1565b50909392505050565b80600f81900b8114612b2257600080fd5b6000806000613e2c612b27565b613e3e84602001518560400151614257565b6040805160e0810182526000546001600160a01b0381168252600160a01b8104600290810b810b900b602080840182905261ffff600160b81b8404811685870152600160c81b84048116606080870191909152600160d81b8504909116608086015260ff600160e81b8504811660a0870152600160f01b909404909316151560c085015288519089015194890151928901519394613ee2949193909290919061495d565b93508460600151600f0b60001461405757846020015160020b816020015160020b1215613f3757613f30613f198660200151612ca4565b613f268760400151612ca4565b8760600151614b12565b9250614057565b846040015160020b816020015160020b121561402d5760045460408201516001600160801b0390911690613f8990613f6d612b5e565b60208501516060860151608087015160089493929187916138b6565b6000805461ffff60c81b1916600160c81b61ffff938416021761ffff60b81b1916600160b81b939092169290920217905581516040870151613fd99190613fcf90612ca4565b8860600151614b12565b9350613ff7613feb8760200151612ca4565b83516060890151614b56565b9250614007818760600151613501565b600480546001600160801b0319166001600160801b039290921691909117905550614057565b61405461403d8660200151612ca4565b61404a8760400151612ca4565b8760600151614b56565b91505b509193909250565b600061406c848484613205565b90506000828061407857fe5b84860911156132ae57600019811061408f57600080fd5b6001019392505050565b6040805160609490941b6bffffffffffffffffffffffff1916602080860191909152600293840b60e890811b60348701529290930b90911b60378401528051808403601a018152603a90930181528251928201929092206000908152929052902090565b60608060008361ffff161161413d576040805162461bcd60e51b81526020600482015260016024820152604960f81b604482015290519081900360640190fd5b865167ffffffffffffffff8111801561415557600080fd5b5060405190808252806020026020018201604052801561417f578160200160208202803683370190505b509150865167ffffffffffffffff8111801561419a57600080fd5b506040519080825280602002602001820160405280156141c4578160200160208202803683370190505b50905060005b875181101561424a576141f58a8a8a84815181106141e457fe5b60200260200101518a8a8a8a6132b5565b84838151811061420157fe5b6020026020010184848151811061421457fe5b60200260200101826001600160a01b03166001600160a01b03168152508260060b60060b815250505080806001019150506141ca565b5097509795505050505050565b8060020b8260020b12614297576040805162461bcd60e51b8152602060048201526003602482015262544c5560e81b604482015290519081900360640190fd5b620d89e719600283900b12156142da576040805162461bcd60e51b8152602060048201526003602482015262544c4d60e81b604482015290519081900360640190fd5b620d89e8600282900b131561431c576040805162461bcd60e51b815260206004820152600360248201526254554d60e81b604482015290519081900360640190fd5b5050565b6040805160808101825263ffffffff9283168082526000602083018190529282019290925260016060909101819052835463ffffffff1916909117909116600160f81b17909155908190565b60020b600881901d9161010090910790565b600080821161438c57600080fd5b600160801b821061439f57608091821c91015b600160401b82106143b257604091821c91015b600160201b82106143c557602091821c91015b6201000082106143d757601091821c91015b61010082106143e857600891821c91015b601082106143f857600491821c91015b6004821061440857600291821c91015b60028210612b2257600101919050565b600080821161442657600080fd5b5060ff6001600160801b0382161561444157607f1901614449565b608082901c91505b67ffffffffffffffff82161561446257603f190161446a565b604082901c91505b63ffffffff82161561447f57601f1901614487565b602082901c91505b61ffff82161561449a57600f19016144a2565b601082901c91505b60ff8216156144b457600719016144bc565b600882901c91505b600f8216156144ce57600319016144d6565b600482901c91505b60038216156144e857600119016144f0565b600282901c91505b6001821615612b225760001901919050565b6000836001600160a01b0316856001600160a01b03161115614522579293925b8161454f5761454a836001600160801b03168686036001600160a01b0316600160601b613205565b614572565b614572836001600160801b03168686036001600160a01b0316600160601b61405f565b90505b949350505050565b6000836001600160a01b0316856001600160a01b0316111561459d579293925b600160601b600160e01b03606084901b166001600160a01b0386860381169087166145c757600080fd5b836145f757866001600160a01b03166145ea8383896001600160a01b0316613205565b816145f157fe5b0461461d565b61461d61460e8383896001600160a01b031661405f565b886001600160a01b0316614b85565b979650505050505050565b600080856001600160a01b03161161463f57600080fd5b6000846001600160801b03161161465557600080fd5b816146675761454a8585856001614b90565b6145728585856001614c71565b600080856001600160a01b03161161468b57600080fd5b6000846001600160801b0316116146a157600080fd5b816146b35761454a8585856000614c71565b6145728585856000614b90565b6146c8615491565b600085600001518503905060405180608001604052808663ffffffff1681526020018263ffffffff168660020b0288602001510160060b81526020016000856001600160801b03161161471c57600161471e565b845b6001600160801b031663ffffffff60801b608085901b168161473c57fe5b048860400151016001600160a01b0316815260200160011515815250915050949350505050565b61476b615491565b614773615491565b888561ffff1661ffff811061478457fe5b60408051608081018252919092015463ffffffff8116808352600160201b8204600690810b810b900b6020840152600160581b82046001600160a01b031693830193909352600160f81b900460ff161515606082015292506147e890899089614d54565b15614820578663ffffffff16826000015163ffffffff16141561480a5761343b565b81614817838989886146c0565b9150915061343b565b888361ffff168660010161ffff168161483557fe5b0661ffff1661ffff811061484557fe5b60408051608081018252929091015463ffffffff81168352600160201b8104600690810b810b900b60208401526001600160a01b03600160581b8204169183019190915260ff600160f81b909104161515606082018190529092506148fa57604080516080810182528a5463ffffffff81168252600160201b8104600690810b810b900b6020830152600160581b81046001600160a01b031692820192909252600160f81b90910460ff161515606082015291505b61490988836000015189614d54565b614940576040805162461bcd60e51b815260206004820152600360248201526213d31160ea1b604482015290519081900360640190fd5b61494d8989898887614e15565b9150915097509795505050505050565b600061496c6007878787614099565b60015460025491925090600080600f87900b15614ab257600061498d612b5e565b60008054600454929350909182916149d79160089186918591600160a01b810460020b9161ffff600160b81b83048116926001600160801b0390921691600160c81b9004166132b5565b9092509050614a1160058d8b8d8b8b87898b60007f0000000000000000000000000000000000000000000000000000000000000000614fb3565b9450614a4860058c8b8d8b8b87898b60017f0000000000000000000000000000000000000000000000000000000000000000614fb3565b93508415614a7c57614a7c60068d7f000000000000000000000000000000000000000000000000000000000000000061516c565b8315614aae57614aae60068c7f000000000000000000000000000000000000000000000000000000000000000061516c565b5050505b600080614ac460058c8c8b8a8a6151d2565b9092509050614ad5878a848461527e565b600089600f0b1215614b03578315614af257614af260058c615413565b8215614b0357614b0360058b615413565b50505050505095945050505050565b60008082600f0b12614b3857614b33614b2e858585600161457d565b6131bd565b614575565b614b4b614b2e858585600003600061457d565b600003949350505050565b60008082600f0b12614b7257614b33614b2e8585856001614502565b614b4b614b2e8585856000036000614502565b808204910615150190565b60008115614c035760006001600160a01b03841115614bc657614bc184600160601b876001600160801b0316613205565b614bde565b6001600160801b038516606085901b81614bdc57fe5b045b9050614bfb614bf66001600160a01b03881683613cc3565b61543f565b915050614575565b60006001600160a01b03841115614c3157614c2c84600160601b876001600160801b031661405f565b614c48565b614c48606085901b6001600160801b038716614b85565b905080866001600160a01b031611614c5f57600080fd5b6001600160a01b038616039050614575565b600082614c7f575083614575565b600160601b600160e01b03606085901b168215614d0d576001600160a01b03861684810290858281614cad57fe5b041415614cde57818101828110614cdc57614cd283896001600160a01b03168361405f565b9350505050614575565b505b614d0482614cff878a6001600160a01b03168681614cf857fe5b0490613cc3565b614b85565b92505050614575565b6001600160a01b03861684810290858281614d2457fe5b04148015614d3157508082115b614d3a57600080fd5b808203614cd2614bf6846001600160a01b038b168461405f565b60008363ffffffff168363ffffffff1611158015614d7e57508363ffffffff168263ffffffff1611155b15614d9a578163ffffffff168363ffffffff16111590506132ae565b60008463ffffffff168463ffffffff1611614dc1578363ffffffff16600160201b01614dc9565b8363ffffffff165b64ffffffffff16905060008563ffffffff168463ffffffff1611614df9578363ffffffff16600160201b01614e01565b8363ffffffff165b64ffffffffff169091111595945050505050565b614e1d615491565b614e25615491565b60008361ffff168560010161ffff1681614e3b57fe5b0661ffff169050600060018561ffff16830103905060005b506002818301048961ffff87168281614e6857fe5b0661ffff8110614e7457fe5b60408051608081018252929091015463ffffffff81168352600160201b8104600690810b810b900b60208401526001600160a01b03600160581b8204169183019190915260ff600160f81b90910416151560608201819052909550614ede57806001019250614e53565b898661ffff168260010181614eef57fe5b0661ffff8110614efb57fe5b60408051608081018252929091015463ffffffff81168352600160201b8104600690810b810b900b60208401526001600160a01b03600160581b8204169183019190915260ff600160f81b90910416151560608201528551909450600090614f65908b908b614d54565b9050808015614f7e5750614f7e8a8a8760000151614d54565b15614f895750614fa6565b80614f9957600182039250614fa0565b8160010193505b50614e53565b5050509550959350505050565b60028a810b900b600090815260208c90526040812080546001600160801b031682614fde828d613501565b9050846001600160801b0316816001600160801b0316111561502c576040805162461bcd60e51b81526020600482015260026024820152614c4f60f01b604482015290519081900360640190fd5b6001600160801b0382811615908216158114159450156150d1578c60020b8e60020b136150b957600183018b9055600283018a9055600383018054600160381b600160d81b031916600160381b6001600160a01b038c16021766ffffffffffffff191666ffffffffffffff60068b900b161763ffffffff60d81b1916600160d81b63ffffffff8a16021790555b6003830180546001600160f81b0316600160f81b1790555b82546001600160801b0319166001600160801b0382161783558561511a5782546151159061511090600160801b9004600f90810b810b908f900b6131ef565b613e0e565b61513b565b825461513b9061511090600160801b9004600f90810b810b908f900b6131d3565b8354600f9190910b6001600160801b03908116600160801b0291161790925550909c9b505050505050505050505050565b8060020b8260020b8161517b57fe5b0760020b1561518957600080fd5b6000806151a48360020b8560020b8161519e57fe5b0561436c565b600191820b820b60009081526020979097526040909620805460ff9097169190911b90951890945550505050565b600285810b80820b60009081526020899052604080822088850b850b83529082209193849391929184918291908a900b126152185750506001820154600283015461522b565b8360010154880391508360020154870390505b6000808b60020b8b60020b121561524d57505060018301546002840154615260565b84600101548a0391508460020154890390505b92909803979097039b96909503949094039850939650505050505050565b6040805160a08101825285546001600160801b0390811682526001870154602083015260028701549282019290925260038601548083166060830152600160801b900490911660808201526000600f85900b61531d5781516001600160801b0316615315576040805162461bcd60e51b815260206004820152600260248201526104e560f41b604482015290519081900360640190fd5b50805161532c565b81516153299086613501565b90505b60006153508360200151860384600001516001600160801b0316600160801b613205565b905060006153768460400151860385600001516001600160801b0316600160801b613205565b905086600f0b60001461539d5787546001600160801b0319166001600160801b0384161788555b60018801869055600288018590556001600160801b0382161515806153cb57506000816001600160801b0316115b15615409576003880180546001600160801b031981166001600160801b039182168501821617808216600160801b9182900483168501909216021790555b5050505050505050565b600290810b810b6000908152602092909252604082208281556001810183905590810182905560030155565b806001600160a01b0381168114612b2257600080fd5b6040805160e081018252600080825260208201819052918101829052606081018290526080810182905260a0810182905260c081019190915290565b6040805160808101825260008082526020820181905291810182905260608101919091529056fea26469706673582212203b01ea322a63cb42880e34d7b07a4e90c6c335470c3ab2d9f799696fa415a11764736f6c63430007060033",
  "linkReferences": {},
  "deployedLinkReferences": {}
}