{
  "_format": "hh-sol-artifact-1",
  "contractName": "TestUniswapV3Broker",
  "sourceName": "contracts/test/TestUniswapV3Broker.sol",
  "abi": [
    {
      "inputs": [
        {
          "components": [
            {
              "internalType": "address",
              "name": "pool",
              "type": "address"
            },
            {
              "internalType": "int24",
              "name": "lowerTick",
              "type": "int24"
            },
            {
              "internalType": "int24",
              "name": "upperTick",
              "type": "int24"
            },
            {
              "internalType": "uint256",
              "name": "base",
              "type": "uint256"
            },
            {
              "internalType": "uint256",
              "name": "quote",
              "type": "uint256"
            },
            {
              "internalType": "bytes",
              "name": "data",
              "type": "bytes"
            }
          ],
          "internalType": "struct UniswapV3Broker.AddLiquidityParams",
          "name": "params",
          "type": "tuple"
        }
      ],
      "name": "addLiquidity",
      "outputs": [
        {
          "components": [
            {
              "internalType": "uint256",
              "name": "base",
              "type": "uint256"
            },
            {
              "internalType": "uint256",
              "name": "quote",
              "type": "uint256"
            },
            {
              "internalType": "uint128",
              "name": "liquidity",
              "type": "uint128"
            }
          ],
          "internalType": "struct UniswapV3Broker.AddLiquidityResponse",
          "name": "response",
          "type": "tuple"
        }
      ],
      "stateMutability": "nonpayable",
      "type": "function"
    },
    {
      "inputs": [
        {
          "internalType": "int24",
          "name": "lowerTick",
          "type": "int24"
        },
        {
          "internalType": "int24",
          "name": "upperTick",
          "type": "int24"
        }
      ],
      "name": "getPositionKey",
      "outputs": [
        {
          "internalType": "bytes32",
          "name": "",
          "type": "bytes32"
        }
      ],
      "stateMutability": "view",
      "type": "function"
    },
    {
      "inputs": [
        {
          "internalType": "address",
          "name": "factory",
          "type": "address"
        }
      ],
      "name": "initialize",
      "outputs": [],
      "stateMutability": "nonpayable",
      "type": "function"
    },
    {
      "inputs": [
        {
          "components": [
            {
              "internalType": "address",
              "name": "pool",
              "type": "address"
            },
            {
              "internalType": "address",
              "name": "recipient",
              "type": "address"
            },
            {
              "internalType": "int24",
              "name": "lowerTick",
              "type": "int24"
            },
            {
              "internalType": "int24",
              "name": "upperTick",
              "type": "int24"
            },
            {
              "internalType": "uint128",
              "name": "liquidity",
              "type": "uint128"
            }
          ],
          "internalType": "struct UniswapV3Broker.RemoveLiquidityParams",
          "name": "params",
          "type": "tuple"
        }
      ],
      "name": "removeLiquidity",
      "outputs": [
        {
          "components": [
            {
              "internalType": "uint256",
              "name": "base",
              "type": "uint256"
            },
            {
              "internalType": "uint256",
              "name": "quote",
              "type": "uint256"
            }
          ],
          "internalType": "struct UniswapV3Broker.RemoveLiquidityResponse",
          "name": "response",
          "type": "tuple"
        }
      ],
      "stateMutability": "nonpayable",
      "type": "function"
    },
    {
      "inputs": [
        {
          "components": [
            {
              "internalType": "address",
              "name": "pool",
              "type": "address"
            },
            {
              "internalType": "address",
              "name": "recipient",
              "type": "address"
            },
            {
              "internalType": "bool",
              "name": "isBaseToQuote",
              "type": "bool"
            },
            {
              "internalType": "bool",
              "name": "isExactInput",
              "type": "bool"
            },
            {
              "internalType": "uint256",
              "name": "amount",
              "type": "uint256"
            },
            {
              "internalType": "uint160",
              "name": "sqrtPriceLimitX96",
              "type": "uint160"
            },
            {
              "internalType": "bytes",
              "name": "data",
              "type": "bytes"
            }
          ],
          "internalType": "struct UniswapV3Broker.SwapParams",
          "name": "params",
          "type": "tuple"
        }
      ],
      "name": "swap",
      "outputs": [
        {
          "components": [
            {
              "internalType": "uint256",
              "name": "base",
              "type": "uint256"
            },
            {
              "internalType": "uint256",
              "name": "quote",
              "type": "uint256"
            }
          ],
          "internalType": "struct UniswapV3Broker.SwapResponse",
          "name": "response",
          "type": "tuple"
        }
      ],
      "stateMutability": "nonpayable",
      "type": "function"
    },
    {
      "inputs": [
        {
          "internalType": "uint256",
          "name": "amount0Owed",
          "type": "uint256"
        },
        {
          "internalType": "uint256",
          "name": "amount1Owed",
          "type": "uint256"
        },
        {
          "internalType": "bytes",
          "name": "",
          "type": "bytes"
        }
      ],
      "name": "uniswapV3MintCallback",
      "outputs": [],
      "stateMutability": "nonpayable",
      "type": "function"
    },
    {
      "inputs": [
        {
          "internalType": "int256",
          "name": "amount0Delta",
          "type": "int256"
        },
        {
          "internalType": "int256",
          "name": "amount1Delta",
          "type": "int256"
        },
        {
          "internalType": "bytes",
          "name": "",
          "type": "bytes"
        }
      ],
      "name": "uniswapV3SwapCallback",
      "outputs": [],
      "stateMutability": "nonpayable",
      "type": "function"
    }
  ],
  "bytecode": "0x608060405234801561001057600080fd5b50611ac1806100206000396000f3fe608060405234801561001057600080fd5b506004361061006d5760003560e01c80635b778b9d1461007257806370bde61a1461009b5780638cbbcc02146100bb578063bfa46291146100db578063c4d66de8146100ee578063d348799714610103578063fa461e3314610116575b600080fd5b6100856100803660046114ca565b610129565b6040516100929190611877565b60405180910390f35b6100ae6100a93660046113e8565b610150565b60405161009291906117a7565b6100ce6100c9366004611493565b610166565b604051610092919061184d565b6100856100e9366004611571565b61017f565b6101016100fc366004611394565b610198565b005b610101610111366004611443565b61025d565b610101610124366004611443565b610463565b610131611273565b610148610143368490038401846114e1565b610613565b90505b919050565b600061015d308484610769565b90505b92915050565b61016e61128d565b61014861017a836118a8565b6107c3565b610187611273565b61014861019383611947565b6108dd565b600054610100900460ff16806101b157506101b1610b07565b806101bf575060005460ff16155b6101fa5760405162461bcd60e51b815260040180806020018281038252602e815260200180611a36602e913960400191505060405180910390fd5b600054610100900460ff16158015610225576000805460ff1961ff0019909116610100171660011790555b6000805462010000600160b01b031916620100006001600160a01b038516021790558015610259576000805461ff00191690555b5050565b3361026c565b60405180910390fd5b841561036457806001600160a01b0316630dfe16816040518163ffffffff1660e01b815260040160206040518083038186803b1580156102ab57600080fd5b505afa1580156102bf573d6000803e3d6000fd5b505050506040513d601f19601f820116820180604052508101906102e391906113b0565b6001600160a01b031663a9059cbb33876040518363ffffffff1660e01b81526004016103109291906116c6565b602060405180830381600087803b15801561032a57600080fd5b505af115801561033e573d6000803e3d6000fd5b505050506040513d601f19601f8201168201806040525081019061036291906113cc565b505b831561045c57806001600160a01b031663d21220a76040518163ffffffff1660e01b815260040160206040518083038186803b1580156103a357600080fd5b505afa1580156103b7573d6000803e3d6000fd5b505050506040513d601f19601f820116820180604052508101906103db91906113b0565b6001600160a01b031663a9059cbb33866040518363ffffffff1660e01b81526004016104089291906116c6565b602060405180830381600087803b15801561042257600080fd5b505af1158015610436573d6000803e3d6000fd5b505050506040513d601f19601f8201168201806040525081019061045a91906113cc565b505b5050505050565b60008413806104725750600083135b61048e5760405162461bcd60e51b8152600401610263906117d6565b336000806000871361051157826001600160a01b031663d21220a76040518163ffffffff1660e01b815260040160206040518083038186803b1580156104d357600080fd5b505afa1580156104e7573d6000803e3d6000fd5b505050506040513d601f19601f8201168201806040525081019061050b91906113b0565b86610584565b826001600160a01b0316630dfe16816040518163ffffffff1660e01b815260040160206040518083038186803b15801561054a57600080fd5b505afa15801561055e573d6000803e3d6000fd5b505050506040513d601f19601f8201168201806040525081019061058291906113b0565b875b60405163a9059cbb60e01b815291935091506001600160a01b0383169063a9059cbb906105b790339085906004016116c6565b602060405180830381600087803b1580156105d157600080fd5b505af11580156105e5573d6000803e3d6000fd5b505050506040513d601f19601f8201168201806040525081019061060991906113cc565b5050505050505050565b61061b611273565b60008083600001516001600160a01b031663a34123a78560400151866060015187608001516040518463ffffffff1660e01b815260040161065e939291906117b0565b6040805180830381600087803b15801561067757600080fd5b505af115801561068b573d6000803e3d6000fd5b505050506040513d601f19601f820116820180604052508101906106af9190611420565b9150915083600001516001600160a01b0316634f1eb3d88560200151866040015187606001516001600160801b03806040518663ffffffff1660e01b81526004016106fe95949392919061176a565b6040805180830381600087803b15801561071757600080fd5b505af115801561072b573d6000803e3d6000fd5b505050506040513d601f19601f8201168201806040525081019061074f91906115a8565b505060408051808201909152918252602082015292915050565b604080516bffffffffffffffffffffffff19606086901b16602080830191909152600285810b60e890811b60348501529085900b901b60378301528251601a818403018152603a90920190925280519101205b9392505050565b6107cb61128d565b60006107da8360000151610b18565b50505050505090506000610811826107f58660200151610bab565b6108028760400151610bab565b87606001518860800151610ed3565b8451602086015160408088015160a08901519151633c8a7d8d60e01b815294955060009485946001600160a01b031693633c8a7d8d9361085993309390918a91600401611725565b6040805180830381600087803b15801561087257600080fd5b505af1158015610886573d6000803e3d6000fd5b505050506040513d601f19601f820116820180604052508101906108aa9190611420565b915091506040518060600160405280838152602001828152602001846001600160801b0316815250945050505050919050565b6108e5611273565b60008260600151610902576108fd8360800151610f97565b61090f565b61090f8360800151610fab565b905060008084600001516001600160a01b031663128acb0886602001518760400151868960a001516001600160a01b0316600014610951578960a0015161097b565b89604001516109745773fffd8963efd1fc6a506488495d951d5263988d2561097b565b6401000276a45b8a60c001516040518663ffffffff1660e01b81526004016109a09594939291906116df565b6040805180830381600087803b1580156109b957600080fd5b505af11580156109cd573d6000803e3d6000fd5b505050506040513d601f19601f820116820180604052508101906109f19190611420565b91509150600080610a0184610ff7565b610a0a84610ff7565b915091506000876040015115158860600151151514610a295781610a2b565b825b90508760600151158015610a4a575060a08801516001600160a01b0316155b15610aeb57600a88608001518211610a70576080890151610a6b9083611020565b610a80565b6080890151610a80908390611020565b10610a9d5760405162461bcd60e51b81526004016102639061182d565b8760400151610ac45760405180604001604052808960800151815260200183815250610ade565b604051806040016040528084815260200189608001518152505b965050505050505061014b565b5060408051808201909152918252602082015295945050505050565b6000610b123061107d565b15905090565b6000806000806000806000876001600160a01b0316633850c7bd6040518163ffffffff1660e01b815260040160e06040518083038186803b158015610b5c57600080fd5b505afa158015610b70573d6000803e3d6000fd5b505050506040513d601f19601f82011682018060405250810190610b9491906115d6565b959e949d50929b5090995097509550909350915050565b60008060008360020b12610bc2578260020b610bca565b8260020b6000035b9050620d89e8811115610c08576040805162461bcd60e51b81526020600482015260016024820152601560fa1b604482015290519081900360640190fd5b600060018216610c1c57600160801b610c2e565b6ffffcb933bd6fad37aa2d162d1a5940015b6001600160881b031690506002821615610c58576ffff97272373d413259a46990580e213a0260801c5b6004821615610c77576ffff2e50f5f656932ef12357cf3c7fdcc0260801c5b6008821615610c96576fffe5caca7e10e4e61c3624eaa0941cd00260801c5b6010821615610cb5576fffcb9843d60f6159c9db58835c9266440260801c5b6020821615610cd4576fff973b41fa98c081472e6896dfb254c00260801c5b6040821615610cf3576fff2ea16466c96a3843ec78b326b528610260801c5b6080821615610d12576ffe5dee046a99a2a811c461f1969c30530260801c5b610100821615610d32576ffcbe86c7900a88aedcffc83b479aa3a40260801c5b610200821615610d52576ff987a7253ac413176f2b074cf7815e540260801c5b610400821615610d72576ff3392b0822b70005940c7a398e4b70f30260801c5b610800821615610d92576fe7159475a2c29b7443b29c7fa6e889d90260801c5b611000821615610db2576fd097f3bdfd2022b8845ad8f792aa58250260801c5b612000821615610dd2576fa9f746462d870fdf8a65dc1f90e061e50260801c5b614000821615610df2576f70d869a156d2a1b890bb3df62baf32f70260801c5b618000821615610e12576f31be135f97d08fd981231505542fcfa60260801c5b62010000821615610e33576f09aa508b5b7a84e1c677de54f3e99bc90260801c5b62020000821615610e53576e5d6af8dedb81196699c329225ee6040260801c5b62040000821615610e72576d2216e584f5fa1ea926041bedfe980260801c5b62080000821615610e8f576b048a170391f7dc42444e8fa20260801c5b60008460020b1315610eaa578060001981610ea657fe5b0490505b640100000000810615610ebe576001610ec1565b60005b60ff16602082901c0192505050919050565b6000836001600160a01b0316856001600160a01b03161115610ef3579293925b846001600160a01b0316866001600160a01b031611610f1e57610f17858585611083565b9050610f8e565b836001600160a01b0316866001600160a01b03161015610f80576000610f45878686611083565b90506000610f548789866110e6565b9050806001600160801b0316826001600160801b031610610f755780610f77565b815b92505050610f8e565b610f8b8585846110e6565b90505b95945050505050565b6000610fa282610fab565b60000392915050565b60006001600160ff1b03821115610ff35760405162461bcd60e51b8152600401808060200182810382526028815260200180611a646028913960400191505060405180910390fd5b5090565b6000808212156110175761101261100d8361112b565b611157565b610148565b61014882611157565b600082821115611077576040805162461bcd60e51b815260206004820152601e60248201527f536166654d6174683a207375627472616374696f6e206f766572666c6f770000604482015290519081900360640190fd5b50900390565b3b151590565b6000826001600160a01b0316846001600160a01b031611156110a3579192915b60006110c6856001600160a01b0316856001600160a01b0316600160601b6111ae565b9050610f8e6110e184838888036001600160a01b03166111ae565b61125d565b6000826001600160a01b0316846001600160a01b03161115611106579192915b6111236110e183600160601b8787036001600160a01b03166111ae565b949350505050565b6000600160ff1b82136111505760405162461bcd60e51b8152600401610263906117f6565b5060000390565b600080821215610ff3576040805162461bcd60e51b815260206004820181905260248201527f53616665436173743a2076616c7565206d75737420626520706f736974697665604482015290519081900360640190fd5b60008080600019858709868602925082811090839003039050806111e457600084116111d957600080fd5b5082900490506107bc565b8084116111f057600080fd5b6000848688096000868103871696879004966002600389028118808a02820302808a02820302808a02820302808a02820302808a02820302808a02909103029181900381900460010186841190950394909402919094039290920491909117919091029150509392505050565b806001600160801b038116811461014b57600080fd5b604051806040016040528060008152602001600081525090565b6040518060600160405280600081526020016000815260200160006001600160801b031681525090565b803561014b816119eb565b803561014b81611a03565b60008083601f8401126112de578182fd5b5081356001600160401b038111156112f4578182fd5b60208301915083602082850101111561130c57600080fd5b9250929050565b600082601f830112611323578081fd5b81356001600160401b0381111561133657fe5b611349601f8201601f1916602001611885565b81815284602083860101111561135d578283fd5b816020850160208301379081016020019190915292915050565b803561014b81611a11565b805161ffff8116811461014b57600080fd5b6000602082840312156113a5578081fd5b81356107bc816119eb565b6000602082840312156113c1578081fd5b81516107bc816119eb565b6000602082840312156113dd578081fd5b81516107bc81611a03565b600080604083850312156113fa578081fd5b823561140581611a11565b9150602083013561141581611a11565b809150509250929050565b60008060408385031215611432578182fd5b505080516020909101519092909150565b60008060008060608587031215611458578182fd5b843593506020850135925060408501356001600160401b0381111561147b578283fd5b611487878288016112cd565b95989497509550505050565b6000602082840312156114a4578081fd5b81356001600160401b038111156114b9578182fd5b820160c081850312156107bc578182fd5b600060a082840312156114db578081fd5b50919050565b600060a082840312156114f2578081fd5b60405160a081018181106001600160401b038211171561150e57fe5b604052823561151c816119eb565b8152602083013561152c816119eb565b6020820152604083013561153f81611a11565b6040820152606083013561155281611a11565b6060820152608083013561156581611a20565b60808201529392505050565b600060208284031215611582578081fd5b81356001600160401b03811115611597578182fd5b820160e081850312156107bc578182fd5b600080604083850312156115ba578182fd5b82516115c581611a20565b602084015190925061141581611a20565b600080600080600080600060e0888a0312156115f0578485fd5b87516115fb816119eb565b602089015190975061160c81611a11565b955061161a60408901611382565b945061162860608901611382565b935061163660808901611382565b925060a088015160ff8116811461164b578283fd5b60c089015190925061165c81611a03565b8091505092959891949750929550565b60008151808452815b8181101561169157602081850181015186830182015201611675565b818111156116a25782602083870101525b50601f01601f19169290920160200192915050565b80518252602090810151910152565b6001600160a01b03929092168252602082015260400190565b6001600160a01b0386811682528515156020830152604082018590528316606082015260a06080820181905260009061171a9083018461166c565b979650505050505050565b6001600160a01b0386168152600285810b602083015284900b60408201526001600160801b038316606082015260a06080820181905260009061171a9083018461166c565b6001600160a01b03959095168552600293840b60208601529190920b60408401526001600160801b03918216606084015216608082015260a00190565b90815260200190565b600293840b81529190920b60208201526001600160801b03909116604082015260600190565b60208082526006908201526543485f46305360d01b604082015260600190565b6020808252601c908201527f506572704d6174683a20696e76657273696f6e206f766572666c6f7700000000604082015260600190565b60208082526006908201526555425f554f4160d01b604082015260600190565b81518152602080830151908201526040918201516001600160801b03169181019190915260600190565b6040810161016082846116b7565b6040518181016001600160401b03811182821017156118a057fe5b604052919050565b600060c082360312156118b9578081fd5b60405160c081016001600160401b0382821081831117156118d657fe5b816040526118e3856112b7565b83526118f160208601611377565b602084015261190260408601611377565b6040840152606085013560608401526080850135608084015260a085013591508082111561192e578384fd5b5061193b36828601611313565b60a08301525092915050565b600060e08236031215611958578081fd5b61196260e0611885565b61196b836112b7565b8152611979602084016112b7565b602082015261198a604084016112c2565b604082015261199b606084016112c2565b6060820152608083013560808201526119b660a084016112b7565b60a082015260c08301356001600160401b038111156119d3578283fd5b6119df36828601611313565b60c08301525092915050565b6001600160a01b0381168114611a0057600080fd5b50565b8015158114611a0057600080fd5b8060020b8114611a0057600080fd5b6001600160801b0381168114611a0057600080fdfe496e697469616c697a61626c653a20636f6e747261637420697320616c726561647920696e697469616c697a656453616665436173743a2076616c756520646f65736e27742066697420696e20616e20696e74323536a2646970667358221220f6d2748057ef295e6256d0397cf8b5ef8a3e1800f5ce5c36fa453fe87ce37a5764736f6c63430007060033",
  "linkReferences": {},
  "deployedLinkReferences": {}
}