{
  "_format": "hh-sol-artifact-1",
  "contractName": "ClearingHouse",
  "sourceName": "contracts/ClearingHouse.sol",
  "abi": [
    {
      "anonymous": false,
      "inputs": [
        {
          "indexed": true,
          "internalType": "address",
          "name": "delegateApproval",
          "type": "address"
        }
      ],
      "name": "DelegateApprovalChanged",
      "type": "event"
    },
    {
      "anonymous": false,
      "inputs": [
        {
          "indexed": true,
          "internalType": "address",
          "name": "trader",
          "type": "address"
        },
        {
          "indexed": true,
          "internalType": "address",
          "name": "baseToken",
          "type": "address"
        },
        {
          "indexed": false,
          "internalType": "int256",
          "name": "fundingPayment",
          "type": "int256"
        }
      ],
      "name": "FundingPaymentSettled",
      "type": "event"
    },
    {
      "anonymous": false,
      "inputs": [
        {
          "indexed": true,
          "internalType": "address",
          "name": "maker",
          "type": "address"
        },
        {
          "indexed": true,
          "internalType": "address",
          "name": "baseToken",
          "type": "address"
        },
        {
          "indexed": true,
          "internalType": "address",
          "name": "quoteToken",
          "type": "address"
        },
        {
          "indexed": false,
          "internalType": "int24",
          "name": "lowerTick",
          "type": "int24"
        },
        {
          "indexed": false,
          "internalType": "int24",
          "name": "upperTick",
          "type": "int24"
        },
        {
          "indexed": false,
          "internalType": "int256",
          "name": "base",
          "type": "int256"
        },
        {
          "indexed": false,
          "internalType": "int256",
          "name": "quote",
          "type": "int256"
        },
        {
          "indexed": false,
          "internalType": "int128",
          "name": "liquidity",
          "type": "int128"
        },
        {
          "indexed": false,
          "internalType": "uint256",
          "name": "quoteFee",
          "type": "uint256"
        }
      ],
      "name": "LiquidityChanged",
      "type": "event"
    },
    {
      "anonymous": false,
      "inputs": [
        {
          "indexed": true,
          "internalType": "address",
          "name": "previousOwner",
          "type": "address"
        },
        {
          "indexed": true,
          "internalType": "address",
          "name": "newOwner",
          "type": "address"
        }
      ],
      "name": "OwnershipTransferred",
      "type": "event"
    },
    {
      "anonymous": false,
      "inputs": [
        {
          "indexed": false,
          "internalType": "address",
          "name": "account",
          "type": "address"
        }
      ],
      "name": "Paused",
      "type": "event"
    },
    {
      "anonymous": false,
      "inputs": [
        {
          "indexed": true,
          "internalType": "address",
          "name": "trader",
          "type": "address"
        },
        {
          "indexed": true,
          "internalType": "address",
          "name": "baseToken",
          "type": "address"
        },
        {
          "indexed": false,
          "internalType": "int256",
          "name": "exchangedPositionSize",
          "type": "int256"
        },
        {
          "indexed": false,
          "internalType": "int256",
          "name": "exchangedPositionNotional",
          "type": "int256"
        },
        {
          "indexed": false,
          "internalType": "uint256",
          "name": "fee",
          "type": "uint256"
        },
        {
          "indexed": false,
          "internalType": "int256",
          "name": "openNotional",
          "type": "int256"
        },
        {
          "indexed": false,
          "internalType": "int256",
          "name": "realizedPnl",
          "type": "int256"
        },
        {
          "indexed": false,
          "internalType": "uint256",
          "name": "sqrtPriceAfterX96",
          "type": "uint256"
        }
      ],
      "name": "PositionChanged",
      "type": "event"
    },
    {
      "anonymous": false,
      "inputs": [
        {
          "indexed": true,
          "internalType": "address",
          "name": "trader",
          "type": "address"
        },
        {
          "indexed": true,
          "internalType": "address",
          "name": "baseToken",
          "type": "address"
        },
        {
          "indexed": false,
          "internalType": "int256",
          "name": "closedPositionSize",
          "type": "int256"
        },
        {
          "indexed": false,
          "internalType": "int256",
          "name": "closedPositionNotional",
          "type": "int256"
        },
        {
          "indexed": false,
          "internalType": "int256",
          "name": "openNotional",
          "type": "int256"
        },
        {
          "indexed": false,
          "internalType": "int256",
          "name": "realizedPnl",
          "type": "int256"
        },
        {
          "indexed": false,
          "internalType": "uint256",
          "name": "closedPrice",
          "type": "uint256"
        }
      ],
      "name": "PositionClosed",
      "type": "event"
    },
    {
      "anonymous": false,
      "inputs": [
        {
          "indexed": true,
          "internalType": "address",
          "name": "trader",
          "type": "address"
        },
        {
          "indexed": true,
          "internalType": "address",
          "name": "baseToken",
          "type": "address"
        },
        {
          "indexed": false,
          "internalType": "uint256",
          "name": "positionNotional",
          "type": "uint256"
        },
        {
          "indexed": false,
          "internalType": "uint256",
          "name": "positionSize",
          "type": "uint256"
        },
        {
          "indexed": false,
          "internalType": "uint256",
          "name": "liquidationFee",
          "type": "uint256"
        },
        {
          "indexed": false,
          "internalType": "address",
          "name": "liquidator",
          "type": "address"
        }
      ],
      "name": "PositionLiquidated",
      "type": "event"
    },
    {
      "anonymous": false,
      "inputs": [
        {
          "indexed": true,
          "internalType": "bytes32",
          "name": "referralCode",
          "type": "bytes32"
        }
      ],
      "name": "ReferredPositionChanged",
      "type": "event"
    },
    {
      "anonymous": false,
      "inputs": [
        {
          "indexed": true,
          "internalType": "address",
          "name": "forwarder",
          "type": "address"
        }
      ],
      "name": "TrustedForwarderChanged",
      "type": "event"
    },
    {
      "anonymous": false,
      "inputs": [
        {
          "indexed": false,
          "internalType": "address",
          "name": "trustedForwarder",
          "type": "address"
        }
      ],
      "name": "TrustedForwarderUpdated",
      "type": "event"
    },
    {
      "anonymous": false,
      "inputs": [
        {
          "indexed": false,
          "internalType": "address",
          "name": "account",
          "type": "address"
        }
      ],
      "name": "Unpaused",
      "type": "event"
    },
    {
      "inputs": [
        {
          "components": [
            {
              "internalType": "address",
              "name": "baseToken",
              "type": "address"
            },
            {
              "internalType": "uint256",
              "name": "base",
              "type": "uint256"
            },
            {
              "internalType": "uint256",
              "name": "quote",
              "type": "uint256"
            },
            {
              "internalType": "int24",
              "name": "lowerTick",
              "type": "int24"
            },
            {
              "internalType": "int24",
              "name": "upperTick",
              "type": "int24"
            },
            {
              "internalType": "uint256",
              "name": "minBase",
              "type": "uint256"
            },
            {
              "internalType": "uint256",
              "name": "minQuote",
              "type": "uint256"
            },
            {
              "internalType": "bool",
              "name": "useTakerBalance",
              "type": "bool"
            },
            {
              "internalType": "uint256",
              "name": "deadline",
              "type": "uint256"
            }
          ],
          "internalType": "struct IClearingHouse.AddLiquidityParams",
          "name": "params",
          "type": "tuple"
        }
      ],
      "name": "addLiquidity",
      "outputs": [
        {
          "components": [
            {
              "internalType": "uint256",
              "name": "base",
              "type": "uint256"
            },
            {
              "internalType": "uint256",
              "name": "quote",
              "type": "uint256"
            },
            {
              "internalType": "uint256",
              "name": "fee",
              "type": "uint256"
            },
            {
              "internalType": "uint256",
              "name": "liquidity",
              "type": "uint256"
            }
          ],
          "internalType": "struct IClearingHouse.AddLiquidityResponse",
          "name": "",
          "type": "tuple"
        }
      ],
      "stateMutability": "nonpayable",
      "type": "function"
    },
    {
      "inputs": [
        {
          "internalType": "address",
          "name": "maker",
          "type": "address"
        },
        {
          "internalType": "address",
          "name": "baseToken",
          "type": "address"
        }
      ],
      "name": "cancelAllExcessOrders",
      "outputs": [],
      "stateMutability": "nonpayable",
      "type": "function"
    },
    {
      "inputs": [
        {
          "internalType": "address",
          "name": "maker",
          "type": "address"
        },
        {
          "internalType": "address",
          "name": "baseToken",
          "type": "address"
        },
        {
          "internalType": "bytes32[]",
          "name": "orderIds",
          "type": "bytes32[]"
        }
      ],
      "name": "cancelExcessOrders",
      "outputs": [],
      "stateMutability": "nonpayable",
      "type": "function"
    },
    {
      "inputs": [],
      "name": "candidate",
      "outputs": [
        {
          "internalType": "address",
          "name": "",
          "type": "address"
        }
      ],
      "stateMutability": "view",
      "type": "function"
    },
    {
      "inputs": [
        {
          "components": [
            {
              "internalType": "address",
              "name": "baseToken",
              "type": "address"
            },
            {
              "internalType": "uint160",
              "name": "sqrtPriceLimitX96",
              "type": "uint160"
            },
            {
              "internalType": "uint256",
              "name": "oppositeAmountBound",
              "type": "uint256"
            },
            {
              "internalType": "uint256",
              "name": "deadline",
              "type": "uint256"
            },
            {
              "internalType": "bytes32",
              "name": "referralCode",
              "type": "bytes32"
            }
          ],
          "internalType": "struct IClearingHouse.ClosePositionParams",
          "name": "params",
          "type": "tuple"
        }
      ],
      "name": "closePosition",
      "outputs": [
        {
          "internalType": "uint256",
          "name": "base",
          "type": "uint256"
        },
        {
          "internalType": "uint256",
          "name": "quote",
          "type": "uint256"
        }
      ],
      "stateMutability": "nonpayable",
      "type": "function"
    },
    {
      "inputs": [],
      "name": "getAccountBalance",
      "outputs": [
        {
          "internalType": "address",
          "name": "",
          "type": "address"
        }
      ],
      "stateMutability": "view",
      "type": "function"
    },
    {
      "inputs": [
        {
          "internalType": "address",
          "name": "trader",
          "type": "address"
        }
      ],
      "name": "getAccountValue",
      "outputs": [
        {
          "internalType": "int256",
          "name": "",
          "type": "int256"
        }
      ],
      "stateMutability": "view",
      "type": "function"
    },
    {
      "inputs": [],
      "name": "getClearingHouseConfig",
      "outputs": [
        {
          "internalType": "address",
          "name": "",
          "type": "address"
        }
      ],
      "stateMutability": "view",
      "type": "function"
    },
    {
      "inputs": [],
      "name": "getDelegateApproval",
      "outputs": [
        {
          "internalType": "address",
          "name": "",
          "type": "address"
        }
      ],
      "stateMutability": "view",
      "type": "function"
    },
    {
      "inputs": [],
      "name": "getExchange",
      "outputs": [
        {
          "internalType": "address",
          "name": "",
          "type": "address"
        }
      ],
      "stateMutability": "view",
      "type": "function"
    },
    {
      "inputs": [],
      "name": "getInsuranceFund",
      "outputs": [
        {
          "internalType": "address",
          "name": "",
          "type": "address"
        }
      ],
      "stateMutability": "view",
      "type": "function"
    },
    {
      "inputs": [],
      "name": "getOrderBook",
      "outputs": [
        {
          "internalType": "address",
          "name": "",
          "type": "address"
        }
      ],
      "stateMutability": "view",
      "type": "function"
    },
    {
      "inputs": [],
      "name": "getQuoteToken",
      "outputs": [
        {
          "internalType": "address",
          "name": "",
          "type": "address"
        }
      ],
      "stateMutability": "view",
      "type": "function"
    },
    {
      "inputs": [],
      "name": "getTrustedForwarder",
      "outputs": [
        {
          "internalType": "address",
          "name": "",
          "type": "address"
        }
      ],
      "stateMutability": "view",
      "type": "function"
    },
    {
      "inputs": [],
      "name": "getUniswapV3Factory",
      "outputs": [
        {
          "internalType": "address",
          "name": "",
          "type": "address"
        }
      ],
      "stateMutability": "view",
      "type": "function"
    },
    {
      "inputs": [],
      "name": "getVault",
      "outputs": [
        {
          "internalType": "address",
          "name": "",
          "type": "address"
        }
      ],
      "stateMutability": "view",
      "type": "function"
    },
    {
      "inputs": [
        {
          "internalType": "address",
          "name": "clearingHouseConfigArg",
          "type": "address"
        },
        {
          "internalType": "address",
          "name": "vaultArg",
          "type": "address"
        },
        {
          "internalType": "address",
          "name": "quoteTokenArg",
          "type": "address"
        },
        {
          "internalType": "address",
          "name": "uniV3FactoryArg",
          "type": "address"
        },
        {
          "internalType": "address",
          "name": "exchangeArg",
          "type": "address"
        },
        {
          "internalType": "address",
          "name": "accountBalanceArg",
          "type": "address"
        },
        {
          "internalType": "address",
          "name": "insuranceFundArg",
          "type": "address"
        }
      ],
      "name": "initialize",
      "outputs": [],
      "stateMutability": "nonpayable",
      "type": "function"
    },
    {
      "inputs": [
        {
          "internalType": "address",
          "name": "forwarder",
          "type": "address"
        }
      ],
      "name": "isTrustedForwarder",
      "outputs": [
        {
          "internalType": "bool",
          "name": "",
          "type": "bool"
        }
      ],
      "stateMutability": "view",
      "type": "function"
    },
    {
      "inputs": [
        {
          "internalType": "address",
          "name": "trader",
          "type": "address"
        },
        {
          "internalType": "address",
          "name": "baseToken",
          "type": "address"
        },
        {
          "internalType": "int256",
          "name": "positionSize",
          "type": "int256"
        }
      ],
      "name": "liquidate",
      "outputs": [],
      "stateMutability": "nonpayable",
      "type": "function"
    },
    {
      "inputs": [
        {
          "internalType": "address",
          "name": "trader",
          "type": "address"
        },
        {
          "internalType": "address",
          "name": "baseToken",
          "type": "address"
        }
      ],
      "name": "liquidate",
      "outputs": [],
      "stateMutability": "nonpayable",
      "type": "function"
    },
    {
      "inputs": [
        {
          "components": [
            {
              "internalType": "address",
              "name": "baseToken",
              "type": "address"
            },
            {
              "internalType": "bool",
              "name": "isBaseToQuote",
              "type": "bool"
            },
            {
              "internalType": "bool",
              "name": "isExactInput",
              "type": "bool"
            },
            {
              "internalType": "uint256",
              "name": "amount",
              "type": "uint256"
            },
            {
              "internalType": "uint256",
              "name": "oppositeAmountBound",
              "type": "uint256"
            },
            {
              "internalType": "uint256",
              "name": "deadline",
              "type": "uint256"
            },
            {
              "internalType": "uint160",
              "name": "sqrtPriceLimitX96",
              "type": "uint160"
            },
            {
              "internalType": "bytes32",
              "name": "referralCode",
              "type": "bytes32"
            }
          ],
          "internalType": "struct IClearingHouse.OpenPositionParams",
          "name": "params",
          "type": "tuple"
        }
      ],
      "name": "openPosition",
      "outputs": [
        {
          "internalType": "uint256",
          "name": "base",
          "type": "uint256"
        },
        {
          "internalType": "uint256",
          "name": "quote",
          "type": "uint256"
        }
      ],
      "stateMutability": "nonpayable",
      "type": "function"
    },
    {
      "inputs": [
        {
          "internalType": "address",
          "name": "trader",
          "type": "address"
        },
        {
          "components": [
            {
              "internalType": "address",
              "name": "baseToken",
              "type": "address"
            },
            {
              "internalType": "bool",
              "name": "isBaseToQuote",
              "type": "bool"
            },
            {
              "internalType": "bool",
              "name": "isExactInput",
              "type": "bool"
            },
            {
              "internalType": "uint256",
              "name": "amount",
              "type": "uint256"
            },
            {
              "internalType": "uint256",
              "name": "oppositeAmountBound",
              "type": "uint256"
            },
            {
              "internalType": "uint256",
              "name": "deadline",
              "type": "uint256"
            },
            {
              "internalType": "uint160",
              "name": "sqrtPriceLimitX96",
              "type": "uint160"
            },
            {
              "internalType": "bytes32",
              "name": "referralCode",
              "type": "bytes32"
            }
          ],
          "internalType": "struct IClearingHouse.OpenPositionParams",
          "name": "params",
          "type": "tuple"
        }
      ],
      "name": "openPositionFor",
      "outputs": [
        {
          "internalType": "uint256",
          "name": "base",
          "type": "uint256"
        },
        {
          "internalType": "uint256",
          "name": "quote",
          "type": "uint256"
        },
        {
          "internalType": "uint256",
          "name": "fee",
          "type": "uint256"
        }
      ],
      "stateMutability": "nonpayable",
      "type": "function"
    },
    {
      "inputs": [],
      "name": "owner",
      "outputs": [
        {
          "internalType": "address",
          "name": "",
          "type": "address"
        }
      ],
      "stateMutability": "view",
      "type": "function"
    },
    {
      "inputs": [],
      "name": "pause",
      "outputs": [],
      "stateMutability": "nonpayable",
      "type": "function"
    },
    {
      "inputs": [],
      "name": "paused",
      "outputs": [
        {
          "internalType": "bool",
          "name": "",
          "type": "bool"
        }
      ],
      "stateMutability": "view",
      "type": "function"
    },
    {
      "inputs": [
        {
          "internalType": "address",
          "name": "trader",
          "type": "address"
        },
        {
          "internalType": "address",
          "name": "baseToken",
          "type": "address"
        }
      ],
      "name": "quitMarket",
      "outputs": [
        {
          "internalType": "uint256",
          "name": "base",
          "type": "uint256"
        },
        {
          "internalType": "uint256",
          "name": "quote",
          "type": "uint256"
        }
      ],
      "stateMutability": "nonpayable",
      "type": "function"
    },
    {
      "inputs": [
        {
          "components": [
            {
              "internalType": "address",
              "name": "baseToken",
              "type": "address"
            },
            {
              "internalType": "int24",
              "name": "lowerTick",
              "type": "int24"
            },
            {
              "internalType": "int24",
              "name": "upperTick",
              "type": "int24"
            },
            {
              "internalType": "uint128",
              "name": "liquidity",
              "type": "uint128"
            },
            {
              "internalType": "uint256",
              "name": "minBase",
              "type": "uint256"
            },
            {
              "internalType": "uint256",
              "name": "minQuote",
              "type": "uint256"
            },
            {
              "internalType": "uint256",
              "name": "deadline",
              "type": "uint256"
            }
          ],
          "internalType": "struct IClearingHouse.RemoveLiquidityParams",
          "name": "params",
          "type": "tuple"
        }
      ],
      "name": "removeLiquidity",
      "outputs": [
        {
          "components": [
            {
              "internalType": "uint256",
              "name": "base",
              "type": "uint256"
            },
            {
              "internalType": "uint256",
              "name": "quote",
              "type": "uint256"
            },
            {
              "internalType": "uint256",
              "name": "fee",
              "type": "uint256"
            }
          ],
          "internalType": "struct IClearingHouse.RemoveLiquidityResponse",
          "name": "",
          "type": "tuple"
        }
      ],
      "stateMutability": "nonpayable",
      "type": "function"
    },
    {
      "inputs": [],
      "name": "renounceOwnership",
      "outputs": [],
      "stateMutability": "nonpayable",
      "type": "function"
    },
    {
      "inputs": [
        {
          "internalType": "address",
          "name": "delegateApprovalArg",
          "type": "address"
        }
      ],
      "name": "setDelegateApproval",
      "outputs": [],
      "stateMutability": "nonpayable",
      "type": "function"
    },
    {
      "inputs": [
        {
          "internalType": "address",
          "name": "newOwner",
          "type": "address"
        }
      ],
      "name": "setOwner",
      "outputs": [],
      "stateMutability": "nonpayable",
      "type": "function"
    },
    {
      "inputs": [
        {
          "internalType": "address",
          "name": "trader",
          "type": "address"
        }
      ],
      "name": "settleAllFunding",
      "outputs": [],
      "stateMutability": "nonpayable",
      "type": "function"
    },
    {
      "inputs": [
        {
          "internalType": "uint256",
          "name": "amount0Owed",
          "type": "uint256"
        },
        {
          "internalType": "uint256",
          "name": "amount1Owed",
          "type": "uint256"
        },
        {
          "internalType": "bytes",
          "name": "data",
          "type": "bytes"
        }
      ],
      "name": "uniswapV3MintCallback",
      "outputs": [],
      "stateMutability": "nonpayable",
      "type": "function"
    },
    {
      "inputs": [
        {
          "internalType": "int256",
          "name": "amount0Delta",
          "type": "int256"
        },
        {
          "internalType": "int256",
          "name": "amount1Delta",
          "type": "int256"
        },
        {
          "internalType": "bytes",
          "name": "data",
          "type": "bytes"
        }
      ],
      "name": "uniswapV3SwapCallback",
      "outputs": [],
      "stateMutability": "nonpayable",
      "type": "function"
    },
    {
      "inputs": [],
      "name": "unpause",
      "outputs": [],
      "stateMutability": "nonpayable",
      "type": "function"
    },
    {
      "inputs": [],
      "name": "updateOwner",
      "outputs": [],
      "stateMutability": "nonpayable",
      "type": "function"
    },
    {
      "inputs": [],
      "name": "versionRecipient",
      "outputs": [
        {
          "internalType": "string",
          "name": "",
          "type": "string"
        }
      ],
      "stateMutability": "pure",
      "type": "function"
    }
  ],
  "bytecode": "0x608060405234801561001057600080fd5b50615ec580620000216000396000f3fe608060405234801561001057600080fd5b50600436106101da5760003560e01c806386b9d81f11610105578063c35eb28c1161009d578063c35eb28c1461038c578063cc3606dc146103ac578063cde109b6146103bf578063ce1b815f146103df578063d3487997146103e7578063e95c9741146103fa578063eb9b912e1461040d578063f807cd2214610420578063fa461e3314610428576101da565b806386b9d81f1461032e5780638d928af8146103415780638da5cb5b1461034957806392a25daf14610351578063aa2a829414610359578063b081983b14610361578063b248c4ef14610369578063b6b1b6c314610371578063bc5920ba14610384576101da565b8063572b6c0511610178578063572b6c05146102a05780635ae80951146102c05780635c975abb146102e057806365d461bd146102e85780636896fabf146102fb5780636c8381f814610303578063715018a61461030b57806380a98332146103135780638456cb5914610326576101da565b8062aa9a89146101df578062c2473e1461020957806313af40351461022b578063158626f71461024057806315beff131461025557806335876476146102685780633f4ba83a1461027b578063486ff0cd146102835780634a64d67d14610298575b600080fd5b6101f26101ed366004615146565b61043b565b604051610200929190615c7b565b60405180910390f35b61021c610217366004614dfd565b61065b565b604051610200939291906155ba565b61023e610239366004614c2a565b6107e5565b005b610248610940565b604051610200919061549f565b61023e610263366004614c2a565b610951565b61023e610276366004614c9a565b610a27565b61023e610e40565b61028b610ea7565b604051610200919061564e565b610248610ec6565b6102b36102ae366004614c2a565b610ed6565b60405161020091906155a6565b6102d36102ce366004614c2a565b610eed565b60405161020091906155b1565b6102b3610f91565b61023e6102f6366004614dbd565b610f9a565b610248611046565b610248611056565b61023e611065565b61023e610321366004614d2f565b611106565b61023e6111e9565b61023e61033c366004614c62565b61124e565b6102486112fa565b61024861130a565b610248611319565b610248611329565b610248611339565b610248611349565b6101f261037f366004615295565b611359565b61023e611441565b61039f61039a3660046150ca565b61152d565b6040516102009190615b42565b61023e6103ba366004614c62565b611c27565b6103d26103cd3660046152b1565b611cd3565b6040516102009190615bfd565b610248611fd5565b61023e6103f5366004614fe2565b611fe4565b6101f2610408366004614c62565b612146565b61023e61041b366004614c2a565b612339565b610248612459565b61023e610436366004614fe2565b612469565b600080610446610f91565b1561048b576040805162461bcd60e51b815260206004820152601060248201526f14185d5cd8589b194e881c185d5cd95960821b604482015290519081900360640190fd5b600260015414156104d1576040805162461bcd60e51b815260206004820152601f6024820152600080516020615d46833981519152604482015290519081900360640190fd5b60026001556060830135806104e46125f3565b111561050b5760405162461bcd60e51b815260040161050290615949565b60405180910390fd5b61052061051b6020860186614c2a565b6125f7565b600061052a612687565b90506105428161053d6020880188614c2a565b612696565b50600061055b826105566020890189614c2a565b6127f5565b6040805160e081019091526001600160a01b03841681529091506000808313916105e690602080820190610591908c018c614c2a565b6001600160a01b03168152841515602082018190526040820152600160608201526080016105be86612828565b81526020018a60200160208101906105d69190614c2a565b6001600160a01b03169052612851565b90506106346040518060a0016040528084151581526020018415158152602001836000015181526020018360200151815260200161062d8b60400135856101200151612a45565b9052612ad8565b6106418860800135612bab565b805160209091015160018055909890975095505050505050565b6000806000610668610f91565b156106ad576040805162461bcd60e51b815260206004820152601060248201526f14185d5cd8589b194e881c185d5cd95960821b604482015290519081900360640190fd5b600260015414156106f3576040805162461bcd60e51b815260206004820152601f6024820152600080516020615d46833981519152604482015290519081900360640190fd5b600260015560a0840151806107066125f3565b11156107245760405162461bcd60e51b815260040161050290615949565b610138546001600160a01b031663a08012a38761073f612687565b6040518363ffffffff1660e01b815260040161075c9291906154b3565b60206040518083038186803b15801561077457600080fd5b505afa158015610788573d6000803e3d6000fd5b505050506040513d601f19601f820116820180604052508101906107ac9190614f6f565b6107c85760405162461bcd60e51b8152600401610502906158af565b6107d28686612bdf565b6001805591989097509095509350505050565b6107ed612687565b6001600160a01b03166107fe61130a565b6001600160a01b031614610842576040805162461bcd60e51b8152602060048201526006602482015265534f5f434e4f60d01b604482015290519081900360640190fd5b6001600160a01b038116610886576040805162461bcd60e51b81526020600482015260066024820152650534f5f4e57360d41b604482015290519081900360640190fd5b6065546001600160a01b03828116911614156108d2576040805162461bcd60e51b8152602060048201526006602482015265534f5f53414f60d01b604482015290519081900360640190fd5b6066546001600160a01b038281169116141561091e576040805162461bcd60e51b8152602060048201526006602482015265534f5f53414360d01b604482015290519081900360640190fd5b606680546001600160a01b0319166001600160a01b0392909216919091179055565b610137546001600160a01b03165b90565b610959612687565b6001600160a01b031661096a61130a565b6001600160a01b0316146109ae576040805162461bcd60e51b8152602060048201526006602482015265534f5f434e4f60d01b604482015290519081900360640190fd5b6109c0816001600160a01b0316612cf1565b6109dc5760405162461bcd60e51b815260040161050290615a32565b61013880546001600160a01b0319166001600160a01b0383169081179091556040517fc2a094a533bc4ad86b9c50f1641576f0e8ee311d765abfd05a8b2383c750689190600090a250565b600054610100900460ff1680610a405750610a40612cf7565b80610a4e575060005460ff16155b610a895760405162461bcd60e51b815260040180806020018281038252602e815260200180615dae602e913960400191505060405180910390fd5b600054610100900460ff16158015610ab4576000805460ff1961ff0019909116610100171660011790555b610add876040518060400160405280600781526020016643485f56414e4360c81b815250612d08565b610b06866040518060400160405280600781526020016643485f51414e4360c81b815250612d08565b856001600160a01b031663313ce5676040518163ffffffff1660e01b815260040160206040518083038186803b158015610b3f57600080fd5b505afa158015610b53573d6000803e3d6000fd5b505050506040513d601f19601f82011682018060405250810190610b77919061547e565b60ff16601214610b995760405162461bcd60e51b8152600401610502906156c2565b610bc2856040518060400160405280600781526020016643485f55414e4360c81b815250612d08565b610beb886040518060400160405280600781526020016643485f43434e4360c81b815250612d08565b610c14836040518060400160405280600781526020016643485f41424e4360c81b815250612d08565b610c3c846040518060400160405280600681526020016543485f454e4360d01b815250612d08565b610c66826040518060400160405280600881526020016743485f4946414e4360c01b815250612d08565b6000846001600160a01b031663b248c4ef6040518163ffffffff1660e01b815260040160206040518083038186803b158015610ca157600080fd5b505afa158015610cb5573d6000803e3d6000fd5b505050506040513d601f19601f82011682018060405250810190610cd99190614c46565b9050610d04816040518060400160405280600781526020016643485f4f424e4360c81b815250612d08565b610d0c612d3e565b610d14612de7565b61013280546001600160a01b03199081166001600160a01b038c811691909117909255610133805482168b84161790819055610130805483168b8516179055610131805483168a85161790556101348054831689851617905561013580548316858516179055610136805483168885161790556101378054909216868416179091556040805163313ce56760e01b81529051919092169163313ce567916004808301926020929190829003018186803b158015610dd057600080fd5b505afa158015610de4573d6000803e3d6000fd5b505050506040513d601f19601f82011682018060405250810190610e08919061547e565b61013160146101000a81548160ff021916908360ff160217905550508015610e36576000805461ff00191690555b5050505050505050565b610e48612687565b6001600160a01b0316610e5961130a565b6001600160a01b031614610e9d576040805162461bcd60e51b8152602060048201526006602482015265534f5f434e4f60d01b604482015290519081900360640190fd5b610ea5612e84565b565b6040805180820190915260058152640322e302e360dc1b602082015290565b610130546001600160a01b031690565b60fd546001600160a01b038281169116145b919050565b6101315461013354604051635ae8095160e01b8152600092610f8b92600160a01b90910460ff16916001600160a01b0390911690635ae8095190610f3590879060040161549f565b60206040518083038186803b158015610f4d57600080fd5b505afa158015610f61573d6000803e3d6000fd5b505050506040513d601f19601f82011682018060405250810190610f859190614fa7565b90612f24565b92915050565b60995460ff1690565b610fa2610f91565b15610fe7576040805162461bcd60e51b815260206004820152601060248201526f14185d5cd8589b194e881c185d5cd95960821b604482015290519081900360640190fd5b6002600154141561102d576040805162461bcd60e51b815260206004820152601f6024820152600080516020615d46833981519152604482015290519081900360640190fd5b600260015561103d838383612f3a565b50506001805550565b610136546001600160a01b031690565b6066546001600160a01b031690565b61106d612687565b6001600160a01b031661107e61130a565b6001600160a01b0316146110c2576040805162461bcd60e51b8152602060048201526006602482015265534f5f434e4f60d01b604482015290519081900360640190fd5b6065546040516000916001600160a01b031690600080516020615dfd833981519152908390a3606580546001600160a01b0319908116909155606680549091169055565b61110e610f91565b15611153576040805162461bcd60e51b815260206004820152601060248201526f14185d5cd8589b194e881c185d5cd95960821b604482015290519081900360640190fd5b60026001541415611199576040805162461bcd60e51b815260206004820152601f6024820152600080516020615d46833981519152604482015290519081900360640190fd5b60026001819055506111df848484848080602002602001604051908101604052809392919081815260200183836020028082843760009201919091525061325592505050565b5050600180555050565b6111f1612687565b6001600160a01b031661120261130a565b6001600160a01b031614611246576040805162461bcd60e51b8152602060048201526006602482015265534f5f434e4f60d01b604482015290519081900360640190fd5b610ea561333d565b611256610f91565b1561129b576040805162461bcd60e51b815260206004820152601060248201526f14185d5cd8589b194e881c185d5cd95960821b604482015290519081900360640190fd5b600260015414156112e1576040805162461bcd60e51b815260206004820152601f6024820152600080516020615d46833981519152604482015290519081900360640190fd5b60026001556112f282826000612f3a565b505060018055565b610133546001600160a01b031690565b6065546001600160a01b031690565b610138546001600160a01b031690565b610132546001600160a01b031690565b610131546001600160a01b031690565b610135546001600160a01b031690565b600080611364610f91565b156113a9576040805162461bcd60e51b815260206004820152601060248201526f14185d5cd8589b194e881c185d5cd95960821b604482015290519081900360640190fd5b600260015414156113ef576040805162461bcd60e51b815260206004820152601f6024820152600080516020615d46833981519152604482015290519081900360640190fd5b600260015560a0830151806114026125f3565b11156114205760405162461bcd60e51b815260040161050290615949565b61143161142b612687565b85612bdf565b5060018055909590945092505050565b6066546001600160a01b0316611486576040805162461bcd60e51b81526020600482015260056024820152640534f5f43360dc1b604482015290519081900360640190fd5b61148e612687565b6066546001600160a01b039081169116146114d9576040805162461bcd60e51b8152602060048201526006602482015265534f5f434e4360d01b604482015290519081900360640190fd5b6066546065546040516001600160a01b039283169290911690600080516020615dfd83398151915290600090a360668054606580546001600160a01b03199081166001600160a01b03841617909155169055565b611535614a26565b61153d610f91565b15611582576040805162461bcd60e51b815260206004820152601060248201526f14185d5cd8589b194e881c185d5cd95960821b604482015290519081900360640190fd5b600260015414156115c8576040805162461bcd60e51b815260206004820152601f6024820152600080516020615d46833981519152604482015290519081900360640190fd5b6002600155610100820135806115dc6125f3565b11156115fa5760405162461bcd60e51b815260040161050290615949565b61160a61051b6020850185614c2a565b610134546001600160a01b031663ff8180116116296020860186614c2a565b6040518263ffffffff1660e01b8152600401611645919061549f565b60206040518083038186803b15801561165d57600080fd5b505afa158015611671573d6000803e3d6000fd5b505050506040513d601f19601f820116820180604052508101906116959190614f6f565b156116b25760405162461bcd60e51b8152600401610502906156a1565b6116c3610100840160e08501614f53565b156116e05760405162461bcd60e51b81526004016105029061582a565b60006116ea612687565b9050611702816116fd6020870187614c2a565b6133c0565b60006117158261053d6020880188614c2a565b610135546040805160e081019091526001600160a01b0385811682529293506000929091169063e8ab2fb390602080820190611753908b018b614c2a565b6001600160a01b0316815260200189602001358152602001896040013581526020018960600160208101906117889190614f8b565b60020b81526020016117a060a08b0160808c01614f8b565b60020b8152602001858152506040518263ffffffff1660e01b81526004016117c89190615ad4565b608060405180830381600087803b1580156117e257600080fd5b505af11580156117f6573d6000803e3d6000fd5b505050506040513d601f19601f8201168201806040525081019061181a91906150e2565b905061183881600001518760a0013583602001518960c00135613421565b611849610100870160e08801614f53565b15611b49578051602082015190151590151581141561187a5760405162461bcd60e51b8152600401610502906159ec565b610136546000906001600160a01b0316636332fef68661189d60208c018c614c2a565b6040518363ffffffff1660e01b81526004016118ba9291906154b3565b60606040518083038186803b1580156118d257600080fd5b505afa1580156118e6573d6000803e3d6000fd5b505050506040513d601f19601f8201168201806040525081019061190a9190615157565b905060008083156119705784516119209061344d565b835112156119405760405162461bcd60e51b815260040161050290615989565b845161194b90613499565b835160208501519193506119699161196390856134ad565b90613556565b90506119c8565b61197d856020015161344d565b836020015112156119a05760405162461bcd60e51b8152600401610502906159aa565b6119ad8560200151613499565b602084015184519192506119c59161196390846134ad565b91505b610135546001600160a01b031663b0c04174611a16896119eb60208f018f614c2a565b8e60600160208101906119fe9190614f8b565b8f6080016020810190611a119190614f8b565b61360e565b84846040518463ffffffff1660e01b8152600401611a36939291906155ba565b600060405180830381600087803b158015611a5057600080fd5b505af1158015611a64573d6000803e3d6000fd5b505061013654600092506001600160a01b03169050633c9b5ad189611a8c60208f018f614c2a565b86866040518563ffffffff1660e01b8152600401611aad94939291906154f1565b6040805180830381600087803b158015611ac657600080fd5b505af1158015611ada573d6000803e3d6000fd5b505050506040513d601f19601f82011682018060405250810190611afe9190614fbf565b915060009050611b19611b1460208e018e614c2a565b61366f565b6001600160a01b03169050611b4289611b3560208f018f614c2a565b86866000876000886136f3565b5050505050505b611b5f83611b5a836040015161344d565b613752565b611b6883613785565b611bde83611b796020890189614c2a565b610130546001600160a01b0316611b9660808b0160608c01614f8b565b611ba660a08c0160808d01614f8b565b8651611bb19061344d565b611bbe886020015161344d565b611bd489606001516001600160801b03166137f8565b896040015161383b565b604051806080016040528082600001518152602001826020015181526020018260400151815260200182606001516001600160801b031681525094505050505060018055919050565b611c2f610f91565b15611c74576040805162461bcd60e51b815260206004820152601060248201526f14185d5cd8589b194e881c185d5cd95960821b604482015290519081900360640190fd5b60026001541415611cba576040805162461bcd60e51b815260206004820152601f6024820152600080516020615d46833981519152604482015290519081900360640190fd5b60026001556112f28282611cce82826138a5565b613255565b611cdb614a4e565b611ce3610f91565b15611d28576040805162461bcd60e51b815260206004820152601060248201526f14185d5cd8589b194e881c185d5cd95960821b604482015290519081900360640190fd5b60026001541415611d6e576040805162461bcd60e51b815260206004820152601f6024820152600080516020615d46833981519152604482015290519081900360640190fd5b600260015560c082013580611d816125f3565b1115611d9f5760405162461bcd60e51b815260040161050290615949565b611dac6020840184614c2a565b6001600160a01b031663b187bd266040518163ffffffff1660e01b815260040160206040518083038186803b158015611de457600080fd5b505afa158015611df8573d6000803e3d6000fd5b505050506040513d601f19601f82011682018060405250810190611e1c9190614f6f565b15611e395760405162461bcd60e51b815260040161050290615a95565b6000611e43612687565b9050611e568161053d6020870187614c2a565b506000611eea6040518060a00160405280846001600160a01b03168152602001876000016020810190611e899190614c2a565b6001600160a01b03168152602001876020016020810190611eaa9190614f8b565b60020b8152602001611ec26060890160408a01614f8b565b60020b8152602001611eda6080890160608a01615446565b6001600160801b0316905261392d565b9050611f088160000151866080013583602001518860a00135613421565b611f2f82611f196020880188614c2a565b83606001518460800151856040015160006139b8565b611fa982611f406020880188614c2a565b610130546001600160a01b0316611f5d60408a0160208b01614f8b565b611f6d60608b0160408c01614f8b565b8651611f7890613499565b611f858860200151613499565b611bd48d6060016020810190611f9b9190615446565b6001600160801b0316613ab0565b604080516060810182528251815260208084015190820152918101519082015260018055949350505050565b60fd546001600160a01b031690565b610135546001600160a01b0316331461200f5760405162461bcd60e51b81526004016105029061590a565b600061201d8284018461523e565b905084156120af57600081602001516001600160a01b0316630dfe16816040518163ffffffff1660e01b815260040160206040518083038186803b15801561206457600080fd5b505afa158015612078573d6000803e3d6000fd5b505050506040513d601f19601f8201168201806040525081019061209c9190614c46565b90506120ad81836020015188613ac4565b505b831561213f57600081602001516001600160a01b031663d21220a76040518163ffffffff1660e01b815260040160206040518083038186803b1580156120f457600080fd5b505afa158015612108573d6000803e3d6000fd5b505050506040513d601f19601f8201168201806040525081019061212c9190614c46565b905061213d81836020015187613ac4565b505b5050505050565b600080826001600160a01b031663c2b6b58c6040518163ffffffff1660e01b815260040160206040518083038186803b15801561218257600080fd5b505afa158015612196573d6000803e3d6000fd5b505050506040513d601f19601f820116820180604052508101906121ba9190614f6f565b6121d65760405162461bcd60e51b815260040161050290615ab4565b6121e08484612696565b5060006121ed85856138a5565b80519091501561220257612202858583613b60565b600061220e8686613d9e565b90508061222357600080935093505050612332565b61013654604051635f9d05ad60e01b81526000918291829182916001600160a01b0390911690635f9d05ad9061225f908d908d906004016154b3565b608060405180830381600087803b15801561227957600080fd5b505af115801561228d573d6000803e3d6000fd5b505050506040513d601f19601f820116820180604052508101906122b19190615032565b9350935093509350886001600160a01b03168a6001600160a01b03167f90195cdfd4796e4ab1175fced26945fa837ef5989e372fcd306856d8ad0ff23b8787878787604051612304959493929190615603565b60405180910390a36123158a613e22565b61231e85612828565b61232785612828565b975097505050505050505b9250929050565b610133546001600160a01b031661234e612687565b6001600160a01b0316148061237b5750806001600160a01b0316612370612687565b6001600160a01b0316145b6123975760405162461bcd60e51b815260040161050290615764565b610136546040516357ba739b60e11b81526000916001600160a01b03169063af74e736906123c990859060040161549f565b60006040518083038186803b1580156123e157600080fd5b505afa1580156123f5573d6000803e3d6000fd5b505050506040513d6000823e601f3d908101601f1916820160405261241d9190810190614e33565b805190915060005b818110156124535761244a8484838151811061243d57fe5b6020026020010151612696565b50600101612425565b50505050565b610134546001600160a01b031690565b610134546001600160a01b031633146124945760405162461bcd60e51b815260040161050290615704565b6000841380156124a45750600083125b806124ba57506000841280156124ba5750600083135b6124d65760405162461bcd60e51b8152600401610502906157e9565b60006124e48284018461532a565b604081015190915060008080881361256d57826001600160a01b031663d21220a76040518163ffffffff1660e01b815260040160206040518083038186803b15801561252f57600080fd5b505afa158015612543573d6000803e3d6000fd5b505050506040513d601f19601f820116820180604052508101906125679190614c46565b876125e0565b826001600160a01b0316630dfe16816040518163ffffffff1660e01b815260040160206040518083038186803b1580156125a657600080fd5b505afa1580156125ba573d6000803e3d6000fd5b505050506040513d601f19601f820116820180604052508101906125de9190614c46565b885b91509150610e3682856040015183613ac4565b4290565b806001600160a01b03166347535d7b6040518163ffffffff1660e01b815260040160206040518083038186803b15801561263057600080fd5b505afa158015612644573d6000803e3d6000fd5b505050506040513d601f19601f820116820180604052508101906126689190614f6f565b6126845760405162461bcd60e51b815260040161050290615744565b50565b6000612691613e81565b905090565b61269e614a6f565b61013454604051631e81ac3360e01b81526000916001600160a01b031690631e81ac33906126d290879087906004016154b3565b606060405180830381600087803b1580156126ec57600080fd5b505af1158015612700573d6000803e3d6000fd5b505050506040513d601f19601f820116820180604052508101906127249190615067565b9250905080156127875761273b84611b5a83613eb1565b826001600160a01b0316846001600160a01b03167f733330d4aad1a878654bf888817b79bc6478013399be29fa3b8845c81305249e8360405161277e91906155b1565b60405180910390a35b610136548251604051632e4586c360e01b81526001600160a01b0390921691632e4586c3916127bc91889188916004016154cd565b600060405180830381600087803b1580156127d657600080fd5b505af11580156127ea573d6000803e3d6000fd5b505050505092915050565b6000806128028484613d9e565b9050806128215760405162461bcd60e51b815260040161050290615a53565b9392505050565b6000808212156128485761284361283e83613eb1565b613edd565b610f8b565b610f8b82613edd565b612859614a89565b610134546040805160e08101825284516001600160a01b0390811682526020808701518216908301528583015115158284015260608087015115159083015260808087015115159083015260a0808701519083015260c08087015182169083015291516310c5328760e21b81526000939290921691634314ca1c916128e091600401615c1e565b61014060405180830381600087803b1580156128fb57600080fd5b505af115801561290f573d6000803e3d6000fd5b505050506040513d601f19601f8201168201806040525081019061293391906153b3565b6101375460a0820151919250612958916001600160a01b0390911690611b5a9061344d565b61299183600001518460200151836040015161298561297a866080015161344d565b606087015190613f34565b8560c001516000613f99565b60c0810151156129e8576129bf6129ba6129a961400e565b85516129b49061408c565b9061410e565b61344d565b83516129ca90610eed565b12156129e85760405162461bcd60e51b815260040161050290615a73565b82608001516129fc5782516129fc90613785565b6000612a1084600001518560200151614123565b9050612a3e84600001518560200151846040015185606001518660800151868860c001518960e001516136f3565b5092915050565b600081612a525782612821565b6101325460408051633a14199b60e11b81529051612821926001600160a01b0316916374283336916004808301926020929190829003018186803b158015612a9957600080fd5b505afa158015612aad573d6000803e3d6000fd5b505050506040513d601f19601f82011682018060405250810190612ad19190615462565b849061410e565b6080810151612ae657612684565b805115612b5157806020015115612b2457806080015181606001511015612b1f5760405162461bcd60e51b8152600401610502906159cb565b612b4c565b806080015181604001511115612b4c5760405162461bcd60e51b815260040161050290615723565b612684565b806020015115612b8357806080015181604001511015612b4c5760405162461bcd60e51b815260040161050290615968565b8060800151816060015111156126845760405162461bcd60e51b8152600401610502906157a6565b80156126845760405181907f09a07769667a46c2b89124a4d731c76fb5203061073aec16319ba9c6a79a324890600090a250565b6000806000612bf184600001516125f7565b612bff8585600001516133c0565b612c0d858560000151612696565b506000612c816040518060e00160405280886001600160a01b0316815260200187600001516001600160a01b03168152602001876020015115158152602001876040015115158152602001600015158152602001876060015181526020018760c001516001600160a01b0316815250612851565b9050612cca6040518060a0016040528087602001511515815260200187604001511515815260200183600001518152602001836020015181526020018760800151815250612ad8565b612cd78560e00151612bab565b805160208201516080909201519097919650945092505050565b3b151590565b6000612d0230612cf1565b15905090565b612d1a826001600160a01b0316612cf1565b8190612d395760405162461bcd60e51b8152600401610502919061564e565b505050565b600054610100900460ff1680612d575750612d57612cf7565b80612d65575060005460ff16155b612da05760405162461bcd60e51b815260040180806020018281038252602e815260200180615dae602e913960400191505060405180910390fd5b600054610100900460ff16158015612dcb576000805460ff1961ff0019909116610100171660011790555b612dd3614157565b8015612684576000805461ff001916905550565b600054610100900460ff1680612e005750612e00612cf7565b80612e0e575060005460ff16155b612e495760405162461bcd60e51b815260040180806020018281038252602e815260200180615dae602e913960400191505060405180910390fd5b600054610100900460ff16158015612e74576000805460ff1961ff0019909116610100171660011790555b612e7c6141fc565b612dd36142eb565b612e8c610f91565b612ed4576040805162461bcd60e51b815260206004820152601460248201527314185d5cd8589b194e881b9bdd081c185d5cd95960621b604482015290519081900360640190fd5b6099805460ff191690557f5db9ee0a495bf2e6ff9c91a7834c1ba4fdd244a5e8aa4e537bd38aeae4b073aa612f07612687565b604080516001600160a01b039092168252519081900360200190a1565b60006128218360ff601285900316600a0a6134ad565b612f43826125f7565b6101365460405163659e3dc760e11b81526001600160a01b039091169063cb3c7b8e90612f7490869060040161549f565b60206040518083038186803b158015612f8c57600080fd5b505afa158015612fa0573d6000803e3d6000fd5b505050506040513d601f19601f82011682018060405250810190612fc49190614f6f565b15612fe15760405162461bcd60e51b81526004016105029061586b565b612fea83614388565b6130065760405162461bcd60e51b8152600401610502906156e4565b600061301284846127f5565b9050600061302082846134ad565b121561303e5760405162461bcd60e51b81526004016105029061584b565b6000613048612687565b905061305481856133c0565b61305e8585612696565b506130698185612696565b50600061307586610eed565b9050600080613086888885896143a3565b91509150613099888884846000806139b8565b60006130af6130a661400e565b6129b484612828565b90506130be89611b5a83613499565b610137546001600160a01b031660006130d883600261450e565b90506000808712156130ec57839150613105565b6130f68483614575565b905061310583611b5a8361344d565b60006131108d610eed565b9050600081121561319657600061316a61013160149054906101000a900460ff16866001600160a01b031663213037c46040518163ffffffff1660e01b815260040160206040518083038186803b158015610f4d57600080fd5b905061317582613eb1565b8112156131945760405162461bcd60e51b81526004016105029061588f565b505b5060006131a287613eb1565b905060006131c16131b28561344d565b6131bb89613eb1565b906145d2565b90506131d28a8e84846000806139b8565b6131db8a613785565b8c6001600160a01b03168e6001600160a01b03167fd9aced30440caca81570436bc942f816cfd95a3f08f700a2aeb6334c7cb5b4976132198a612828565b6132228c612828565b8a8f6040516132349493929190615c89565b60405180910390a36132458e613e22565b5050505050505050505050505050565b61325e826125f7565b805161326957612d39565b60006132fb8461013260009054906101000a90046001600160a01b03166001600160a01b031663a85494026040518163ffffffff1660e01b815260040160206040518083038186803b1580156132be57600080fd5b505afa1580156132d2573d6000803e3d6000fd5b505050506040513d601f19601f820116820180604052508101906132f69190615462565b614637565b128061330b575061330b83614388565b6133275760405162461bcd60e51b815260040161050290615a11565b6133318383612696565b50612d39838383613b60565b613345610f91565b1561338a576040805162461bcd60e51b815260206004820152601060248201526f14185d5cd8589b194e881c185d5cd95960821b604482015290519081900360640190fd5b6099805460ff191660011790557f62e78cea01bee320cd4e420270b5ea74000d11b0c9f74754ebdbfc544b05a258612f07612687565b61013654604051633f1cdc8560e21b81526001600160a01b039091169063fc737214906133f390859085906004016154b3565b600060405180830381600087803b15801561340d57600080fd5b505af115801561213d573d6000803e3d6000fd5b8284101580156134315750808210155b6124535760405162461bcd60e51b815260040161050290615809565b60006001600160ff1b038211156134955760405162461bcd60e51b8152600401808060200182810382526028815260200180615e446028913960400191505060405180910390fd5b5090565b60006134a48261344d565b60000392915050565b6000826134bc57506000610f8b565b826000191480156134d05750600160ff1b82145b1561350c5760405162461bcd60e51b8152600401808060200182810382526027815260200180615e1d6027913960400191505060405180910390fd5b8282028284828161351957fe5b05146128215760405162461bcd60e51b8152600401808060200182810382526027815260200180615e1d6027913960400191505060405180910390fd5b6000816135aa576040805162461bcd60e51b815260206004820181905260248201527f5369676e6564536166654d6174683a206469766973696f6e206279207a65726f604482015290519081900360640190fd5b816000191480156135be5750600160ff1b83145b156135fa5760405162461bcd60e51b8152600401808060200182810382526021815260200180615ddc6021913960400191505060405180910390fd5b600082848161360557fe5b05949350505050565b604080516bffffffffffffffffffffffff19606096871b81166020808401919091529590961b9095166034860152600292830b60e890811b60488701529190920b901b604b8401528051602e818503018152604e9093019052815191012090565b610134546040516399e4a77160e01b81526000916001600160a01b0316906399e4a771906136a39085908590600401615569565b60206040518083038186803b1580156136bb57600080fd5b505afa1580156136cf573d6000803e3d6000fd5b505050506040513d601f19601f82011682018060405250810190610f8b9190614c46565b866001600160a01b0316886001600160a01b03167f968bc4f738eae0486dc6736c4b427dbafa4acfdf6eaf223337791ddeb3a5624788888888888860405161374096959493929190615626565b60405180910390a35050505050505050565b6101365460405163874044f360e01b81526001600160a01b039091169063874044f3906133f39085908590600401615550565b60006137da8261013260009054906101000a90046001600160a01b03166001600160a01b031663543ce73a6040518163ffffffff1660e01b815260040160206040518083038186803b1580156132be57600080fd5b12156126845760405162461bcd60e51b8152600401610502906157c7565b80600f81900b8114610ee85760405162461bcd60e51b8152600401808060200182810382526027815260200180615d666027913960400191505060405180910390fd5b866001600160a01b0316886001600160a01b03168a6001600160a01b03167fcb47d8bf351d355bdd5497973533eada41777b4509f2585a62ae246336ebaa94898989898989604051613892969594939291906155d0565b60405180910390a4505050505050505050565b610135546040516321b499f560e11b81526060916001600160a01b03169063436933ea906138d990869086906004016154b3565b60006040518083038186803b1580156138f157600080fd5b505afa158015613905573d6000803e3d6000fd5b505050506040513d6000823e601f3d908101601f191682016040526128219190810190614ed0565b613935614ae1565b61013554604051635b778b9d60e01b81526001600160a01b0390911690635b778b9d90613966908590600401615ba6565b60a060405180830381600087803b15801561398057600080fd5b505af1158015613994573d6000803e3d6000fd5b505050506040513d601f19601f82011682018060405250810190610f8b91906152c2565b60008415613a675761013454604080516080810182526001600160a01b038a811682528981166020830152818301899052606082018890529151631393a46960e01b81529190921691631393a46991613a149190600401615b6d565b60206040518083038186803b158015613a2c57600080fd5b505afa158015613a40573d6000803e3d6000fd5b505050506040513d601f19601f82011682018060405250810190613a649190614fa7565b90505b613a7d8787878785613a788961344d565b613f99565b613aa78787878786613a8f8d8d614123565b87613a998e61366f565b6001600160a01b03166136f3565b50505050505050565b60006134a4826001600160801b03166137f8565b60405163a9059cbb60e01b81526001600160a01b0384169063a9059cbb90613af29085908590600401615550565b602060405180830381600087803b158015613b0c57600080fd5b505af1158015613b20573d6000803e3d6000fd5b505050506040513d601f19601f82011682018060405250810190613b449190614f6f565b612d395760405162461bcd60e51b81526004016105029061592a565b613b68614ae1565b815160005b81811015613d82576101355484516000916001600160a01b03169063acf7182790879085908110613b9a57fe5b60200260200101516040518263ffffffff1660e01b8152600401613bbe91906155b1565b6101206040518083038186803b158015613bd757600080fd5b505afa158015613beb573d6000803e3d6000fd5b505050506040513d601f19601f82011682018060405250810190613c0f91906151ab565b9050848281518110613c1d57fe5b6020026020010151613c3988888460200151856040015161360e565b14613c565760405162461bcd60e51b815260040161050290615785565b6000613cb46040518060a001604052808a6001600160a01b03168152602001896001600160a01b03168152602001846020015160020b8152602001846040015160020b815260200184600001516001600160801b031681525061392d565b80518651919250613cc5919061466b565b855260208082015190860151613cda9161466b565b602086015260408082015190860151613cf29161466b565b604086015260608082015190860151613d0a916145d2565b606086015260808082015190860151613d22916145d2565b608086015261013054602083015160408401518351613d78938c938c936001600160a01b0390921692909190613d5790613499565b613d648860200151613499565b8951611bd4906001600160801b0316613ab0565b5050600101613b6d565b5061213f858584606001518560800151866040015160006139b8565b6101365460405163165c4e2960e31b81526000916001600160a01b03169063b2e2714890613dd290869086906004016154b3565b60206040518083038186803b158015613dea57600080fd5b505afa158015613dfe573d6000803e3d6000fd5b505050506040513d601f19601f820116820180604052508101906128219190614fa7565b61013354604051630640267b60e51b81526001600160a01b039091169063c804cf6090613e5390849060040161549f565b600060405180830381600087803b158015613e6d57600080fd5b505af115801561213f573d6000803e3d6000fd5b600060143610801590613e985750613e9833610ed6565b15613eac575060131936013560601c61094e565b503390565b6000600160ff1b8213613ed65760405162461bcd60e51b8152600401610502906158d3565b5060000390565b600080821215613495576040805162461bcd60e51b815260206004820181905260248201527f53616665436173743a2076616c7565206d75737420626520706f736974697665604482015290519081900360640190fd5b6000818303818312801590613f495750838113155b80613f5e5750600083128015613f5e57508381135b6128215760405162461bcd60e51b8152600401808060200182810382526024815260200180615e6c6024913960400191505060405180910390fd5b610136546040516389f9217760e01b81526001600160a01b03909116906389f9217790613fd49089908990899089908990899060040161551a565b600060405180830381600087803b158015613fee57600080fd5b505af1158015614002573d6000803e3d6000fd5b50505050505050505050565b610132546040805163fedf924b60e01b815290516000926001600160a01b03169163fedf924b916004808301926020929190829003018186803b15801561405457600080fd5b505afa158015614068573d6000803e3d6000fd5b505050506040513d601f19601f820116820180604052508101906126919190615462565b61013654604051633666e41760e11b81526000916001600160a01b031690636ccdc82e906140be90859060040161549f565b60206040518083038186803b1580156140d657600080fd5b505afa1580156140ea573d6000803e3d6000fd5b505050506040513d601f19601f82011682018060405250810190610f8b9190614fa7565b6000612821838362ffffff16620f42406146c5565b6101365460405163d50d01b760e01b81526000916001600160a01b03169063d50d01b790613dd290869086906004016154b3565b600054610100900460ff16806141705750614170612cf7565b8061417e575060005460ff16155b6141b95760405162461bcd60e51b815260040180806020018281038252602e815260200180615dae602e913960400191505060405180910390fd5b600054610100900460ff161580156141e4576000805460ff1961ff0019909116610100171660011790555b600180558015612684576000805461ff001916905550565b600054610100900460ff16806142155750614215612cf7565b80614223575060005460ff16155b61425e5760405162461bcd60e51b815260040180806020018281038252602e815260200180615dae602e913960400191505060405180910390fd5b600054610100900460ff16158015614289576000805460ff1961ff0019909116610100171660011790555b614291614774565b600061429b612687565b606580546001600160a01b0319166001600160a01b03831690811790915560405191925090600090600080516020615dfd833981519152908290a3508015612684576000805461ff001916905550565b600054610100900460ff16806143045750614304612cf7565b80614312575060005460ff16155b61434d5760405162461bcd60e51b815260040180806020018281038252602e815260200180615dae602e913960400191505060405180910390fd5b600054610100900460ff16158015614378576000805460ff1961ff0019909116610100171660011790555b614380614805565b612dd36148a5565b600061439382614950565b61439c83610eed565b1292915050565b6101365460405163041216fb60e21b8152600091829182916001600160a01b0316906310485bec906143dd908a908a908a906004016154cd565b60206040518083038186803b1580156143f557600080fd5b505afa158015614409573d6000803e3d6000fd5b505050506040513d601f19601f8201168201806040525081019061442d9190614fa7565b905061443881612828565b61444185612828565b118061444b575083155b15614454578093505b600061445f85613eb1565b6101365460405163175be70560e21b81529192506000916144fe916144ee916001600160a01b0390911690635d6f9c149061449e908d9060040161549f565b60206040518083038186803b1580156144b657600080fd5b505afa1580156144ca573d6000803e3d6000fd5b505050506040513d601f19601f820116820180604052508101906129ba9190614fa7565b8790670de0b6b3a7640000614982565b9199919850909650505050505050565b6000808211614564576040805162461bcd60e51b815260206004820152601a60248201527f536166654d6174683a206469766973696f6e206279207a65726f000000000000604482015290519081900360640190fd5b81838161456d57fe5b049392505050565b6000828211156145cc576040805162461bcd60e51b815260206004820152601e60248201527f536166654d6174683a207375627472616374696f6e206f766572666c6f770000604482015290519081900360640190fd5b50900390565b60008282018183128015906145e75750838112155b806145fc57506000831280156145fc57508381125b6128215760405162461bcd60e51b8152600401808060200182810382526021815260200180615d8d6021913960400191505060405180910390fd5b61013354604051633ffd130360e01b81526000916001600160a01b031690633ffd130390613dd29086908690600401615588565b600082820183811015612821576040805162461bcd60e51b815260206004820152601b60248201527f536166654d6174683a206164646974696f6e206f766572666c6f770000000000604482015290519081900360640190fd5b60008080600019858709868602925082811090839003039050806146fb57600084116146f057600080fd5b508290049050612821565b80841161470757600080fd5b6000848688096000868103871696879004966002600389028118808a02820302808a02820302808a02820302808a02820302808a02820302808a02909103029181900381900460010186841190950394909402919094039290920491909117919091029150509392505050565b600054610100900460ff168061478d575061478d612cf7565b8061479b575060005460ff16155b6147d65760405162461bcd60e51b815260040180806020018281038252602e815260200180615dae602e913960400191505060405180910390fd5b600054610100900460ff16158015614801576000805460ff1961ff0019909116610100171660011790555b612dd35b600054610100900460ff168061481e575061481e612cf7565b8061482c575060005460ff16155b6148675760405162461bcd60e51b815260040180806020018281038252602e815260200180615dae602e913960400191505060405180910390fd5b600054610100900460ff16158015612dd3576000805460ff1961ff0019909116610100171660011790558015612684576000805461ff001916905550565b600054610100900460ff16806148be57506148be612cf7565b806148cc575060005460ff16155b6149075760405162461bcd60e51b815260040180806020018281038252602e815260200180615dae602e913960400191505060405180910390fd5b600054610100900460ff16158015614932576000805460ff1961ff0019909116610100171660011790555b6099805460ff191690558015612684576000805461ff001916905550565b6101365460405163f75c266d60e01b81526000916001600160a01b03169063f75c266d906140be90859060040161549f565b60008060008512614993578461499c565b61499c85613eb1565b905060008085126149ad57846149b6565b6149b685613eb1565b9050600080871280156149c95750600086135b806149df57506000871380156149df5750600086125b6149ea5760006149ed565b60015b905060006149fc8484886146c5565b905081614a1157614a0c8161344d565b614a1a565b614a1a81613499565b98975050505050505050565b6040518060800160405280600081526020016000815260200160008152602001600081525090565b60405180606001604052806000815260200160008152602001600081525090565b604051806040016040528060008152602001600081525090565b6040518061014001604052806000815260200160008152602001600081526020016000815260200160008152602001600081526020016000815260200160008152602001600060020b81526020016000151581525090565b6040518060a0016040528060008152602001600081526020016000815260200160008152602001600081525090565b8035610ee881615ced565b8035610ee881615d02565b8051610ee881615d02565b60008083601f840112614b42578182fd5b5081356001600160401b03811115614b58578182fd5b60208301915083602082850101111561233257600080fd5b8051610ee881615d10565b6000610100808385031215614b8e578182fd5b604051908101906001600160401b0382118183101715614baa57fe5b81604052809250614bba84614b10565b8152614bc860208501614b1b565b6020820152614bd960408501614b1b565b6040820152606084013560608201526080840135608082015260a084013560a0820152614c0860c08501614b10565b60c082015260e084013560e0820152505092915050565b8051610ee881615d1f565b600060208284031215614c3b578081fd5b813561282181615ced565b600060208284031215614c57578081fd5b815161282181615ced565b60008060408385031215614c74578081fd5b8235614c7f81615ced565b91506020830135614c8f81615ced565b809150509250929050565b600080600080600080600060e0888a031215614cb4578283fd5b8735614cbf81615ced565b96506020880135614ccf81615ced565b95506040880135614cdf81615ced565b94506060880135614cef81615ced565b93506080880135614cff81615ced565b925060a0880135614d0f81615ced565b915060c0880135614d1f81615ced565b8091505092959891949750929550565b60008060008060608587031215614d44578182fd5b8435614d4f81615ced565b93506020850135614d5f81615ced565b925060408501356001600160401b0380821115614d7a578384fd5b818701915087601f830112614d8d578384fd5b813581811115614d9b578485fd5b8860208083028501011115614dae578485fd5b95989497505060200194505050565b600080600060608486031215614dd1578081fd5b8335614ddc81615ced565b92506020840135614dec81615ced565b929592945050506040919091013590565b6000806101208385031215614e10578182fd5b8235614e1b81615ced565b9150614e2a8460208501614b7b565b90509250929050565b60006020808385031215614e45578182fd5b82516001600160401b03811115614e5a578283fd5b8301601f81018513614e6a578283fd5b8051614e7d614e7882615cd0565b615cad565b8181528381019083850185840285018601891015614e99578687fd5b8694505b83851015614ec4578051614eb081615ced565b835260019490940193918501918501614e9d565b50979650505050505050565b60006020808385031215614ee2578182fd5b82516001600160401b03811115614ef7578283fd5b8301601f81018513614f07578283fd5b8051614f15614e7882615cd0565b8181528381019083850185840285018601891015614f31578687fd5b8694505b83851015614ec4578051835260019490940193918501918501614f35565b600060208284031215614f64578081fd5b813561282181615d02565b600060208284031215614f80578081fd5b815161282181615d02565b600060208284031215614f9c578081fd5b813561282181615d10565b600060208284031215614fb8578081fd5b5051919050565b60008060408385031215614fd1578182fd5b505080516020909101519092909150565b60008060008060608587031215614ff7578182fd5b843593506020850135925060408501356001600160401b0381111561501a578283fd5b61502687828801614b31565b95989497509550505050565b60008060008060808587031215615047578182fd5b505082516020840151604085015160609095015191969095509092509050565b600080828403606081121561507a578283fd5b835192506040601f198201121561508f578182fd5b50604051604081018181106001600160401b03821117156150ac57fe5b60409081526020858101518352940151938101939093525092909150565b600061012082840312156150dc578081fd5b50919050565b6000608082840312156150f3578081fd5b604051608081018181106001600160401b038211171561510f57fe5b8060405250825181526020830151602082015260408301516040820152606083015161513a81615d1f565b60608201529392505050565b600060a082840312156150dc578081fd5b600060608284031215615168578081fd5b604051606081018181106001600160401b038211171561518457fe5b80604052508251815260208301516020820152604083015160408201528091505092915050565b60006101208083850312156151be578182fd5b6151c781615cad565b90506151d283614c1f565b81526151e060208401614b70565b60208201526151f160408401614b70565b6040820152606083015160608201526080830151608082015260a083015160a082015260c083015160c082015260e083015160e08201526101008084015181830152508091505092915050565b60006040828403121561524f578081fd5b604051604081018181106001600160401b038211171561526b57fe5b604052823561527981615ced565b8152602083013561528981615ced565b60208201529392505050565b600061010082840312156152a7578081fd5b6128218383614b7b565b600060e082840312156150dc578081fd5b600060a082840312156152d3578081fd5b60405160a081018181106001600160401b03821117156152ef57fe5b806040525082518152602083015160208201526040830151604082015260608301516060820152608083015160808201528091505092915050565b600060a0828403121561533b578081fd5b60405160a081018181106001600160401b038211171561535757fe5b604052823561536581615ced565b8152602083013561537581615ced565b6020820152604083013561538881615ced565b6040820152606083013561539b81615d34565b60608201526080928301359281019290925250919050565b60006101408083850312156153c6578182fd5b6153cf81615cad565b9050825181526020830151602082015260408301516040820152606083015160608201526080830151608082015260a083015160a082015260c083015160c082015260e083015160e0820152610100615429818501614b70565b9082015261012061543b848201614b26565b908201529392505050565b600060208284031215615457578081fd5b813561282181615d1f565b600060208284031215615473578081fd5b815161282181615d34565b60006020828403121561548f578081fd5b815160ff81168114612821578182fd5b6001600160a01b0391909116815260200190565b6001600160a01b0392831681529116602082015260400190565b6001600160a01b039384168152919092166020820152604081019190915260600190565b6001600160a01b0394851681529290931660208301526040820152606081019190915260800190565b6001600160a01b03968716815294909516602085015260408401929092526060830152608082015260a081019190915260c00190565b6001600160a01b03929092168252602082015260400190565b6001600160a01b0392909216825263ffffffff16602082015260400190565b6001600160a01b0392909216825262ffffff16602082015260400190565b901515815260200190565b90815260200190565b9283526020830191909152604082015260600190565b600296870b81529490950b602085015260408401929092526060830152600f0b608082015260a081019190915260c00190565b948552602085019390935260408401919091526060830152608082015260a00190565b958652602086019490945260408501929092526060840152608083015260a082015260c00190565b6000602080835283518082850152825b8181101561567a5785810183015185820160400152820161565e565b8181111561568b5783604083870101525b50601f01601f1916929092016040019392505050565b60208082526007908201526643485f4f4d505360c81b604082015260600190565b60208082526008908201526708690bea2889c62760c31b604082015260600190565b60208082526006908201526521a42fa2a0ab60d11b604082015260600190565b60208082526005908201526443485f4f4560d81b604082015260600190565b60208082526007908201526643485f544d525360c81b604082015260600190565b60208082526006908201526543485f4d4e4f60d01b604082015260600190565b60208082526007908201526610d217d3d593d560ca1b604082015260600190565b60208082526007908201526643485f4f4e424d60c81b604082015260600190565b60208082526007908201526610d217d513549360ca1b604082015260600190565b60208082526008908201526743485f4e4546434960c01b604082015260600190565b60208082526006908201526543485f46305360d01b604082015260600190565b60208082526007908201526621a42fa829a1a360c91b604082015260600190565b60208082526007908201526621a42fa22aaa2160c91b604082015260600190565b60208082526006908201526510d217d5d31160d21b604082015260600190565b6020808252600a908201526943485f434c575449534f60b01b604082015260600190565b60208082526006908201526543485f49494360d01b604082015260600190565b6020808252600a908201526910d217d4d2139053d41560b21b604082015260600190565b6020808252601c908201527f506572704d6174683a20696e76657273696f6e206f766572666c6f7700000000604082015260600190565b60208082526006908201526521a42fa727a160d11b604082015260600190565b60208082526005908201526421a42faa2360d91b604082015260600190565b60208082526005908201526443485f544560d81b604082015260600190565b60208082526007908201526610d217d513149360ca1b604082015260600190565b60208082526007908201526643485f54424e4560c81b604082015260600190565b60208082526007908201526643485f54514e4560c81b604082015260600190565b60208082526007908201526643485f544c525360c81b604082015260600190565b6020808252600b908201526a043485f43414c57524654560ac1b604082015260600190565b60208082526007908201526643485f4e45584f60c81b604082015260600190565b60208082526007908201526643485f44414e4360c81b604082015260600190565b60208082526006908201526521a42fa829ad60d11b604082015260600190565b60208082526008908201526743485f4e454d524d60c01b604082015260600190565b602080825260059082015264043485f4d560dc1b604082015260600190565b60208082526006908201526543485f4d4e4360d01b604082015260600190565b60006101008201905060018060a01b03808451168352806020850151166020840152506040830151604083015260608301516060830152608083015160020b608083015260a083015160020b60a083015260c0830151805160c0840152602081015160e08401525092915050565b8151815260208083015190820152604080830151908201526060918201519181019190915260800190565b81516001600160a01b03908116825260208084015190911690820152604080830151908201526060918201519181019190915260800190565b81516001600160a01b03908116825260208084015190911690820152604080830151600290810b9183019190915260608084015190910b908201526080918201516001600160801b03169181019190915260a00190565b81518152602080830151908201526040918201519181019190915260600190565b81516001600160a01b03908116825260208084015182169083015260408084015115159083015260608084015115159083015260808084015115159083015260a0838101519083015260c092830151169181019190915260e00190565b918252602082015260400190565b938452602084019290925260408301526001600160a01b0316606082015260800190565b6040518181016001600160401b0381118282101715615cc857fe5b604052919050565b60006001600160401b03821115615ce357fe5b5060209081020190565b6001600160a01b038116811461268457600080fd5b801515811461268457600080fd5b8060020b811461268457600080fd5b6001600160801b038116811461268457600080fd5b62ffffff8116811461268457600080fdfe5265656e7472616e637947756172643a207265656e7472616e742063616c6c0053616665436173743a2076616c756520646f65736e27742066697420696e2031323820626974735369676e6564536166654d6174683a206164646974696f6e206f766572666c6f77496e697469616c697a61626c653a20636f6e747261637420697320616c726561647920696e697469616c697a65645369676e6564536166654d6174683a206469766973696f6e206f766572666c6f778be0079c531659141344cd1fd0a4f28419497f9722a3daafe3b4186f6b6457e05369676e6564536166654d6174683a206d756c7469706c69636174696f6e206f766572666c6f7753616665436173743a2076616c756520646f65736e27742066697420696e20616e20696e743235365369676e6564536166654d6174683a207375627472616374696f6e206f766572666c6f77a2646970667358221220a90508724f7890e9499bcfcbfe48f45e43be0c32a3fe719850cb2d36079dd7ff64736f6c63430007060033",
  "linkReferences": {},
  "deployedLinkReferences": {}
}