{
  "_format": "hh-sol-artifact-1",
  "contractName": "BandPriceFeed",
  "sourceName": "@perp/perp-oracle-contract/contracts/BandPriceFeed.sol",
  "abi": [
    {
      "inputs": [
        {
          "internalType": "contract IStdReference",
          "name": "stdRefArg",
          "type": "address"
        },
        {
          "internalType": "string",
          "name": "baseAssetArg",
          "type": "string"
        },
        {
          "internalType": "uint80",
          "name": "cacheTwapInterval",
          "type": "uint80"
        }
      ],
      "stateMutability": "nonpayable",
      "type": "constructor"
    },
    {
      "anonymous": false,
      "inputs": [
        {
          "indexed": false,
          "internalType": "uint256",
          "name": "price",
          "type": "uint256"
        },
        {
          "indexed": false,
          "internalType": "uint256",
          "name": "timestamp",
          "type": "uint256"
        },
        {
          "indexed": false,
          "internalType": "uint8",
          "name": "indexAt",
          "type": "uint8"
        }
      ],
      "name": "PriceUpdated",
      "type": "event"
    },
    {
      "inputs": [],
      "name": "QUOTE_ASSET",
      "outputs": [
        {
          "internalType": "string",
          "name": "",
          "type": "string"
        }
      ],
      "stateMutability": "view",
      "type": "function"
    },
    {
      "inputs": [],
      "name": "baseAsset",
      "outputs": [
        {
          "internalType": "string",
          "name": "",
          "type": "string"
        }
      ],
      "stateMutability": "view",
      "type": "function"
    },
    {
      "inputs": [
        {
          "internalType": "uint256",
          "name": "interval",
          "type": "uint256"
        }
      ],
      "name": "cacheTwap",
      "outputs": [
        {
          "internalType": "uint256",
          "name": "",
          "type": "uint256"
        }
      ],
      "stateMutability": "nonpayable",
      "type": "function"
    },
    {
      "inputs": [],
      "name": "currentObservationIndex",
      "outputs": [
        {
          "internalType": "uint8",
          "name": "",
          "type": "uint8"
        }
      ],
      "stateMutability": "view",
      "type": "function"
    },
    {
      "inputs": [],
      "name": "decimals",
      "outputs": [
        {
          "internalType": "uint8",
          "name": "",
          "type": "uint8"
        }
      ],
      "stateMutability": "pure",
      "type": "function"
    },
    {
      "inputs": [
        {
          "internalType": "uint256",
          "name": "interval",
          "type": "uint256"
        }
      ],
      "name": "getPrice",
      "outputs": [
        {
          "internalType": "uint256",
          "name": "",
          "type": "uint256"
        }
      ],
      "stateMutability": "view",
      "type": "function"
    },
    {
      "inputs": [
        {
          "internalType": "uint256",
          "name": "",
          "type": "uint256"
        }
      ],
      "name": "observations",
      "outputs": [
        {
          "internalType": "uint256",
          "name": "price",
          "type": "uint256"
        },
        {
          "internalType": "uint256",
          "name": "priceCumulative",
          "type": "uint256"
        },
        {
          "internalType": "uint256",
          "name": "timestamp",
          "type": "uint256"
        }
      ],
      "stateMutability": "view",
      "type": "function"
    },
    {
      "inputs": [],
      "name": "stdRef",
      "outputs": [
        {
          "internalType": "contract IStdReference",
          "name": "",
          "type": "address"
        }
      ],
      "stateMutability": "view",
      "type": "function"
    },
    {
      "inputs": [],
      "name": "update",
      "outputs": [],
      "stateMutability": "nonpayable",
      "type": "function"
    }
  ],
  "bytecode": "0x60806040523480156200001157600080fd5b50604051620010c2380380620010c28339810160408190526200003491620001ab565b6103028054600160a01b600160f01b031916600160a01b6001600160501b03841602179055620000796001600160a01b038416620000dd602090811b620002b817901c565b620000a15760405162461bcd60e51b815260040162000098906200029f565b60405180910390fd5b61030480546001600160a01b0319166001600160a01b0385161790558151620000d390610303906020850190620000e7565b50505050620002c0565b803b15155b919050565b828054600181600116156101000203166002900490600052602060002090601f0160209004810192826200011f57600085556200016a565b82601f106200013a57805160ff19168380011785556200016a565b828001600101855582156200016a579182015b828111156200016a5782518255916020019190600101906200014d565b50620001789291506200017c565b5090565b5b808211156200017857600081556001016200017d565b80516001600160501b0381168114620000e257600080fd5b600080600060608486031215620001c0578283fd5b83516001600160a01b0381168114620001d7578384fd5b602085810151919450906001600160401b0380821115620001f6578485fd5b818701915087601f8301126200020a578485fd5b8151818111156200021757fe5b604051601f8201601f19168101850183811182821017156200023557fe5b60405281815283820185018a10156200024c578687fd5b8692505b818310156200026f578383018501518184018601529184019162000250565b818311156200028057868583830101525b8096505050505050620002966040850162000193565b90509250925092565b6020808252600790820152664250465f414e4360c81b604082015260600190565b610df280620002d06000396000f3fe608060405234801561001057600080fd5b50600436106100835760003560e01c80631d1a111a14610088578063252c09d7146100b1578063313ce567146100d35780635368945b146100e8578063a2e62045146100fd578063aed3aff714610107578063cdf456e11461010f578063e757223014610124578063f06a1e1314610137575b600080fd5b61009b610096366004610b62565b61013f565b6040516100a89190610d49565b60405180910390f35b6100c46100bf366004610b62565b610175565b6040516100a893929190610d6b565b6100db61019d565b6040516100a89190610d81565b6100f06101a2565b6040516100a89190610bc5565b6101056101b2565b005b6100db6101d3565b6101176101dd565b6040516100a89190610bd9565b61009b610132366004610b62565b61026c565b610117610299565b60008061014a6102be565b90508261015957519050610170565b61016c83826000015183602001516103d8565b9150505b919050565b600081610100811061018657600080fd5b600302018054600182015460029092015490925083565b601290565b610304546001600160a01b031681565b60006101bc6102be565b90506101d08160000151826020015161047d565b50565b6103005460ff1681565b610303805460408051602060026001851615610100026000190190941693909304601f810184900484028201840190925281815292918301828280156102645780601f1061023957610100808354040283529160200191610264565b820191906000526020600020905b81548152906001019060200180831161024757829003601f168201915b505050505081565b6000806102776102be565b90508261028657519050610170565b61016c8382600001518360200151610629565b604051806040016040528060038152602001621554d160ea1b81525081565b3b151590565b6102c6610aec565b6103045460408051808201825260038152621554d160ea1b6020820152905163195556f360e21b81526000926001600160a01b0316916365555bcc916103129161030391600401610bec565b60606040518083038186803b15801561032a57600080fd5b505afa15801561033e573d6000803e3d6000fd5b505050506040513d601f19601f820116820180604052508101906103629190610b0d565b905060008160400151116103915760405162461bcd60e51b815260040161038890610ca9565b60405180910390fd5b60008160200151116103b55760405162461bcd60e51b815260040161038890610cea565b80516103d35760405162461bcd60e51b815260040161038890610cca565b905090565b61030254600090600160a01b900469ffffffffffffffffffff16841461040a57610403848484610685565b9050610476565b610302546001600160a01b031661041f61081c565b141561042f575061030154610476565b610439838361047d565b61044161081c565b61030280546001600160a01b0319166001600160a01b039290921691909117905561046d848484610685565b61030181905590505b9392505050565b6103005460ff161580156104915750600254155b156104fd57604080516060810182528381526000602082018190529082018390528381556001819055600283905590517f5f4a9a1b73bee700ca1fb203bb004bcc0a7eca48af3f147b24dcf5bf4bf3c00b916104f09185918591610d52565b60405180910390a1610625565b61030054600090819060ff16610100811061051457fe5b6040805160608101825260039290920292909201805482526001810154602083015260020154918101829052915082116105605760405162461bcd60e51b815260040161038890610d0b565b610300805460ff198116600160ff928316018216179182905560408381015181516060810183528781528551602080880151938903918202909301928201929092529182018690529290916000911661010081106105ba57fe5b825160039190910291909101908155602082015160018201556040918201516002909101556103005490517f5f4a9a1b73bee700ca1fb203bb004bcc0a7eca48af3f147b24dcf5bf4bf3c00b9161061a918791879160ff90911690610d52565b60405180910390a150505b5050565b610302546000906001600160a01b031661064161081c565b148015610663575061030254600160a01b900469ffffffffffffffffffff1684145b15610672575061030154610476565b61067d848484610685565b949350505050565b610300546000908190819060ff16610100811061069e57fe5b60030201604051806060016040529081600082015481526020016001820154815260200160028201548152505090508060000151600014156106f25760405162461bcd60e51b815260040161038890610d2a565b60006106fc61081c565b9050600061070a8288610820565b905060008061071883610882565b9092509050600061076c610761610739610732888c610820565b8c906109d2565b61075b6107538a604001518d61082090919063ffffffff16565b8a51906109d2565b90610a2b565b602088015190610a2b565b905060008360400151851161078e5783604001519450836020015190506107fd565b848360400151116107ac5782604001519450826020015190506107fd565b60008460400151846040015103905060008560400151870390506107f8610761836107f2846107ec8b602001518b6020015161082090919063ffffffff16565b906109d2565b90610a85565b925050505b61080d8587036107f28484610820565b9b9a5050505050505050505050565b4290565b600082821115610877576040805162461bcd60e51b815260206004820152601e60248201527f536166654d6174683a207375627472616374696f6e206f766572666c6f770000604482015290519081900360640190fd5b508082035b92915050565b61088a610aec565b610892610aec565b6103005460ff16600080610100815b81811015610914578760008660ff1661010081106108bb57fe5b6003020160020154116109055760008560ff1661010081106108d957fe5b6003020160020154600014156108f757846001019350839250610914565b849350836001019250610914565b600019909401936001016108a1565b818114156109345760405162461bcd60e51b815260040161038890610c89565b60008460ff16610100811061094557fe5b600302016040518060600160405290816000820154815260200160018201548152602001600282015481525050965060008360ff16610100811061098557fe5b60030201604051806060016040529081600082015481526020016001820154815260200160028201548152505095508660400151866040015110156109c8578695505b5050505050915091565b6000826109e15750600061087c565b828202828482816109ee57fe5b04146104765760405162461bcd60e51b8152600401808060200182810382526021815260200180610d9c6021913960400191505060405180910390fd5b600082820183811015610476576040805162461bcd60e51b815260206004820152601b60248201527f536166654d6174683a206164646974696f6e206f766572666c6f770000000000604482015290519081900360640190fd5b6000808211610adb576040805162461bcd60e51b815260206004820152601a60248201527f536166654d6174683a206469766973696f6e206279207a65726f000000000000604482015290519081900360640190fd5b818381610ae457fe5b049392505050565b60405180606001604052806000815260200160008152602001600081525090565b600060608284031215610b1e578081fd5b6040516060810181811067ffffffffffffffff82111715610b3b57fe5b80604052508251815260208301516020820152604083015160408201528091505092915050565b600060208284031215610b73578081fd5b5035919050565b60008151808452815b81811015610b9f57602081850181015186830182015201610b83565b81811115610bb05782602083870101525b50601f01601f19169290920160200192915050565b6001600160a01b0391909116815260200190565b6000602082526104766020830184610b7a565b60006040820160408352818554600180821660008114610c135760018114610c3157610c6a565b60028304607f16855260ff1983166060880152608087019350610c6a565b60028304808652610c418a610d8f565b875b82811015610c605781548a82016060015290840190602001610c43565b8901606001955050505b5050508381036020850152610c7f8186610b7a565b9695505050505050565b602080825260069082015265086a8be9c8a960d31b604082015260600190565b6020808252600790820152662128232faa28ad60c91b604082015260600190565b60208082526006908201526504250465f49560d41b604082015260600190565b6020808252600790820152662128232faa212d60c91b604082015260600190565b60208082526005908201526410d517d25560da1b604082015260600190565b60208082526005908201526410d517d39160da1b604082015260600190565b90815260200190565b928352602083019190915260ff16604082015260600190565b9283526020830191909152604082015260600190565b60ff91909116815260200190565b6000908152602090209056fe536166654d6174683a206d756c7469706c69636174696f6e206f766572666c6f77a264697066735822122015a2fbff3c6feaa03d062902f94a2a62122cf5b524d12d7a25a11eed766e8c2664736f6c63430007060033",
  "linkReferences": {},
  "deployedLinkReferences": {}
}