{
  "_format": "hh-sol-artifact-1",
  "contractName": "TestWhitelistERC20",
  "sourceName": "contracts/test/TestWhitelistERC20.sol",
  "abi": [
    {
      "anonymous": false,
      "inputs": [
        {
          "indexed": true,
          "internalType": "address",
          "name": "owner",
          "type": "address"
        },
        {
          "indexed": true,
          "internalType": "address",
          "name": "spender",
          "type": "address"
        },
        {
          "indexed": false,
          "internalType": "uint256",
          "name": "value",
          "type": "uint256"
        }
      ],
      "name": "Approval",
      "type": "event"
    },
    {
      "anonymous": false,
      "inputs": [
        {
          "indexed": true,
          "internalType": "address",
          "name": "previousOwner",
          "type": "address"
        },
        {
          "indexed": true,
          "internalType": "address",
          "name": "newOwner",
          "type": "address"
        }
      ],
      "name": "OwnershipTransferred",
      "type": "event"
    },
    {
      "anonymous": false,
      "inputs": [
        {
          "indexed": false,
          "internalType": "address",
          "name": "account",
          "type": "address"
        }
      ],
      "name": "Paused",
      "type": "event"
    },
    {
      "anonymous": false,
      "inputs": [
        {
          "indexed": true,
          "internalType": "bytes32",
          "name": "role",
          "type": "bytes32"
        },
        {
          "indexed": true,
          "internalType": "bytes32",
          "name": "previousAdminRole",
          "type": "bytes32"
        },
        {
          "indexed": true,
          "internalType": "bytes32",
          "name": "newAdminRole",
          "type": "bytes32"
        }
      ],
      "name": "RoleAdminChanged",
      "type": "event"
    },
    {
      "anonymous": false,
      "inputs": [
        {
          "indexed": true,
          "internalType": "bytes32",
          "name": "role",
          "type": "bytes32"
        },
        {
          "indexed": true,
          "internalType": "address",
          "name": "account",
          "type": "address"
        },
        {
          "indexed": true,
          "internalType": "address",
          "name": "sender",
          "type": "address"
        }
      ],
      "name": "RoleGranted",
      "type": "event"
    },
    {
      "anonymous": false,
      "inputs": [
        {
          "indexed": true,
          "internalType": "bytes32",
          "name": "role",
          "type": "bytes32"
        },
        {
          "indexed": true,
          "internalType": "address",
          "name": "account",
          "type": "address"
        },
        {
          "indexed": true,
          "internalType": "address",
          "name": "sender",
          "type": "address"
        }
      ],
      "name": "RoleRevoked",
      "type": "event"
    },
    {
      "anonymous": false,
      "inputs": [
        {
          "indexed": true,
          "internalType": "address",
          "name": "from",
          "type": "address"
        },
        {
          "indexed": true,
          "internalType": "address",
          "name": "to",
          "type": "address"
        },
        {
          "indexed": false,
          "internalType": "uint256",
          "name": "value",
          "type": "uint256"
        }
      ],
      "name": "Transfer",
      "type": "event"
    },
    {
      "anonymous": false,
      "inputs": [
        {
          "indexed": false,
          "internalType": "address",
          "name": "account",
          "type": "address"
        }
      ],
      "name": "Unpaused",
      "type": "event"
    },
    {
      "inputs": [],
      "name": "DEFAULT_ADMIN_ROLE",
      "outputs": [
        {
          "internalType": "bytes32",
          "name": "",
          "type": "bytes32"
        }
      ],
      "stateMutability": "view",
      "type": "function"
    },
    {
      "inputs": [],
      "name": "MINTER_ROLE",
      "outputs": [
        {
          "internalType": "bytes32",
          "name": "",
          "type": "bytes32"
        }
      ],
      "stateMutability": "view",
      "type": "function"
    },
    {
      "inputs": [],
      "name": "PAUSER_ROLE",
      "outputs": [
        {
          "internalType": "bytes32",
          "name": "",
          "type": "bytes32"
        }
      ],
      "stateMutability": "view",
      "type": "function"
    },
    {
      "inputs": [
        {
          "internalType": "string",
          "name": "name",
          "type": "string"
        },
        {
          "internalType": "string",
          "name": "symbol",
          "type": "string"
        },
        {
          "internalType": "uint8",
          "name": "decimal",
          "type": "uint8"
        }
      ],
      "name": "__TestERC20_init",
      "outputs": [],
      "stateMutability": "nonpayable",
      "type": "function"
    },
    {
      "inputs": [
        {
          "internalType": "string",
          "name": "name",
          "type": "string"
        },
        {
          "internalType": "string",
          "name": "symbol",
          "type": "string"
        },
        {
          "internalType": "uint8",
          "name": "decimal",
          "type": "uint8"
        }
      ],
      "name": "__TestWhitelistERC20_init",
      "outputs": [],
      "stateMutability": "nonpayable",
      "type": "function"
    },
    {
      "inputs": [
        {
          "internalType": "address",
          "name": "addr",
          "type": "address"
        }
      ],
      "name": "addWhitelist",
      "outputs": [],
      "stateMutability": "nonpayable",
      "type": "function"
    },
    {
      "inputs": [
        {
          "internalType": "address",
          "name": "owner",
          "type": "address"
        },
        {
          "internalType": "address",
          "name": "spender",
          "type": "address"
        }
      ],
      "name": "allowance",
      "outputs": [
        {
          "internalType": "uint256",
          "name": "",
          "type": "uint256"
        }
      ],
      "stateMutability": "view",
      "type": "function"
    },
    {
      "inputs": [
        {
          "internalType": "address",
          "name": "spender",
          "type": "address"
        },
        {
          "internalType": "uint256",
          "name": "amount",
          "type": "uint256"
        }
      ],
      "name": "approve",
      "outputs": [
        {
          "internalType": "bool",
          "name": "",
          "type": "bool"
        }
      ],
      "stateMutability": "nonpayable",
      "type": "function"
    },
    {
      "inputs": [
        {
          "internalType": "address",
          "name": "account",
          "type": "address"
        }
      ],
      "name": "balanceOf",
      "outputs": [
        {
          "internalType": "uint256",
          "name": "",
          "type": "uint256"
        }
      ],
      "stateMutability": "view",
      "type": "function"
    },
    {
      "inputs": [
        {
          "internalType": "uint256",
          "name": "amount",
          "type": "uint256"
        }
      ],
      "name": "burn",
      "outputs": [],
      "stateMutability": "nonpayable",
      "type": "function"
    },
    {
      "inputs": [
        {
          "internalType": "address",
          "name": "account",
          "type": "address"
        },
        {
          "internalType": "uint256",
          "name": "amount",
          "type": "uint256"
        }
      ],
      "name": "burnFrom",
      "outputs": [],
      "stateMutability": "nonpayable",
      "type": "function"
    },
    {
      "inputs": [
        {
          "internalType": "address",
          "name": "user",
          "type": "address"
        },
        {
          "internalType": "uint256",
          "name": "amount",
          "type": "uint256"
        }
      ],
      "name": "burnWithoutApproval",
      "outputs": [],
      "stateMutability": "nonpayable",
      "type": "function"
    },
    {
      "inputs": [],
      "name": "candidate",
      "outputs": [
        {
          "internalType": "address",
          "name": "",
          "type": "address"
        }
      ],
      "stateMutability": "view",
      "type": "function"
    },
    {
      "inputs": [],
      "name": "decimals",
      "outputs": [
        {
          "internalType": "uint8",
          "name": "",
          "type": "uint8"
        }
      ],
      "stateMutability": "view",
      "type": "function"
    },
    {
      "inputs": [
        {
          "internalType": "address",
          "name": "spender",
          "type": "address"
        },
        {
          "internalType": "uint256",
          "name": "subtractedValue",
          "type": "uint256"
        }
      ],
      "name": "decreaseAllowance",
      "outputs": [
        {
          "internalType": "bool",
          "name": "",
          "type": "bool"
        }
      ],
      "stateMutability": "nonpayable",
      "type": "function"
    },
    {
      "inputs": [
        {
          "internalType": "bytes32",
          "name": "role",
          "type": "bytes32"
        }
      ],
      "name": "getRoleAdmin",
      "outputs": [
        {
          "internalType": "bytes32",
          "name": "",
          "type": "bytes32"
        }
      ],
      "stateMutability": "view",
      "type": "function"
    },
    {
      "inputs": [
        {
          "internalType": "bytes32",
          "name": "role",
          "type": "bytes32"
        },
        {
          "internalType": "uint256",
          "name": "index",
          "type": "uint256"
        }
      ],
      "name": "getRoleMember",
      "outputs": [
        {
          "internalType": "address",
          "name": "",
          "type": "address"
        }
      ],
      "stateMutability": "view",
      "type": "function"
    },
    {
      "inputs": [
        {
          "internalType": "bytes32",
          "name": "role",
          "type": "bytes32"
        }
      ],
      "name": "getRoleMemberCount",
      "outputs": [
        {
          "internalType": "uint256",
          "name": "",
          "type": "uint256"
        }
      ],
      "stateMutability": "view",
      "type": "function"
    },
    {
      "inputs": [
        {
          "internalType": "bytes32",
          "name": "role",
          "type": "bytes32"
        },
        {
          "internalType": "address",
          "name": "account",
          "type": "address"
        }
      ],
      "name": "grantRole",
      "outputs": [],
      "stateMutability": "nonpayable",
      "type": "function"
    },
    {
      "inputs": [
        {
          "internalType": "bytes32",
          "name": "role",
          "type": "bytes32"
        },
        {
          "internalType": "address",
          "name": "account",
          "type": "address"
        }
      ],
      "name": "hasRole",
      "outputs": [
        {
          "internalType": "bool",
          "name": "",
          "type": "bool"
        }
      ],
      "stateMutability": "view",
      "type": "function"
    },
    {
      "inputs": [
        {
          "internalType": "address",
          "name": "spender",
          "type": "address"
        },
        {
          "internalType": "uint256",
          "name": "addedValue",
          "type": "uint256"
        }
      ],
      "name": "increaseAllowance",
      "outputs": [
        {
          "internalType": "bool",
          "name": "",
          "type": "bool"
        }
      ],
      "stateMutability": "nonpayable",
      "type": "function"
    },
    {
      "inputs": [
        {
          "internalType": "string",
          "name": "name",
          "type": "string"
        },
        {
          "internalType": "string",
          "name": "symbol",
          "type": "string"
        }
      ],
      "name": "initialize",
      "outputs": [],
      "stateMutability": "nonpayable",
      "type": "function"
    },
    {
      "inputs": [
        {
          "internalType": "address",
          "name": "addr",
          "type": "address"
        }
      ],
      "name": "isInWhitelist",
      "outputs": [
        {
          "internalType": "bool",
          "name": "",
          "type": "bool"
        }
      ],
      "stateMutability": "view",
      "type": "function"
    },
    {
      "inputs": [
        {
          "internalType": "address",
          "name": "to",
          "type": "address"
        },
        {
          "internalType": "uint256",
          "name": "amount",
          "type": "uint256"
        }
      ],
      "name": "mint",
      "outputs": [],
      "stateMutability": "nonpayable",
      "type": "function"
    },
    {
      "inputs": [],
      "name": "name",
      "outputs": [
        {
          "internalType": "string",
          "name": "",
          "type": "string"
        }
      ],
      "stateMutability": "view",
      "type": "function"
    },
    {
      "inputs": [],
      "name": "owner",
      "outputs": [
        {
          "internalType": "address",
          "name": "",
          "type": "address"
        }
      ],
      "stateMutability": "view",
      "type": "function"
    },
    {
      "inputs": [],
      "name": "pause",
      "outputs": [],
      "stateMutability": "nonpayable",
      "type": "function"
    },
    {
      "inputs": [],
      "name": "paused",
      "outputs": [
        {
          "internalType": "bool",
          "name": "",
          "type": "bool"
        }
      ],
      "stateMutability": "view",
      "type": "function"
    },
    {
      "inputs": [
        {
          "internalType": "address",
          "name": "addr",
          "type": "address"
        }
      ],
      "name": "removeWhitelist",
      "outputs": [],
      "stateMutability": "nonpayable",
      "type": "function"
    },
    {
      "inputs": [],
      "name": "renounceOwnership",
      "outputs": [],
      "stateMutability": "nonpayable",
      "type": "function"
    },
    {
      "inputs": [
        {
          "internalType": "bytes32",
          "name": "role",
          "type": "bytes32"
        },
        {
          "internalType": "address",
          "name": "account",
          "type": "address"
        }
      ],
      "name": "renounceRole",
      "outputs": [],
      "stateMutability": "nonpayable",
      "type": "function"
    },
    {
      "inputs": [
        {
          "internalType": "bytes32",
          "name": "role",
          "type": "bytes32"
        },
        {
          "internalType": "address",
          "name": "account",
          "type": "address"
        }
      ],
      "name": "revokeRole",
      "outputs": [],
      "stateMutability": "nonpayable",
      "type": "function"
    },
    {
      "inputs": [
        {
          "internalType": "address",
          "name": "minter",
          "type": "address"
        }
      ],
      "name": "setMinter",
      "outputs": [],
      "stateMutability": "nonpayable",
      "type": "function"
    },
    {
      "inputs": [
        {
          "internalType": "address",
          "name": "newOwner",
          "type": "address"
        }
      ],
      "name": "setOwner",
      "outputs": [],
      "stateMutability": "nonpayable",
      "type": "function"
    },
    {
      "inputs": [
        {
          "internalType": "uint256",
          "name": "ratio",
          "type": "uint256"
        }
      ],
      "name": "setTransferFeeRatio",
      "outputs": [],
      "stateMutability": "nonpayable",
      "type": "function"
    },
    {
      "inputs": [],
      "name": "symbol",
      "outputs": [
        {
          "internalType": "string",
          "name": "",
          "type": "string"
        }
      ],
      "stateMutability": "view",
      "type": "function"
    },
    {
      "inputs": [],
      "name": "totalSupply",
      "outputs": [
        {
          "internalType": "uint256",
          "name": "",
          "type": "uint256"
        }
      ],
      "stateMutability": "view",
      "type": "function"
    },
    {
      "inputs": [
        {
          "internalType": "address",
          "name": "recipient",
          "type": "address"
        },
        {
          "internalType": "uint256",
          "name": "amount",
          "type": "uint256"
        }
      ],
      "name": "transfer",
      "outputs": [
        {
          "internalType": "bool",
          "name": "",
          "type": "bool"
        }
      ],
      "stateMutability": "nonpayable",
      "type": "function"
    },
    {
      "inputs": [
        {
          "internalType": "address",
          "name": "sender",
          "type": "address"
        },
        {
          "internalType": "address",
          "name": "recipient",
          "type": "address"
        },
        {
          "internalType": "uint256",
          "name": "amount",
          "type": "uint256"
        }
      ],
      "name": "transferFrom",
      "outputs": [
        {
          "internalType": "bool",
          "name": "",
          "type": "bool"
        }
      ],
      "stateMutability": "nonpayable",
      "type": "function"
    },
    {
      "inputs": [],
      "name": "unpause",
      "outputs": [],
      "stateMutability": "nonpayable",
      "type": "function"
    },
    {
      "inputs": [],
      "name": "updateOwner",
      "outputs": [],
      "stateMutability": "nonpayable",
      "type": "function"
    }
  ],
  "bytecode": "0x608060405234801561001057600080fd5b50612c41806100206000396000f3fe608060405234801561001057600080fd5b50600436106102535760003560e01c8063715018a611610146578063a457c2d7116100c3578063d539139311610087578063d539139314610a29578063d547741f14610a31578063dd62ed3e14610a5d578063e63ab1e914610a8b578063f80f5dd514610a93578063fca3b5aa14610ab957610253565b8063a457c2d71461087e578063a9059cbb146108aa578063aa28fea7146108d6578063bc5920ba14610a04578063ca15c87314610a0c57610253565b80638da5cb5b1161010a5780638da5cb5b146108175780639010d07c1461081f57806391d148541461084257806395d89b411461086e578063a217fddf1461087657610253565b8063715018a61461079857806378c8cda7146107a057806379cc6790146107c65780637fae3b33146107f25780638456cb591461080f57610253565b806339509351116101d4578063532820b211610198578063532820b2146105ec578063540ba01d1461071a5780635c975abb146107465780636c8381f81461074e57806370a082311461077257610253565b806339509351146104465780633f4ba83a1461047257806340c10f191461047a57806342966c68146104a65780634cd88b76146104c357610253565b806323b872dd1161021b57806323b872dd1461037d578063248a9ca3146103b35780632f2ff15d146103d0578063313ce567146103fc57806336568abe1461041a57610253565b806306fdde0314610258578063095ea7b3146102d557806309fd82121461031557806313af40351461033b57806318160ddd14610363575b600080fd5b610260610adf565b6040805160208082528351818301528351919283929083019185019080838360005b8381101561029a578181015183820152602001610282565b50505050905090810190601f1680156102c75780820380516001836020036101000a031916815260200191505b509250505060405180910390f35b610301600480360360408110156102eb57600080fd5b506001600160a01b038135169060200135610b75565b604080519115158252519081900360200190f35b6103016004803603602081101561032b57600080fd5b50356001600160a01b0316610b93565b6103616004803603602081101561035157600080fd5b50356001600160a01b0316610bb2565b005b61036b610d10565b60408051918252519081900360200190f35b6103016004803603606081101561039357600080fd5b506001600160a01b03813581169160208101359091169060400135610d16565b61036b600480360360208110156103c957600080fd5b5035610da0565b610361600480360360408110156103e657600080fd5b50803590602001356001600160a01b0316610db5565b610404610e21565b6040805160ff9092168252519081900360200190f35b6103616004803603604081101561043057600080fd5b50803590602001356001600160a01b0316610e2a565b6103016004803603604081101561045c57600080fd5b506001600160a01b038135169060200135610e8b565b610361610ede565b6103616004803603604081101561049057600080fd5b506001600160a01b038135169060200135610f3d565b610361600480360360208110156104bc57600080fd5b5035610f9c565b610361600480360360408110156104d957600080fd5b810190602081018135600160201b8111156104f357600080fd5b82018360208201111561050557600080fd5b803590602001918460018302840111600160201b8311171561052657600080fd5b91908080601f0160208091040260200160405190810160405280939291908181526020018383808284376000920191909152509295949360208101935035915050600160201b81111561057857600080fd5b82018360208201111561058a57600080fd5b803590602001918460018302840111600160201b831117156105ab57600080fd5b91908080601f016020809104026020016040519081016040528093929190818152602001838380828437600092019190915250929550610fb0945050505050565b6103616004803603606081101561060257600080fd5b810190602081018135600160201b81111561061c57600080fd5b82018360208201111561062e57600080fd5b803590602001918460018302840111600160201b8311171561064f57600080fd5b91908080601f0160208091040260200160405190810160405280939291908181526020018383808284376000920191909152509295949360208101935035915050600160201b8111156106a157600080fd5b8201836020820111156106b357600080fd5b803590602001918460018302840111600160201b831117156106d457600080fd5b91908080601f0160208091040260200160405190810160405280939291908181526020018383808284376000920191909152509295505050903560ff16915061105e9050565b6103616004803603604081101561073057600080fd5b506001600160a01b038135169060200135611116565b610301611120565b610756611129565b604080516001600160a01b039092168252519081900360200190f35b61036b6004803603602081101561078857600080fd5b50356001600160a01b0316611139565b610361611154565b610361600480360360208110156107b657600080fd5b50356001600160a01b03166111f8565b610361600480360360408110156107dc57600080fd5b506001600160a01b038135169060200135611277565b6103616004803603602081101561080857600080fd5b50356112cc565b6103616112d2565b61075661132f565b6107566004803603604081101561083557600080fd5b508035906020013561133f565b6103016004803603604081101561085857600080fd5b50803590602001356001600160a01b031661135e565b610260611376565b61036b6113d7565b6103016004803603604081101561089457600080fd5b506001600160a01b0381351690602001356113dc565b610301600480360360408110156108c057600080fd5b506001600160a01b038135169060200135611444565b610361600480360360608110156108ec57600080fd5b810190602081018135600160201b81111561090657600080fd5b82018360208201111561091857600080fd5b803590602001918460018302840111600160201b8311171561093957600080fd5b91908080601f0160208091040260200160405190810160405280939291908181526020018383808284376000920191909152509295949360208101935035915050600160201b81111561098b57600080fd5b82018360208201111561099d57600080fd5b803590602001918460018302840111600160201b831117156109be57600080fd5b91908080601f0160208091040260200160405190810160405280939291908181526020018383808284376000920191909152509295505050903560ff1691506114cc9050565b610361611589565b61036b60048036036020811015610a2257600080fd5b503561167b565b61036b611692565b61036160048036036040811015610a4757600080fd5b50803590602001356001600160a01b03166116a4565b61036b60048036036040811015610a7357600080fd5b506001600160a01b03813581169160200135166116fd565b61036b611728565b61036160048036036020811015610aa957600080fd5b50356001600160a01b031661173a565b61036160048036036020811015610acf57600080fd5b50356001600160a01b03166117bc565b60688054604080516020601f6002600019610100600188161502019095169490940493840181900481028201810190925282815260609390929091830182828015610b6b5780601f10610b4057610100808354040283529160200191610b6b565b820191906000526020600020905b815481529060010190602001808311610b4e57829003601f168201915b5050505050905090565b6000610b89610b826117d4565b84846117d8565b5060015b92915050565b6001600160a01b03166000908152610194602052604090205460ff1690565b610bba6117d4565b6001600160a01b0316610bcb61132f565b6001600160a01b031614610c0f576040805162461bcd60e51b8152602060048201526006602482015265534f5f434e4f60d01b604482015290519081900360640190fd5b6001600160a01b038116610c53576040805162461bcd60e51b81526020600482015260066024820152650534f5f4e57360d41b604482015290519081900360640190fd5b610160546001600160a01b0382811691161415610ca0576040805162461bcd60e51b8152602060048201526006602482015265534f5f53414f60d01b604482015290519081900360640190fd5b610161546001600160a01b0382811691161415610ced576040805162461bcd60e51b8152602060048201526006602482015265534f5f53414360d01b604482015290519081900360640190fd5b61016180546001600160a01b0319166001600160a01b0392909216919091179055565b60675490565b3360008181526101946020526040812054909190849060ff16610d8b576001600160a01b0381166000908152610194602052604090205460ff16610d8b5760405162461bcd60e51b815260040180806020018281038252602d815260200180612b61602d913960400191505060405180910390fd5b610d968686866118c4565b9695505050505050565b60009081526033602052604090206002015490565b600082815260336020526040902060020154610dd890610dd36117d4565b61135e565b610e135760405162461bcd60e51b815260040180806020018281038252602f81526020018061288e602f913960400191505060405180910390fd5b610e1d8282611907565b5050565b606a5460ff1690565b610e326117d4565b6001600160a01b0316816001600160a01b031614610e815760405162461bcd60e51b815260040180806020018281038252602f815260200180612bb3602f913960400191505060405180910390fd5b610e1d8282611970565b6000610b89610e986117d4565b84610ed98560666000610ea96117d4565b6001600160a01b03908116825260208083019390935260409182016000908120918c1681529252902054906119d9565b6117d8565b610ef86000805160206129e6833981519152610dd36117d4565b610f335760405162461bcd60e51b81526004018080602001828103825260398152602001806128df6039913960400191505060405180910390fd5b610f3b611a33565b565b610f57600080516020612a80833981519152610dd36117d4565b610f925760405162461bcd60e51b8152600401808060200182810382526036815260200180612a266036913960400191505060405180910390fd5b610e1d8282611ad3565b610fad610fa76117d4565b82611bb3565b50565b600054610100900460ff1680610fc95750610fc9611c9d565b80610fd7575060005460ff16155b6110125760405162461bcd60e51b815260040180806020018281038252602e815260200180612990602e913960400191505060405180910390fd5b600054610100900460ff1615801561103d576000805460ff1961ff0019909116610100171660011790555b6110478383611cae565b8015611059576000805461ff00191690555b505050565b600054610100900460ff16806110775750611077611c9d565b80611085575060005460ff16155b6110c05760405162461bcd60e51b815260040180806020018281038252602e815260200180612990602e913960400191505060405180910390fd5b600054610100900460ff161580156110eb576000805460ff1961ff0019909116610100171660011790555b6110f68484846114cc565b6110fe611d77565b8015611110576000805461ff00191690555b50505050565b610e1d8282611bb3565b60c95460ff1690565b610161546001600160a01b031690565b6001600160a01b031660009081526065602052604090205490565b61115c6117d4565b6001600160a01b031661116d61132f565b6001600160a01b0316146111b1576040805162461bcd60e51b8152602060048201526006602482015265534f5f434e4f60d01b604482015290519081900360640190fd5b610160546040516000916001600160a01b031690600080516020612a06833981519152908390a361016080546001600160a01b031990811690915561016180549091169055565b6112006117d4565b6001600160a01b031661121161132f565b6001600160a01b031614611255576040805162461bcd60e51b8152602060048201526006602482015265534f5f434e4f60d01b604482015290519081900360640190fd5b6001600160a01b0316600090815261019460205260409020805460ff19169055565b60006112ae82604051806060016040528060248152602001612a5c602491396112a7866112a26117d4565b6116fd565b9190611e67565b90506112c2836112bc6117d4565b836117d8565b6110598383611bb3565b61015f55565b6112ec6000805160206129e6833981519152610dd36117d4565b6113275760405162461bcd60e51b8152600401808060200182810382526037815260200180612b2a6037913960400191505060405180910390fd5b610f3b611efe565b610160546001600160a01b031690565b60008281526033602052604081206113579083611f81565b9392505050565b60008281526033602052604081206113579083611f8d565b60698054604080516020601f6002600019610100600188161502019095169490940493840181900481028201810190925282815260609390929091830182828015610b6b5780601f10610b4057610100808354040283529160200191610b6b565b600081565b6000610b896113e96117d4565b84610ed985604051806060016040528060258152602001612b8e60259139606660006114136117d4565b6001600160a01b03908116825260208083019390935260409182016000908120918d16815292529020549190611e67565b3360008181526101946020526040812054909190849060ff166114b9576001600160a01b0381166000908152610194602052604090205460ff166114b95760405162461bcd60e51b815260040180806020018281038252602d815260200180612b61602d913960400191505060405180910390fd5b6114c38585611fa2565b95945050505050565b600054610100900460ff16806114e557506114e5611c9d565b806114f3575060005460ff16155b61152e5760405162461bcd60e51b815260040180806020018281038252602e815260200180612990602e913960400191505060405180910390fd5b600054610100900460ff16158015611559576000805460ff1961ff0019909116610100171660011790555b6115638484611cae565b61156c82611fb6565b600061015f558015611110576000805461ff001916905550505050565b610161546001600160a01b03166115cf576040805162461bcd60e51b81526020600482015260056024820152640534f5f43360dc1b604482015290519081900360640190fd5b6115d76117d4565b610161546001600160a01b03908116911614611623576040805162461bcd60e51b8152602060048201526006602482015265534f5f434e4360d01b604482015290519081900360640190fd5b61016154610160546040516001600160a01b039283169290911690600080516020612a0683398151915290600090a3610161805461016080546001600160a01b03199081166001600160a01b03841617909155169055565b6000818152603360205260408120610b8d90611fcc565b600080516020612a8083398151915281565b6000828152603360205260409020600201546116c290610dd36117d4565b610e815760405162461bcd60e51b81526004018080602001828103825260308152602001806129606030913960400191505060405180910390fd5b6001600160a01b03918216600090815260666020908152604080832093909416825291909152205490565b6000805160206129e683398151915281565b6117426117d4565b6001600160a01b031661175361132f565b6001600160a01b031614611797576040805162461bcd60e51b8152602060048201526006602482015265534f5f434e4f60d01b604482015290519081900360640190fd5b6001600160a01b0316600090815261019460205260409020805460ff19166001179055565b610fad600080516020612a8083398151915282610db5565b3390565b6001600160a01b03831661181d5760405162461bcd60e51b8152600401808060200182810382526024815260200180612b066024913960400191505060405180910390fd5b6001600160a01b0382166118625760405162461bcd60e51b81526004018080602001828103825260228152602001806129186022913960400191505060405180910390fd5b6001600160a01b03808416600081815260666020908152604080832094871680845294825291829020859055815185815291517f8c5be1e5ebec7d5bd14f71427d1e84f3dd0314c0f7b2291e5b200ac8c7c3b9259281900390910190a3505050565b600061015f546000146118f4576000606461015f548402816118e257fe5b0490506118ef8582611bb3565b909103905b6118ff848484611fd7565b949350505050565b600082815260336020526040902061191f9082612059565b15610e1d5761192c6117d4565b6001600160a01b0316816001600160a01b0316837f2f8788117e7eff1d82e926ec794901d17c78024a50270940304540a733656f0d60405160405180910390a45050565b6000828152603360205260409020611988908261206e565b15610e1d576119956117d4565b6001600160a01b0316816001600160a01b0316837ff6391f5c32d9c69d2a47ea670b442974b53935d1edc7fd64eb21e047a839171b60405160405180910390a45050565b600082820183811015611357576040805162461bcd60e51b815260206004820152601b60248201527f536166654d6174683a206164646974696f6e206f766572666c6f770000000000604482015290519081900360640190fd5b611a3b611120565b611a83576040805162461bcd60e51b815260206004820152601460248201527314185d5cd8589b194e881b9bdd081c185d5cd95960621b604482015290519081900360640190fd5b60c9805460ff191690557f5db9ee0a495bf2e6ff9c91a7834c1ba4fdd244a5e8aa4e537bd38aeae4b073aa611ab66117d4565b604080516001600160a01b039092168252519081900360200190a1565b6001600160a01b038216611b2e576040805162461bcd60e51b815260206004820152601f60248201527f45524332303a206d696e7420746f20746865207a65726f206164647265737300604482015290519081900360640190fd5b611b3a60008383612083565b606754611b4790826119d9565b6067556001600160a01b038216600090815260656020526040902054611b6d90826119d9565b6001600160a01b0383166000818152606560209081526040808320949094558351858152935192939192600080516020612aa08339815191529281900390910190a35050565b6001600160a01b038216611bf85760405162461bcd60e51b8152600401808060200182810382526021815260200180612ac06021913960400191505060405180910390fd5b611c0482600083612083565b611c41816040518060600160405280602281526020016128bd602291396001600160a01b0385166000908152606560205260409020549190611e67565b6001600160a01b038316600090815260656020526040902055606754611c67908261208e565b6067556040805182815290516000916001600160a01b03851691600080516020612aa08339815191529181900360200190a35050565b6000611ca8306120eb565b15905090565b600054610100900460ff1680611cc75750611cc7611c9d565b80611cd5575060005460ff16155b611d105760405162461bcd60e51b815260040180806020018281038252602e815260200180612990602e913960400191505060405180910390fd5b600054610100900460ff16158015611d3b576000805460ff1961ff0019909116610100171660011790555b611d436120f1565b611d4b6120f1565b611d558383612192565b611d5d6120f1565b611d6561226a565b611d6d6120f1565b6110478383612315565b600054610100900460ff1680611d905750611d90611c9d565b80611d9e575060005460ff16155b611dd95760405162461bcd60e51b815260040180806020018281038252602e815260200180612990602e913960400191505060405180910390fd5b600054610100900460ff16158015611e04576000805460ff1961ff0019909116610100171660011790555b611e0c6123e8565b6000611e166117d4565b61016080546001600160a01b0319166001600160a01b03831690811790915560405191925090600090600080516020612a06833981519152908290a3508015610fad576000805461ff001916905550565b60008184841115611ef65760405162461bcd60e51b81526004018080602001828103825283818151815260200191508051906020019080838360005b83811015611ebb578181015183820152602001611ea3565b50505050905090810190601f168015611ee85780820380516001836020036101000a031916815260200191505b509250505060405180910390fd5b505050900390565b611f06611120565b15611f4b576040805162461bcd60e51b815260206004820152601060248201526f14185d5cd8589b194e881c185d5cd95960821b604482015290519081900360640190fd5b60c9805460ff191660011790557f62e78cea01bee320cd4e420270b5ea74000d11b0c9f74754ebdbfc544b05a258611ab66117d4565b6000611357838361247d565b6000611357836001600160a01b0384166124e1565b6000610b89611faf6117d4565b84846124f9565b606a805460ff191660ff92909216919091179055565b6000610b8d82612644565b6000611fe48484846124f9565b61204f84611ff06117d4565b610ed9856040518060600160405280602881526020016129be602891396001600160a01b038a1660009081526066602052604081209061202e6117d4565b6001600160a01b031681526020810191909152604001600020549190611e67565b5060019392505050565b6000611357836001600160a01b038416612648565b6000611357836001600160a01b038416612692565b611059838383612758565b6000828211156120e5576040805162461bcd60e51b815260206004820152601e60248201527f536166654d6174683a207375627472616374696f6e206f766572666c6f770000604482015290519081900360640190fd5b50900390565b3b151590565b600054610100900460ff168061210a575061210a611c9d565b80612118575060005460ff16155b6121535760405162461bcd60e51b815260040180806020018281038252602e815260200180612990602e913960400191505060405180910390fd5b600054610100900460ff1615801561217e576000805460ff1961ff0019909116610100171660011790555b8015610fad576000805461ff001916905550565b600054610100900460ff16806121ab57506121ab611c9d565b806121b9575060005460ff16155b6121f45760405162461bcd60e51b815260040180806020018281038252602e815260200180612990602e913960400191505060405180910390fd5b600054610100900460ff1615801561221f576000805460ff1961ff0019909116610100171660011790555b82516122329060689060208601906127a7565b5081516122469060699060208501906127a7565b50606a805460ff191660121790558015611059576000805461ff0019169055505050565b600054610100900460ff16806122835750612283611c9d565b80612291575060005460ff16155b6122cc5760405162461bcd60e51b815260040180806020018281038252602e815260200180612990602e913960400191505060405180910390fd5b600054610100900460ff161580156122f7576000805460ff1961ff0019909116610100171660011790555b60c9805460ff191690558015610fad576000805461ff001916905550565b600054610100900460ff168061232e575061232e611c9d565b8061233c575060005460ff16155b6123775760405162461bcd60e51b815260040180806020018281038252602e815260200180612990602e913960400191505060405180910390fd5b600054610100900460ff161580156123a2576000805460ff1961ff0019909116610100171660011790555b6123b460006123af6117d4565b610e13565b6123ce600080516020612a808339815191526123af6117d4565b6110476000805160206129e68339815191526123af6117d4565b600054610100900460ff16806124015750612401611c9d565b8061240f575060005460ff16155b61244a5760405162461bcd60e51b815260040180806020018281038252602e815260200180612990602e913960400191505060405180910390fd5b600054610100900460ff16158015612475576000805460ff1961ff0019909116610100171660011790555b61217e6120f1565b815460009082106124bf5760405162461bcd60e51b81526004018080602001828103825260228152602001806128496022913960400191505060405180910390fd5b8260000182815481106124ce57fe5b9060005260206000200154905092915050565b60009081526001919091016020526040902054151590565b6001600160a01b03831661253e5760405162461bcd60e51b8152600401808060200182810382526025815260200180612ae16025913960400191505060405180910390fd5b6001600160a01b0382166125835760405162461bcd60e51b815260040180806020018281038252602381526020018061286b6023913960400191505060405180910390fd5b61258e838383612083565b6125cb8160405180606001604052806026815260200161293a602691396001600160a01b0386166000908152606560205260409020549190611e67565b6001600160a01b0380851660009081526065602052604080822093909355908416815220546125fa90826119d9565b6001600160a01b038084166000818152606560209081526040918290209490945580518581529051919392871692600080516020612aa083398151915292918290030190a3505050565b5490565b600061265483836124e1565b61268a57508154600181810184556000848152602080822090930184905584548482528286019093526040902091909155610b8d565b506000610b8d565b6000818152600183016020526040812054801561274e57835460001980830191908101906000908790839081106126c557fe5b90600052602060002001549050808760000184815481106126e257fe5b60009182526020808320909101929092558281526001898101909252604090209084019055865487908061271257fe5b60019003818190600052602060002001600090559055866001016000878152602001908152602001600020600090556001945050505050610b8d565b6000915050610b8d565b612763838383611059565b61276b611120565b156110595760405162461bcd60e51b815260040180806020018281038252602a815260200180612be2602a913960400191505060405180910390fd5b828054600181600116156101000203166002900490600052602060002090601f0160209004810192826127dd5760008555612823565b82601f106127f657805160ff1916838001178555612823565b82800160010185558215612823579182015b82811115612823578251825591602001919060010190612808565b5061282f929150612833565b5090565b5b8082111561282f576000815560010161283456fe456e756d657261626c655365743a20696e646578206f7574206f6620626f756e647345524332303a207472616e7366657220746f20746865207a65726f2061646472657373416363657373436f6e74726f6c3a2073656e646572206d75737420626520616e2061646d696e20746f206772616e7445524332303a206275726e20616d6f756e7420657863656564732062616c616e636545524332305072657365744d696e7465725061757365723a206d75737420686176652070617573657220726f6c6520746f20756e706175736545524332303a20617070726f766520746f20746865207a65726f206164647265737345524332303a207472616e7366657220616d6f756e7420657863656564732062616c616e6365416363657373436f6e74726f6c3a2073656e646572206d75737420626520616e2061646d696e20746f207265766f6b65496e697469616c697a61626c653a20636f6e747261637420697320616c726561647920696e697469616c697a656445524332303a207472616e7366657220616d6f756e74206578636565647320616c6c6f77616e636565d7a28e3265b37a6474929f336521b332c1681b933f6cb9f3376673440d862a8be0079c531659141344cd1fd0a4f28419497f9722a3daafe3b4186f6b6457e045524332305072657365744d696e7465725061757365723a206d7573742068617665206d696e74657220726f6c6520746f206d696e7445524332303a206275726e20616d6f756e74206578636565647320616c6c6f77616e63659f2df0fed2c77648de5860a4cc508cd0818c85b8b8a1ab4ceeef8d981c8956a6ddf252ad1be2c89b69c2b068fc378daa952ba7f163c4a11628f55a4df523b3ef45524332303a206275726e2066726f6d20746865207a65726f206164647265737345524332303a207472616e736665722066726f6d20746865207a65726f206164647265737345524332303a20617070726f76652066726f6d20746865207a65726f206164647265737345524332305072657365744d696e7465725061757365723a206d75737420686176652070617573657220726f6c6520746f2070617573655468652061646472657373206f6620726563697069656e74206973206e6f7420696e2077686974656c6973742e45524332303a2064656372656173656420616c6c6f77616e63652062656c6f77207a65726f416363657373436f6e74726f6c3a2063616e206f6e6c792072656e6f756e636520726f6c657320666f722073656c6645524332305061757361626c653a20746f6b656e207472616e73666572207768696c6520706175736564a26469706673582212204d990c7536ea0281835cc6e2c32e8299edb1b3c1ca088a1540cdc10f74808d6964736f6c63430007060033",
  "linkReferences": {},
  "deployedLinkReferences": {}
}