{
  "_format": "hh-sol-artifact-1",
  "contractName": "AccountBalance",
  "sourceName": "contracts/AccountBalance.sol",
  "abi": [
    {
      "anonymous": false,
      "inputs": [
        {
          "indexed": true,
          "internalType": "address",
          "name": "clearingHouse",
          "type": "address"
        }
      ],
      "name": "ClearingHouseChanged",
      "type": "event"
    },
    {
      "anonymous": false,
      "inputs": [
        {
          "indexed": true,
          "internalType": "address",
          "name": "marketRegistry",
          "type": "address"
        }
      ],
      "name": "MarketRegistryChanged",
      "type": "event"
    },
    {
      "anonymous": false,
      "inputs": [
        {
          "indexed": true,
          "internalType": "address",
          "name": "previousOwner",
          "type": "address"
        },
        {
          "indexed": true,
          "internalType": "address",
          "name": "newOwner",
          "type": "address"
        }
      ],
      "name": "OwnershipTransferred",
      "type": "event"
    },
    {
      "anonymous": false,
      "inputs": [
        {
          "indexed": true,
          "internalType": "address",
          "name": "trader",
          "type": "address"
        },
        {
          "indexed": false,
          "internalType": "int256",
          "name": "amount",
          "type": "int256"
        }
      ],
      "name": "PnlRealized",
      "type": "event"
    },
    {
      "anonymous": false,
      "inputs": [
        {
          "indexed": true,
          "internalType": "address",
          "name": "vault",
          "type": "address"
        }
      ],
      "name": "VaultChanged",
      "type": "event"
    },
    {
      "inputs": [],
      "name": "candidate",
      "outputs": [
        {
          "internalType": "address",
          "name": "",
          "type": "address"
        }
      ],
      "stateMutability": "view",
      "type": "function"
    },
    {
      "inputs": [
        {
          "internalType": "address",
          "name": "trader",
          "type": "address"
        },
        {
          "internalType": "address",
          "name": "baseToken",
          "type": "address"
        }
      ],
      "name": "deregisterBaseToken",
      "outputs": [],
      "stateMutability": "nonpayable",
      "type": "function"
    },
    {
      "inputs": [
        {
          "internalType": "address",
          "name": "trader",
          "type": "address"
        },
        {
          "internalType": "address",
          "name": "baseToken",
          "type": "address"
        }
      ],
      "name": "getAccountInfo",
      "outputs": [
        {
          "components": [
            {
              "internalType": "int256",
              "name": "takerPositionSize",
              "type": "int256"
            },
            {
              "internalType": "int256",
              "name": "takerOpenNotional",
              "type": "int256"
            },
            {
              "internalType": "int256",
              "name": "lastTwPremiumGrowthGlobalX96",
              "type": "int256"
            }
          ],
          "internalType": "struct AccountMarket.Info",
          "name": "",
          "type": "tuple"
        }
      ],
      "stateMutability": "view",
      "type": "function"
    },
    {
      "inputs": [
        {
          "internalType": "address",
          "name": "trader",
          "type": "address"
        },
        {
          "internalType": "address",
          "name": "baseToken",
          "type": "address"
        }
      ],
      "name": "getBase",
      "outputs": [
        {
          "internalType": "int256",
          "name": "",
          "type": "int256"
        }
      ],
      "stateMutability": "view",
      "type": "function"
    },
    {
      "inputs": [
        {
          "internalType": "address",
          "name": "trader",
          "type": "address"
        }
      ],
      "name": "getBaseTokens",
      "outputs": [
        {
          "internalType": "address[]",
          "name": "",
          "type": "address[]"
        }
      ],
      "stateMutability": "view",
      "type": "function"
    },
    {
      "inputs": [],
      "name": "getClearingHouse",
      "outputs": [
        {
          "internalType": "address",
          "name": "",
          "type": "address"
        }
      ],
      "stateMutability": "view",
      "type": "function"
    },
    {
      "inputs": [],
      "name": "getClearingHouseConfig",
      "outputs": [
        {
          "internalType": "address",
          "name": "",
          "type": "address"
        }
      ],
      "stateMutability": "view",
      "type": "function"
    },
    {
      "inputs": [
        {
          "internalType": "address",
          "name": "trader",
          "type": "address"
        },
        {
          "internalType": "address",
          "name": "baseToken",
          "type": "address"
        },
        {
          "internalType": "int256",
          "name": "accountValue",
          "type": "int256"
        }
      ],
      "name": "getLiquidatablePositionSize",
      "outputs": [
        {
          "internalType": "int256",
          "name": "",
          "type": "int256"
        }
      ],
      "stateMutability": "view",
      "type": "function"
    },
    {
      "inputs": [
        {
          "internalType": "address",
          "name": "trader",
          "type": "address"
        }
      ],
      "name": "getMarginRequirementForLiquidation",
      "outputs": [
        {
          "internalType": "int256",
          "name": "",
          "type": "int256"
        }
      ],
      "stateMutability": "view",
      "type": "function"
    },
    {
      "inputs": [
        {
          "internalType": "address",
          "name": "baseToken",
          "type": "address"
        }
      ],
      "name": "getMarkPrice",
      "outputs": [
        {
          "internalType": "uint256",
          "name": "",
          "type": "uint256"
        }
      ],
      "stateMutability": "view",
      "type": "function"
    },
    {
      "inputs": [],
      "name": "getMarketRegistry",
      "outputs": [
        {
          "internalType": "address",
          "name": "",
          "type": "address"
        }
      ],
      "stateMutability": "view",
      "type": "function"
    },
    {
      "inputs": [],
      "name": "getOrderBook",
      "outputs": [
        {
          "internalType": "address",
          "name": "",
          "type": "address"
        }
      ],
      "stateMutability": "view",
      "type": "function"
    },
    {
      "inputs": [
        {
          "internalType": "address",
          "name": "trader",
          "type": "address"
        }
      ],
      "name": "getPnlAndPendingFee",
      "outputs": [
        {
          "internalType": "int256",
          "name": "",
          "type": "int256"
        },
        {
          "internalType": "int256",
          "name": "",
          "type": "int256"
        },
        {
          "internalType": "uint256",
          "name": "",
          "type": "uint256"
        }
      ],
      "stateMutability": "view",
      "type": "function"
    },
    {
      "inputs": [
        {
          "internalType": "address",
          "name": "trader",
          "type": "address"
        },
        {
          "internalType": "address",
          "name": "baseToken",
          "type": "address"
        }
      ],
      "name": "getQuote",
      "outputs": [
        {
          "internalType": "int256",
          "name": "",
          "type": "int256"
        }
      ],
      "stateMutability": "view",
      "type": "function"
    },
    {
      "inputs": [
        {
          "internalType": "address",
          "name": "trader",
          "type": "address"
        },
        {
          "internalType": "address",
          "name": "baseToken",
          "type": "address"
        }
      ],
      "name": "getTakerOpenNotional",
      "outputs": [
        {
          "internalType": "int256",
          "name": "",
          "type": "int256"
        }
      ],
      "stateMutability": "view",
      "type": "function"
    },
    {
      "inputs": [
        {
          "internalType": "address",
          "name": "trader",
          "type": "address"
        },
        {
          "internalType": "address",
          "name": "baseToken",
          "type": "address"
        }
      ],
      "name": "getTakerPositionSize",
      "outputs": [
        {
          "internalType": "int256",
          "name": "",
          "type": "int256"
        }
      ],
      "stateMutability": "view",
      "type": "function"
    },
    {
      "inputs": [
        {
          "internalType": "address",
          "name": "trader",
          "type": "address"
        }
      ],
      "name": "getTotalAbsPositionValue",
      "outputs": [
        {
          "internalType": "uint256",
          "name": "",
          "type": "uint256"
        }
      ],
      "stateMutability": "view",
      "type": "function"
    },
    {
      "inputs": [
        {
          "internalType": "address",
          "name": "trader",
          "type": "address"
        }
      ],
      "name": "getTotalDebtValue",
      "outputs": [
        {
          "internalType": "uint256",
          "name": "",
          "type": "uint256"
        }
      ],
      "stateMutability": "view",
      "type": "function"
    },
    {
      "inputs": [
        {
          "internalType": "address",
          "name": "trader",
          "type": "address"
        },
        {
          "internalType": "address",
          "name": "baseToken",
          "type": "address"
        }
      ],
      "name": "getTotalOpenNotional",
      "outputs": [
        {
          "internalType": "int256",
          "name": "",
          "type": "int256"
        }
      ],
      "stateMutability": "view",
      "type": "function"
    },
    {
      "inputs": [
        {
          "internalType": "address",
          "name": "trader",
          "type": "address"
        },
        {
          "internalType": "address",
          "name": "baseToken",
          "type": "address"
        }
      ],
      "name": "getTotalPositionSize",
      "outputs": [
        {
          "internalType": "int256",
          "name": "",
          "type": "int256"
        }
      ],
      "stateMutability": "view",
      "type": "function"
    },
    {
      "inputs": [
        {
          "internalType": "address",
          "name": "trader",
          "type": "address"
        },
        {
          "internalType": "address",
          "name": "baseToken",
          "type": "address"
        }
      ],
      "name": "getTotalPositionValue",
      "outputs": [
        {
          "internalType": "int256",
          "name": "",
          "type": "int256"
        }
      ],
      "stateMutability": "view",
      "type": "function"
    },
    {
      "inputs": [],
      "name": "getVault",
      "outputs": [
        {
          "internalType": "address",
          "name": "",
          "type": "address"
        }
      ],
      "stateMutability": "view",
      "type": "function"
    },
    {
      "inputs": [
        {
          "internalType": "address",
          "name": "trader",
          "type": "address"
        }
      ],
      "name": "hasOrder",
      "outputs": [
        {
          "internalType": "bool",
          "name": "",
          "type": "bool"
        }
      ],
      "stateMutability": "view",
      "type": "function"
    },
    {
      "inputs": [
        {
          "internalType": "address",
          "name": "clearingHouseConfigArg",
          "type": "address"
        },
        {
          "internalType": "address",
          "name": "orderBookArg",
          "type": "address"
        }
      ],
      "name": "initialize",
      "outputs": [],
      "stateMutability": "nonpayable",
      "type": "function"
    },
    {
      "inputs": [
        {
          "internalType": "address",
          "name": "trader",
          "type": "address"
        },
        {
          "internalType": "int256",
          "name": "amount",
          "type": "int256"
        }
      ],
      "name": "modifyOwedRealizedPnl",
      "outputs": [],
      "stateMutability": "nonpayable",
      "type": "function"
    },
    {
      "inputs": [
        {
          "internalType": "address",
          "name": "trader",
          "type": "address"
        },
        {
          "internalType": "address",
          "name": "baseToken",
          "type": "address"
        },
        {
          "internalType": "int256",
          "name": "base",
          "type": "int256"
        },
        {
          "internalType": "int256",
          "name": "quote",
          "type": "int256"
        }
      ],
      "name": "modifyTakerBalance",
      "outputs": [
        {
          "internalType": "int256",
          "name": "",
          "type": "int256"
        },
        {
          "internalType": "int256",
          "name": "",
          "type": "int256"
        }
      ],
      "stateMutability": "nonpayable",
      "type": "function"
    },
    {
      "inputs": [],
      "name": "owner",
      "outputs": [
        {
          "internalType": "address",
          "name": "",
          "type": "address"
        }
      ],
      "stateMutability": "view",
      "type": "function"
    },
    {
      "inputs": [
        {
          "internalType": "address",
          "name": "trader",
          "type": "address"
        },
        {
          "internalType": "address",
          "name": "baseToken",
          "type": "address"
        }
      ],
      "name": "registerBaseToken",
      "outputs": [],
      "stateMutability": "nonpayable",
      "type": "function"
    },
    {
      "inputs": [],
      "name": "renounceOwnership",
      "outputs": [],
      "stateMutability": "nonpayable",
      "type": "function"
    },
    {
      "inputs": [
        {
          "internalType": "address",
          "name": "clearingHouseArg",
          "type": "address"
        }
      ],
      "name": "setClearingHouse",
      "outputs": [],
      "stateMutability": "nonpayable",
      "type": "function"
    },
    {
      "inputs": [
        {
          "internalType": "address",
          "name": "marketRegistryArg",
          "type": "address"
        }
      ],
      "name": "setMarketRegistry",
      "outputs": [],
      "stateMutability": "nonpayable",
      "type": "function"
    },
    {
      "inputs": [
        {
          "internalType": "address",
          "name": "newOwner",
          "type": "address"
        }
      ],
      "name": "setOwner",
      "outputs": [],
      "stateMutability": "nonpayable",
      "type": "function"
    },
    {
      "inputs": [
        {
          "internalType": "address",
          "name": "vaultArg",
          "type": "address"
        }
      ],
      "name": "setVault",
      "outputs": [],
      "stateMutability": "nonpayable",
      "type": "function"
    },
    {
      "inputs": [
        {
          "internalType": "address",
          "name": "trader",
          "type": "address"
        },
        {
          "internalType": "address",
          "name": "baseToken",
          "type": "address"
        },
        {
          "internalType": "int256",
          "name": "takerBase",
          "type": "int256"
        },
        {
          "internalType": "int256",
          "name": "takerQuote",
          "type": "int256"
        },
        {
          "internalType": "int256",
          "name": "realizedPnl",
          "type": "int256"
        },
        {
          "internalType": "int256",
          "name": "makerFee",
          "type": "int256"
        }
      ],
      "name": "settleBalanceAndDeregister",
      "outputs": [],
      "stateMutability": "nonpayable",
      "type": "function"
    },
    {
      "inputs": [
        {
          "internalType": "address",
          "name": "trader",
          "type": "address"
        }
      ],
      "name": "settleOwedRealizedPnl",
      "outputs": [
        {
          "internalType": "int256",
          "name": "",
          "type": "int256"
        }
      ],
      "stateMutability": "nonpayable",
      "type": "function"
    },
    {
      "inputs": [
        {
          "internalType": "address",
          "name": "trader",
          "type": "address"
        },
        {
          "internalType": "address",
          "name": "baseToken",
          "type": "address"
        }
      ],
      "name": "settlePositionInClosedMarket",
      "outputs": [
        {
          "internalType": "int256",
          "name": "positionNotional",
          "type": "int256"
        },
        {
          "internalType": "int256",
          "name": "openNotional",
          "type": "int256"
        },
        {
          "internalType": "int256",
          "name": "realizedPnl",
          "type": "int256"
        },
        {
          "internalType": "uint256",
          "name": "closedPrice",
          "type": "uint256"
        }
      ],
      "stateMutability": "nonpayable",
      "type": "function"
    },
    {
      "inputs": [
        {
          "internalType": "address",
          "name": "trader",
          "type": "address"
        },
        {
          "internalType": "address",
          "name": "baseToken",
          "type": "address"
        },
        {
          "internalType": "int256",
          "name": "amount",
          "type": "int256"
        }
      ],
      "name": "settleQuoteToOwedRealizedPnl",
      "outputs": [],
      "stateMutability": "nonpayable",
      "type": "function"
    },
    {
      "inputs": [],
      "name": "updateOwner",
      "outputs": [],
      "stateMutability": "nonpayable",
      "type": "function"
    },
    {
      "inputs": [
        {
          "internalType": "address",
          "name": "trader",
          "type": "address"
        },
        {
          "internalType": "address",
          "name": "baseToken",
          "type": "address"
        },
        {
          "internalType": "int256",
          "name": "lastTwPremiumGrowthGlobalX96",
          "type": "int256"
        }
      ],
      "name": "updateTwPremiumGrowthGlobal",
      "outputs": [],
      "stateMutability": "nonpayable",
      "type": "function"
    }
  ],
  "bytecode": "0x608060405234801561001057600080fd5b50613c08806100206000396000f3fe608060405234801561001057600080fd5b506004361061022d5760003560e01c80638d928af81161013b578063c575ff79116100b8578063ec647a121161007c578063ec647a12146104ce578063f75c266d146104e1578063fa8e30af146104f4578063fc73721414610507578063fd6ceee51461051a5761022d565b8063c575ff7914610478578063c66b8ed214610480578063cb3c7b8e14610488578063d50d01b7146104a8578063d8579704146104bb5761022d565b8063b2e27148116100ff578063b2e2714814610415578063b394569014610428578063b3bd6e121461043b578063bba85bcf1461044e578063bc5920ba146104705761022d565b80638d928af8146103d55780638da5cb5b146103dd578063aa2a8294146103e5578063af74e736146103ed578063b248c4ef1461040d5761022d565b80635f9d05ad116101c95780636ccdc82e1161018d5780636ccdc82e14610381578063715018a6146103945780637a5b45a01461039c578063874044f3146103af57806389f92177146103c25761022d565b80635f9d05ad146103035780636332fef6146103265780636817031b1461034657806368f12e12146103595780636c8381f81461036c5761022d565b806310485bec1461023257806313af40351461025b578063293a5077146102705780632e4586c3146102835780633c9b5ad1146102965780633f935107146102b7578063449323d8146102ca578063485cc955146102dd5780635d6f9c14146102f0575b600080fd5b610245610240366004613378565b61052d565b60405161025291906138c3565b60405180910390f35b61026e610269366004613308565b610603565b005b61024561027e366004613308565b61075e565b61026e610291366004613378565b61085c565b6102a96102a43660046133b8565b610893565b6040516102529291906138cc565b6102456102c5366004613340565b6108b7565b61026e6102d8366004613308565b6108da565b61026e6102eb366004613340565b610981565b6102456102fe366004613308565b610ac2565b610316610311366004613340565b610acd565b60405161025294939291906138da565b610339610334366004613340565b610bd0565b6040516102529190613a26565b61026e610354366004613308565b610c27565b610245610367366004613340565b610cfc565b610374610e8c565b6040516102529190613789565b61024561038f366004613308565b610e9b565b61026e610f64565b6102456103aa366004613340565b611005565b61026e6103bd366004613455565b6110cb565b61026e6103d03660046133fd565b6110e1565b61037461111e565b61037461112d565b61037461113c565b6104006103fb366004613308565b61114b565b604051610252919061385b565b6103746111c1565b610245610423366004613340565b6111d0565b610245610436366004613340565b611218565b610245610449366004613340565b6112cd565b61046161045c366004613308565b611391565b604051610252939291906138f5565b61026e61145b565b610374611547565b610374611556565b61049b610496366004613308565b611565565b60405161025291906138b8565b6102456104b6366004613340565b611743565b61026e6104c9366004613308565b611771565b61026e6104dc366004613378565b611846565b6102456104ef366004613308565b611859565b61026e610502366004613340565b6118f6565b61026e610515366004613340565b611908565b610245610528366004613308565b611a61565b60008061053985611859565b905060006105478686610cfc565b90508184121580610556575080155b15610566576000925050506105fc565b600061057a6105758784611abe565b611af6565b905068056bc75e2d631000008111610596575091506105fc9050565b620f42406105a5846002611b1f565b86126105eb576105d36105ce6105ba8a610e9b565b620f42406105c9866002611bd7565b611c30565b611cdf565b9050620f42408162ffffff1611156105eb5750620f42405b6105f58382611d23565b9450505050505b9392505050565b61060b611d38565b6001600160a01b031661061c61112d565b6001600160a01b031614610660576040805162461bcd60e51b8152602060048201526006602482015265534f5f434e4f60d01b604482015290519081900360640190fd5b6001600160a01b0381166106a4576040805162461bcd60e51b81526020600482015260066024820152650534f5f4e57360d41b604482015290519081900360640190fd5b6033546001600160a01b03828116911614156106f0576040805162461bcd60e51b8152602060048201526006602482015265534f5f53414f60d01b604482015290519081900360640190fd5b6034546001600160a01b038281169116141561073c576040805162461bcd60e51b8152602060048201526006602482015265534f5f53414360d01b604482015290519081900360640190fd5b603480546001600160a01b0319166001600160a01b0392909216919091179055565b6001600160a01b0381166000908152609e602052604081205481908190815b8181101561082d576001600160a01b0386166000908152609e602052604081208054839081106107a957fe5b60009182526020822001546001600160a01b031691506107c988836112cd565b90506000808212156107fc576107f96107e96107e485611d3c565b611e2d565b8390670de0b6b3a7640000611e79565b90505b6108068682611f11565b955061081c6108158a85611005565b8890611f11565b9650506001909201915061077d9050565b5060008084121561083e5783610841565b60005b90506108506105758285611f11565b9450505050505b919050565b610864611f76565b6001600160a01b039283166000908152609f602090815260408083209490951682529290925291902060020155565b60008061089e611f76565b6108aa86868686611fb2565b9150915094509492505050565b6000806108c48484610cfc565b90506108d08382611abe565b9150505b92915050565b6108e2611d38565b6001600160a01b03166108f361112d565b6001600160a01b031614610937576040805162461bcd60e51b8152602060048201526006602482015265534f5f434e4f60d01b604482015290519081900360640190fd5b606780546001600160a01b0319166001600160a01b0383169081179091556040517fd0654f5900f9e7e4e605a19334306e6a2786bbf960ac0484a4c12feb6428fe2f90600090a250565b600054610100900460ff168061099a575061099a61200e565b806109a8575060005460ff16155b6109e35760405162461bcd60e51b815260040180806020018281038252602e815260200180613ad1602e913960400191505060405180910390fd5b600054610100900460ff16158015610a0e576000805460ff1961ff0019909116610100171660011790555b610a20836001600160a01b031661201f565b610a455760405162461bcd60e51b8152600401610a3c9061390b565b60405180910390fd5b610a57826001600160a01b031661201f565b610a735760405162461bcd60e51b8152600401610a3c906139c6565b610a7b612025565b609a80546001600160a01b038086166001600160a01b031992831617909255609b8054928516929091169190911790558015610abd576000805461ff00191690555b505050565b60006108d4826120cf565b600080600080610adb611f76565b6000610ae787876111d0565b9050856001600160a01b03166357a48b016040518163ffffffff1660e01b815260040160206040518083038186803b158015610b2257600080fd5b505afa158015610b36573d6000803e3d6000fd5b505050506040513d601f19601f82011682018060405250810190610b5a91906136c8565b9150610b78610b6883611e2d565b8290670de0b6b3a7640000611e79565b6001600160a01b038089166000908152609f60209081526040808320938b16835292905220600101549095509350610bb08585611f11565b9250610bbc87876122ce565b610bc68784612400565b5092959194509250565b610bd861322b565b506001600160a01b039182166000908152609f60209081526040808320939094168252918252829020825160608101845281548152600182015492810192909252600201549181019190915290565b610c2f611d38565b6001600160a01b0316610c4061112d565b6001600160a01b031614610c84576040805162461bcd60e51b8152602060048201526006602482015265534f5f434e4f60d01b604482015290519081900360640190fd5b610c96816001600160a01b031661201f565b610cb25760405162461bcd60e51b8152600401610a3c90613a06565b609c80546001600160a01b0319166001600160a01b0383169081179091556040517fa49691f0dd6477ccef49962612a236d252e3a31c3be8b61fa6abeff3e74a757290600090a250565b609b54604051635d8a541d60e01b815260009182916001600160a01b0390911690635d8a541d90610d3690879087906001906004016137b7565b604080518083038186803b158015610d4d57600080fd5b505afa158015610d61573d6000803e3d6000fd5b505050506040513d601f19601f82011682018060405250810190610d8591906135f2565b50609b54604051637c2b7c5360e01b81529192506000916001600160a01b0390911690637c2b7c5390610dc190889088906001906004016137b7565b60206040518083038186803b158015610dd957600080fd5b505afa158015610ded573d6000803e3d6000fd5b505050506040513d601f19601f82011682018060405250810190610e1191906136c8565b90506000610e30610e2183611e2d565b610e2a85611e2d565b90612482565b6001600160a01b038088166000908152609f60209081526040808320938a16835292905290812054919250610e658383611f11565b9050600a610e7282611af6565b10610e7d5780610e80565b60005b98975050505050505050565b6034546001600160a01b031690565b6001600160a01b0381166000908152609e6020908152604080832080548251818502810185019093528083528493830182828015610f0257602002820191906000526020600020905b81546001600160a01b03168152600190910190602001808311610ee4575b505050505090506000808251905060005b81811015610f5a576000848281518110610f2957fe5b602002602001015190506000610f4261057589846108b7565b9050610f4e85826124e7565b94505050600101610f13565b5090949350505050565b610f6c611d38565b6001600160a01b0316610f7d61112d565b6001600160a01b031614610fc1576040805162461bcd60e51b8152602060048201526006602482015265534f5f434e4f60d01b604482015290519081900360640190fd5b6033546040516000916001600160a01b031690600080516020613b41833981519152908390a3603380546001600160a01b0319908116909155603480549091169055565b609b54604051637c2b7c5360e01b815260009182916001600160a01b0390911690637c2b7c539061103e908790879086906004016137b7565b60206040518083038186803b15801561105657600080fd5b505afa15801561106a573d6000803e3d6000fd5b505050506040513d601f19601f8201168201806040525081019061108e91906136c8565b90506108d061109c82611e2d565b6001600160a01b038087166000908152609f602090815260408083209389168352929052206001015490612482565b6110d3611f76565b6110dd8282612400565b5050565b6110e9611f76565b6110f586868686611fb2565b50506111018682612400565b61110c868684612541565b6111168686612590565b505050505050565b609c546001600160a01b031690565b6033546001600160a01b031690565b609a546001600160a01b031690565b6001600160a01b0381166000908152609e60209081526040918290208054835181840281018401909452808452606093928301828280156111b557602002820191906000526020600020905b81546001600160a01b03168152600190910190602001808311611197575b50505050509050919050565b609b546001600160a01b031690565b6001600160a01b038083166000908152609f60209081526040808320938516835292905290812054600a61120382611af6565b1061120e57806108d0565b5060009392505050565b609b54604051635d8a541d60e01b815260009182916001600160a01b0390911690635d8a541d90611251908790879086906004016137b7565b604080518083038186803b15801561126857600080fd5b505afa15801561127c573d6000803e3d6000fd5b505050506040513d601f19601f820116820180604052508101906112a091906135f2565b50905060006112af8585611005565b90506112c4816112be84611e2d565b90611f11565b95945050505050565b609b54604051637c2b7c5360e01b815260009182916001600160a01b0390911690637c2b7c539061130790879087906001906004016137b7565b60206040518083038186803b15801561131f57600080fd5b505afa158015611333573d6000803e3d6000fd5b505050506040513d601f19601f8201168201806040525081019061135791906136c8565b90506108d061136582611e2d565b6001600160a01b038087166000908152609f602090815260408083209389168352929052205490612482565b6001600160a01b0381166000908152609e6020526040812054819081908190815b81811015611414576001600160a01b0387166000908152609e602052604081208054839081106113de57fe5b6000918252602090912001546001600160a01b0316905061140961140289836108b7565b8590611f11565b9350506001016113b2565b50600080611421886126ad565b909250905060006114328584611f11565b6001600160a01b03999099166000908152609d6020526040902054999197509095505050505050565b6034546001600160a01b03166114a0576040805162461bcd60e51b81526020600482015260056024820152640534f5f43360dc1b604482015290519081900360640190fd5b6114a8611d38565b6034546001600160a01b039081169116146114f3576040805162461bcd60e51b8152602060048201526006602482015265534f5f434e4360d01b604482015290519081900360640190fd5b6034546033546040516001600160a01b039283169290911690600080516020613b4183398151915290600090a360348054603380546001600160a01b03199081166001600160a01b03841617909155169055565b6067546001600160a01b031690565b60a0546001600160a01b031690565b6001600160a01b0381166000908152609e6020526040812054818167ffffffffffffffff8111801561159657600080fd5b506040519080825280602002602001820160405280156115c0578160200160208202803683370190505b5090506000805b838110156116c0576001600160a01b0386166000908152609e602052604081208054839081106115f357fe5b60009182526020918290200154604080516347535d7b60e01b815290516001600160a01b03909216935083926347535d7b92600480840193829003018186803b15801561163f57600080fd5b505afa158015611653573d6000803e3d6000fd5b505050506040513d601f19601f8201168201806040525081019061167791906135d8565b61168757506001909101906116b8565b80848484038151811061169657fe5b60200260200101906001600160a01b031690816001600160a01b031681525050505b6001016115c7565b50609b54604051634dffaee560e01b81526001600160a01b0390911690634dffaee5906116f390889086906004016137db565b60206040518083038186803b15801561170b57600080fd5b505afa15801561171f573d6000803e3d6000fd5b505050506040513d601f19601f820116820180604052508101906112c491906135d8565b6001600160a01b039182166000908152609f6020908152604080832093909416825291909152206001015490565b611779611d38565b6001600160a01b031661178a61112d565b6001600160a01b0316146117ce576040805162461bcd60e51b8152602060048201526006602482015265534f5f434e4f60d01b604482015290519081900360640190fd5b6117e0816001600160a01b031661201f565b6117fc5760405162461bcd60e51b8152600401610a3c9061396e565b60a080546001600160a01b0319166001600160a01b0383169081179091556040517f4e71e1fe7484668b7800d71045d3135b5734e110b6f6db4a8e9fdeb6452d961f90600090a250565b61184e611f76565b610abd838383612541565b60006108d46107e4609a60009054906101000a90046001600160a01b03166001600160a01b031663a85494026040518163ffffffff1660e01b815260040160206040518083038186803b1580156118af57600080fd5b505afa1580156118c3573d6000803e3d6000fd5b505050506040513d601f19601f820116820180604052508101906118e791906136a5565b6118f085610e9b565b906127f1565b6118fe611f76565b6110dd8282612590565b611910611f76565b6001600160a01b0382166000908152609e60209081526040918290208054835181840281018401909452808452909261198b929091849183018282801561198057602002820191906000526020600020905b81546001600160a01b03168152600190910190602001808311611962575b505050505083612806565b1561199657506110dd565b8054600181018255600082815260209081902090910180546001600160a01b0319166001600160a01b0385811691909117909155609a5460408051631623e65d60e11b815290519190921692632c47ccba9260048082019391829003018186803b158015611a0357600080fd5b505afa158015611a17573d6000803e3d6000fd5b505050506040513d601f19601f82011682018060405250810190611a3b919061372c565b60ff1681805490501115610abd5760405162461bcd60e51b8152600401610a3c9061394e565b609c546000906001600160a01b0316611a78611d38565b6001600160a01b031614611a9e5760405162461bcd60e51b8152600401610a3c906139e7565b506001600160a01b03166000908152609d60205260408120805491905590565b600081611acd575060006108d4565b6000611ad884611d3c565b90506108d0611ae682611e2d565b8490670de0b6b3a7640000611e79565b600080821215611b1657611b11611b0c83612852565b61287e565b6108d4565b6108d48261287e565b600081611b73576040805162461bcd60e51b815260206004820181905260248201527f5369676e6564536166654d6174683a206469766973696f6e206279207a65726f604482015290519081900360640190fd5b81600019148015611b875750600160ff1b83145b15611bc35760405162461bcd60e51b8152600401808060200182810382526021815260200180613aff6021913960400191505060405180910390fd5b6000828481611bce57fe5b05949350505050565b600082611be6575060006108d4565b82820282848281611bf357fe5b04146105fc5760405162461bcd60e51b8152600401808060200182810382526021815260200180613b206021913960400191505060405180910390fd5b6000808060001985870986860292508281109083900303905080611c665760008411611c5b57600080fd5b5082900490506105fc565b808411611c7257600080fd5b6000848688096000868103871696879004966002600389028118808a02820302808a02820302808a02820302808a02820302808a02820302808a02909103029181900381900460010186841190950394909402919094039290920491909117919091029150509392505050565b8062ffffff811681146108575760405162461bcd60e51b8152600401808060200182810382526026815260200180613bad6026913960400191505060405180910390fd5b60006105fc838362ffffff16620f4240611e79565b3390565b6000816001600160a01b031663c2b6b58c6040518163ffffffff1660e01b815260040160206040518083038186803b158015611d7757600080fd5b505afa158015611d8b573d6000803e3d6000fd5b505050506040513d601f19601f82011682018060405250810190611daf91906135d8565b611dbc57611b11826120cf565b816001600160a01b03166357a48b016040518163ffffffff1660e01b815260040160206040518083038186803b158015611df557600080fd5b505afa158015611e09573d6000803e3d6000fd5b505050506040513d601f19601f820116820180604052508101906108d491906136c8565b60006001600160ff1b03821115611e755760405162461bcd60e51b8152600401808060200182810382526028815260200180613b616028913960400191505060405180910390fd5b5090565b60008060008512611e8a5784611e93565b611e9385612852565b90506000808512611ea45784611ead565b611ead85612852565b905060008087128015611ec05750600086135b80611ed65750600087138015611ed65750600086125b611ee1576000611ee4565b60015b90506000611ef3848488611c30565b905081611f0857611f0381611e2d565b6105f5565b6105f5816128d5565b6000828201818312801590611f265750838112155b80611f3b5750600083128015611f3b57508381125b6105fc5760405162461bcd60e51b8152600401808060200182810382526021815260200180613ab06021913960400191505060405180910390fd5b6067546001600160a01b0316611f8a611d38565b6001600160a01b031614611fb05760405162461bcd60e51b8152600401610a3c9061392d565b565b6001600160a01b038085166000908152609f6020908152604080832093871683529290529081208054829190611fe89086611f11565b81556001810154611ff99085611f11565b60018201819055905497909650945050505050565b60006120193061201f565b15905090565b3b151590565b600054610100900460ff168061203e575061203e61200e565b8061204c575060005460ff16155b6120875760405162461bcd60e51b815260040180806020018281038252602e815260200180613ad1602e913960400191505060405180910390fd5b600054610100900460ff161580156120b2576000805460ff1961ff0019909116610100171660011790555b6120ba6128e9565b80156120cc576000805461ff00191690555b50565b609a546040805163b0a336a760e01b815281516000936001600160a01b03169284928392859263b0a336a79260048082019391829003018186803b15801561211657600080fd5b505afa15801561212a573d6000803e3d6000fd5b505050506040513d601f19601f8201168201806040525081019061214e91906136fa565b9150915061215c82826129d8565b15806121d65750846001600160a01b03166347535d7b6040518163ffffffff1660e01b815260040160206040518083038186803b15801561219c57600080fd5b505afa1580156121b0573d6000803e3d6000fd5b505050506040513d601f19601f820116820180604052508101906121d491906135d8565b155b1561225f5761225585846001600160a01b0316633e742e3b6040518163ffffffff1660e01b815260040160206040518083038186803b15801561221857600080fd5b505afa15801561222c573d6000803e3d6000fd5b505050506040513d601f19601f8201168201806040525081019061225091906136e0565b612a0f565b9350505050610857565b600061226c866000612a8e565b9050600061227a8785612a8e565b9050600061229b61228e6107e48a87612a0f565b610e2a6107e48b88612a8e565b905060006122b4611b0c836112be6107e48d6000612a0f565b90506122c1848483612b36565b9998505050505050505050565b6001600160a01b038083166000818152609f60209081526040808320948616835293815283822082815560018101839055600201829055918152609e909152908120805490915b818110156123f957836001600160a01b031683828154811061233357fe5b6000918252602090912001546001600160a01b031614156123f1576001820381146123c05782600183038154811061236757fe5b9060005260206000200160009054906101000a90046001600160a01b031683828154811061239157fe5b9060005260206000200160006101000a8154816001600160a01b0302191690836001600160a01b031602179055505b828054806123ca57fe5b600082815260209020810160001990810180546001600160a01b03191690550190556123f9565b600101612315565b5050505050565b80156110dd576001600160a01b0382166000908152609d60205260409020546124299082611f11565b6001600160a01b0383166000818152609d6020526040908190209290925590517febf4e69d81451d269fc4d9551b06d58bea2ed426d2c528919ce45f6070946efb906124769084906138c3565b60405180910390a25050565b60008183038183128015906124975750838113155b806124ac57506000831280156124ac57508381135b6105fc5760405162461bcd60e51b8152600401808060200182810382526024815260200180613b896024913960400191505060405180910390fd5b6000828201838110156105fc576040805162461bcd60e51b815260206004820152601b60248201527f536166654d6174683a206164646974696f6e206f766572666c6f770000000000604482015290519081900360640190fd5b8015610abd576001600160a01b038084166000908152609f60209081526040808320938616835292905220600181015461257b9083612482565b600182015561258a8483612400565b50505050565b6001600160a01b038083166000908152609f602090815260408083209385168352928152908290208251606081018452815480825260018301549382019390935260029091015492810192909252600a906125ea90611af6565b1015806126045750600a6126018260200151611af6565b10155b1561260f57506110dd565b609b546040516321b499f560e11b81526000916001600160a01b03169063436933ea90612642908790879060040161379d565b60006040518083038186803b15801561265a57600080fd5b505afa15801561266e573d6000803e3d6000fd5b505050506040513d6000823e601f3d908101601f191682016040526126969190810190613480565b5111156126a357506110dd565b610abd83836122ce565b6001600160a01b0381166000908152609e602052604081205481908190815b81811015612745576001600160a01b0386166000908152609e602052604081208054839081106126f857fe5b60009182526020808320909101546001600160a01b038a81168452609f835260408085209190921680855292529091206001015490915061273a908590611f11565b9350506001016126cc565b50609b546001600160a01b038681166000908152609e6020526040808220905163d0581a9360e01b81529193929092169163d0581a939161278a918a916004016137ff565b604080518083038186803b1580156127a157600080fd5b505afa1580156127b5573d6000803e3d6000fd5b505050506040513d601f19601f820116820180604052508101906127d991906135f2565b945090506127e78382611f11565b9450505050915091565b60006105fc838362ffffff16620f4240611c30565b6000805b835181101561120e57826001600160a01b031684828151811061282957fe5b60200260200101516001600160a01b0316141561284a5760019150506108d4565b60010161280a565b6000600160ff1b82136128775760405162461bcd60e51b8152600401610a3c9061398f565b5060000390565b600080821215611e75576040805162461bcd60e51b815260206004820181905260248201527f53616665436173743a2076616c7565206d75737420626520706f736974697665604482015290519081900360640190fd5b60006128e082611e2d565b60000392915050565b600054610100900460ff1680612902575061290261200e565b80612910575060005460ff16155b61294b5760405162461bcd60e51b815260040180806020018281038252602e815260200180613ad1602e913960400191505060405180910390fd5b600054610100900460ff16158015612976576000805460ff1961ff0019909116610100171660011790555b61297e612b65565b6000612988611d38565b603380546001600160a01b0319166001600160a01b03831690811790915560405191925090600090600080516020613b41833981519152908290a35080156120cc576000805461ff001916905550565b60a0546000906001600160a01b0316158015906129fa575063ffffffff831615155b80156105fc57505063ffffffff161515919050565b604051631208064760e01b81526000906001600160a01b03841690631208064790612a3e908590600401613a47565b60206040518083038186803b158015612a5657600080fd5b505afa158015612a6a573d6000803e3d6000fd5b505050506040513d601f19601f820116820180604052508101906105fc91906136c8565b60a05460405163bbe4f6db60e01b81526000916105fc91612b3191612b23916001600160a01b039091169063bbe4f6db90612acd908990600401613789565b60206040518083038186803b158015612ae557600080fd5b505afa158015612af9573d6000803e3d6000fd5b505050506040513d601f19601f82011682018060405250810190612b1d9190613324565b85612bfa565b6001600160a01b0316612c08565b612c22565b6000612b5d612b458585612c3b565b612b58612b528787612c51565b85612c3b565b612c51565b949350505050565b600054610100900460ff1680612b7e5750612b7e61200e565b80612b8c575060005460ff16155b612bc75760405162461bcd60e51b815260040180806020018281038252602e815260200180613ad1602e913960400191505060405180910390fd5b600054610100900460ff16158015612bf2576000805460ff1961ff0019909116610100171660011790555b6120ba612c61565b60006105fc83600084612d01565b60006108d46001600160a01b03831680600160601b611c30565b60006108d482670de0b6b3a7640000600160601b611c30565b6000818310612c4a57816105fc565b5090919050565b600081831015612c4a57816105fc565b600054610100900460ff1680612c7a5750612c7a61200e565b80612c88575060005460ff16155b612cc35760405162461bcd60e51b815260040180806020018281038252602e815260200180613ad1602e913960400191505060405180910390fd5b600054610100900460ff161580156120ba576000805460ff1961ff00199091166101001716600117905580156120cc576000805461ff001916905550565b6000600a8263ffffffff161015612d2d576000612d1d85612e70565b509496506105fc95505050505050565b60408051600280825260608201835260009260208301908036833701905050905082840181600081518110612d5e57fe5b602002602001019063ffffffff16908163ffffffff16815250508381600181518110612d8657fe5b63ffffffff9092166020928302919091019091015260405163883bdbfd60e01b81526000906001600160a01b0387169063883bdbfd90612dca90859060040161386e565b60006040518083038186803b158015612de257600080fd5b505afa158015612df6573d6000803e3d6000fd5b505050506040513d6000823e601f3d908101601f19168201604052612e1e9190810190613510565b509050612e668463ffffffff1682600081518110612e3857fe5b602002602001015183600181518110612e4d57fe5b60200260200101510360060b81612e6057fe5b05612f03565b9695505050505050565b6000806000806000806000876001600160a01b0316633850c7bd6040518163ffffffff1660e01b815260040160e06040518083038186803b158015612eb457600080fd5b505afa158015612ec8573d6000803e3d6000fd5b505050506040513d601f19601f82011682018060405250810190612eec9190613615565b959e949d50929b5090995097509550909350915050565b60008060008360020b12612f1a578260020b612f22565b8260020b6000035b9050620d89e8811115612f60576040805162461bcd60e51b81526020600482015260016024820152601560fa1b604482015290519081900360640190fd5b600060018216612f7457600160801b612f86565b6ffffcb933bd6fad37aa2d162d1a5940015b6001600160881b031690506002821615612fb0576ffff97272373d413259a46990580e213a0260801c5b6004821615612fcf576ffff2e50f5f656932ef12357cf3c7fdcc0260801c5b6008821615612fee576fffe5caca7e10e4e61c3624eaa0941cd00260801c5b601082161561300d576fffcb9843d60f6159c9db58835c9266440260801c5b602082161561302c576fff973b41fa98c081472e6896dfb254c00260801c5b604082161561304b576fff2ea16466c96a3843ec78b326b528610260801c5b608082161561306a576ffe5dee046a99a2a811c461f1969c30530260801c5b61010082161561308a576ffcbe86c7900a88aedcffc83b479aa3a40260801c5b6102008216156130aa576ff987a7253ac413176f2b074cf7815e540260801c5b6104008216156130ca576ff3392b0822b70005940c7a398e4b70f30260801c5b6108008216156130ea576fe7159475a2c29b7443b29c7fa6e889d90260801c5b61100082161561310a576fd097f3bdfd2022b8845ad8f792aa58250260801c5b61200082161561312a576fa9f746462d870fdf8a65dc1f90e061e50260801c5b61400082161561314a576f70d869a156d2a1b890bb3df62baf32f70260801c5b61800082161561316a576f31be135f97d08fd981231505542fcfa60260801c5b6201000082161561318b576f09aa508b5b7a84e1c677de54f3e99bc90260801c5b620200008216156131ab576e5d6af8dedb81196699c329225ee6040260801c5b620400008216156131ca576d2216e584f5fa1ea926041bedfe980260801c5b620800008216156131e7576b048a170391f7dc42444e8fa20260801c5b60008460020b13156132025780600019816131fe57fe5b0490505b640100000000810615613216576001613219565b60005b60ff16602082901c0192505050919050565b60405180606001604052806000815260200160008152602001600081525090565b600082601f83011261325c578081fd5b8151602061327161326c83613a7c565b613a58565b828152818101908583018385028701840188101561328d578586fd5b855b858110156132b45781516132a281613a9a565b8452928401929084019060010161328f565b5090979650505050505050565b8051801515811461085757600080fd5b805161ffff8116811461085757600080fd5b805163ffffffff8116811461085757600080fd5b805160ff8116811461085757600080fd5b600060208284031215613319578081fd5b81356105fc81613a9a565b600060208284031215613335578081fd5b81516105fc81613a9a565b60008060408385031215613352578081fd5b823561335d81613a9a565b9150602083013561336d81613a9a565b809150509250929050565b60008060006060848603121561338c578081fd5b833561339781613a9a565b925060208401356133a781613a9a565b929592945050506040919091013590565b600080600080608085870312156133cd578081fd5b84356133d881613a9a565b935060208501356133e881613a9a565b93969395505050506040820135916060013590565b60008060008060008060c08789031215613415578384fd5b863561342081613a9a565b9550602087013561343081613a9a565b95989597505050506040840135936060810135936080820135935060a0909101359150565b60008060408385031215613467578182fd5b823561347281613a9a565b946020939093013593505050565b60006020808385031215613492578182fd5b825167ffffffffffffffff8111156134a8578283fd5b8301601f810185136134b8578283fd5b80516134c661326c82613a7c565b81815283810190838501858402850186018910156134e2578687fd5b8694505b838510156135045780518352600194909401939185019185016134e6565b50979650505050505050565b60008060408385031215613522578182fd5b825167ffffffffffffffff80821115613539578384fd5b818501915085601f83011261354c578384fd5b8151602061355c61326c83613a7c565b82815281810190858301838502870184018b1015613578578889fd5b8896505b848710156135a85780518060060b811461359457898afd5b83526001969096019591830191830161357c565b50918801519196509093505050808211156135c1578283fd5b506135ce8582860161324c565b9150509250929050565b6000602082840312156135e9578081fd5b6105fc826132c1565b60008060408385031215613604578182fd5b505080516020909101519092909150565b600080600080600080600060e0888a03121561362f578485fd5b875161363a81613a9a565b8097505060208801518060020b8114613651578586fd5b955061365f604089016132d1565b945061366d606089016132d1565b935061367b608089016132d1565b925061368960a089016132f7565b915061369760c089016132c1565b905092959891949750929550565b6000602082840312156136b6578081fd5b815162ffffff811681146105fc578182fd5b6000602082840312156136d9578081fd5b5051919050565b6000602082840312156136f1578081fd5b6105fc826132e3565b6000806040838503121561370c578182fd5b613715836132e3565b9150613723602084016132e3565b90509250929050565b60006020828403121561373d578081fd5b6105fc826132f7565b6000815180845260208085019450808401835b8381101561377e5781516001600160a01b031687529582019590820190600101613759565b509495945050505050565b6001600160a01b0391909116815260200190565b6001600160a01b0392831681529116602082015260400190565b6001600160a01b039384168152919092166020820152901515604082015260600190565b6001600160a01b0383168152604060208201819052600090612b5d90830184613746565b60006040820160018060a01b03808616845260206040818601528286548085526060870191508786528286209450855b8181101561384d57855485168352600195860195928401920161382f565b509098975050505050505050565b6000602082526105fc6020830184613746565b6020808252825182820181905260009190848201906040850190845b818110156138ac57835163ffffffff168352928401929184019160010161388a565b50909695505050505050565b901515815260200190565b90815260200190565b918252602082015260400190565b93845260208401929092526040830152606082015260800190565b9283526020830191909152604082015260600190565b60208082526008908201526741425f4348434e4360c01b604082015260600190565b6020808252600790820152660869088be9e86960cb1b604082015260600190565b60208082526006908201526541425f4d4e4560d01b604082015260600190565b60208082526007908201526641425f4d524e4360c81b604082015260600190565b6020808252601c908201527f506572704d6174683a20696e76657273696f6e206f766572666c6f7700000000604082015260600190565b60208082526007908201526641425f4f424e4360c81b604082015260600190565b60208082526005908201526420a12fa7ab60d91b604082015260600190565b60208082526006908201526541425f564e4360d01b604082015260600190565b81518152602080830151908201526040918201519181019190915260600190565b63ffffffff91909116815260200190565b60405181810167ffffffffffffffff81118282101715613a7457fe5b604052919050565b600067ffffffffffffffff821115613a9057fe5b5060209081020190565b6001600160a01b03811681146120cc57600080fdfe5369676e6564536166654d6174683a206164646974696f6e206f766572666c6f77496e697469616c697a61626c653a20636f6e747261637420697320616c726561647920696e697469616c697a65645369676e6564536166654d6174683a206469766973696f6e206f766572666c6f77536166654d6174683a206d756c7469706c69636174696f6e206f766572666c6f778be0079c531659141344cd1fd0a4f28419497f9722a3daafe3b4186f6b6457e053616665436173743a2076616c756520646f65736e27742066697420696e20616e20696e743235365369676e6564536166654d6174683a207375627472616374696f6e206f766572666c6f7753616665436173743a2076616c756520646f65736e27742066697420696e2032342062697473a26469706673582212201e1e32540f07dd7368d335292a278896bea6099a8b6c46d2e5da55729c48fb1764736f6c63430007060033",
  "linkReferences": {},
  "deployedLinkReferences": {}
}