{
  "_format": "hh-sol-artifact-1",
  "contractName": "TestSettlementTokenMath",
  "sourceName": "contracts/test/TestSettlementTokenMath.sol",
  "abi": [
    {
      "inputs": [
        {
          "internalType": "uint256",
          "name": "amount",
          "type": "uint256"
        },
        {
          "internalType": "uint8",
          "name": "fromDecimals",
          "type": "uint8"
        },
        {
          "internalType": "uint8",
          "name": "toDecimals",
          "type": "uint8"
        }
      ],
      "name": "testConvertTokenDecimals",
      "outputs": [
        {
          "internalType": "uint256",
          "name": "",
          "type": "uint256"
        }
      ],
      "stateMutability": "pure",
      "type": "function"
    },
    {
      "inputs": [
        {
          "internalType": "int256",
          "name": "amount",
          "type": "int256"
        },
        {
          "internalType": "uint8",
          "name": "fromDecimals",
          "type": "uint8"
        },
        {
          "internalType": "uint8",
          "name": "toDecimals",
          "type": "uint8"
        }
      ],
      "name": "testConvertTokenDecimals",
      "outputs": [
        {
          "internalType": "int256",
          "name": "",
          "type": "int256"
        }
      ],
      "stateMutability": "pure",
      "type": "function"
    },
    {
      "inputs": [
        {
          "internalType": "uint256",
          "name": "amount",
          "type": "uint256"
        },
        {
          "internalType": "uint8",
          "name": "decimals",
          "type": "uint8"
        }
      ],
      "name": "testFormatSettlementToken",
      "outputs": [
        {
          "internalType": "uint256",
          "name": "",
          "type": "uint256"
        }
      ],
      "stateMutability": "pure",
      "type": "function"
    },
    {
      "inputs": [
        {
          "internalType": "int256",
          "name": "amount",
          "type": "int256"
        },
        {
          "internalType": "uint8",
          "name": "decimals",
          "type": "uint8"
        }
      ],
      "name": "testFormatSettlementToken",
      "outputs": [
        {
          "internalType": "int256",
          "name": "",
          "type": "int256"
        }
      ],
      "stateMutability": "pure",
      "type": "function"
    },
    {
      "inputs": [
        {
          "internalType": "uint256",
          "name": "settlementToken",
          "type": "uint256"
        },
        {
          "internalType": "uint256",
          "name": "amountX10_18",
          "type": "uint256"
        },
        {
          "internalType": "uint8",
          "name": "decimals",
          "type": "uint8"
        }
      ],
      "name": "testGt",
      "outputs": [
        {
          "internalType": "bool",
          "name": "",
          "type": "bool"
        }
      ],
      "stateMutability": "pure",
      "type": "function"
    },
    {
      "inputs": [
        {
          "internalType": "int256",
          "name": "settlementToken",
          "type": "int256"
        },
        {
          "internalType": "int256",
          "name": "amountX10_18",
          "type": "int256"
        },
        {
          "internalType": "uint8",
          "name": "decimals",
          "type": "uint8"
        }
      ],
      "name": "testGt",
      "outputs": [
        {
          "internalType": "bool",
          "name": "",
          "type": "bool"
        }
      ],
      "stateMutability": "pure",
      "type": "function"
    },
    {
      "inputs": [
        {
          "internalType": "uint256",
          "name": "settlementToken",
          "type": "uint256"
        },
        {
          "internalType": "uint256",
          "name": "amountX10_18",
          "type": "uint256"
        },
        {
          "internalType": "uint8",
          "name": "decimals",
          "type": "uint8"
        }
      ],
      "name": "testGte",
      "outputs": [
        {
          "internalType": "bool",
          "name": "",
          "type": "bool"
        }
      ],
      "stateMutability": "pure",
      "type": "function"
    },
    {
      "inputs": [
        {
          "internalType": "int256",
          "name": "settlementToken",
          "type": "int256"
        },
        {
          "internalType": "int256",
          "name": "amountX10_18",
          "type": "int256"
        },
        {
          "internalType": "uint8",
          "name": "decimals",
          "type": "uint8"
        }
      ],
      "name": "testGte",
      "outputs": [
        {
          "internalType": "bool",
          "name": "",
          "type": "bool"
        }
      ],
      "stateMutability": "pure",
      "type": "function"
    },
    {
      "inputs": [
        {
          "internalType": "uint256",
          "name": "settlementToken",
          "type": "uint256"
        },
        {
          "internalType": "uint256",
          "name": "amountX10_18",
          "type": "uint256"
        },
        {
          "internalType": "uint8",
          "name": "decimals",
          "type": "uint8"
        }
      ],
      "name": "testLt",
      "outputs": [
        {
          "internalType": "bool",
          "name": "",
          "type": "bool"
        }
      ],
      "stateMutability": "pure",
      "type": "function"
    },
    {
      "inputs": [
        {
          "internalType": "int256",
          "name": "settlementToken",
          "type": "int256"
        },
        {
          "internalType": "int256",
          "name": "amountX10_18",
          "type": "int256"
        },
        {
          "internalType": "uint8",
          "name": "decimals",
          "type": "uint8"
        }
      ],
      "name": "testLt",
      "outputs": [
        {
          "internalType": "bool",
          "name": "",
          "type": "bool"
        }
      ],
      "stateMutability": "pure",
      "type": "function"
    },
    {
      "inputs": [
        {
          "internalType": "int256",
          "name": "settlementToken",
          "type": "int256"
        },
        {
          "internalType": "int256",
          "name": "amountX10_18",
          "type": "int256"
        },
        {
          "internalType": "uint8",
          "name": "decimals",
          "type": "uint8"
        }
      ],
      "name": "testLte",
      "outputs": [
        {
          "internalType": "bool",
          "name": "",
          "type": "bool"
        }
      ],
      "stateMutability": "pure",
      "type": "function"
    },
    {
      "inputs": [
        {
          "internalType": "uint256",
          "name": "settlementToken",
          "type": "uint256"
        },
        {
          "internalType": "uint256",
          "name": "amountX10_18",
          "type": "uint256"
        },
        {
          "internalType": "uint8",
          "name": "decimals",
          "type": "uint8"
        }
      ],
      "name": "testLte",
      "outputs": [
        {
          "internalType": "bool",
          "name": "",
          "type": "bool"
        }
      ],
      "stateMutability": "pure",
      "type": "function"
    },
    {
      "inputs": [
        {
          "internalType": "uint256",
          "name": "amount",
          "type": "uint256"
        },
        {
          "internalType": "uint8",
          "name": "decimals",
          "type": "uint8"
        }
      ],
      "name": "testParseSettlementToken",
      "outputs": [
        {
          "internalType": "uint256",
          "name": "",
          "type": "uint256"
        }
      ],
      "stateMutability": "pure",
      "type": "function"
    },
    {
      "inputs": [
        {
          "internalType": "int256",
          "name": "amount",
          "type": "int256"
        },
        {
          "internalType": "uint8",
          "name": "decimals",
          "type": "uint8"
        }
      ],
      "name": "testParseSettlementToken",
      "outputs": [
        {
          "internalType": "int256",
          "name": "",
          "type": "int256"
        }
      ],
      "stateMutability": "pure",
      "type": "function"
    }
  ],
  "bytecode": "0x608060405234801561001057600080fd5b5061096b806100206000396000f3fe608060405234801561001057600080fd5b50600436106100ca5760003560e01c8063684020221161007c578063684020221461021f5780636ff4d1cf1461024557806386eed16714610271578063b6c6891d1461029d578063c2706d73146102cb578063e6524eb2146102f7578063fcd0c4641461031d576100ca565b806304f36b8a146100cf5780630996b0d31461010757806320fbd2381461013557806324bd48ca1461015b5780632bebfba91461019b5780633172b710146101c757806358d0b98a146101f3575b600080fd5b6100f5600480360360408110156100e557600080fd5b508035906020013560ff16610349565b60408051918252519081900360200190f35b6100f56004803603606081101561011d57600080fd5b5080359060ff6020820135811691604001351661035e565b6100f56004803603604081101561014b57600080fd5b508035906020013560ff16610375565b6101876004803603606081101561017157600080fd5b508035906020810135906040013560ff16610381565b604080519115158252519081900360200190f35b610187600480360360608110156101b157600080fd5b508035906020810135906040013560ff1661038e565b610187600480360360608110156101dd57600080fd5b508035906020810135906040013560ff1661039b565b6101876004803603606081101561020957600080fd5b508035906020810135906040013560ff166103a8565b6100f56004803603604081101561023557600080fd5b508035906020013560ff166103b5565b6101876004803603606081101561025b57600080fd5b508035906020810135906040013560ff166103c1565b6101876004803603606081101561028757600080fd5b508035906020810135906040013560ff166103ce565b6100f5600480360360608110156102b357600080fd5b5080359060ff602082013581169160400135166103db565b610187600480360360608110156102e157600080fd5b508035906020810135906040013560ff166103e8565b6100f56004803603604081101561030d57600080fd5b508035906020013560ff166103f5565b6101876004803603606081101561033357600080fd5b508035906020810135906040013560ff16610401565b6000610355838361040e565b90505b92915050565b600061036b848484610424565b90505b9392505050565b60006103558383610471565b600061036b848484610487565b600061036b84848461049e565b600061036b8484846104b4565b600061036b8484846104ca565b600061035583836104e0565b600061036b8484846104f6565b600061036b84848461050c565b600061036b848484610523565b600061036b8484846105ae565b600061035583836105c5565b600061036b84848461060e565b60006103558360ff601285900316600a0a610625565b60008160ff168360ff16141561043b57508261036e565b8160ff168360ff161161045f5761045a8460ff85850316600a0a61068c565b61036b565b61036b8460ff84860316600a0a610625565b60006103558360ff601285900316600a0a61068c565b60008261049485846104e0565b1315949350505050565b6000826104ab8584610471565b10949350505050565b6000826104c18584610471565b11949350505050565b6000826104d785846104e0565b12949350505050565b60006103558360ff601285900316600a0a6106e5565b60008261050385846104e0565b13949350505050565b6000826105198584610471565b1015949350505050565b60008160ff168360ff16141561053a57508261036e565b8160ff168360ff1610156105615761055a8460ff85850316600a0a6106e5565b905061036e565b60ff82840316600a0a60008086128015610586575081866000038161058257fe5b0615155b1561059057506000195b6105a48161059e888561078e565b90610846565b9695505050505050565b6000826105bb85846104e0565b1215949350505050565b600060ff601283900316600a0a8180851280156105ed57508185600003816105e957fe5b0615155b156105f757506000195b6106058161059e878561078e565b95945050505050565b60008261061b8584610471565b1115949350505050565b600080821161067b576040805162461bcd60e51b815260206004820152601a60248201527f536166654d6174683a206469766973696f6e206279207a65726f000000000000604482015290519081900360640190fd5b81838161068457fe5b049392505050565b60008261069b57506000610358565b828202828482816106a857fe5b04146103555760405162461bcd60e51b81526004018080602001828103825260218152602001806108ee6021913960400191505060405180910390fd5b6000826106f457506000610358565b826000191480156107085750600160ff1b82145b156107445760405162461bcd60e51b815260040180806020018281038252602781526020018061090f6027913960400191505060405180910390fd5b8282028284828161075157fe5b05146103555760405162461bcd60e51b815260040180806020018281038252602781526020018061090f6027913960400191505060405180910390fd5b6000816107e2576040805162461bcd60e51b815260206004820181905260248201527f5369676e6564536166654d6174683a206469766973696f6e206279207a65726f604482015290519081900360640190fd5b816000191480156107f65750600160ff1b83145b156108325760405162461bcd60e51b81526004018080602001828103825260218152602001806108cd6021913960400191505060405180910390fd5b600082848161083d57fe5b05949350505050565b600082820181831280159061085b5750838112155b80610870575060008312801561087057508381125b6103555760405162461bcd60e51b81526004018080602001828103825260218152602001806108ac6021913960400191505060405180910390fdfe5369676e6564536166654d6174683a206164646974696f6e206f766572666c6f775369676e6564536166654d6174683a206469766973696f6e206f766572666c6f77536166654d6174683a206d756c7469706c69636174696f6e206f766572666c6f775369676e6564536166654d6174683a206d756c7469706c69636174696f6e206f766572666c6f77a2646970667358221220a92a8707f96e44e5448235c00fc6991effced52a233329d501590f987e1404f264736f6c63430007060033",
  "linkReferences": {},
  "deployedLinkReferences": {}
}