{
  "_format": "hh-sol-artifact-1",
  "contractName": "ChainlinkPriceFeedV2",
  "sourceName": "@perp/perp-oracle-contract/contracts/ChainlinkPriceFeedV2.sol",
  "abi": [
    {
      "inputs": [
        {
          "internalType": "contract AggregatorV3Interface",
          "name": "aggregator",
          "type": "address"
        },
        {
          "internalType": "uint80",
          "name": "cacheTwapInterval",
          "type": "uint80"
        }
      ],
      "stateMutability": "nonpayable",
      "type": "constructor"
    },
    {
      "inputs": [
        {
          "internalType": "uint256",
          "name": "interval",
          "type": "uint256"
        }
      ],
      "name": "cacheTwap",
      "outputs": [
        {
          "internalType": "uint256",
          "name": "",
          "type": "uint256"
        }
      ],
      "stateMutability": "nonpayable",
      "type": "function"
    },
    {
      "inputs": [],
      "name": "currentObservationIndex",
      "outputs": [
        {
          "internalType": "uint8",
          "name": "",
          "type": "uint8"
        }
      ],
      "stateMutability": "view",
      "type": "function"
    },
    {
      "inputs": [],
      "name": "decimals",
      "outputs": [
        {
          "internalType": "uint8",
          "name": "",
          "type": "uint8"
        }
      ],
      "stateMutability": "view",
      "type": "function"
    },
    {
      "inputs": [],
      "name": "getAggregator",
      "outputs": [
        {
          "internalType": "address",
          "name": "",
          "type": "address"
        }
      ],
      "stateMutability": "view",
      "type": "function"
    },
    {
      "inputs": [
        {
          "internalType": "uint256",
          "name": "interval",
          "type": "uint256"
        }
      ],
      "name": "getPrice",
      "outputs": [
        {
          "internalType": "uint256",
          "name": "",
          "type": "uint256"
        }
      ],
      "stateMutability": "view",
      "type": "function"
    },
    {
      "inputs": [
        {
          "internalType": "uint80",
          "name": "roundId",
          "type": "uint80"
        }
      ],
      "name": "getRoundData",
      "outputs": [
        {
          "internalType": "uint256",
          "name": "",
          "type": "uint256"
        },
        {
          "internalType": "uint256",
          "name": "",
          "type": "uint256"
        }
      ],
      "stateMutability": "view",
      "type": "function"
    },
    {
      "inputs": [
        {
          "internalType": "uint256",
          "name": "",
          "type": "uint256"
        }
      ],
      "name": "observations",
      "outputs": [
        {
          "internalType": "uint256",
          "name": "price",
          "type": "uint256"
        },
        {
          "internalType": "uint256",
          "name": "priceCumulative",
          "type": "uint256"
        },
        {
          "internalType": "uint256",
          "name": "timestamp",
          "type": "uint256"
        }
      ],
      "stateMutability": "view",
      "type": "function"
    },
    {
      "inputs": [],
      "name": "update",
      "outputs": [],
      "stateMutability": "nonpayable",
      "type": "function"
    }
  ],
  "bytecode": "0x60a060405234801561001057600080fd5b50604051610fc0380380610fc08339818101604052604081101561003357600080fd5b5080516020918201516103028054600160a01b600160f01b031916600160a01b6001600160501b03841602179055909161007f906001600160a01b038416906100d0811b61045f17901c565b6100ba576040805162461bcd60e51b81526020600482015260076024820152664350465f414e4360c81b604482015290519081900360640190fd5b5060601b6001600160601b0319166080526100d6565b3b151590565b60805160601c610eb461010c60003980610212528061029c52806102c6528061047052806107e052806108a65250610eb46000f3fe608060405234801561001057600080fd5b50600436106100785760003560e01c80631d1a111a1461007d578063252c09d7146100ac578063313ce567146100e75780633ad59dbc146101055780639a6fc8f514610129578063a2e6204514610168578063aed3aff714610172578063e75722301461017a575b600080fd5b61009a6004803603602081101561009357600080fd5b5035610197565b60408051918252519081900360200190f35b6100c9600480360360208110156100c257600080fd5b50356101e6565b60408051938452602084019290925282820152519081900360600190f35b6100ef61020e565b6040805160ff9092168252519081900360200190f35b61010d61029a565b604080516001600160a01b039092168252519081900360200190f35b61014f6004803603602081101561013f57600080fd5b50356001600160501b03166102be565b6040805192835260208301919091528051918290030190f35b6101706103f4565b005b6100ef610412565b61009a6004803603602081101561019057600080fd5b503561041b565b6000806000806101a5610465565b92509250925084600014806101c157506001600160501b038316155b156101d0575091506101e19050565b6101db85838361053c565b93505050505b919050565b60018161010081106101f757600080fd5b600302018054600182015460029092015490925083565b60007f00000000000000000000000000000000000000000000000000000000000000006001600160a01b031663313ce5676040518163ffffffff1660e01b815260040160206040518083038186803b15801561026957600080fd5b505afa15801561027d573d6000803e3d6000fd5b505050506040513d602081101561029357600080fd5b5051905090565b7f000000000000000000000000000000000000000000000000000000000000000090565b6000806000807f00000000000000000000000000000000000000000000000000000000000000006001600160a01b0316639a6fc8f5866040518263ffffffff1660e01b815260040180826001600160501b0316815260200191505060a06040518083038186803b15801561033157600080fd5b505afa158015610345573d6000803e3d6000fd5b505050506040513d60a081101561035b57600080fd5b5060208101516060909101519092509050600082136103aa576040805162461bcd60e51b815260206004820152600660248201526504350465f49560d41b604482015290519081900360640190fd5b600081116103ea576040805162461bcd60e51b81526020600482015260086024820152674350465f52494e4360c01b604482015290519081900360640190fd5b9092509050915091565b6000806103ff610465565b925092505061040e82826105d5565b5050565b60005460ff1681565b600080600080610429610465565b925092509250846000148061044557506001600160501b038316155b15610454575091506101e19050565b6101db858383610731565b3b151590565b6000806000806000807f00000000000000000000000000000000000000000000000000000000000000006001600160a01b031663feaf968c6040518163ffffffff1660e01b815260040160a06040518083038186803b1580156104c757600080fd5b505afa1580156104db573d6000803e3d6000fd5b505050506040513d60a08110156104f157600080fd5b50805160208201516060909201519196509350859250905060008212156105305761051b8361078a565b610527600184036107d5565b90965090935090505b91945090915050909192565b61030254600090600160a01b90046001600160501b0316841461056b5761056484848461095e565b90506105ce565b610302546001600160a01b0316610580610985565b146105c85761058f83836105d5565b610597610985565b61030280546001600160a01b0319166001600160a01b03929092169190911790556105c384848461095e565b610301555b50610301545b9392505050565b60005460ff161580156105e85750600354155b15610642576040518060600160405280838152602001600081526020018281525060016000610100811061061857fe5b6003020160008201518160000155602082015181600101556040820151816002015590505061040e565b6000805460019060ff16610100811061065757fe5b6040805160608101825260039290920292909201805482526001810154602083015260020154918101829052915082116106ac5760405162461bcd60e51b81526004016106a390610e3e565b60405180910390fd5b6000805460ff198116600160ff92831681018316919091179283905560408481015181516060810183528881528651602080890151938a039182029093019282019290925291820187905293909216610100811061070657fe5b6003020160008201518160000155602082015181600101556040820151816002015590505050505050565b610302546000906001600160a01b0316610749610985565b148015610768575061030254600160a01b90046001600160501b031684145b156107775750610301546105ce565b61078284848461095e565b949350505050565b6000816001600160501b0316116107d2576040805162461bcd60e51b8152602060048201526007602482015266086a08cbe9c8a960cb1b604482015290519081900360640190fd5b50565b6000806000806000807f00000000000000000000000000000000000000000000000000000000000000006001600160a01b0316639a6fc8f5886040518263ffffffff1660e01b815260040180826001600160501b0316815260200191505060a06040518083038186803b15801561084b57600080fd5b505afa15801561085f573d6000803e3d6000fd5b505050506040513d60a081101561087557600080fd5b508051602082015160609092015190945090925090505b60008212156109515761089e8361078a565b6001830392507f00000000000000000000000000000000000000000000000000000000000000006001600160a01b0316639a6fc8f5846040518263ffffffff1660e01b815260040180826001600160501b0316815260200191505060a06040518083038186803b15801561091157600080fd5b505afa158015610925573d6000803e3d6000fd5b505050506040513d60a081101561093b57600080fd5b506020810151606090910151909250905061088c565b9196909550909350915050565b60008061096c858585610989565b9050801561097a578061097c565b835b95945050505050565b4290565b6000805460ff1615801561099d5750600354155b156109aa575060006105ce565b6000805460019060ff1661010081106109bf57fe5b600302016040518060600160405290816000820154815260200160018201548152602001600282015481525050905060006109f8610985565b90506000610a068288610b32565b90506000610a57610a4c610a24610a1d868a610b32565b8a90610b94565b610a46610a3e88604001518b610b3290919063ffffffff16565b885190610b94565b90610bed565b602086015190610bed565b9050600080610a6584610c47565b91509150600082604001518511610a89578260400151945082602001519050610b03565b84826040015111610aa7578160400151945081602001519050610b03565b6000836040015183604001510390506000846040015187039050610afe610af383610aed84610ae78a602001518a60200151610b3290919063ffffffff16565b90610b94565b90610d96565b602087015190610bed565b925050505b8486038015610b1f57610b1a81610aed8785610b32565b610b22565b60005b9c9b505050505050505050505050565b600082821115610b89576040805162461bcd60e51b815260206004820152601e60248201527f536166654d6174683a207375627472616374696f6e206f766572666c6f770000604482015290519081900360640190fd5b508082035b92915050565b600082610ba357506000610b8e565b82820282848281610bb057fe5b04146105ce5760405162461bcd60e51b8152600401808060200182810382526021815260200180610e5e6021913960400191505060405180910390fd5b6000828201838110156105ce576040805162461bcd60e51b815260206004820152601b60248201527f536166654d6174683a206164646974696f6e206f766572666c6f770000000000604482015290519081900360640190fd5b610c4f610dfd565b610c57610dfd565b6000805460ff169080610100815b81811015610cd8578760018660ff166101008110610c7f57fe5b600302016002015411610cc95760018560ff166101008110610c9d57fe5b600302016002015460001415610cbb57846001019350839250610cd8565b849350836001019250610cd8565b60001990940193600101610c65565b81811415610cf85760405162461bcd60e51b81526004016106a390610e1e565b60018460ff166101008110610d0957fe5b600302016040518060600160405290816000820154815260200160018201548152602001600282015481525050965060018360ff166101008110610d4957fe5b6003020160405180606001604052908160008201548152602001600182015481526020016002820154815250509550866040015186604001511015610d8c578695505b5050505050915091565b6000808211610dec576040805162461bcd60e51b815260206004820152601a60248201527f536166654d6174683a206469766973696f6e206279207a65726f000000000000604482015290519081900360640190fd5b818381610df557fe5b049392505050565b60405180606001604052806000815260200160008152602001600081525090565b602080825260069082015265086a8be9c8a960d31b604082015260600190565b60208082526005908201526410d517d25560da1b60408201526060019056fe536166654d6174683a206d756c7469706c69636174696f6e206f766572666c6f77a26469706673582212202a5806b9b965c6894a9315ad020457e206f054ddf9426af1b9f35a40f469bd4964736f6c63430007060033",
  "linkReferences": {},
  "deployedLinkReferences": {}
}