{
  "_format": "hh-sol-artifact-1",
  "contractName": "SurplusBeneficiary",
  "sourceName": "@perp/voting-escrow/contracts/SurplusBeneficiary.sol",
  "abi": [
    {
      "inputs": [
        {
          "internalType": "address",
          "name": "tokenArg",
          "type": "address"
        },
        {
          "internalType": "address",
          "name": "feeDistributorArg",
          "type": "address"
        },
        {
          "internalType": "address",
          "name": "treasuryArg",
          "type": "address"
        },
        {
          "internalType": "uint24",
          "name": "treasuryPercentageArg",
          "type": "uint24"
        }
      ],
      "stateMutability": "nonpayable",
      "type": "constructor"
    },
    {
      "anonymous": false,
      "inputs": [
        {
          "indexed": false,
          "internalType": "uint256",
          "name": "amountToTreasury",
          "type": "uint256"
        },
        {
          "indexed": false,
          "internalType": "uint256",
          "name": "amountToFeeDistributor",
          "type": "uint256"
        }
      ],
      "name": "Dispatch",
      "type": "event"
    },
    {
      "anonymous": false,
      "inputs": [
        {
          "indexed": false,
          "internalType": "address",
          "name": "oldValue",
          "type": "address"
        },
        {
          "indexed": false,
          "internalType": "address",
          "name": "newValue",
          "type": "address"
        }
      ],
      "name": "FeeDistributorChanged",
      "type": "event"
    },
    {
      "anonymous": false,
      "inputs": [
        {
          "indexed": true,
          "internalType": "address",
          "name": "previousOwner",
          "type": "address"
        },
        {
          "indexed": true,
          "internalType": "address",
          "name": "newOwner",
          "type": "address"
        }
      ],
      "name": "OwnershipTransferred",
      "type": "event"
    },
    {
      "anonymous": false,
      "inputs": [
        {
          "indexed": false,
          "internalType": "address",
          "name": "oldValue",
          "type": "address"
        },
        {
          "indexed": false,
          "internalType": "address",
          "name": "newValue",
          "type": "address"
        }
      ],
      "name": "TreasuryChanged",
      "type": "event"
    },
    {
      "anonymous": false,
      "inputs": [
        {
          "indexed": false,
          "internalType": "uint24",
          "name": "oldValue",
          "type": "uint24"
        },
        {
          "indexed": false,
          "internalType": "uint24",
          "name": "newValue",
          "type": "uint24"
        }
      ],
      "name": "TreasuryPercentageChanged",
      "type": "event"
    },
    {
      "inputs": [],
      "name": "dispatch",
      "outputs": [],
      "stateMutability": "nonpayable",
      "type": "function"
    },
    {
      "inputs": [],
      "name": "getFeeDistributor",
      "outputs": [
        {
          "internalType": "address",
          "name": "",
          "type": "address"
        }
      ],
      "stateMutability": "view",
      "type": "function"
    },
    {
      "inputs": [],
      "name": "getToken",
      "outputs": [
        {
          "internalType": "address",
          "name": "",
          "type": "address"
        }
      ],
      "stateMutability": "view",
      "type": "function"
    },
    {
      "inputs": [],
      "name": "getTreasury",
      "outputs": [
        {
          "internalType": "address",
          "name": "",
          "type": "address"
        }
      ],
      "stateMutability": "view",
      "type": "function"
    },
    {
      "inputs": [],
      "name": "getTreasuryPercentage",
      "outputs": [
        {
          "internalType": "uint24",
          "name": "",
          "type": "uint24"
        }
      ],
      "stateMutability": "view",
      "type": "function"
    },
    {
      "inputs": [],
      "name": "owner",
      "outputs": [
        {
          "internalType": "address",
          "name": "",
          "type": "address"
        }
      ],
      "stateMutability": "view",
      "type": "function"
    },
    {
      "inputs": [],
      "name": "renounceOwnership",
      "outputs": [],
      "stateMutability": "nonpayable",
      "type": "function"
    },
    {
      "inputs": [
        {
          "internalType": "address",
          "name": "feeDistributorArg",
          "type": "address"
        }
      ],
      "name": "setFeeDistributor",
      "outputs": [],
      "stateMutability": "nonpayable",
      "type": "function"
    },
    {
      "inputs": [
        {
          "internalType": "address",
          "name": "treasuryArg",
          "type": "address"
        }
      ],
      "name": "setTreasury",
      "outputs": [],
      "stateMutability": "nonpayable",
      "type": "function"
    },
    {
      "inputs": [
        {
          "internalType": "uint24",
          "name": "treasuryPercentageArg",
          "type": "uint24"
        }
      ],
      "name": "setTreasuryPercentage",
      "outputs": [],
      "stateMutability": "nonpayable",
      "type": "function"
    },
    {
      "inputs": [
        {
          "internalType": "address",
          "name": "newOwner",
          "type": "address"
        }
      ],
      "name": "transferOwnership",
      "outputs": [],
      "stateMutability": "nonpayable",
      "type": "function"
    }
  ],
  "bytecode": "0x60806040523480156200001157600080fd5b506040516200182138038062001821833981016040819052620000349162000585565b600160009081556200004562000120565b600180546001600160a01b0319166001600160a01b038316908117909155604051919250906000907f8be0079c531659141344cd1fd0a4f28419497f9722a3daafe3b4186f6b6457e0908290a350620000b2846001600160a01b03166200012460201b620009f41760201c565b620000da5760405162461bcd60e51b8152600401620000d1906200067d565b60405180910390fd5b600280546001600160a01b0319166001600160a01b03861617905562000100836200012e565b6200010b8262000366565b62000116816200044c565b50505050620006f5565b3390565b803b15155b919050565b6200013862000120565b6001600160a01b03166200014b6200053a565b6001600160a01b03161462000196576040805162461bcd60e51b8152602060048201819052602482015260008051602062001801833981519152604482015290519081900360640190fd5b620001b5816001600160a01b03166200012460201b620009f41760201c565b620001d45760405162461bcd60e51b8152600401620000d1906200069e565b60025460408051637e062a3560e11b815290516001600160a01b039283169284169163fc0c546a9160048083019260209291908290030181600087803b1580156200021e57600080fd5b505af115801562000233573d6000803e3d6000fd5b505050506040513d601f19601f8201168201806040525081019062000259919062000561565b6001600160a01b031614620002825760405162461bcd60e51b8152600401620000d1906200065d565b600380546001600160a01b038381166001600160a01b031983161790925560025460405163095ea7b360e01b815291831692169063095ea7b390620002d09085906000199060040162000625565b602060405180830381600087803b158015620002eb57600080fd5b505af115801562000300573d6000803e3d6000fd5b505050506040513d601f19601f82011682018060405250810190620003269190620005e9565b507f1fb7c52dab61e9e9813f7aac38f62f9ae8ee57bf319134f2bde8758a7df5893d81836040516200035a9291906200060b565b60405180910390a15050565b6200037062000120565b6001600160a01b0316620003836200053a565b6001600160a01b031614620003ce576040805162461bcd60e51b8152602060048201819052602482015260008051602062001801833981519152604482015290519081900360640190fd5b6001600160a01b038116620003f75760405162461bcd60e51b8152600401620000d1906200063e565b600480546001600160a01b038381166001600160a01b03198316179092556040519116907f8c3aa5f43a388513435861bf27dfad7829cd248696fed367c62d441f62954496906200035a90839085906200060b565b6200045662000120565b6001600160a01b0316620004696200053a565b6001600160a01b031614620004b4576040805162461bcd60e51b8152602060048201819052602482015260008051602062001801833981519152604482015290519081900360640190fd5b620f42408162ffffff161115620004df5760405162461bcd60e51b8152600401620000d190620006bf565b6004805462ffffff838116600160a01b90810262ffffff60a01b198416179093556040519290910416907f0fdd42c62b51ceb8ffd8cdf982eeb7cf3f86a3ef73c05ac03e1a08a9b5e8a200906200035a9083908590620006df565b6001546001600160a01b031690565b80516001600160a01b03811681146200012957600080fd5b60006020828403121562000573578081fd5b6200057e8262000549565b9392505050565b600080600080608085870312156200059b578283fd5b620005a68562000549565b9350620005b66020860162000549565b9250620005c66040860162000549565b9150606085015162ffffff81168114620005de578182fd5b939692955090935050565b600060208284031215620005fb578081fd5b815180151581146200057e578182fd5b6001600160a01b0392831681529116602082015260400190565b6001600160a01b03929092168252602082015260400190565b60208082526005908201526429a12faa2d60d91b604082015260600190565b60208082526006908201526553425f544e4d60d01b604082015260600190565b60208082526007908201526653425f54414e4360c81b604082015260600190565b60208082526007908201526653425f46444e4360c81b604082015260600190565b60208082526006908201526553425f54504f60d01b604082015260600190565b62ffffff92831681529116602082015260400190565b6110fc80620007056000396000f3fe608060405234801561001057600080fd5b50600436106100a95760003560e01c80638da5cb5b116100715780638da5cb5b14610106578063c89131731461010e578063ccfc2e8d14610116578063e9c4a3ac14610129578063f0f4426014610131578063f2fde38b14610144576100a9565b806321df0da7146100ae57806324f33a5b146100cc5780633b19e84a146100e1578063715018a6146100e957806386be65d8146100f3575b600080fd5b6100b6610157565b6040516100c39190610ebc565b60405180910390f35b6100d4610166565b6040516100c39190610fe4565b6100b6610178565b6100f1610187565b005b6100f1610101366004610e81565b610233565b6100b661032b565b6100b661033a565b6100f1610124366004610e29565b610349565b6100f1610550565b6100f161013f366004610e29565b610816565b6100f1610152366004610e29565b6108f1565b6002546001600160a01b031690565b600454600160a01b900462ffffff1690565b6004546001600160a01b031690565b61018f6109fa565b6001600160a01b03166101a061032b565b6001600160a01b0316146101e9576040805162461bcd60e51b8152602060048201819052602482015260008051602061107d833981519152604482015290519081900360640190fd5b6001546040516000916001600160a01b0316907f8be0079c531659141344cd1fd0a4f28419497f9722a3daafe3b4186f6b6457e0908390a3600180546001600160a01b0319169055565b61023b6109fa565b6001600160a01b031661024c61032b565b6001600160a01b031614610295576040805162461bcd60e51b8152602060048201819052602482015260008051602061107d833981519152604482015290519081900360640190fd5b620f42408162ffffff1611156102c65760405162461bcd60e51b81526004016102bd90610fc4565b60405180910390fd5b6004805462ffffff838116600160a01b90810262ffffff60a01b198416179093556040519290910416907f0fdd42c62b51ceb8ffd8cdf982eeb7cf3f86a3ef73c05ac03e1a08a9b5e8a2009061031f9083908590610ff4565b60405180910390a15050565b6001546001600160a01b031690565b6003546001600160a01b031690565b6103516109fa565b6001600160a01b031661036261032b565b6001600160a01b0316146103ab576040805162461bcd60e51b8152602060048201819052602482015260008051602061107d833981519152604482015290519081900360640190fd5b6103bd816001600160a01b03166109f4565b6103d95760405162461bcd60e51b81526004016102bd90610fa3565b60025460408051637e062a3560e11b815290516001600160a01b039283169284169163fc0c546a9160048083019260209291908290030181600087803b15801561042257600080fd5b505af1158015610436573d6000803e3d6000fd5b505050506040513d601f19601f8201168201806040525081019061045a9190610e45565b6001600160a01b0316146104805760405162461bcd60e51b81526004016102bd90610f83565b600380546001600160a01b038381166001600160a01b031983161790925560025460405163095ea7b360e01b815291831692169063095ea7b3906104cc90859060001990600401610eea565b602060405180830381600087803b1580156104e657600080fd5b505af11580156104fa573d6000803e3d6000fd5b505050506040513d601f19601f8201168201806040525081019061051e9190610e61565b507f1fb7c52dab61e9e9813f7aac38f62f9ae8ee57bf319134f2bde8758a7df5893d818360405161031f929190610ed0565b600260005414156105a8576040805162461bcd60e51b815260206004820152601f60248201527f5265656e7472616e637947756172643a207265656e7472616e742063616c6c00604482015290519081900360640190fd5b6002600081815590546040516370a0823160e01b81526001600160a01b03909116919082906370a08231906105e1903090600401610ebc565b60206040518083038186803b1580156105f957600080fd5b505afa15801561060d573d6000803e3d6000fd5b505050506040513d601f19601f820116820180604052508101906106319190610ea4565b9050806106505760405162461bcd60e51b81526004016102bd90610f23565b600454600090610671908390600160a01b900462ffffff16620f42406109fe565b60045490915061068c9084906001600160a01b031683610aae565b60035460405163226bf2d160e21b81526001600160a01b03909116906389afcb44906106bc908690600401610ebc565b602060405180830381600087803b1580156106d657600080fd5b505af11580156106ea573d6000803e3d6000fd5b505050506040513d601f19601f8201168201806040525081019061070e9190610e61565b61072a5760405162461bcd60e51b81526004016102bd90610f43565b6040516370a0823160e01b81526000906001600160a01b038516906370a0823190610759903090600401610ebc565b60206040518083038186803b15801561077157600080fd5b505afa158015610785573d6000803e3d6000fd5b505050506040513d601f19601f820116820180604052508101906107a99190610ea4565b905080156107c95760405162461bcd60e51b81526004016102bd90610f03565b7fa66b62fcfc4f2cd2a0ab2a07eb8e19b90c5872d8bc4a4338c18038e8d444dd25826107f58582610b05565b60405161080392919061100a565b60405180910390a1505060016000555050565b61081e6109fa565b6001600160a01b031661082f61032b565b6001600160a01b031614610878576040805162461bcd60e51b8152602060048201819052602482015260008051602061107d833981519152604482015290519081900360640190fd5b6001600160a01b03811661089e5760405162461bcd60e51b81526004016102bd90610f64565b600480546001600160a01b038381166001600160a01b03198316179092556040519116907f8c3aa5f43a388513435861bf27dfad7829cd248696fed367c62d441f629544969061031f9083908590610ed0565b6108f96109fa565b6001600160a01b031661090a61032b565b6001600160a01b031614610953576040805162461bcd60e51b8152602060048201819052602482015260008051602061107d833981519152604482015290519081900360640190fd5b6001600160a01b0381166109985760405162461bcd60e51b81526004018080602001828103825260268152602001806110316026913960400191505060405180910390fd5b6001546040516001600160a01b038084169216907f8be0079c531659141344cd1fd0a4f28419497f9722a3daafe3b4186f6b6457e090600090a3600180546001600160a01b0319166001600160a01b0392909216919091179055565b3b151590565b3390565b6000808060001985870986860292508281109083900303905080610a345760008411610a2957600080fd5b508290049050610aa7565b808411610a4057600080fd5b6000848688096000868103871696879004966002600389028118808a02820302808a02820302808a02820302808a02820302808a02820302808a02909103029181900381900460010186841190950394909402919094039290920491909117919091029150505b9392505050565b604080516001600160a01b038416602482015260448082018490528251808303909101815260649091019091526020810180516001600160e01b031663a9059cbb60e01b179052610b00908490610b62565b505050565b600082821115610b5c576040805162461bcd60e51b815260206004820152601e60248201527f536166654d6174683a207375627472616374696f6e206f766572666c6f770000604482015290519081900360640190fd5b50900390565b6000610bb7826040518060400160405280602081526020017f5361666545524332303a206c6f772d6c6576656c2063616c6c206661696c6564815250856001600160a01b0316610c139092919063ffffffff16565b805190915015610b0057808060200190516020811015610bd657600080fd5b5051610b005760405162461bcd60e51b815260040180806020018281038252602a81526020018061109d602a913960400191505060405180910390fd5b6060610c228484600085610c2a565b949350505050565b606082471015610c6b5760405162461bcd60e51b81526004018080602001828103825260268152602001806110576026913960400191505060405180910390fd5b610c74856109f4565b610cc5576040805162461bcd60e51b815260206004820152601d60248201527f416464726573733a2063616c6c20746f206e6f6e2d636f6e7472616374000000604482015290519081900360640190fd5b600080866001600160a01b031685876040518082805190602001908083835b60208310610d035780518252601f199092019160209182019101610ce4565b6001836020036101000a03801982511681845116808217855250505050505090500191505060006040518083038185875af1925050503d8060008114610d65576040519150601f19603f3d011682016040523d82523d6000602084013e610d6a565b606091505b5091509150610d7a828286610d85565b979650505050505050565b60608315610d94575081610aa7565b825115610da45782518084602001fd5b8160405162461bcd60e51b81526004018080602001828103825283818151815260200191508051906020019080838360005b83811015610dee578181015183820152602001610dd6565b50505050905090810190601f168015610e1b5780820380516001836020036101000a031916815260200191505b509250505060405180910390fd5b600060208284031215610e3a578081fd5b8135610aa781611018565b600060208284031215610e56578081fd5b8151610aa781611018565b600060208284031215610e72578081fd5b81518015158114610aa7578182fd5b600060208284031215610e92578081fd5b813562ffffff81168114610aa7578182fd5b600060208284031215610eb5578081fd5b5051919050565b6001600160a01b0391909116815260200190565b6001600160a01b0392831681529116602082015260400190565b6001600160a01b03929092168252602082015260400190565b60208082526006908201526529a12fa1272d60d11b604082015260600190565b60208082526006908201526529a12faa20ad60d11b604082015260600190565b60208082526007908201526629a12fa322212360c91b604082015260600190565b60208082526005908201526429a12faa2d60d91b604082015260600190565b60208082526006908201526553425f544e4d60d01b604082015260600190565b60208082526007908201526653425f46444e4360c81b604082015260600190565b60208082526006908201526553425f54504f60d01b604082015260600190565b62ffffff91909116815260200190565b62ffffff92831681529116602082015260400190565b918252602082015260400190565b6001600160a01b038116811461102d57600080fd5b5056fe4f776e61626c653a206e6577206f776e657220697320746865207a65726f2061646472657373416464726573733a20696e73756666696369656e742062616c616e636520666f722063616c6c4f776e61626c653a2063616c6c6572206973206e6f7420746865206f776e65725361666545524332303a204552433230206f7065726174696f6e20646964206e6f742073756363656564a26469706673582212208deba62042d72fb699e41069344cf095b1fb95be0c902c7e7007f4ba5ec224e664736f6c634300070600334f776e61626c653a2063616c6c6572206973206e6f7420746865206f776e6572",
  "linkReferences": {},
  "deployedLinkReferences": {}
}